{
  "_format": "hh-sol-artifact-1",
  "contractName": "GovernanceModule",
  "sourceName": "contracts/protocol/GovernanceModule.sol",
  "abi": [
    {
      "inputs": [],
      "stateMutability": "nonpayable",
      "type": "constructor"
    },
    {
      "inputs": [],
      "name": "AdminModeNotActive",
      "type": "error"
    },
    {
      "inputs": [],
      "name": "AlreadyInitialized",
      "type": "error"
    },
    {
      "inputs": [],
      "name": "AlreadyVoted",
      "type": "error"
    },
    {
      "inputs": [],
      "name": "ArrayLengthMismatch",
      "type": "error"
    },
    {
      "inputs": [],
      "name": "BelowProposalThreshold",
      "type": "error"
    },
    {
      "inputs": [],
      "name": "InvalidImplementation",
      "type": "error"
    },
    {
      "inputs": [],
      "name": "InvalidImplementation",
      "type": "error"
    },
    {
      "inputs": [],
      "name": "InvalidProposal",
      "type": "error"
    },
    {
      "inputs": [
        {
          "internalType": "address",
          "name": "account",
          "type": "address"
        },
        {
          "internalType": "bytes32",
          "name": "role",
          "type": "bytes32"
        }
      ],
      "name": "MissingRole",
      "type": "error"
    },
    {
      "inputs": [],
      "name": "NotInitializing",
      "type": "error"
    },
    {
      "inputs": [],
      "name": "ProposalAlreadyExecuted",
      "type": "error"
    },
    {
      "inputs": [],
      "name": "ProposalIsCancelled",
      "type": "error"
    },
    {
      "inputs": [],
      "name": "ProposalNotPassed",
      "type": "error"
    },
    {
      "inputs": [],
      "name": "QuorumNotMet",
      "type": "error"
    },
    {
      "inputs": [],
      "name": "UUPSNotThroughActiveProxy",
      "type": "error"
    },
    {
      "inputs": [],
      "name": "UUPSNotThroughProxy",
      "type": "error"
    },
    {
      "inputs": [],
      "name": "Unauthorized",
      "type": "error"
    },
    {
      "inputs": [],
      "name": "UnauthorizedUpgrade",
      "type": "error"
    },
    {
      "inputs": [],
      "name": "VotingClosed",
      "type": "error"
    },
    {
      "anonymous": false,
      "inputs": [],
      "name": "AdminModeDeactivated",
      "type": "event"
    },
    {
      "anonymous": false,
      "inputs": [
        {
          "indexed": false,
          "internalType": "uint64",
          "name": "version",
          "type": "uint64"
        }
      ],
      "name": "Initialized",
      "type": "event"
    },
    {
      "anonymous": false,
      "inputs": [
        {
          "indexed": true,
          "internalType": "uint256",
          "name": "proposalId",
          "type": "uint256"
        }
      ],
      "name": "ProposalCancelled",
      "type": "event"
    },
    {
      "anonymous": false,
      "inputs": [
        {
          "indexed": true,
          "internalType": "uint256",
          "name": "proposalId",
          "type": "uint256"
        },
        {
          "indexed": true,
          "internalType": "address",
          "name": "proposer",
          "type": "address"
        },
        {
          "indexed": false,
          "internalType": "string",
          "name": "description",
          "type": "string"
        }
      ],
      "name": "ProposalCreated",
      "type": "event"
    },
    {
      "anonymous": false,
      "inputs": [
        {
          "indexed": true,
          "internalType": "uint256",
          "name": "proposalId",
          "type": "uint256"
        }
      ],
      "name": "ProposalExecuted",
      "type": "event"
    },
    {
      "anonymous": false,
      "inputs": [
        {
          "indexed": true,
          "internalType": "bytes32",
          "name": "role",
          "type": "bytes32"
        },
        {
          "indexed": true,
          "internalType": "bytes32",
          "name": "previousAdminRole",
          "type": "bytes32"
        },
        {
          "indexed": true,
          "internalType": "bytes32",
          "name": "newAdminRole",
          "type": "bytes32"
        }
      ],
      "name": "RoleAdminChanged",
      "type": "event"
    },
    {
      "anonymous": false,
      "inputs": [
        {
          "indexed": true,
          "internalType": "bytes32",
          "name": "role",
          "type": "bytes32"
        },
        {
          "indexed": true,
          "internalType": "address",
          "name": "account",
          "type": "address"
        },
        {
          "indexed": true,
          "internalType": "address",
          "name": "sender",
          "type": "address"
        }
      ],
      "name": "RoleGranted",
      "type": "event"
    },
    {
      "anonymous": false,
      "inputs": [
        {
          "indexed": true,
          "internalType": "bytes32",
          "name": "role",
          "type": "bytes32"
        },
        {
          "indexed": true,
          "internalType": "address",
          "name": "account",
          "type": "address"
        },
        {
          "indexed": true,
          "internalType": "address",
          "name": "sender",
          "type": "address"
        }
      ],
      "name": "RoleRevoked",
      "type": "event"
    },
    {
      "anonymous": false,
      "inputs": [
        {
          "indexed": true,
          "internalType": "address",
          "name": "implementation",
          "type": "address"
        }
      ],
      "name": "Upgraded",
      "type": "event"
    },
    {
      "anonymous": false,
      "inputs": [
        {
          "indexed": true,
          "internalType": "uint256",
          "name": "proposalId",
          "type": "uint256"
        },
        {
          "indexed": true,
          "internalType": "address",
          "name": "voter",
          "type": "address"
        },
        {
          "indexed": false,
          "internalType": "bool",
          "name": "support",
          "type": "bool"
        },
        {
          "indexed": false,
          "internalType": "uint256",
          "name": "weight",
          "type": "uint256"
        }
      ],
      "name": "VoteCast",
      "type": "event"
    },
    {
      "inputs": [],
      "name": "ADMIN_ROLE",
      "outputs": [
        {
          "internalType": "bytes32",
          "name": "",
          "type": "bytes32"
        }
      ],
      "stateMutability": "view",
      "type": "function"
    },
    {
      "inputs": [],
      "name": "DEFAULT_ADMIN_ROLE",
      "outputs": [
        {
          "internalType": "bytes32",
          "name": "",
          "type": "bytes32"
        }
      ],
      "stateMutability": "view",
      "type": "function"
    },
    {
      "inputs": [
        {
          "internalType": "address",
          "name": "target",
          "type": "address"
        },
        {
          "internalType": "uint256",
          "name": "value",
          "type": "uint256"
        },
        {
          "internalType": "bytes",
          "name": "data",
          "type": "bytes"
        },
        {
          "internalType": "uint256",
          "name": "eta",
          "type": "uint256"
        }
      ],
      "name": "adminExecute",
      "outputs": [],
      "stateMutability": "nonpayable",
      "type": "function"
    },
    {
      "inputs": [],
      "name": "adminModeActive",
      "outputs": [
        {
          "internalType": "bool",
          "name": "",
          "type": "bool"
        }
      ],
      "stateMutability": "view",
      "type": "function"
    },
    {
      "inputs": [
        {
          "internalType": "uint256",
          "name": "proposalId",
          "type": "uint256"
        }
      ],
      "name": "cancel",
      "outputs": [],
      "stateMutability": "nonpayable",
      "type": "function"
    },
    {
      "inputs": [
        {
          "internalType": "uint256",
          "name": "proposalId",
          "type": "uint256"
        },
        {
          "internalType": "bool",
          "name": "support",
          "type": "bool"
        }
      ],
      "name": "castVote",
      "outputs": [],
      "stateMutability": "nonpayable",
      "type": "function"
    },
    {
      "inputs": [],
      "name": "deactivateAdminMode",
      "outputs": [],
      "stateMutability": "nonpayable",
      "type": "function"
    },
    {
      "inputs": [
        {
          "internalType": "uint256",
          "name": "proposalId",
          "type": "uint256"
        },
        {
          "internalType": "uint256",
          "name": "eta",
          "type": "uint256"
        }
      ],
      "name": "execute",
      "outputs": [],
      "stateMutability": "nonpayable",
      "type": "function"
    },
    {
      "inputs": [
        {
          "internalType": "uint256",
          "name": "proposalId",
          "type": "uint256"
        }
      ],
      "name": "getProposalState",
      "outputs": [
        {
          "internalType": "enum GovernanceModule.ProposalState",
          "name": "",
          "type": "uint8"
        }
      ],
      "stateMutability": "view",
      "type": "function"
    },
    {
      "inputs": [
        {
          "internalType": "bytes32",
          "name": "role",
          "type": "bytes32"
        }
      ],
      "name": "getRoleAdmin",
      "outputs": [
        {
          "internalType": "bytes32",
          "name": "",
          "type": "bytes32"
        }
      ],
      "stateMutability": "view",
      "type": "function"
    },
    {
      "inputs": [
        {
          "internalType": "bytes32",
          "name": "role",
          "type": "bytes32"
        },
        {
          "internalType": "address",
          "name": "account",
          "type": "address"
        }
      ],
      "name": "grantRole",
      "outputs": [],
      "stateMutability": "nonpayable",
      "type": "function"
    },
    {
      "inputs": [
        {
          "internalType": "bytes32",
          "name": "role",
          "type": "bytes32"
        },
        {
          "internalType": "address",
          "name": "account",
          "type": "address"
        }
      ],
      "name": "hasRole",
      "outputs": [
        {
          "internalType": "bool",
          "name": "",
          "type": "bool"
        }
      ],
      "stateMutability": "view",
      "type": "function"
    },
    {
      "inputs": [
        {
          "internalType": "uint256",
          "name": "",
          "type": "uint256"
        },
        {
          "internalType": "address",
          "name": "",
          "type": "address"
        }
      ],
      "name": "hasVoted",
      "outputs": [
        {
          "internalType": "bool",
          "name": "",
          "type": "bool"
        }
      ],
      "stateMutability": "view",
      "type": "function"
    },
    {
      "inputs": [
        {
          "internalType": "address",
          "name": "_votingToken",
          "type": "address"
        },
        {
          "internalType": "address",
          "name": "_timelock",
          "type": "address"
        },
        {
          "internalType": "address",
          "name": "_admin",
          "type": "address"
        },
        {
          "internalType": "uint256",
          "name": "_proposalThreshold",
          "type": "uint256"
        },
        {
          "internalType": "uint256",
          "name": "_votingPeriod",
          "type": "uint256"
        },
        {
          "internalType": "uint256",
          "name": "_quorumVotes",
          "type": "uint256"
        }
      ],
      "name": "initialize",
      "outputs": [],
      "stateMutability": "nonpayable",
      "type": "function"
    },
    {
      "inputs": [],
      "name": "proposalCount",
      "outputs": [
        {
          "internalType": "uint256",
          "name": "",
          "type": "uint256"
        }
      ],
      "stateMutability": "view",
      "type": "function"
    },
    {
      "inputs": [],
      "name": "proposalThreshold",
      "outputs": [
        {
          "internalType": "uint256",
          "name": "",
          "type": "uint256"
        }
      ],
      "stateMutability": "view",
      "type": "function"
    },
    {
      "inputs": [
        {
          "internalType": "uint256",
          "name": "",
          "type": "uint256"
        }
      ],
      "name": "proposals",
      "outputs": [
        {
          "internalType": "address",
          "name": "proposer",
          "type": "address"
        },
        {
          "internalType": "string",
          "name": "description",
          "type": "string"
        },
        {
          "internalType": "uint256",
          "name": "startBlock",
          "type": "uint256"
        },
        {
          "internalType": "uint256",
          "name": "endBlock",
          "type": "uint256"
        },
        {
          "internalType": "uint256",
          "name": "forVotes",
          "type": "uint256"
        },
        {
          "internalType": "uint256",
          "name": "againstVotes",
          "type": "uint256"
        },
        {
          "internalType": "bool",
          "name": "executed",
          "type": "bool"
        },
        {
          "internalType": "bool",
          "name": "cancelled",
          "type": "bool"
        }
      ],
      "stateMutability": "view",
      "type": "function"
    },
    {
      "inputs": [
        {
          "internalType": "address[]",
          "name": "targets",
          "type": "address[]"
        },
        {
          "internalType": "uint256[]",
          "name": "values",
          "type": "uint256[]"
        },
        {
          "internalType": "bytes[]",
          "name": "calldatas",
          "type": "bytes[]"
        },
        {
          "internalType": "string",
          "name": "description",
          "type": "string"
        }
      ],
      "name": "propose",
      "outputs": [
        {
          "internalType": "uint256",
          "name": "proposalId",
          "type": "uint256"
        }
      ],
      "stateMutability": "nonpayable",
      "type": "function"
    },
    {
      "inputs": [],
      "name": "proxiableUUID",
      "outputs": [
        {
          "internalType": "bytes32",
          "name": "",
          "type": "bytes32"
        }
      ],
      "stateMutability": "view",
      "type": "function"
    },
    {
      "inputs": [],
      "name": "quorumVotes",
      "outputs": [
        {
          "internalType": "uint256",
          "name": "",
          "type": "uint256"
        }
      ],
      "stateMutability": "view",
      "type": "function"
    },
    {
      "inputs": [
        {
          "internalType": "bytes32",
          "name": "role",
          "type": "bytes32"
        },
        {
          "internalType": "address",
          "name": "callerConfirmation",
          "type": "address"
        }
      ],
      "name": "renounceRole",
      "outputs": [],
      "stateMutability": "nonpayable",
      "type": "function"
    },
    {
      "inputs": [
        {
          "internalType": "bytes32",
          "name": "role",
          "type": "bytes32"
        },
        {
          "internalType": "address",
          "name": "account",
          "type": "address"
        }
      ],
      "name": "revokeRole",
      "outputs": [],
      "stateMutability": "nonpayable",
      "type": "function"
    },
    {
      "inputs": [],
      "name": "timelock",
      "outputs": [
        {
          "internalType": "address",
          "name": "",
          "type": "address"
        }
      ],
      "stateMutability": "view",
      "type": "function"
    },
    {
      "inputs": [
        {
          "internalType": "address",
          "name": "newImplementation",
          "type": "address"
        },
        {
          "internalType": "bytes",
          "name": "data",
          "type": "bytes"
        }
      ],
      "name": "upgradeToAndCall",
      "outputs": [],
      "stateMutability": "payable",
      "type": "function"
    },
    {
      "inputs": [
        {
          "internalType": "uint256",
          "name": "",
          "type": "uint256"
        },
        {
          "internalType": "address",
          "name": "",
          "type": "address"
        }
      ],
      "name": "voteSnapshot",
      "outputs": [
        {
          "internalType": "uint256",
          "name": "",
          "type": "uint256"
        }
      ],
      "stateMutability": "view",
      "type": "function"
    },
    {
      "inputs": [],
      "name": "votingPeriod",
      "outputs": [
        {
          "internalType": "uint256",
          "name": "",
          "type": "uint256"
        }
      ],
      "stateMutability": "view",
      "type": "function"
    },
    {
      "inputs": [],
      "name": "votingToken",
      "outputs": [
        {
          "internalType": "address",
          "name": "",
          "type": "address"
        }
      ],
      "stateMutability": "view",
      "type": "function"
    }
  ],
  "bytecode": "0x60a080604052346100c55730608052600080516020611cc78339815191525460ff8160401c166100b5576002600160401b03196001600160401b03821601610061575b604051611bfc90816100cb8239608051818181610d910152610e6e0152f35b6001600160401b0319166001600160401b03908117600080516020611cc78339815191525581527fc7f505b2f371ae2175ee4913f4499e1f2633a7b5936321eed1cdaeb6115181d290602090a13880610042565b62dc149f60e41b60005260046000fd5b600080fdfe608080604052600436101561001357600080fd5b60003560e01c908163013cf08b146113c85750806302a251a3146113aa57806315373e3d146112765780631de313211461122e578063248a9ca3146111f957806324bc1a64146111db5780632f2ff15d1461119b57806336568abe1461114c57806340e58ee51461109d57806343859632146110505780634f1ef28614610dfa57806352d1902d14610d7e5780635601eaea14610b36578063728cdbca1461098057806375b238fc146109455780637d5e81e2146104385780638bcfd504146104155780639080936f146103d057806391d1485414610383578063a217fddf14610367578063b03401231461033e578063b58131b014610320578063b7752981146102d5578063cc3fe465146101dd578063d33219b4146101b4578063d547741f1461016b5763da35c6641461014857600080fd5b34610166576000366003190112610166576020600654604051908152f35b600080fd5b34610166576040366003190112610166576101b260043561018a611591565b906101ad6101a682600052600060205260016040600020015490565b33906118c0565b611afe565b005b34610166576000366003190112610166576002546040516001600160a01b039091168152602090f35b34610166576080366003190112610166576101f66115a7565b6044356001600160401b03811161016657610215903690600401611608565b9061021f3361184b565b60ff600a5416156102c557600254604051638e361cdf60e01b81526001600160a01b039485166004820152602480359082015260806044820152936020938593919092169183916000918391610279916084840191611700565b606435606483015203925af180156102b95761029157005b6101b29060203d6020116102b2575b6102aa8183611570565b810190611670565b503d6102a0565b6040513d6000823e3d90fd5b6248d7ed60e41b60005260046000fd5b34610166576000366003190112610166576102ef3361184b565b60ff19600a5416600a557fb6533d1d183477060ae1f3385daf5f4627132ef730c01a1dae31169c65c461c5600080a1005b34610166576000366003190112610166576020600354604051908152f35b34610166576000366003190112610166576001546040516001600160a01b039091168152602090f35b3461016657600036600319011261016657602060405160008152f35b346101665760403660031901126101665761039c611591565b600435600052600060205260406000209060018060a01b0316600052602052602060ff604060002054166040519015158152f35b34610166576020366003190112610166576103ec600435611721565b60405160078210156103ff576020918152f35b634e487b7160e01b600052602160045260246000fd5b3461016657600036600319011261016657602060ff600a54166040519015158152f35b34610166576080366003190112610166576004356001600160401b038111610166576104689036906004016115d8565b906024356001600160401b038111610166576104889036906004016115d8565b906044356001600160401b038111610166576104a89036906004016115d8565b906064356001600160401b038111610166576104c8903690600401611608565b94909387156109345781881480159061092a575b610919576104e9336117d6565b600354116109085760065460001981146106b7576001019687600655876000526007602052604060002098336001600160601b0360a01b8b5416178a5560018a01916001600160401b03821161073b57600160401b821161073b5761055382845481865585611696565b916000526020600020916000905b8282106108e3575050505060028801906001600160401b03831161073b57600160401b831161073b5761059983835481855584611696565b90600052602060002060005b8381106108cf57505050506003860191600160401b811161073b578254818455808210610851575b50908092600052602060002092600091601e1981360301915b84841061075157505050505050600484016001600160401b03831161073b57610619836106138354611536565b836116bb565b600083601f81116001146106d85780610648926000916106cd575b508160011b916000199060031b1c19161790565b90555b60014301938443116106b7576106ac84928260066106958960209a60057f7585f467599d0f008985f231af99293be388626ac16ca59505c2f8f88969cd6398015560045490611635565b910155604051918291888352339689840191611700565b0390a3604051908152f35b634e487b7160e01b600052601160045260246000fd5b905084013588610634565b50818152602081209084601f198116825b818110610720575010610706575b5050600183811b01905561064b565b830135600019600386901b60f8161c1916905585806106f7565b868401358555600190940193602093840193889350016106e9565b634e487b7160e01b600052604160045260246000fd5b8035838112156101665782018035906001600160401b038211610166578136036020820113610166576000906107918361078b8b54611536565b8b6116bb565b81601f84116001146107e35783600195929460209487966107c794926107d6575b50508160011b916000199060031b1c19161790565b89555b019601930192946105e6565b86925001013538806107b2565b91601f1984168a845260208420935b818110610837575093602093600196938796938388951061081b575b505050811b0189556107ca565b01850135600019600384901b60f8161c191690558f808061080e565b9193602060018192828888010135815501950192016107f2565b8360005281602060002091820191015b81811061086e57506105cd565b8061087b60019254611536565b80610888575b5001610861565b601f8111831461089e5750600081555b8a610881565b6108bc908260005283601f6020600020920160051c8201910161167f565b8060005260006020812081835555610898565b6001906020843594019381840155016105a5565b8035916001600160a01b03831683036101665760206001920192818601550190610561565b63f6430a3160e01b60005260046000fd5b63512509d360e11b60005260046000fd5b50838814156104dc565b631dc0650160e31b60005260046000fd5b346101665760003660031901126101665760206040517fa49807205ce4d355092ef5a8a18f56e8913cf4a201fbe287825b095693c217758152f35b346101665760c0366003190112610166576109996115a7565b6109a1611591565b6044356001600160a01b038116810361016657600080516020611ba7833981519152549160ff8360401c1615936001600160401b038416600181101580610b2f575b610b1757151580610b27575b610b1757610a8f9385610aef575b5060016001600160401b0319600080516020611ba7833981519152541617600080516020611ba78339815191525560018060a01b03166001600160601b0360a01b600154161760015560018060a01b03166001600160601b0360a01b600254161760025560643560035560843560045560a435600555600160ff19600a541617600a55610a898161190e565b506119c1565b50610a9657005b68ff000000000000000019600080516020611ba78339815191525416600080516020611ba7833981519152557fc7f505b2f371ae2175ee4913f4499e1f2633a7b5936321eed1cdaeb6115181d2602060405160018152a1005b68ff00000000000000001916600160401b17600080516020611ba783398151915255856109fd565b62dc149f60e41b60005260046000fd5b5084156109ef565b50856109e3565b346101665760403660031901126101665760043560243581600052600760205260406000209060098201805460ff8116610d6d5760ff8160081c16610d5c576006840154431115610d4b5760078401546005548110610d3a5760088501541015610d295760019060ff959495191617905560009260018101916003600283019201945b8354811015610d01576002546001600160a01b031690610bd98186611642565b905460039190911b1c6001600160a01b031691610bf68286611642565b90549060031b1c92610c08838a611642565b50604051948592638e361cdf60e01b84526004840152602483015260806044830152600090805490610c3982611536565b91826084860152600181169081600014610cdb5750600114610c9e575b5050918160008160209589606483015203925af19182156102b957600192610c80575b5001610bb9565b610c979060203d81116102b2576102aa8183611570565b5087610c79565b6000908152602081209092505b818310610cc1575050810160a401816000610c56565b805460a48489010152869350602090920191600101610cab565b60ff191660a48087019190915292151560051b8501909201925083915060009050610c56565b847f712ae1383f79ac853f8d882153778e0260ef8f03b504e2866e0593e04d2b291f600080a2005b63c8c93ba360e01b60005260046000fd5b636bcf412560e11b60005260046000fd5b63335b65a560e11b60005260046000fd5b63a129955160e01b60005260046000fd5b6351618d5360e01b60005260046000fd5b34610166576000366003190112610166577f00000000000000000000000000000000000000000000000000000000000000006001600160a01b03163003610de95760206040517f360894a13ba1a3210667c828492db98dca3e2076cc3735a920a3ca505d382bbc8152f35b6345a93fc960e01b60005260046000fd5b604036600319011261016657610e0e6115a7565b602435906001600160401b0382116101665736602383011215610166578160040135610e39816115bd565b90610e476040519283611570565b808252602082019336602483830101116101665781600092602460209301873783010152307f00000000000000000000000000000000000000000000000000000000000000006001600160a01b03161461103f573360009081527fad3228b676f7d3cd4284a5443f17f1962b36e491b30a40b2405849e597ba5fb5602052604090205460ff1615611026576040516352d1902d60e01b81526001600160a01b03831690602081600481855afa60009181610ff2575b50610f125763340aafcd60e11b60005260046000fd5b7f360894a13ba1a3210667c828492db98dca3e2076cc3735a920a3ca505d382bbc03610fe157823b15610fe157827f360894a13ba1a3210667c828492db98dca3e2076cc3735a920a3ca505d382bbc557fbc7cd75a20ee27fd9adebab32041f755214dbc6bffa90cc0225b39da2e5c2d3b600080a25180610f8f57005b60009283925af4610f9e6117a6565b5015610fa657005b60405162461bcd60e51b81526020600482015260136024820152721d5c19dc985919481a5b9a5d0819985a5b1959606a1b6044820152606490fd5b63340aafcd60e11b60005260046000fd5b9091506020813d60201161101e575b8161100e60209383611570565b8101031261016657519086610efc565b3d9150611001565b62b0d32560e11b60005233600452600060245260446000fd5b6309e1070b60e31b60005260046000fd5b3461016657604036600319011261016657611069611591565b600435600052600860205260406000209060018060a01b0316600052602052602060ff604060002054166040519015158152f35b3461016657602036600319011261016657600435806000526007602052604060002060018060a01b0381541633141580611125575b61111557600901805460ff8116610d6d5761ff0019166101001790557f416e669c63d9a3a5e36ee7cc7e2104b8db28ccd286aa18966e98fa230c73b08c600080a2005b6282b42960e81b60005260046000fd5b50336000908152600080516020611b87833981519152602052604090205460ff16156110d2565b3461016657604036600319011261016657600435611168611591565b336001600160a01b0390911603611184576101b2903390611afe565b62b0d32560e11b6000523360045260245260446000fd5b34610166576040366003190112610166576101b26004356111ba611591565b906111d66101a682600052600060205260016040600020015490565b611a72565b34610166576000366003190112610166576020600554604051908152f35b34610166576020366003190112610166576020611226600435600052600060205260016040600020015490565b604051908152f35b3461016657604036600319011261016657611247611591565b600435600052600960205260406000209060018060a01b03166000526020526020604060002054604051908152f35b3461016657604036600319011261016657600435602435908115159182810361016657816000526007602052604060002060058101544310801561139d575b610d4b5760ff600982015460081c16610d5c57600083815260086020908152604080832033845290915290205460ff1661138c576112f2336117d6565b600084815260086020908152604080832033808552908352818420805460ff19166001179055878452600983528184209084529091529020819055911561137757600701611341828254611635565b90555b60405192835260208301527fcbdf6214089cba887ecbf35a0b6a734589959c9763342c756bb2a80ca2bc9f6e60403393a3005b600801611385828254611635565b9055611344565b637c9a1cf960e01b60005260046000fd5b50600681015443116112b5565b34610166576000366003190112610166576020600454604051908152f35b34610166576020366003190112610166576004356000526007602052604060002060018060a01b03815416906004810183600082549261140784611536565b808452936001811690811561151457506001146114cd575b5061142c92500384611570565b6005810154906006810154906007810154600960088301549201549260405195865261010060208701528651948561010088015260005b8681106114b657509260ff9287959287956000610120809a8a01015260408801526060870152608086015260a0850152818116151560c085015260081c16151560e0830152601f80199101168101030190f35b80602080928b010151610120828b01015201611463565b90506000929192526020600020906000915b8183106114f857505090602061142c928201018661141f565b6020919350806001915483858a010152019101909185926114df565b90506020925061142c94915060ff191682840152151560051b8201018661141f565b90600182811c92168015611566575b602083101461155057565b634e487b7160e01b600052602260045260246000fd5b91607f1691611545565b90601f801991011681019081106001600160401b0382111761073b57604052565b602435906001600160a01b038216820361016657565b600435906001600160a01b038216820361016657565b6001600160401b03811161073b57601f01601f191660200190565b9181601f84011215610166578235916001600160401b038311610166576020808501948460051b01011161016657565b9181601f84011215610166578235916001600160401b038311610166576020838186019501011161016657565b919082018092116106b757565b805482101561165a5760005260206000200190600090565b634e487b7160e01b600052603260045260246000fd5b90816020910312610166575190565b81811061168a575050565b6000815560010161167f565b918181106116a357505050565b6116b9926000526020600020918201910161167f565b565b9190601f81116116ca57505050565b6116b9926000526020600020906020601f840160051c830193106116f6575b601f0160051c019061167f565b90915081906116e9565b908060209392818452848401376000828201840152601f01601f1916010190565b60005260076020526040600020600981015460ff8160081c1661179f5760ff16611799576005810154431061179357600681015443111561178d576007810154600554811091821561177e575b505061177957600390565b600290565b6008015410159050388061176e565b50600190565b50600090565b50600590565b5050600690565b3d156117d1573d906117b7826115bd565b916117c56040519384611570565b82523d6000602084013e565b606090565b6001546040516370a0823160e01b602082019081526001600160a01b03938416602480840191909152825260009384931691611813604482611570565b51915afa61181f6117a6565b90158015611840575b61179357602081805181010312610166576020015190565b506020815110611828565b6001600160a01b0381166000908152600080516020611b87833981519152602052604090205460ff161561187c5750565b62b0d32560e11b60009081526001600160a01b03919091166004527fa49807205ce4d355092ef5a8a18f56e8913cf4a201fbe287825b095693c21775602452604490fd5b90816000526000602052604060002060018060a01b03821660005260205260ff60406000205416156118f0575050565b62b0d32560e11b60005260018060a01b031660045260245260446000fd5b6001600160a01b03811660009081527fad3228b676f7d3cd4284a5443f17f1962b36e491b30a40b2405849e597ba5fb5602052604090205460ff16156119545750600090565b6001600160a01b031660008181527fad3228b676f7d3cd4284a5443f17f1962b36e491b30a40b2405849e597ba5fb560205260408120805460ff191660011790553391907f2f8788117e7eff1d82e926ec794901d17c78024a50270940304540a733656f0d8180a4600190565b6001600160a01b0381166000908152600080516020611b87833981519152602052604090205460ff16156119f55750600090565b6001600160a01b03166000818152600080516020611b8783398151915260205260408120805460ff191660011790553391907fa49807205ce4d355092ef5a8a18f56e8913cf4a201fbe287825b095693c21775907f2f8788117e7eff1d82e926ec794901d17c78024a50270940304540a733656f0d9080a4600190565b6000818152602081815260408083206001600160a01b038616845290915290205460ff1615611aa2575050600090565b6000818152602081815260408083206001600160a01b0395909516808452949091528120805460ff19166001179055339291907f2f8788117e7eff1d82e926ec794901d17c78024a50270940304540a733656f0d9080a4600190565b6000818152602081815260408083206001600160a01b038616845290915290205460ff16611b2d575050600090565b6000818152602081815260408083206001600160a01b0395909516808452949091528120805460ff19169055339291907ff6391f5c32d9c69d2a47ea670b442974b53935d1edc7fd64eb21e047a839171b9080a460019056fe7d7ffb7a348e1c6a02869081a26547b49160dd3df72d1d75a570eb9b698292ec4377386e2795aba8c0ce23a1e6e67bac790e4b4166f14b7e9365049ab946f8c0a2646970667358221220379a15813e141bbadabff20b4a561233a4bd86b01290baf1d6eb858fe7bf3a1564736f6c634300081b00334377386e2795aba8c0ce23a1e6e67bac790e4b4166f14b7e9365049ab946f8c0",
  "linkReferences": {},
  "deployedLinkReferences": {}
}