{
  "_format": "hh-sol-artifact-1",
  "contractName": "LaunchpadOptical",
  "sourceName": "contracts/opticals/presets/LaunchpadOptical.sol",
  "abi": [
    {
      "inputs": [
        {
          "internalType": "address",
          "name": "_poolRegistry",
          "type": "address"
        },
        {
          "internalType": "address",
          "name": "_owner",
          "type": "address"
        },
        {
          "internalType": "address",
          "name": "_creator",
          "type": "address"
        },
        {
          "internalType": "address[]",
          "name": "_teamWallets",
          "type": "address[]"
        },
        {
          "internalType": "uint256",
          "name": "_cliffDuration",
          "type": "uint256"
        },
        {
          "internalType": "uint256",
          "name": "_vestingDuration",
          "type": "uint256"
        },
        {
          "internalType": "uint256",
          "name": "_capitalRaiseBps",
          "type": "uint256"
        },
        {
          "internalType": "uint256",
          "name": "_capitalRaiseDuration",
          "type": "uint256"
        },
        {
          "internalType": "address",
          "name": "_teamClaimAddress",
          "type": "address"
        },
        {
          "internalType": "address",
          "name": "_feeAccumulator",
          "type": "address"
        }
      ],
      "stateMutability": "nonpayable",
      "type": "constructor"
    },
    {
      "inputs": [],
      "name": "CapitalRaiseTooHigh",
      "type": "error"
    },
    {
      "inputs": [],
      "name": "CliffActive",
      "type": "error"
    },
    {
      "inputs": [],
      "name": "DurationTooLong",
      "type": "error"
    },
    {
      "inputs": [],
      "name": "NoTeamWallets",
      "type": "error"
    },
    {
      "inputs": [],
      "name": "NotOwner",
      "type": "error"
    },
    {
      "inputs": [],
      "name": "NotPool",
      "type": "error"
    },
    {
      "inputs": [],
      "name": "NotTeam",
      "type": "error"
    },
    {
      "inputs": [],
      "name": "NothingToClaim",
      "type": "error"
    },
    {
      "inputs": [],
      "name": "TooManyTeamWallets",
      "type": "error"
    },
    {
      "inputs": [],
      "name": "VestingExceeded",
      "type": "error"
    },
    {
      "anonymous": false,
      "inputs": [
        {
          "indexed": true,
          "internalType": "address",
          "name": "pool",
          "type": "address"
        },
        {
          "indexed": false,
          "internalType": "uint256",
          "name": "amount",
          "type": "uint256"
        },
        {
          "indexed": false,
          "internalType": "uint256",
          "name": "totalRaisedAmount",
          "type": "uint256"
        }
      ],
      "name": "CapitalRaiseAccumulated",
      "type": "event"
    },
    {
      "anonymous": false,
      "inputs": [
        {
          "indexed": true,
          "internalType": "address",
          "name": "pool",
          "type": "address"
        },
        {
          "indexed": false,
          "internalType": "uint256",
          "name": "amount",
          "type": "uint256"
        },
        {
          "indexed": true,
          "internalType": "address",
          "name": "recipient",
          "type": "address"
        }
      ],
      "name": "CapitalRaiseClaimed",
      "type": "event"
    },
    {
      "anonymous": false,
      "inputs": [
        {
          "indexed": true,
          "internalType": "address",
          "name": "pool",
          "type": "address"
        },
        {
          "indexed": false,
          "internalType": "uint256",
          "name": "startTime",
          "type": "uint256"
        }
      ],
      "name": "PoolStartTimeRecorded",
      "type": "event"
    },
    {
      "anonymous": false,
      "inputs": [
        {
          "indexed": true,
          "internalType": "address",
          "name": "pool",
          "type": "address"
        },
        {
          "indexed": true,
          "internalType": "address",
          "name": "sender",
          "type": "address"
        },
        {
          "indexed": false,
          "internalType": "uint256",
          "name": "amountIn",
          "type": "uint256"
        }
      ],
      "name": "SellBlockedCliff",
      "type": "event"
    },
    {
      "anonymous": false,
      "inputs": [
        {
          "indexed": true,
          "internalType": "address",
          "name": "pool",
          "type": "address"
        },
        {
          "indexed": true,
          "internalType": "address",
          "name": "sender",
          "type": "address"
        },
        {
          "indexed": false,
          "internalType": "uint256",
          "name": "amountIn",
          "type": "uint256"
        },
        {
          "indexed": false,
          "internalType": "uint256",
          "name": "maxSellable",
          "type": "uint256"
        }
      ],
      "name": "SellBlockedVesting",
      "type": "event"
    },
    {
      "inputs": [],
      "name": "MAX_CAPITAL_RAISE_BPS",
      "outputs": [
        {
          "internalType": "uint256",
          "name": "",
          "type": "uint256"
        }
      ],
      "stateMutability": "view",
      "type": "function"
    },
    {
      "inputs": [],
      "name": "MAX_CLIFF_DURATION",
      "outputs": [
        {
          "internalType": "uint256",
          "name": "",
          "type": "uint256"
        }
      ],
      "stateMutability": "view",
      "type": "function"
    },
    {
      "inputs": [],
      "name": "MAX_RAISE_DURATION",
      "outputs": [
        {
          "internalType": "uint256",
          "name": "",
          "type": "uint256"
        }
      ],
      "stateMutability": "view",
      "type": "function"
    },
    {
      "inputs": [],
      "name": "MAX_TEAM_WALLETS",
      "outputs": [
        {
          "internalType": "uint256",
          "name": "",
          "type": "uint256"
        }
      ],
      "stateMutability": "view",
      "type": "function"
    },
    {
      "inputs": [],
      "name": "MAX_VESTING_DURATION",
      "outputs": [
        {
          "internalType": "uint256",
          "name": "",
          "type": "uint256"
        }
      ],
      "stateMutability": "view",
      "type": "function"
    },
    {
      "inputs": [
        {
          "internalType": "address",
          "name": "",
          "type": "address"
        }
      ],
      "name": "accumulatedUsdl",
      "outputs": [
        {
          "internalType": "uint256",
          "name": "",
          "type": "uint256"
        }
      ],
      "stateMutability": "view",
      "type": "function"
    },
    {
      "inputs": [
        {
          "internalType": "address",
          "name": "",
          "type": "address"
        },
        {
          "internalType": "uint256",
          "name": "",
          "type": "uint256"
        }
      ],
      "name": "afterFeeDistribution",
      "outputs": [
        {
          "internalType": "bytes4",
          "name": "",
          "type": "bytes4"
        }
      ],
      "stateMutability": "nonpayable",
      "type": "function"
    },
    {
      "inputs": [
        {
          "internalType": "address",
          "name": "pool",
          "type": "address"
        },
        {
          "internalType": "address",
          "name": "sender",
          "type": "address"
        },
        {
          "internalType": "bool",
          "name": "isBuy",
          "type": "bool"
        },
        {
          "internalType": "uint256",
          "name": "amountIn",
          "type": "uint256"
        },
        {
          "internalType": "uint256",
          "name": "",
          "type": "uint256"
        }
      ],
      "name": "afterSwap",
      "outputs": [
        {
          "internalType": "bytes4",
          "name": "",
          "type": "bytes4"
        }
      ],
      "stateMutability": "nonpayable",
      "type": "function"
    },
    {
      "inputs": [
        {
          "internalType": "address",
          "name": "pool",
          "type": "address"
        },
        {
          "internalType": "uint256",
          "name": "feeAmount",
          "type": "uint256"
        }
      ],
      "name": "beforeFeeDistribution",
      "outputs": [
        {
          "internalType": "uint256",
          "name": "adjustedFee",
          "type": "uint256"
        }
      ],
      "stateMutability": "nonpayable",
      "type": "function"
    },
    {
      "inputs": [
        {
          "internalType": "address",
          "name": "pool",
          "type": "address"
        },
        {
          "internalType": "address",
          "name": "sender",
          "type": "address"
        },
        {
          "internalType": "bool",
          "name": "isBuy",
          "type": "bool"
        },
        {
          "internalType": "uint256",
          "name": "amountIn",
          "type": "uint256"
        }
      ],
      "name": "beforeSwap",
      "outputs": [
        {
          "internalType": "bool",
          "name": "proceed",
          "type": "bool"
        },
        {
          "internalType": "int256",
          "name": "amountDelta",
          "type": "int256"
        }
      ],
      "stateMutability": "nonpayable",
      "type": "function"
    },
    {
      "inputs": [],
      "name": "capitalRaiseBps",
      "outputs": [
        {
          "internalType": "uint256",
          "name": "",
          "type": "uint256"
        }
      ],
      "stateMutability": "view",
      "type": "function"
    },
    {
      "inputs": [],
      "name": "capitalRaiseDuration",
      "outputs": [
        {
          "internalType": "uint256",
          "name": "",
          "type": "uint256"
        }
      ],
      "stateMutability": "view",
      "type": "function"
    },
    {
      "inputs": [
        {
          "internalType": "address",
          "name": "pool",
          "type": "address"
        }
      ],
      "name": "claimCapital",
      "outputs": [],
      "stateMutability": "nonpayable",
      "type": "function"
    },
    {
      "inputs": [],
      "name": "cliffDuration",
      "outputs": [
        {
          "internalType": "uint256",
          "name": "",
          "type": "uint256"
        }
      ],
      "stateMutability": "view",
      "type": "function"
    },
    {
      "inputs": [],
      "name": "creator",
      "outputs": [
        {
          "internalType": "address",
          "name": "",
          "type": "address"
        }
      ],
      "stateMutability": "view",
      "type": "function"
    },
    {
      "inputs": [],
      "name": "feeAccumulator",
      "outputs": [
        {
          "internalType": "address",
          "name": "",
          "type": "address"
        }
      ],
      "stateMutability": "view",
      "type": "function"
    },
    {
      "inputs": [
        {
          "internalType": "address",
          "name": "pool",
          "type": "address"
        }
      ],
      "name": "getCapitalRaiseInfo",
      "outputs": [
        {
          "internalType": "uint256",
          "name": "accumulated",
          "type": "uint256"
        },
        {
          "internalType": "uint256",
          "name": "totalRaisedAmount",
          "type": "uint256"
        },
        {
          "internalType": "uint256",
          "name": "raiseEndTime",
          "type": "uint256"
        },
        {
          "internalType": "bool",
          "name": "isActive",
          "type": "bool"
        }
      ],
      "stateMutability": "view",
      "type": "function"
    },
    {
      "inputs": [],
      "name": "getFlags",
      "outputs": [
        {
          "internalType": "uint8",
          "name": "",
          "type": "uint8"
        }
      ],
      "stateMutability": "pure",
      "type": "function"
    },
    {
      "inputs": [
        {
          "internalType": "address",
          "name": "pool",
          "type": "address"
        },
        {
          "internalType": "address",
          "name": "wallet",
          "type": "address"
        }
      ],
      "name": "getVestingInfo",
      "outputs": [
        {
          "internalType": "bool",
          "name": "vested",
          "type": "bool"
        },
        {
          "internalType": "uint256",
          "name": "cliffEnd",
          "type": "uint256"
        },
        {
          "internalType": "uint256",
          "name": "vestEnd",
          "type": "uint256"
        },
        {
          "internalType": "uint256",
          "name": "vestedAmount",
          "type": "uint256"
        },
        {
          "internalType": "uint256",
          "name": "sold",
          "type": "uint256"
        },
        {
          "internalType": "uint256",
          "name": "maxSellableNow",
          "type": "uint256"
        }
      ],
      "stateMutability": "view",
      "type": "function"
    },
    {
      "inputs": [
        {
          "internalType": "address",
          "name": "wallet",
          "type": "address"
        }
      ],
      "name": "isTeamWallet",
      "outputs": [
        {
          "internalType": "bool",
          "name": "",
          "type": "bool"
        }
      ],
      "stateMutability": "view",
      "type": "function"
    },
    {
      "inputs": [
        {
          "internalType": "address",
          "name": "",
          "type": "address"
        }
      ],
      "name": "isVested",
      "outputs": [
        {
          "internalType": "bool",
          "name": "",
          "type": "bool"
        }
      ],
      "stateMutability": "view",
      "type": "function"
    },
    {
      "inputs": [],
      "name": "owner",
      "outputs": [
        {
          "internalType": "address",
          "name": "",
          "type": "address"
        }
      ],
      "stateMutability": "view",
      "type": "function"
    },
    {
      "inputs": [],
      "name": "poolRegistry",
      "outputs": [
        {
          "internalType": "address",
          "name": "",
          "type": "address"
        }
      ],
      "stateMutability": "view",
      "type": "function"
    },
    {
      "inputs": [
        {
          "internalType": "address",
          "name": "",
          "type": "address"
        }
      ],
      "name": "poolStartTime",
      "outputs": [
        {
          "internalType": "uint256",
          "name": "",
          "type": "uint256"
        }
      ],
      "stateMutability": "view",
      "type": "function"
    },
    {
      "inputs": [],
      "name": "teamClaimAddress",
      "outputs": [
        {
          "internalType": "address",
          "name": "",
          "type": "address"
        }
      ],
      "stateMutability": "view",
      "type": "function"
    },
    {
      "inputs": [],
      "name": "teamWalletCount",
      "outputs": [
        {
          "internalType": "uint256",
          "name": "",
          "type": "uint256"
        }
      ],
      "stateMutability": "view",
      "type": "function"
    },
    {
      "inputs": [
        {
          "internalType": "address",
          "name": "",
          "type": "address"
        },
        {
          "internalType": "address",
          "name": "",
          "type": "address"
        }
      ],
      "name": "tokensSold",
      "outputs": [
        {
          "internalType": "uint256",
          "name": "",
          "type": "uint256"
        }
      ],
      "stateMutability": "view",
      "type": "function"
    },
    {
      "inputs": [
        {
          "internalType": "address",
          "name": "",
          "type": "address"
        }
      ],
      "name": "totalRaised",
      "outputs": [
        {
          "internalType": "uint256",
          "name": "",
          "type": "uint256"
        }
      ],
      "stateMutability": "view",
      "type": "function"
    },
    {
      "inputs": [],
      "name": "vestingDuration",
      "outputs": [
        {
          "internalType": "uint256",
          "name": "",
          "type": "uint256"
        }
      ],
      "stateMutability": "view",
      "type": "function"
    }
  ],
  "bytecode": "0x6101c0604052346102f6576114298038038061001a81610311565b928339810190610140818303126102f65761003481610336565b9061004160208201610336565b9061004e60408201610336565b60608201519093906001600160401b0381116102f65782019480601f870112156102f6578551956001600160401b0387116102fb578660051b90602080610096818501610311565b809a815201928201019283116102f657602001905b8282106102de57505050608082015160a08301519160c08401519360e0810151956100e66101206100df6101008501610336565b9301610336565b60809390935260a0526001600160a01b0387169687156102cd576001600160a01b038216156102cd576001600160a01b038316156102cd576103e886116102bc576301e1338084116102ab576305a39a8085116102ab576301e1338087116102ab57601489511161029a5760c05260e052610100526101205261014052610160526101805281516101a05260005260006020526040600020600160ff1982541617905560005b81518110156101e5576001906001600160a01b036101aa828561034a565b51166101b7575b0161018c565b818060a01b036101c7828561034a565b5116600052600060205260406000208260ff198254161790556101b1565b6040516110b49081610375823960805181610339015260a051816105e7015260c05181610943015260e0518181816103f8015261085101526101005181818161045701526107d30152610120518181816102a901528181610ad00152610e0b01526101405181818161090c01528181610af90152610e46015261016051818181610300015281816107020152610cad0152610180518181816106c90152818161077e0152610d0001526101a051816108d10152f35b631f4941f960e01b60005260046000fd5b634a94fa8360e11b60005260046000fd5b63f7fc11bd60e01b60005260046000fd5b636f61f64160e01b60005260046000fd5b602080916102eb84610336565b8152019101906100ab565b600080fd5b634e487b7160e01b600052604160045260246000fd5b6040519190601f01601f191682016001600160401b038111838210176102fb57604052565b51906001600160a01b03821682036102f657565b805182101561035e5760209160051b010190565b634e487b7160e01b600052603260045260246000fdfe608080604052600436101561001357600080fd5b600090813560e01c90816302d05d3f1461092f575080631514617e146108f45780632c420122146108b957806330d373f5146108805780634a5ecb36146107285780634ccb398e1461083b5780635300a4a41461028c57806356fcdcb4146108025780635eaea35f146107bd5780636cc7149d146107a157806371f3533214610766578063760a2e8a1461072857806379ec5214146106525780637cd0814b1461063357806387993a4e146106165780638da5cb5b146105d15780639f1245ad14610586578063a77463911461054d578063a9b00985146103dc578063ae3bd4bd146103af578063ae7e71d914610368578063afcff50f14610323578063c6532ff3146102e8578063d0fe7ca2146102cc578063d85349f714610291578063f43ae5071461028c578063f74c1c1a146101e6578063f80d2cc7146101b65763ffc7b0951461016057600080fd5b346101b35760403660031901126101b35760c061018c61017e610972565b61018661098d565b90610dc4565b936040939193519515158652602086015260408501526060840152608083015260a0820152f35b80fd5b50346101b35760403660031901126101b35760206101de6101d5610972565b60243590610cab565b604051908152f35b50346101b35760a03660031901126101b357610200610972565b61020861098d565b916102116109c2565b158061026d575b61022f575b604051637ba60e0d60e11b8152602090f35b60409160018060a01b031681526002602052209060018060a01b0316600052602052604060002061026360643582546109d1565b905538808061021d565b506001600160a01b03831681526020819052604081205460ff16610218565b6109a3565b50346101b357806003193601126101b35760206040517f00000000000000000000000000000000000000000000000000000000000000008152f35b50346101b357806003193601126101b357602060405160148152f35b50346101b357806003193601126101b35760206040517f00000000000000000000000000000000000000000000000000000000000000008152f35b50346101b357806003193601126101b3576040517f00000000000000000000000000000000000000000000000000000000000000006001600160a01b03168152602090f35b50346101b35760803660031901126101b35760406103a1610387610972565b61038f61098d565b6103976109c2565b9060643592610a6c565b825191151582526020820152f35b50346101b35760403660031901126101b3576103c9610972565b5060405163ae3bd4bd60e01b8152602090f35b50346101b35760203660031901126101b3576103f6610972565b7f00000000000000000000000000000000000000000000000000000000000000006001600160a01b0316903382900361053e576001600160a01b031680835260036020526040832054801561052f57818452600360205260408420849055837f00000000000000000000000000000000000000000000000000000000000000006001600160a01b0316803b1561052b57819060646040518094819363613022fd60e01b83528860048401528760248401528960448401525af18015610520576104e9575b5060207fe8067320421baf056a2b16baecdc6fff89d3e90e2642fd0ab434b9845d8702c191604051908152a380f35b846105187fe8067320421baf056a2b16baecdc6fff89d3e90e2642fd0ab434b9845d8702c193966020936109f4565b9491506104ba565b6040513d87823e3d90fd5b5080fd5b6312d37ee560e31b8452600484fd5b633a7cfa5d60e21b8352600483fd5b50346101b35760203660031901126101b3576020906040906001600160a01b03610575610972565b168152600383522054604051908152f35b50346101b35760403660031901126101b35760406020916105a5610972565b6105ad61098d565b6001600160a01b039182168352600285528383209116825283522054604051908152f35b50346101b357806003193601126101b3576040517f00000000000000000000000000000000000000000000000000000000000000006001600160a01b03168152602090f35b50346101b357806003193601126101b35760206040516103e88152f35b50346101b357806003193601126101b35760206040516305a39a808152f35b50346101b35760203660031901126101b35760809061066f610972565b81829160018060a01b031680845260036020526040808520549482815260046020528181205492815260016020522054806106bf575b506040519384526020840152604083015215156060820152f35b9092506106ee91507f0000000000000000000000000000000000000000000000000000000000000000906109d1565b80421115806106ff575b91386106a5565b507f000000000000000000000000000000000000000000000000000000000000000015156106f8565b50346101b35760203660031901126101b35760209060ff906040906001600160a01b03610753610972565b1681528084522054166040519015158152f35b50346101b357806003193601126101b35760206040517f00000000000000000000000000000000000000000000000000000000000000008152f35b50346101b357806003193601126101b357602060405160078152f35b50346101b357806003193601126101b3576040517f00000000000000000000000000000000000000000000000000000000000000006001600160a01b03168152602090f35b50346101b35760203660031901126101b3576020906040906001600160a01b0361082a610972565b168152600183522054604051908152f35b50346101b357806003193601126101b3576040517f00000000000000000000000000000000000000000000000000000000000000006001600160a01b03168152602090f35b50346101b35760203660031901126101b3576020906040906001600160a01b036108a8610972565b168152600483522054604051908152f35b50346101b357806003193601126101b35760206040517f00000000000000000000000000000000000000000000000000000000000000008152f35b50346101b357806003193601126101b35760206040517f00000000000000000000000000000000000000000000000000000000000000008152f35b90503461052b578160031936011261052b577f00000000000000000000000000000000000000000000000000000000000000006001600160a01b03168152602090f35b600435906001600160a01b038216820361098857565b600080fd5b602435906001600160a01b038216820361098857565b346109885760003660031901126109885760206040516301e133808152f35b60443590811515820361098857565b919082018092116109de57565b634e487b7160e01b600052601160045260246000fd5b90601f8019910116810190811067ffffffffffffffff821117610a1657604052565b634e487b7160e01b600052604160045260246000fd5b919082039182116109de57565b818102929181159184041417156109de57565b8115610a56570490565b634e487b7160e01b600052601260045260246000fd5b6001600160a01b03811660008181526001602052604090205492949093909215610c6b575b610c5f5760018060a01b0384169384600052600060205260ff6040600020541615610c5257836000526001602052610ace60406000205442610a2c565b7f000000000000000000000000000000000000000000000000000000000000000090818110610c1b577f000000000000000000000000000000000000000000000000000000000000000091610b2383826109d1565b821015610c0b57610b3391610a2c565b90670de0b6b3a7640000820291808304670de0b6b3a764000014901517156109de57670de0b6b3a764000092610b6f610b7592610ba094610a4c565b94610f99565b92856000526002602052604060002087600052602052610b9b60406000205480956109d1565b610a39565b0490600091818111610bfa575b5050808211610bc25750505050600190600090565b7fb3966d45988315ed5a8dc1f14ca6aa97a4d2c0615f4a43cdc146990a715a40699160409182519182526020820152a3600090600090565b610c049250610a2c565b3880610bad565b5050505050505050600190600090565b5050505060207f4acfead499d5bfd950d77435a2671732e5e612aba3b219ba1f129c48829b502b91604051908152a3600090600090565b5050505050600190600090565b50505050600190600090565b83600052600160205242604060002055837fe604181e9b1b472a9fd7581a81193c352a32c4a286112bcad619d427b19257c96020604051428152a2610a91565b7f0000000000000000000000000000000000000000000000000000000000000000908115610db9576001600160a01b03166000818152600160205260409020549091908015610dbe57610cfe9042610a2c565b7f000000000000000000000000000000000000000000000000000000000000000010610db957610d316127109184610a39565b04908115610db9579182610db69360005260036020526040600020610d578482546109d1565b90558060005260046020526040600020610d728482546109d1565b90558060005260046020527f48b3413afdad030150d68e8ed719b41dd32593b330f034158efe3134ffde0dae604080600020548151908682526020820152a2610a2c565b90565b505090565b50505090565b91600060018060a01b038316600052600060205260ff604060002054169360018060a01b038116928360005260016020526040600020549182158015610f51575b610f3f577f000000000000000000000000000000000000000000000000000000000000000093610e3585856109d1565b96610e4086866109d1565b90610e6c7f000000000000000000000000000000000000000000000000000000000000000080936109d1565b976000526002602052604060002060018060a01b038216600052602052610e996040600020549642610a2c565b93878510610f315790610eab91610f99565b95610eb686886109d1565b93610ec183836109d1565b8110610ecf57505050509290565b610edc9293959750610a2c565b91670de0b6b3a7640000830292808404670de0b6b3a764000014901517156109de57610f14610f1a92670de0b6b3a764000094610a4c565b90610a39565b0492828411610f2557565b9050610db68284610a2c565b506000965086949350505050565b50600094508493508392508291508190565b508615610e05565b3d15610f94573d9067ffffffffffffffff8211610a165760405191610f88601f8201601f1916602001846109f4565b82523d6000602084013e565b606090565b6000809160405160208101906313aedd4b60e31b825260048152610fbe6024826109f4565b51915afa610fca610f59565b90158015611073575b61106c5760208180518101031261098857602001516001600160a01b038116919082900361098857600091829160405160208101916370a0823160e01b835260018060a01b031660248201526024815261102e6044826109f4565b51915afa61103a610f59565b90158015611061575b61105b57602081805181010312610988576020015190565b50600090565b506020815110611043565b5050600090565b506020815110610fd356fea26469706673582212202afdd73a2df2246079d00b40299621d67fd5e75735093ab61aef40af578bb92064736f6c634300081b0033",
  "linkReferences": {},
  "deployedLinkReferences": {}
}