{
  "_format": "hh-sol-artifact-1",
  "contractName": "VaultAdapter",
  "sourceName": "contracts/meta-ag/adapters/VaultAdapter.sol",
  "abi": [
    {
      "inputs": [
        {
          "internalType": "address",
          "name": "vault_",
          "type": "address"
        },
        {
          "internalType": "address",
          "name": "priceOracle_",
          "type": "address"
        },
        {
          "internalType": "uint256",
          "name": "feeBps_",
          "type": "uint256"
        },
        {
          "internalType": "address",
          "name": "feeCollector_",
          "type": "address"
        },
        {
          "internalType": "address",
          "name": "admin_",
          "type": "address"
        }
      ],
      "stateMutability": "nonpayable",
      "type": "constructor"
    },
    {
      "inputs": [],
      "name": "ApproveFailed",
      "type": "error"
    },
    {
      "inputs": [],
      "name": "DivisionByZero",
      "type": "error"
    },
    {
      "inputs": [],
      "name": "Expired",
      "type": "error"
    },
    {
      "inputs": [],
      "name": "FeeTooHigh",
      "type": "error"
    },
    {
      "inputs": [],
      "name": "InsufficientLiquidity",
      "type": "error"
    },
    {
      "inputs": [
        {
          "internalType": "address",
          "name": "account",
          "type": "address"
        },
        {
          "internalType": "bytes32",
          "name": "role",
          "type": "bytes32"
        }
      ],
      "name": "MissingRole",
      "type": "error"
    },
    {
      "inputs": [],
      "name": "Overflow",
      "type": "error"
    },
    {
      "inputs": [],
      "name": "SameToken",
      "type": "error"
    },
    {
      "inputs": [],
      "name": "SlippageExceeded",
      "type": "error"
    },
    {
      "inputs": [],
      "name": "TransferFromFailed",
      "type": "error"
    },
    {
      "inputs": [],
      "name": "ZeroAddress",
      "type": "error"
    },
    {
      "inputs": [],
      "name": "ZeroAmount",
      "type": "error"
    },
    {
      "anonymous": false,
      "inputs": [
        {
          "indexed": true,
          "internalType": "bytes32",
          "name": "role",
          "type": "bytes32"
        },
        {
          "indexed": true,
          "internalType": "bytes32",
          "name": "previousAdminRole",
          "type": "bytes32"
        },
        {
          "indexed": true,
          "internalType": "bytes32",
          "name": "newAdminRole",
          "type": "bytes32"
        }
      ],
      "name": "RoleAdminChanged",
      "type": "event"
    },
    {
      "anonymous": false,
      "inputs": [
        {
          "indexed": true,
          "internalType": "bytes32",
          "name": "role",
          "type": "bytes32"
        },
        {
          "indexed": true,
          "internalType": "address",
          "name": "account",
          "type": "address"
        },
        {
          "indexed": true,
          "internalType": "address",
          "name": "sender",
          "type": "address"
        }
      ],
      "name": "RoleGranted",
      "type": "event"
    },
    {
      "anonymous": false,
      "inputs": [
        {
          "indexed": true,
          "internalType": "bytes32",
          "name": "role",
          "type": "bytes32"
        },
        {
          "indexed": true,
          "internalType": "address",
          "name": "account",
          "type": "address"
        },
        {
          "indexed": true,
          "internalType": "address",
          "name": "sender",
          "type": "address"
        }
      ],
      "name": "RoleRevoked",
      "type": "event"
    },
    {
      "anonymous": false,
      "inputs": [
        {
          "indexed": true,
          "internalType": "bytes32",
          "name": "adapterId",
          "type": "bytes32"
        },
        {
          "indexed": true,
          "internalType": "address",
          "name": "tokenIn",
          "type": "address"
        },
        {
          "indexed": true,
          "internalType": "address",
          "name": "tokenOut",
          "type": "address"
        },
        {
          "indexed": false,
          "internalType": "uint256",
          "name": "amountIn",
          "type": "uint256"
        },
        {
          "indexed": false,
          "internalType": "uint256",
          "name": "amountOut",
          "type": "uint256"
        },
        {
          "indexed": false,
          "internalType": "address",
          "name": "recipient",
          "type": "address"
        }
      ],
      "name": "SwapExecuted",
      "type": "event"
    },
    {
      "inputs": [],
      "name": "BPS_DENOMINATOR",
      "outputs": [
        {
          "internalType": "uint256",
          "name": "",
          "type": "uint256"
        }
      ],
      "stateMutability": "view",
      "type": "function"
    },
    {
      "inputs": [],
      "name": "DEFAULT_ADMIN_ROLE",
      "outputs": [
        {
          "internalType": "bytes32",
          "name": "",
          "type": "bytes32"
        }
      ],
      "stateMutability": "view",
      "type": "function"
    },
    {
      "inputs": [],
      "name": "MAX_FEE_BPS",
      "outputs": [
        {
          "internalType": "uint256",
          "name": "",
          "type": "uint256"
        }
      ],
      "stateMutability": "view",
      "type": "function"
    },
    {
      "inputs": [],
      "name": "adapterId",
      "outputs": [
        {
          "internalType": "bytes32",
          "name": "",
          "type": "bytes32"
        }
      ],
      "stateMutability": "pure",
      "type": "function"
    },
    {
      "inputs": [],
      "name": "adapterName",
      "outputs": [
        {
          "internalType": "string",
          "name": "",
          "type": "string"
        }
      ],
      "stateMutability": "pure",
      "type": "function"
    },
    {
      "inputs": [],
      "name": "adapterVersion",
      "outputs": [
        {
          "internalType": "string",
          "name": "",
          "type": "string"
        }
      ],
      "stateMutability": "pure",
      "type": "function"
    },
    {
      "inputs": [
        {
          "internalType": "address",
          "name": "tokenIn",
          "type": "address"
        },
        {
          "internalType": "address",
          "name": "tokenOut",
          "type": "address"
        },
        {
          "internalType": "uint256",
          "name": "amountIn",
          "type": "uint256"
        },
        {
          "internalType": "uint256",
          "name": "minAmountOut",
          "type": "uint256"
        },
        {
          "internalType": "address",
          "name": "from",
          "type": "address"
        },
        {
          "internalType": "address",
          "name": "recipient",
          "type": "address"
        },
        {
          "internalType": "uint256",
          "name": "deadline",
          "type": "uint256"
        },
        {
          "internalType": "bytes",
          "name": "",
          "type": "bytes"
        }
      ],
      "name": "executeSwap",
      "outputs": [
        {
          "components": [
            {
              "internalType": "uint256",
              "name": "amountOut",
              "type": "uint256"
            },
            {
              "internalType": "uint256",
              "name": "feeAmount",
              "type": "uint256"
            },
            {
              "internalType": "bytes",
              "name": "adapterData",
              "type": "bytes"
            }
          ],
          "internalType": "struct IProtocolAdapter.SwapResult",
          "name": "result",
          "type": "tuple"
        }
      ],
      "stateMutability": "nonpayable",
      "type": "function"
    },
    {
      "inputs": [],
      "name": "feeBps",
      "outputs": [
        {
          "internalType": "uint256",
          "name": "",
          "type": "uint256"
        }
      ],
      "stateMutability": "view",
      "type": "function"
    },
    {
      "inputs": [],
      "name": "feeCollector",
      "outputs": [
        {
          "internalType": "address",
          "name": "",
          "type": "address"
        }
      ],
      "stateMutability": "view",
      "type": "function"
    },
    {
      "inputs": [
        {
          "internalType": "address",
          "name": "tokenIn",
          "type": "address"
        },
        {
          "internalType": "address",
          "name": "tokenOut",
          "type": "address"
        }
      ],
      "name": "getMaxInput",
      "outputs": [
        {
          "internalType": "uint256",
          "name": "maxIn",
          "type": "uint256"
        }
      ],
      "stateMutability": "view",
      "type": "function"
    },
    {
      "inputs": [
        {
          "internalType": "address",
          "name": "tokenIn",
          "type": "address"
        },
        {
          "internalType": "address",
          "name": "tokenOut",
          "type": "address"
        },
        {
          "internalType": "uint256",
          "name": "amountIn",
          "type": "uint256"
        }
      ],
      "name": "getQuote",
      "outputs": [
        {
          "components": [
            {
              "internalType": "uint256",
              "name": "amountOut",
              "type": "uint256"
            },
            {
              "internalType": "uint256",
              "name": "priceImpactBps",
              "type": "uint256"
            },
            {
              "internalType": "uint256",
              "name": "feeBps",
              "type": "uint256"
            },
            {
              "internalType": "uint256",
              "name": "feeAmount",
              "type": "uint256"
            },
            {
              "internalType": "bool",
              "name": "available",
              "type": "bool"
            },
            {
              "internalType": "bytes",
              "name": "adapterData",
              "type": "bytes"
            }
          ],
          "internalType": "struct IProtocolAdapter.QuoteResult",
          "name": "result",
          "type": "tuple"
        }
      ],
      "stateMutability": "view",
      "type": "function"
    },
    {
      "inputs": [
        {
          "internalType": "bytes32",
          "name": "role",
          "type": "bytes32"
        }
      ],
      "name": "getRoleAdmin",
      "outputs": [
        {
          "internalType": "bytes32",
          "name": "",
          "type": "bytes32"
        }
      ],
      "stateMutability": "view",
      "type": "function"
    },
    {
      "inputs": [],
      "name": "getSupportedPairs",
      "outputs": [
        {
          "internalType": "address[]",
          "name": "tokenIns",
          "type": "address[]"
        },
        {
          "internalType": "address[]",
          "name": "tokenOuts",
          "type": "address[]"
        }
      ],
      "stateMutability": "view",
      "type": "function"
    },
    {
      "inputs": [
        {
          "internalType": "bytes32",
          "name": "role",
          "type": "bytes32"
        },
        {
          "internalType": "address",
          "name": "account",
          "type": "address"
        }
      ],
      "name": "grantRole",
      "outputs": [],
      "stateMutability": "nonpayable",
      "type": "function"
    },
    {
      "inputs": [
        {
          "internalType": "bytes32",
          "name": "role",
          "type": "bytes32"
        },
        {
          "internalType": "address",
          "name": "account",
          "type": "address"
        }
      ],
      "name": "hasRole",
      "outputs": [
        {
          "internalType": "bool",
          "name": "",
          "type": "bool"
        }
      ],
      "stateMutability": "view",
      "type": "function"
    },
    {
      "inputs": [],
      "name": "priceOracle",
      "outputs": [
        {
          "internalType": "contract IPriceOracle",
          "name": "",
          "type": "address"
        }
      ],
      "stateMutability": "view",
      "type": "function"
    },
    {
      "inputs": [
        {
          "internalType": "bytes32",
          "name": "role",
          "type": "bytes32"
        },
        {
          "internalType": "address",
          "name": "callerConfirmation",
          "type": "address"
        }
      ],
      "name": "renounceRole",
      "outputs": [],
      "stateMutability": "nonpayable",
      "type": "function"
    },
    {
      "inputs": [
        {
          "internalType": "bytes32",
          "name": "role",
          "type": "bytes32"
        },
        {
          "internalType": "address",
          "name": "account",
          "type": "address"
        }
      ],
      "name": "revokeRole",
      "outputs": [],
      "stateMutability": "nonpayable",
      "type": "function"
    },
    {
      "inputs": [
        {
          "internalType": "uint256",
          "name": "feeBps_",
          "type": "uint256"
        }
      ],
      "name": "setFee",
      "outputs": [],
      "stateMutability": "nonpayable",
      "type": "function"
    },
    {
      "inputs": [
        {
          "internalType": "address",
          "name": "collector",
          "type": "address"
        }
      ],
      "name": "setFeeCollector",
      "outputs": [],
      "stateMutability": "nonpayable",
      "type": "function"
    },
    {
      "inputs": [
        {
          "internalType": "address",
          "name": "oracle",
          "type": "address"
        }
      ],
      "name": "setPriceOracle",
      "outputs": [],
      "stateMutability": "nonpayable",
      "type": "function"
    },
    {
      "inputs": [
        {
          "internalType": "address",
          "name": "tokenIn",
          "type": "address"
        },
        {
          "internalType": "address",
          "name": "tokenOut",
          "type": "address"
        }
      ],
      "name": "supportsSwap",
      "outputs": [
        {
          "internalType": "bool",
          "name": "",
          "type": "bool"
        }
      ],
      "stateMutability": "view",
      "type": "function"
    },
    {
      "inputs": [],
      "name": "vault",
      "outputs": [
        {
          "internalType": "contract IPECORVault",
          "name": "",
          "type": "address"
        }
      ],
      "stateMutability": "view",
      "type": "function"
    }
  ],
  "bytecode": "0x60803461012457601f61200b38819003918201601f19168301916001600160401b038311848410176101295780849260a094604052833981010312610124576100478161013f565b6100536020830161013f565b916040810151610071608061006a6060850161013f565b930161013f565b6001600160a01b03909316938415610113576001600160a01b0316918215610113576001600160a01b0316918215610113576001600160a01b038416156101135760c8821161010257600180546001600160a01b0319908116909617905560028054861691909117905560035560048054909316179091556100f290610153565b50604051611e0890816101e38239f35b63cd4e616760e01b60005260046000fd5b63d92e233d60e01b60005260046000fd5b600080fd5b634e487b7160e01b600052604160045260246000fd5b51906001600160a01b038216820361012457565b6001600160a01b0381166000908152600080516020611feb833981519152602052604090205460ff16156101875750600090565b6001600160a01b03166000818152600080516020611feb83398151915260205260408120805460ff191660011790553391907f2f8788117e7eff1d82e926ec794901d17c78024a50270940304540a733656f0d8180a460019056fe6080604052600436101561001257600080fd5b6000803560e01c8063248a9ca314610db157806324a9d85314610d935780632630c12f14610d6a5780632f2ff15d14610d2957806336568abe14610cdb578063530e784f14610c8e5780635fb86b0114610c5357806369fe0e2d14610c18578063824e885e1461048357806386616b521461044c57806391d1485414610401578063a217fddf146103e5578063a42dce8014610389578063a77ec9e014610340578063b2b08fba1461030b578063ba286578146102ba578063c415b95c14610291578063c515ee2314610212578063d527c998146101ca578063d547741f1461017e578063d55be8c614610162578063e1a45218146101455763fbfa77cf1461011a57600080fd5b346101425780600319360112610142576001546040516001600160a01b039091168152602090f35b80fd5b503461014257806003193601126101425760206040516127108152f35b5034610142578060031936011261014257602060405160c88152f35b5034610142576040366003190112610142576101c660043561019e610ddf565b906101c16101ba82600052600060205260016040600020015490565b339061189f565b611979565b5080f35b503461014257806003193601126101425761020061020e6101e9611668565b604092919251938493604085526040850190610e51565b908382036020850152610e51565b0390f35b50346101425760603660031901126101425760a0610242610231610dfa565b610239610ddf565b604435916112bc565b61020e60405192839260208452805160208501526020810151604085015260408101516060850152606081015160808501526080810151151582850152015160c08084015260e0830190610e10565b50346101425780600319360112610142576004546040516001600160a01b039091168152602090f35b50346101425780600319360112610142575061020e6040516102dd604082610edc565b600d81526c5045434f525661756c742e763160981b6020820152604051918291602083526020830190610e10565b503461014257604036600319011261014257602061033861032a610dfa565b610332610ddf565b90611077565b604051908152f35b50346101425780600319360112610142575061020e604051610363604082610edc565b60058152640312e302e360dc1b6020820152604051918291602083526020830190610e10565b5034610142576020366003190112610142576103a3610dfa565b6103ac3361183c565b6001600160a01b031680156103d6576bffffffffffffffffffffffff60a01b600454161760045580f35b63d92e233d60e01b8252600482fd5b5034610142578060031936011261014257602090604051908152f35b503461014257604036600319011261014257604061041d610ddf565b91600435815280602052209060018060a01b0316600052602052602060ff604060002054166040519015158152f35b503461014257604036600319011261014257602061047961046b610dfa565b610473610ddf565b90610f7f565b6040519015158152f35b5034610142576101003660031901126101425761049e610dfa565b6104a6610ddf565b6044359260843592916001600160a01b0384168403610c145760a4356001600160a01b0381168082036109655760c43560e43567ffffffffffffffff8111610c105736602382011215610c1057806004013567ffffffffffffffff811161097457369101602401116109a15760606040805161052181610e8e565b87815287602082015201528015159081610c06575b50610bf7576001600160a01b038381169390861692838514610be8578815610bd9576002546040516341976e0960e01b81526004810186905297906001600160a01b0316602089602481845afa988915610b99578899610ba4575b506020602491604051928380926341976e0960e01b82528b60048301525afa8015610b99578890610b66575b600154604051633c2e3e7b60e11b8152600481018990526001600160a01b039091169a9092506020836024818e5afa928315610b5b57908b9392918b93610b16575b5060208a602460405180978193633c2e3e7b60e11b835260048301525afa938415610b0b57908e949392918c94610ac1575b5061063b94611a2f565b986106486003548b611a9a565b996106538b82610f0c565b996064358b10610ab2576040516378ca3b7160e11b81526001600160a01b03871660048201526024810192909252602090829060449082905afa9081156109c8578991610a78575b5015610a69576040516323b872dd60e01b602082019081526001600160a01b039092166024820152306044820152606481018c9052889182916106eb81608481015b03601f198101835282610edc565b519082855af16106f9611c77565b9015908115610a2d575b50610a1e576001546001600160a01b03169061071f8282611cb7565b60405163095ea7b360e01b602082019081526001600160a01b0384166024830152604482018d9052899182919061075981606481016106dd565b519082855af1610767611c77565b90159081156109e6575b506109d7576001546001600160a01b0316803b156109d3576040516311f9fbc960e21b81526001600160a01b0383166004820152602481018d90529089908290604490829084905af180156109c8576109b0575b50906107d091611cb7565b6001546001600160a01b031690813b156109745760405163a6c29ca360e01b81526001600160a01b038481166004830152919091166024820152604481018890529086908290606490829084905af180156109a55790869161098c575b505086151580610978575b6108f0575b507f5fbd3d15de897e3d7882253e93215e4db986fa0fc8931d8d0af819e834e9c22d606061020e9697987fab5023b25d7f5417700eec2d6efe1f686600abaf8b78c2dd253ef00eaa734f4a936040519182528960208301526040820152a4604051926108a884610e8e565b835260208301938452604051906108c0602083610edc565b81526040830190815260405193849360208552516020850152516040840152516060808401526080830190610e10565b6001546004546001600160a01b0391821692911690823b156109745760405163a6c29ca360e01b81526001600160a01b03918216600482015291166024820152604481018890529085908290606490829084905af18015610969571561083d5761095b858092610edc565b610965573861083d565b8380fd5b6040513d87823e3d90fd5b8680fd5b506004546001600160a01b03161515610838565b8161099691610edc565b6109a157843861082d565b8480fd5b6040513d88823e3d90fd5b976109c0816107d094939a610edc565b9790916107c5565b6040513d8b823e3d90fd5b8880fd5b633e3f8f7360e01b8852600488fd5b80518015159250826109fb575b505038610771565b81925090602091810103126109d3576020610a169101610f2f565b1538806109f3565b631e4e7d0960e21b8752600487fd5b8051801515925082610a42575b505038610703565b8192509060209181010312610a65576020610a5d9101610f2f565b153880610a3a565b8780fd5b63bb55fd2760e01b8852600488fd5b90506020813d602011610aaa575b81610a9360209383610edc565b810103126109d357610aa490610f2f565b3861069b565b3d9150610a86565b638199f5f360e01b8a5260048afd5b9193509193506020813d602011610b03575b81610ae060209383610edc565b81010312610aff579161063b9391610af88f94610efe565b9394610631565b8a80fd5b3d9150610ad3565b6040513d8d823e3d90fd5b91925092506020813d602011610b53575b81610b3460209383610edc565b81010312610b4f5790610b488b9392610efe565b91386105ff565b8980fd5b3d9150610b27565b6040513d8c823e3d90fd5b506020813d602011610b91575b81610b8060209383610edc565b81010312610a6557602490516105bd565b3d9150610b73565b6040513d8a823e3d90fd5b9098506020813d602011610bd1575b81610bc060209383610edc565b81010312610a655751976020610591565b3d9150610bb3565b631f2a200560e01b8652600486fd5b63100dac0560e11b8652600486fd5b630407b05b60e31b8452600484fd5b9050421138610536565b8580fd5b5080fd5b503461014257602036600319011261014257600435610c363361183c565b60c88111610c445760035580f35b63cd4e616760e01b8252600482fd5b503461014257806003193601126101425760206040517fab5023b25d7f5417700eec2d6efe1f686600abaf8b78c2dd253ef00eaa734f4a8152f35b503461014257602036600319011261014257610ca8610dfa565b610cb13361183c565b6001600160a01b031680156103d6576bffffffffffffffffffffffff60a01b600254161760025580f35b503461014257604036600319011261014257600435610cf8610ddf565b336001600160a01b0390911603610d14576101c6903390611979565b62b0d32560e11b825233600452602452604490fd5b5034610142576040366003190112610142576101c6600435610d49610ddf565b90610d656101ba82600052600060205260016040600020015490565b6118ed565b50346101425780600319360112610142576002546040516001600160a01b039091168152602090f35b50346101425780600319360112610142576020600354604051908152f35b5034610142576020366003190112610142576020610338600435600052600060205260016040600020015490565b602435906001600160a01b0382168203610df557565b600080fd5b600435906001600160a01b0382168203610df557565b919082519283825260005b848110610e3c575050826000602080949584010152601f8019910116010190565b80602080928401015182828601015201610e1b565b906020808351928381520192019060005b818110610e6f5750505090565b82516001600160a01b0316845260209384019390920191600101610e62565b6060810190811067ffffffffffffffff821117610eaa57604052565b634e487b7160e01b600052604160045260246000fd5b60c0810190811067ffffffffffffffff821117610eaa57604052565b90601f8019910116810190811067ffffffffffffffff821117610eaa57604052565b519060ff82168203610df557565b91908203918211610f1957565b634e487b7160e01b600052601160045260246000fd5b51908115158203610df557565b91908260c0910312610df557610f5182610f2f565b91610f5e60208201610f2f565b91610f6b60408301610efe565b9160608101519160a0608083015192015190565b6001600160a01b03908116911681811461107057600154604051631f69565f60e01b815260048101939093526001600160a01b03169060c083602481855afa92831561103d57600093611049575b5060c090602460405180948193631f69565f60e01b835260048301525afa90811561103d57600091611009575b5081611004575090565b905090565b61102b915060c03d60c011611036575b6110238183610edc565b810190610f3c565b505050505038610ffa565b503d611019565b6040513d6000823e3d90fd5b60c091935061106490823d8411611036576110238183610edc565b50505050509290610fcd565b5050600090565b906001600160a01b03808316919081168281146112a257600154604051630fa6707960e21b8152600481018390526001600160a01b0390911694602082602481895afa91821561103d5760009261126e575b50811561125b576110dc6110e291611d5c565b93611d5c565b9183158015611266575b61125b5760405194633c2e3e7b60e11b86526004860152602085602481895afa94851561103d5760009561121d575b50602090602460405180988193633c2e3e7b60e11b835260048301525afa94851561103d576000956111d5575b5061115660ff928392611b14565b941692168281116111bd575b8192818111611198575b50508115905061107057808201809211610f19576000198201918211610f195761119591611a0f565b90565b6111b593506111af916111aa91610f0c565b611a01565b9061162b565b38808061116c565b926111cf906111af6111aa8587610f0c565b92611162565b919094506020823d602011611215575b816111f260209383610edc565b81010312610df55761115660ff929161120b8493610efe565b9692509250611148565b3d91506111e5565b9094506020813d602011611253575b8161123960209383610edc565b81010312610df55761124c602091610efe565b949061111b565b3d915061122c565b505050505050600090565b5082156110ec565b90916020823d60201161129a575b8161128960209383610edc565b8101031261014257505190386110c9565b3d915061127c565b50505050600090565b60ff16604d8111610f1957600a0a90565b604051906112c982610ec0565b600080835260208301819052604083018190526060808401829052608084019190915260a08301526001600160a01b038082169291908416908284831480156115d9575b6115cf5750600154604051631f69565f60e01b8152600481018690526001600160a01b0390911696909160c0836024818b5afa92831561103d576000936115a9575b50604051631f69565f60e01b81526004810185905260c0816024818c5afa93841561103d5760009160009561157f575b5015908115611576575b506115635761139a6113a091611d5c565b96611d5c565b908615801561156e575b61156357604051633c2e3e7b60e11b815260048101879052966020886024818c5afa97881561103d5760009861151e575b5060206024959697989960405196878092633c2e3e7b60e11b82528a60048301525afa94851561103d576000956114e2575b5061141b858a858486611a2f565b96871580156114d9575b6114cc57509161145a61146088979695936114669561145a61145461144d600354809d611a9a565b809d610f0c565b9d6112ab565b91611bea565b946112ab565b80156114c15761147591611b47565b905b604051946020860152604085015260408452611494606085610edc565b604051946114a186610ec0565b85526020850152604084015260608301526001608083015260a082015290565b505061271090611477565b9850505050505050505090565b50848811611425565b9094506020813d602011611516575b816114fe60209383610edc565b81010312610df55761150f90610efe565b933861140d565b3d91506114f1565b94959697506020853d60201161155b575b8161153c60209383610edc565b81010312610df5576020611551602496610efe565b98979695506113db565b3d915061152f565b505050509250505090565b5081156113aa565b90501538611389565b90945061159b915060c03d60c011611036576110238183610edc565b50509291505090933861137f565b6115c391935060c03d60c011611036576110238183610edc565b5050505050913861134f565b9550505050505090565b50861561130d565b67ffffffffffffffff8111610eaa5760051b60200190565b90611603826115e1565b6116106040519182610edc565b8281528092611621601f19916115e1565b0190602036910137565b81810292918115918404141715610f1957565b80518210156116525760209160051b010190565b634e487b7160e01b600052603260045260246000fd5b6001546040516314cbd99360e01b815290600090829060049082906001600160a01b03165afa90811561103d57600091611796575b508051916002831061175e576000198301838111610f19576116bf908461162b565b926116d26116cc856115f9565b946115f9565b9260009160005b8181106116e65750505050565b60005b8281106116f957506001016116d9565b93848214611755576001600160a01b03611713838661163e565b511661171f828a61163e565b526001600160a01b03611732868661163e565b511661173e828961163e565b526000198114610f19576001809101945b016116e9565b9360019061174f565b9150506020906040516117718382610edc565b600081526000368137604051926117888185610edc565b600084525060003681379190565b903d8082843e6117a68184610edc565b820191602081840312610c145780519067ffffffffffffffff821161183857019180601f84011215610c14578251916117de836115e1565b936117ec6040519586610edc565b83855260208086019460051b820101928311610c1457602001925b82841061181857505050503861169d565b83516001600160a01b038116810361183857815260209384019301611807565b8280fd5b6001600160a01b03811660009081527fad3228b676f7d3cd4284a5443f17f1962b36e491b30a40b2405849e597ba5fb5602052604090205460ff161561187f5750565b62b0d32560e11b60005260018060a01b0316600452600060245260446000fd5b90816000526000602052604060002060018060a01b03821660005260205260ff60406000205416156118cf575050565b62b0d32560e11b60005260018060a01b031660045260245260446000fd5b6000818152602081815260408083206001600160a01b038616845290915290205460ff161561191d575050600090565b6000818152602081815260408083206001600160a01b0395909516808452949091528120805460ff19166001179055339291907f2f8788117e7eff1d82e926ec794901d17c78024a50270940304540a733656f0d9080a4600190565b6000818152602081815260408083206001600160a01b038616845290915290205460ff166119a8575050600090565b6000818152602081815260408083206001600160a01b0395909516808452949091528120805460ff19169055339291907ff6391f5c32d9c69d2a47ea670b442974b53935d1edc7fd64eb21e047a839171b9080a4600190565b604d8111610f1957600a0a90565b8115611a19570490565b634e487b7160e01b600052601260045260246000fd5b611a3f60ff928392969596611b14565b94169216828111611a82575b8192818111611a68575b5050811590506110705761119591611a0f565b611a7a93506111af916111aa91610f0c565b388080611a55565b92611a94906111af6111aa8587610f0c565b92611a4b565b60001982820982820291828083109203918083039214611b0957612710821015611af8577fbc01a36e2eb1c432ca57a786c226809d495182a9930be0ded288ce703afb7e9193612710910990828211900360fc1b910360041c170290565b631a93c68960e11b60005260046000fd5b505061271091500490565b600019828209918082029283808210910390808214611b4057600191031015611af85760019109900390565b5050505090565b8115611bd957600019612710820991612710820291828085109403938085039414611bcd5781841015611af857612710829109816000038216809204600281600302188082026002030280820260020302808202600203028082026002030280820260020302809102600203029360018380600003040190848311900302920304170290565b50906111959250611a0f565b6323d359a360e01b60005260046000fd5b918015611bd9576000198284099282810292838086109503948086039514611c6a5782851015611af857829109816000038216809204600281600302188082026002030280820260020302808202600203028082026002030280820260020302809102600203029360018380600003040190848311900302920304170290565b5050906111959250611a0f565b3d15611cb2573d9067ffffffffffffffff8211610eaa5760405191611ca6601f8201601f191660200184610edc565b82523d6000602084013e565b606090565b60405163095ea7b360e01b602082019081526001600160a01b039093166024820152600060448083018290528252928392918390611cf6606482610edc565b51925af1611d02611c77565b9015908115611d24575b50611d1357565b633e3f8f7360e01b60005260046000fd5b8051801515925082611d39575b505038611d0c565b8192509060209181010312610df5576020611d549101610f2f565b153880611d31565b6002546040516341976e0960e01b81526001600160a01b0392831660048201529160209183916024918391165afa60009181611d9e575b506111955750600090565b9091506020813d602011611dca575b81611dba60209383610edc565b81010312610df557519038611d93565b3d9150611dad56fea264697066735822122056e81c438eed59336960b6220931f9636775f1cb0a63785cdafd8393d50c747d64736f6c634300081b0033ad3228b676f7d3cd4284a5443f17f1962b36e491b30a40b2405849e597ba5fb5",
  "linkReferences": {},
  "deployedLinkReferences": {}
}