{
  "_format": "hh-sol-artifact-1",
  "contractName": "TokenAddressWrapper",
  "sourceName": "contracts/test/TokenAddressWrapper.sol",
  "abi": [
    {
      "inputs": [
        {
          "internalType": "address",
          "name": "factory",
          "type": "address"
        },
        {
          "internalType": "address",
          "name": "creator",
          "type": "address"
        },
        {
          "internalType": "string",
          "name": "name",
          "type": "string"
        },
        {
          "internalType": "string",
          "name": "symbol",
          "type": "string"
        },
        {
          "internalType": "uint256",
          "name": "nonce",
          "type": "uint256"
        },
        {
          "internalType": "bytes",
          "name": "creationCode",
          "type": "bytes"
        },
        {
          "internalType": "uint256",
          "name": "totalSupply",
          "type": "uint256"
        },
        {
          "internalType": "address",
          "name": "recipient",
          "type": "address"
        }
      ],
      "name": "computeAddress",
      "outputs": [
        {
          "internalType": "address",
          "name": "",
          "type": "address"
        }
      ],
      "stateMutability": "pure",
      "type": "function"
    },
    {
      "inputs": [
        {
          "internalType": "address",
          "name": "creator",
          "type": "address"
        },
        {
          "internalType": "string",
          "name": "name",
          "type": "string"
        },
        {
          "internalType": "string",
          "name": "symbol",
          "type": "string"
        },
        {
          "internalType": "uint256",
          "name": "nonce",
          "type": "uint256"
        }
      ],
      "name": "computeSalt",
      "outputs": [
        {
          "internalType": "bytes32",
          "name": "",
          "type": "bytes32"
        }
      ],
      "stateMutability": "pure",
      "type": "function"
    }
  ],
  "bytecode": "0x608080604052346015576103f0908161001b8239f35b600080fdfe6080604052600436101561001257600080fd5b60003560e01c8063a4782a41146101e75763a9827b2a1461003257600080fd5b346101e2576101003660031901126101e25761004c61025a565b6024356001600160a01b03811681036101e25760443567ffffffffffffffff81116101e25761007f9036906004016102ef565b9160643567ffffffffffffffff81116101e2576100a09036906004016102ef565b9260a43567ffffffffffffffff81116101e257366023820112156101e2576100d29036906024816004013591016102a8565b9060e4359360018060a01b0385168095036101e25761013061014c876101026101899460209a8760843592610330565b9760405193849261011e8c85019860808a5260a0860190610395565b848103601f1901604086015290610395565b9060c4356060840152608083015203601f198101835282610270565b866040519384926101798361016a818701998a81519384920161030d565b8501915180938584019061030d565b010103601f198101835282610270565b519020604051928484019260ff60f81b84526bffffffffffffffffffffffff199060601b16602185015260358401526055830152605582526101cc607583610270565b905190206040516001600160a01b039091168152f35b600080fd5b346101e25760803660031901126101e25761020061025a565b60243567ffffffffffffffff81116101e2576102209036906004016102ef565b906044359067ffffffffffffffff82116101e2576020926102486102529336906004016102ef565b9060643592610330565b604051908152f35b600435906001600160a01b03821682036101e257565b90601f8019910116810190811067ffffffffffffffff82111761029257604052565b634e487b7160e01b600052604160045260246000fd5b92919267ffffffffffffffff821161029257604051916102d2601f8201601f191660200184610270565b8294818452818301116101e2578281602093846000960137010152565b9080601f830112156101e25781602061030a933591016102a8565b90565b60005b8381106103205750506000910152565b8181015183820152602001610310565b9261038f916020916034604051958693858501986bffffffffffffffffffffffff199060601b16895261036b8151809288868901910161030d565b840161037f8251809388868501910161030d565b0101908152038084520182610270565b51902090565b906020916103ae8151809281855285808601910161030d565b601f01601f191601019056fea26469706673582212201857d5845354ac63fce910d667cceb143601b6051d093eec37f7a726dbe1d42e64736f6c634300081b0033",
  "linkReferences": {},
  "deployedLinkReferences": {}
}