{
  "_format": "hh-sol-artifact-1",
  "contractName": "SidioraMathWrapper",
  "sourceName": "contracts/test/SidioraMathWrapper.sol",
  "abi": [
    {
      "inputs": [],
      "name": "DivisionByZero",
      "type": "error"
    },
    {
      "inputs": [],
      "name": "Overflow",
      "type": "error"
    },
    {
      "inputs": [
        {
          "internalType": "int256",
          "name": "x",
          "type": "int256"
        }
      ],
      "name": "abs",
      "outputs": [
        {
          "internalType": "uint256",
          "name": "",
          "type": "uint256"
        }
      ],
      "stateMutability": "pure",
      "type": "function"
    },
    {
      "inputs": [
        {
          "internalType": "uint256",
          "name": "a",
          "type": "uint256"
        },
        {
          "internalType": "uint256",
          "name": "b",
          "type": "uint256"
        }
      ],
      "name": "max",
      "outputs": [
        {
          "internalType": "uint256",
          "name": "",
          "type": "uint256"
        }
      ],
      "stateMutability": "pure",
      "type": "function"
    },
    {
      "inputs": [
        {
          "internalType": "uint256",
          "name": "a",
          "type": "uint256"
        },
        {
          "internalType": "uint256",
          "name": "b",
          "type": "uint256"
        }
      ],
      "name": "min",
      "outputs": [
        {
          "internalType": "uint256",
          "name": "",
          "type": "uint256"
        }
      ],
      "stateMutability": "pure",
      "type": "function"
    },
    {
      "inputs": [
        {
          "internalType": "uint256",
          "name": "a",
          "type": "uint256"
        },
        {
          "internalType": "uint256",
          "name": "b",
          "type": "uint256"
        },
        {
          "internalType": "uint256",
          "name": "denominator",
          "type": "uint256"
        }
      ],
      "name": "mulDiv",
      "outputs": [
        {
          "internalType": "uint256",
          "name": "",
          "type": "uint256"
        }
      ],
      "stateMutability": "pure",
      "type": "function"
    },
    {
      "inputs": [
        {
          "internalType": "uint256",
          "name": "a",
          "type": "uint256"
        },
        {
          "internalType": "uint256",
          "name": "b",
          "type": "uint256"
        },
        {
          "internalType": "uint256",
          "name": "denominator",
          "type": "uint256"
        }
      ],
      "name": "mulDivRoundingUp",
      "outputs": [
        {
          "internalType": "uint256",
          "name": "",
          "type": "uint256"
        }
      ],
      "stateMutability": "pure",
      "type": "function"
    },
    {
      "inputs": [
        {
          "internalType": "uint256",
          "name": "x",
          "type": "uint256"
        }
      ],
      "name": "safeCastToInt256",
      "outputs": [
        {
          "internalType": "int256",
          "name": "",
          "type": "int256"
        }
      ],
      "stateMutability": "pure",
      "type": "function"
    },
    {
      "inputs": [
        {
          "internalType": "uint256",
          "name": "x",
          "type": "uint256"
        }
      ],
      "name": "safeCastToUint128",
      "outputs": [
        {
          "internalType": "uint128",
          "name": "",
          "type": "uint128"
        }
      ],
      "stateMutability": "pure",
      "type": "function"
    },
    {
      "inputs": [
        {
          "internalType": "uint256",
          "name": "x",
          "type": "uint256"
        }
      ],
      "name": "sqrt",
      "outputs": [
        {
          "internalType": "uint256",
          "name": "",
          "type": "uint256"
        }
      ],
      "stateMutability": "pure",
      "type": "function"
    }
  ],
  "bytecode": "0x608080604052346015576103a0908161001b8239f35b600080fdfe6080604052600436101561001257600080fd5b60003560e01c80630af8b27f146101c65780631b5ac4b514610175578063677342ce146101575780636d5433e6146101365780636ef86efb146101095780637ae2b5c7146100e1578063aa9a0912146100c05763ce33d9221461007457600080fd5b346100bb5760203660031901126100bb576004356001600160801b0381116100aa576020906001600160801b0360405191168152f35b631a93c68960e11b60005260046000fd5b600080fd5b346100bb5760206100d96100d33661021f565b916102c9565b604051908152f35b346100bb5760206100f136610239565b808210156101025750604051908152f35b90506100d9565b346100bb5760203660031901126100bb576004356001600160ff1b0381116100aa57602090604051908152f35b346100bb57602061014636610239565b808211156101025750604051908152f35b346100bb5760203660031901126100bb5760206100d9600435610259565b346100bb5760203660031901126100bb57600060043581811261019e5760209150604051908152f35b600160ff1b81146101b257602091036100d9565b634e487b7160e01b82526011600452602482fd5b346100bb576101d43661021f565b906101e08282856102c9565b92821561020957096101f8575b602090604051908152f35b60001981146100aa576001016101ed565b634e487b7160e01b600052601260045260246000fd5b60609060031901126100bb57600435906024359060443590565b60409060031901126100bb576004359060243590565b8115610209570490565b9081156102c35760038211156102bd57818060011c600181018091116102a757905b838210610286575050565b90925082610294818361024f565b9081018091116102a75760011c9061027b565b634e487b7160e01b600052601160045260246000fd5b60019150565b60009150565b91801561035957600019828409928281029283808610950394808603951461034957828510156100aa57829109816000038216809204600281600302188082026002030280820260020302808202600203028082026002030280820260020302809102600203029360018380600003040190848311900302920304170290565b505090610356925061024f565b90565b6323d359a360e01b60005260046000fdfea2646970667358221220c7885ed0b27384bc11d135dffcce20d657c00c588a85eb572fba5356ffb8b5af64736f6c634300081b0033",
  "linkReferences": {},
  "deployedLinkReferences": {}
}