{
  "_format": "hh-sol-artifact-1",
  "contractName": "MockERC20Base",
  "sourceName": "contracts/test/MockERC20Base.sol",
  "abi": [
    {
      "inputs": [
        {
          "internalType": "string",
          "name": "_name",
          "type": "string"
        },
        {
          "internalType": "string",
          "name": "_symbol",
          "type": "string"
        },
        {
          "internalType": "uint8",
          "name": "_decimals",
          "type": "uint8"
        }
      ],
      "stateMutability": "nonpayable",
      "type": "constructor"
    },
    {
      "inputs": [],
      "name": "InsufficientAllowance",
      "type": "error"
    },
    {
      "inputs": [],
      "name": "InsufficientBalance",
      "type": "error"
    },
    {
      "inputs": [],
      "name": "InvalidPermit",
      "type": "error"
    },
    {
      "inputs": [],
      "name": "PermitExpired",
      "type": "error"
    },
    {
      "inputs": [],
      "name": "ZeroAddress",
      "type": "error"
    },
    {
      "anonymous": false,
      "inputs": [
        {
          "indexed": true,
          "internalType": "address",
          "name": "owner",
          "type": "address"
        },
        {
          "indexed": true,
          "internalType": "address",
          "name": "spender",
          "type": "address"
        },
        {
          "indexed": false,
          "internalType": "uint256",
          "name": "value",
          "type": "uint256"
        }
      ],
      "name": "Approval",
      "type": "event"
    },
    {
      "anonymous": false,
      "inputs": [
        {
          "indexed": true,
          "internalType": "address",
          "name": "from",
          "type": "address"
        },
        {
          "indexed": true,
          "internalType": "address",
          "name": "to",
          "type": "address"
        },
        {
          "indexed": false,
          "internalType": "uint256",
          "name": "value",
          "type": "uint256"
        }
      ],
      "name": "Transfer",
      "type": "event"
    },
    {
      "inputs": [],
      "name": "DOMAIN_SEPARATOR",
      "outputs": [
        {
          "internalType": "bytes32",
          "name": "",
          "type": "bytes32"
        }
      ],
      "stateMutability": "view",
      "type": "function"
    },
    {
      "inputs": [],
      "name": "PERMIT_TYPEHASH",
      "outputs": [
        {
          "internalType": "bytes32",
          "name": "",
          "type": "bytes32"
        }
      ],
      "stateMutability": "view",
      "type": "function"
    },
    {
      "inputs": [
        {
          "internalType": "address",
          "name": "",
          "type": "address"
        },
        {
          "internalType": "address",
          "name": "",
          "type": "address"
        }
      ],
      "name": "allowance",
      "outputs": [
        {
          "internalType": "uint256",
          "name": "",
          "type": "uint256"
        }
      ],
      "stateMutability": "view",
      "type": "function"
    },
    {
      "inputs": [
        {
          "internalType": "address",
          "name": "spender",
          "type": "address"
        },
        {
          "internalType": "uint256",
          "name": "amount",
          "type": "uint256"
        }
      ],
      "name": "approve",
      "outputs": [
        {
          "internalType": "bool",
          "name": "",
          "type": "bool"
        }
      ],
      "stateMutability": "nonpayable",
      "type": "function"
    },
    {
      "inputs": [
        {
          "internalType": "address",
          "name": "",
          "type": "address"
        }
      ],
      "name": "balanceOf",
      "outputs": [
        {
          "internalType": "uint256",
          "name": "",
          "type": "uint256"
        }
      ],
      "stateMutability": "view",
      "type": "function"
    },
    {
      "inputs": [
        {
          "internalType": "address",
          "name": "from",
          "type": "address"
        },
        {
          "internalType": "uint256",
          "name": "amount",
          "type": "uint256"
        }
      ],
      "name": "burn",
      "outputs": [],
      "stateMutability": "nonpayable",
      "type": "function"
    },
    {
      "inputs": [],
      "name": "decimals",
      "outputs": [
        {
          "internalType": "uint8",
          "name": "",
          "type": "uint8"
        }
      ],
      "stateMutability": "view",
      "type": "function"
    },
    {
      "inputs": [
        {
          "internalType": "address",
          "name": "to",
          "type": "address"
        },
        {
          "internalType": "uint256",
          "name": "amount",
          "type": "uint256"
        }
      ],
      "name": "mint",
      "outputs": [],
      "stateMutability": "nonpayable",
      "type": "function"
    },
    {
      "inputs": [],
      "name": "name",
      "outputs": [
        {
          "internalType": "string",
          "name": "",
          "type": "string"
        }
      ],
      "stateMutability": "view",
      "type": "function"
    },
    {
      "inputs": [
        {
          "internalType": "address",
          "name": "",
          "type": "address"
        }
      ],
      "name": "nonces",
      "outputs": [
        {
          "internalType": "uint256",
          "name": "",
          "type": "uint256"
        }
      ],
      "stateMutability": "view",
      "type": "function"
    },
    {
      "inputs": [
        {
          "internalType": "address",
          "name": "owner_",
          "type": "address"
        },
        {
          "internalType": "address",
          "name": "spender",
          "type": "address"
        },
        {
          "internalType": "uint256",
          "name": "value",
          "type": "uint256"
        },
        {
          "internalType": "uint256",
          "name": "deadline",
          "type": "uint256"
        },
        {
          "internalType": "uint8",
          "name": "v",
          "type": "uint8"
        },
        {
          "internalType": "bytes32",
          "name": "r",
          "type": "bytes32"
        },
        {
          "internalType": "bytes32",
          "name": "s",
          "type": "bytes32"
        }
      ],
      "name": "permit",
      "outputs": [],
      "stateMutability": "nonpayable",
      "type": "function"
    },
    {
      "inputs": [],
      "name": "symbol",
      "outputs": [
        {
          "internalType": "string",
          "name": "",
          "type": "string"
        }
      ],
      "stateMutability": "view",
      "type": "function"
    },
    {
      "inputs": [],
      "name": "totalSupply",
      "outputs": [
        {
          "internalType": "uint256",
          "name": "",
          "type": "uint256"
        }
      ],
      "stateMutability": "view",
      "type": "function"
    },
    {
      "inputs": [
        {
          "internalType": "address",
          "name": "to",
          "type": "address"
        },
        {
          "internalType": "uint256",
          "name": "amount",
          "type": "uint256"
        }
      ],
      "name": "transfer",
      "outputs": [
        {
          "internalType": "bool",
          "name": "",
          "type": "bool"
        }
      ],
      "stateMutability": "nonpayable",
      "type": "function"
    },
    {
      "inputs": [
        {
          "internalType": "address",
          "name": "from",
          "type": "address"
        },
        {
          "internalType": "address",
          "name": "to",
          "type": "address"
        },
        {
          "internalType": "uint256",
          "name": "amount",
          "type": "uint256"
        }
      ],
      "name": "transferFrom",
      "outputs": [
        {
          "internalType": "bool",
          "name": "",
          "type": "bool"
        }
      ],
      "stateMutability": "nonpayable",
      "type": "function"
    }
  ],
  "bytecode": "0x60c080604052346103d057610e37803803809161001c82856103d5565b83398101906060818303126103d05780516001600160401b0381116103d057826100479183016103f8565b60208201519092906001600160401b0381116103d05760409161006b9184016103f8565b9101519160ff831683036103d0578051926001600160401b0384116102dc57600054600181811c911680156103c6575b60208210146102bc57601f8111610362575b50602093601f81116001146102fd5780919293946000916102f2575b508160011b916000199060031b1c1916176000555b82516001600160401b0381116102dc57600154600181811c911680156102d2575b60208210146102bc57601f8111610257575b506020601f82116001146101f057819293946000926101e5575b50508160011b916000199060031b1c1916176001555b6080526020815191012060409060016020835161015e85826103d5565b82815201603160f81b81522082519060208201927f8b73c3c69bb8fe3d512ecc4cf759cc79239f7b179b0ffacaa9a75d522b39400f84528483015260608201524660808201523060a082015260a081526101b960c0826103d5565b51902060a052516109cf908161046882396080518161060d015260a0518181816101fb01526105d00152f35b01519050388061012b565b601f198216906001600052806000209160005b81811061023f57509583600195969710610226575b505050811b01600155610141565b015160001960f88460031b161c19169055388080610218565b9192602060018192868b015181550194019201610203565b60016000527fb10e2d527612073b26eecdfd717e6a320cf44b4afac2b0732d9fcbe2b7fa0cf6601f830160051c810191602084106102b2575b601f0160051c01905b8181106102a65750610111565b60008155600101610299565b9091508190610290565b634e487b7160e01b600052602260045260246000fd5b90607f16906100ff565b634e487b7160e01b600052604160045260246000fd5b9050830151386100c9565b601f1981169460008052806000209060005b87811061034a57508260019495969710610331575b5050811b016000556100de565b85015160001960f88460031b161c191690553880610324565b9091602060018192858901518155019301910161030f565b600080527f290decd9548b62a8d60345a988386fc84ba6bc95484008f6362f93160ef3e563601f860160051c810191602087106103bc575b601f0160051c01905b8181106103b057506100ad565b600081556001016103a3565b909150819061039a565b90607f169061009b565b600080fd5b601f909101601f19168101906001600160401b038211908210176102dc57604052565b81601f820112156103d0578051906001600160401b0382116102dc576040519261042c601f8401601f1916602001856103d5565b828452602083830101116103d05760005b82811061045257505060206000918301015290565b8060208092840101518282870101520161043d56fe6080604052600436101561001257600080fd5b60003560e01c806306fdde0314610758578063095ea7b31461073257806318160ddd1461071457806323b872dd1461066c57806330adf81f14610631578063313ce567146105f35780633644e515146105b857806340c10f191461052657806370a08231146104ec5780637ecebe00146104b257806395d89b41146103a75780639dc29fac14610305578063a9059cbb146102d4578063d505accf146101175763dd62ed3e146100c157600080fd5b34610112576040366003190112610112576100da610877565b6100e261088d565b6001600160a01b039182166000908152600460209081526040808320949093168252928352819020549051908152f35b600080fd5b346101125760e036600319011261011257610130610877565b61013861088d565b6044359060643560843560ff8116809103610112578142116102c3576001600160a01b038516600081815260056020526040902080549193919260001984146102ad5783600093608093600160209701905560405190868201927f6e71edae12b1b97f4d1f60370fef10105fa2faae0126114a169c64845d6126c9845288604084015260018060a01b038a1660608401528a8684015260a083015260c082015260c081526101e760e0826107f6565b5190206040518581019161190160f01b83527f000000000000000000000000000000000000000000000000000000000000000060228301526042820152604281526102336062826107f6565b519020906040519182528482015260a435604082015260c435606082015282805260015afa156102a1576000516001600160a01b0316801591908215610296575b505061028557610283926108a3565b005b63ddafbaef60e01b60005260046000fd5b141590508480610274565b6040513d6000823e3d90fd5b634e487b7160e01b600052601160045260246000fd5b63068568f360e21b60005260046000fd5b34610112576040366003190112610112576102fa6102f0610877565b602435903361090a565b602060405160018152f35b346101125760403660031901126101125761031e610877565b6001600160a01b031660008181526003602052604090205460243591908211610396578060005260036020526040600020828154039055600254918083039283116102ad5760207fddf252ad1be2c89b69c2b068fc378daa952ba7f163c4a11628f55a4df523b3ef91600094600255604051908152a3005b631e9acf1760e31b60005260046000fd5b346101125760003660031901126101125760006040519080600154908160011c916001811680156104a8575b6020841081146104945783865290811561046d5750600114610410575b61040c84610400818603826107f6565b6040519182918261082e565b0390f35b600181527fb10e2d527612073b26eecdfd717e6a320cf44b4afac2b0732d9fcbe2b7fa0cf6939250905b80821061045357509091508101602001610400826103f0565b91926001816020925483858801015201910190929161043a565b60ff191660208087019190915292151560051b8501909201925061040091508390506103f0565b634e487b7160e01b83526022600452602483fd5b92607f16926103d3565b34610112576020366003190112610112576001600160a01b036104d3610877565b1660005260056020526020604060002054604051908152f35b34610112576020366003190112610112576001600160a01b0361050d610877565b1660005260036020526020604060002054604051908152f35b346101125760403660031901126101125761053f610877565b6001600160a01b031660243581156105a7577fddf252ad1be2c89b69c2b068fc378daa952ba7f163c4a11628f55a4df523b3ef6020826105836000946002546108fd565b600255848452600382526040842061059c8282546108fd565b9055604051908152a3005b63d92e233d60e01b60005260046000fd5b346101125760003660031901126101125760206040517f00000000000000000000000000000000000000000000000000000000000000008152f35b3461011257600036600319011261011257602060405160ff7f0000000000000000000000000000000000000000000000000000000000000000168152f35b346101125760003660031901126101125760206040517f6e71edae12b1b97f4d1f60370fef10105fa2faae0126114a169c64845d6126c98152f35b3461011257606036600319011261011257610685610877565b61068d61088d565b6001600160a01b038216600081815260046020908152604080832033845290915290205490926044359291600181016106cc575b506102fa935061090a565b838110610703576102fa946000526004602052604060002060018060a01b03331660005260205283604060002091039055846106c1565b6313be252b60e01b60005260046000fd5b34610112576000366003190112610112576020600254604051908152f35b34610112576040366003190112610112576102fa61074e610877565b60243590336108a3565b346101125760003660031901126101125760405160008054600181811c918391811680156107ec575b6020841081146104945783865290811561046d57506001146107ad5761040c84610400818603826107f6565b80805260208120939250905b8082106107d257509091508101602001610400826103f0565b9192600181602092548385880101520191019092916107b9565b92607f1692610781565b90601f8019910116810190811067ffffffffffffffff82111761081857604052565b634e487b7160e01b600052604160045260246000fd5b91909160208152825180602083015260005b818110610861575060409293506000838284010152601f8019910116010190565b8060208092870101516040828601015201610840565b600435906001600160a01b038216820361011257565b602435906001600160a01b038216820361011257565b6001600160a01b0390811660008181526004602090815260408083209590941680835294815290839020859055915193845291927f8c5be1e5ebec7d5bd14f71427d1e84f3dd0314c0f7b2291e5b200ac8c7c3b9259190a3565b919082018092116102ad57565b6001600160a01b03169081156105a7576001600160a01b03169182156105a75781600052600360205280604060002054106103965760207fddf252ad1be2c89b69c2b068fc378daa952ba7f163c4a11628f55a4df523b3ef91836000526003825260406000208181540390558460005260038252604060002061098e8282546108fd565b9055604051908152a356fea2646970667358221220cb7c9e5f91ce0291564b296b1bbdfe483f6d74de26df7a1ae1dce7d86367438264736f6c634300081b0033",
  "linkReferences": {},
  "deployedLinkReferences": {}
}