{
  "_format": "hh-sol-artifact-1",
  "contractName": "Router",
  "sourceName": "contracts/periphery/Router.sol",
  "abi": [
    {
      "inputs": [],
      "stateMutability": "nonpayable",
      "type": "constructor"
    },
    {
      "inputs": [],
      "name": "AlreadyInitialized",
      "type": "error"
    },
    {
      "inputs": [],
      "name": "DeadlineExpired",
      "type": "error"
    },
    {
      "inputs": [],
      "name": "InsufficientBalance",
      "type": "error"
    },
    {
      "inputs": [],
      "name": "InvalidImplementation",
      "type": "error"
    },
    {
      "inputs": [],
      "name": "InvalidImplementation",
      "type": "error"
    },
    {
      "inputs": [
        {
          "internalType": "address",
          "name": "account",
          "type": "address"
        },
        {
          "internalType": "bytes32",
          "name": "role",
          "type": "bytes32"
        }
      ],
      "name": "MissingRole",
      "type": "error"
    },
    {
      "inputs": [
        {
          "internalType": "uint256",
          "name": "index",
          "type": "uint256"
        },
        {
          "internalType": "bytes",
          "name": "reason",
          "type": "bytes"
        }
      ],
      "name": "MulticallFailed",
      "type": "error"
    },
    {
      "inputs": [],
      "name": "NotInitializing",
      "type": "error"
    },
    {
      "inputs": [],
      "name": "PoolNotFound",
      "type": "error"
    },
    {
      "inputs": [],
      "name": "ReentrancyGuardReentrantCall",
      "type": "error"
    },
    {
      "inputs": [],
      "name": "SameToken",
      "type": "error"
    },
    {
      "inputs": [],
      "name": "TransferFailed",
      "type": "error"
    },
    {
      "inputs": [],
      "name": "TransferFromFailed",
      "type": "error"
    },
    {
      "inputs": [],
      "name": "UUPSNotThroughActiveProxy",
      "type": "error"
    },
    {
      "inputs": [],
      "name": "UUPSNotThroughProxy",
      "type": "error"
    },
    {
      "inputs": [],
      "name": "UnauthorizedUpgrade",
      "type": "error"
    },
    {
      "inputs": [],
      "name": "ZeroAddress",
      "type": "error"
    },
    {
      "inputs": [],
      "name": "ZeroAmount",
      "type": "error"
    },
    {
      "anonymous": false,
      "inputs": [
        {
          "indexed": true,
          "internalType": "address",
          "name": "pool",
          "type": "address"
        },
        {
          "indexed": true,
          "internalType": "address",
          "name": "buyer",
          "type": "address"
        },
        {
          "indexed": false,
          "internalType": "uint256",
          "name": "usdlIn",
          "type": "uint256"
        },
        {
          "indexed": false,
          "internalType": "uint256",
          "name": "tokensOut",
          "type": "uint256"
        }
      ],
      "name": "Buy",
      "type": "event"
    },
    {
      "anonymous": false,
      "inputs": [
        {
          "indexed": false,
          "internalType": "uint64",
          "name": "version",
          "type": "uint64"
        }
      ],
      "name": "Initialized",
      "type": "event"
    },
    {
      "anonymous": false,
      "inputs": [
        {
          "indexed": true,
          "internalType": "address",
          "name": "token",
          "type": "address"
        },
        {
          "indexed": true,
          "internalType": "address",
          "name": "pool",
          "type": "address"
        },
        {
          "indexed": true,
          "internalType": "address",
          "name": "creator",
          "type": "address"
        },
        {
          "indexed": false,
          "internalType": "uint256",
          "name": "nftId",
          "type": "uint256"
        }
      ],
      "name": "MarketCreated",
      "type": "event"
    },
    {
      "anonymous": false,
      "inputs": [
        {
          "indexed": true,
          "internalType": "address",
          "name": "sender",
          "type": "address"
        },
        {
          "indexed": true,
          "internalType": "address",
          "name": "tokenIn",
          "type": "address"
        },
        {
          "indexed": true,
          "internalType": "address",
          "name": "tokenOut",
          "type": "address"
        },
        {
          "indexed": false,
          "internalType": "uint256",
          "name": "amountIn",
          "type": "uint256"
        },
        {
          "indexed": false,
          "internalType": "uint256",
          "name": "intermediateUsdl",
          "type": "uint256"
        },
        {
          "indexed": false,
          "internalType": "uint256",
          "name": "amountOut",
          "type": "uint256"
        }
      ],
      "name": "MultihopSwap",
      "type": "event"
    },
    {
      "anonymous": false,
      "inputs": [
        {
          "indexed": true,
          "internalType": "bytes32",
          "name": "role",
          "type": "bytes32"
        },
        {
          "indexed": true,
          "internalType": "bytes32",
          "name": "previousAdminRole",
          "type": "bytes32"
        },
        {
          "indexed": true,
          "internalType": "bytes32",
          "name": "newAdminRole",
          "type": "bytes32"
        }
      ],
      "name": "RoleAdminChanged",
      "type": "event"
    },
    {
      "anonymous": false,
      "inputs": [
        {
          "indexed": true,
          "internalType": "bytes32",
          "name": "role",
          "type": "bytes32"
        },
        {
          "indexed": true,
          "internalType": "address",
          "name": "account",
          "type": "address"
        },
        {
          "indexed": true,
          "internalType": "address",
          "name": "sender",
          "type": "address"
        }
      ],
      "name": "RoleGranted",
      "type": "event"
    },
    {
      "anonymous": false,
      "inputs": [
        {
          "indexed": true,
          "internalType": "bytes32",
          "name": "role",
          "type": "bytes32"
        },
        {
          "indexed": true,
          "internalType": "address",
          "name": "account",
          "type": "address"
        },
        {
          "indexed": true,
          "internalType": "address",
          "name": "sender",
          "type": "address"
        }
      ],
      "name": "RoleRevoked",
      "type": "event"
    },
    {
      "anonymous": false,
      "inputs": [
        {
          "indexed": true,
          "internalType": "address",
          "name": "pool",
          "type": "address"
        },
        {
          "indexed": true,
          "internalType": "address",
          "name": "seller",
          "type": "address"
        },
        {
          "indexed": false,
          "internalType": "uint256",
          "name": "tokensIn",
          "type": "uint256"
        },
        {
          "indexed": false,
          "internalType": "uint256",
          "name": "usdlOut",
          "type": "uint256"
        }
      ],
      "name": "Sell",
      "type": "event"
    },
    {
      "anonymous": false,
      "inputs": [
        {
          "indexed": true,
          "internalType": "address",
          "name": "implementation",
          "type": "address"
        }
      ],
      "name": "Upgraded",
      "type": "event"
    },
    {
      "inputs": [],
      "name": "DEFAULT_ADMIN_ROLE",
      "outputs": [
        {
          "internalType": "bytes32",
          "name": "",
          "type": "bytes32"
        }
      ],
      "stateMutability": "view",
      "type": "function"
    },
    {
      "inputs": [
        {
          "internalType": "address",
          "name": "pool",
          "type": "address"
        },
        {
          "internalType": "uint256",
          "name": "usdlAmountIn",
          "type": "uint256"
        },
        {
          "internalType": "uint256",
          "name": "minTokensOut",
          "type": "uint256"
        },
        {
          "internalType": "uint256",
          "name": "deadline",
          "type": "uint256"
        }
      ],
      "name": "buy",
      "outputs": [
        {
          "internalType": "uint256",
          "name": "amountOut",
          "type": "uint256"
        }
      ],
      "stateMutability": "nonpayable",
      "type": "function"
    },
    {
      "inputs": [
        {
          "internalType": "address",
          "name": "pool",
          "type": "address"
        },
        {
          "internalType": "uint256",
          "name": "usdlAmountIn",
          "type": "uint256"
        },
        {
          "internalType": "uint256",
          "name": "minTokensOut",
          "type": "uint256"
        },
        {
          "internalType": "uint256",
          "name": "deadline",
          "type": "uint256"
        },
        {
          "components": [
            {
              "internalType": "uint256",
              "name": "value",
              "type": "uint256"
            },
            {
              "internalType": "uint256",
              "name": "deadline",
              "type": "uint256"
            },
            {
              "internalType": "uint8",
              "name": "v",
              "type": "uint8"
            },
            {
              "internalType": "bytes32",
              "name": "r",
              "type": "bytes32"
            },
            {
              "internalType": "bytes32",
              "name": "s",
              "type": "bytes32"
            }
          ],
          "internalType": "struct IRouter.PermitParams",
          "name": "permit",
          "type": "tuple"
        }
      ],
      "name": "buyWithPermit",
      "outputs": [
        {
          "internalType": "uint256",
          "name": "amountOut",
          "type": "uint256"
        }
      ],
      "stateMutability": "nonpayable",
      "type": "function"
    },
    {
      "inputs": [
        {
          "internalType": "string",
          "name": "name",
          "type": "string"
        },
        {
          "internalType": "string",
          "name": "symbol",
          "type": "string"
        },
        {
          "internalType": "uint8",
          "name": "feeStrategy",
          "type": "uint8"
        },
        {
          "internalType": "address",
          "name": "optical",
          "type": "address"
        }
      ],
      "name": "createMarket",
      "outputs": [
        {
          "internalType": "address",
          "name": "tokenAddr",
          "type": "address"
        },
        {
          "internalType": "address",
          "name": "poolAddr",
          "type": "address"
        },
        {
          "internalType": "uint256",
          "name": "nftId",
          "type": "uint256"
        }
      ],
      "stateMutability": "nonpayable",
      "type": "function"
    },
    {
      "inputs": [
        {
          "internalType": "string",
          "name": "name",
          "type": "string"
        },
        {
          "internalType": "string",
          "name": "symbol",
          "type": "string"
        },
        {
          "internalType": "uint8",
          "name": "feeStrategy",
          "type": "uint8"
        },
        {
          "internalType": "address",
          "name": "optical",
          "type": "address"
        },
        {
          "components": [
            {
              "internalType": "uint256",
              "name": "value",
              "type": "uint256"
            },
            {
              "internalType": "uint256",
              "name": "deadline",
              "type": "uint256"
            },
            {
              "internalType": "uint8",
              "name": "v",
              "type": "uint8"
            },
            {
              "internalType": "bytes32",
              "name": "r",
              "type": "bytes32"
            },
            {
              "internalType": "bytes32",
              "name": "s",
              "type": "bytes32"
            }
          ],
          "internalType": "struct IRouter.PermitParams",
          "name": "permit",
          "type": "tuple"
        }
      ],
      "name": "createMarketWithPermit",
      "outputs": [
        {
          "internalType": "address",
          "name": "tokenAddr",
          "type": "address"
        },
        {
          "internalType": "address",
          "name": "poolAddr",
          "type": "address"
        },
        {
          "internalType": "uint256",
          "name": "nftId",
          "type": "uint256"
        }
      ],
      "stateMutability": "nonpayable",
      "type": "function"
    },
    {
      "inputs": [],
      "name": "factory",
      "outputs": [
        {
          "internalType": "address",
          "name": "",
          "type": "address"
        }
      ],
      "stateMutability": "view",
      "type": "function"
    },
    {
      "inputs": [
        {
          "internalType": "bytes32",
          "name": "role",
          "type": "bytes32"
        }
      ],
      "name": "getRoleAdmin",
      "outputs": [
        {
          "internalType": "bytes32",
          "name": "",
          "type": "bytes32"
        }
      ],
      "stateMutability": "view",
      "type": "function"
    },
    {
      "inputs": [
        {
          "internalType": "bytes32",
          "name": "role",
          "type": "bytes32"
        },
        {
          "internalType": "address",
          "name": "account",
          "type": "address"
        }
      ],
      "name": "grantRole",
      "outputs": [],
      "stateMutability": "nonpayable",
      "type": "function"
    },
    {
      "inputs": [
        {
          "internalType": "bytes32",
          "name": "role",
          "type": "bytes32"
        },
        {
          "internalType": "address",
          "name": "account",
          "type": "address"
        }
      ],
      "name": "hasRole",
      "outputs": [
        {
          "internalType": "bool",
          "name": "",
          "type": "bool"
        }
      ],
      "stateMutability": "view",
      "type": "function"
    },
    {
      "inputs": [
        {
          "internalType": "address",
          "name": "_factory",
          "type": "address"
        },
        {
          "internalType": "address",
          "name": "_poolRegistry",
          "type": "address"
        },
        {
          "internalType": "address",
          "name": "_protocolConfig",
          "type": "address"
        },
        {
          "internalType": "address",
          "name": "_usdlAddress",
          "type": "address"
        },
        {
          "internalType": "address",
          "name": "_admin",
          "type": "address"
        }
      ],
      "name": "initialize",
      "outputs": [],
      "stateMutability": "nonpayable",
      "type": "function"
    },
    {
      "inputs": [
        {
          "internalType": "bytes[]",
          "name": "data",
          "type": "bytes[]"
        }
      ],
      "name": "multicall",
      "outputs": [
        {
          "internalType": "bytes[]",
          "name": "results",
          "type": "bytes[]"
        }
      ],
      "stateMutability": "nonpayable",
      "type": "function"
    },
    {
      "inputs": [],
      "name": "poolRegistry",
      "outputs": [
        {
          "internalType": "address",
          "name": "",
          "type": "address"
        }
      ],
      "stateMutability": "view",
      "type": "function"
    },
    {
      "inputs": [],
      "name": "protocolConfig",
      "outputs": [
        {
          "internalType": "address",
          "name": "",
          "type": "address"
        }
      ],
      "stateMutability": "view",
      "type": "function"
    },
    {
      "inputs": [],
      "name": "proxiableUUID",
      "outputs": [
        {
          "internalType": "bytes32",
          "name": "",
          "type": "bytes32"
        }
      ],
      "stateMutability": "view",
      "type": "function"
    },
    {
      "inputs": [
        {
          "internalType": "bytes32",
          "name": "role",
          "type": "bytes32"
        },
        {
          "internalType": "address",
          "name": "callerConfirmation",
          "type": "address"
        }
      ],
      "name": "renounceRole",
      "outputs": [],
      "stateMutability": "nonpayable",
      "type": "function"
    },
    {
      "inputs": [
        {
          "internalType": "bytes32",
          "name": "role",
          "type": "bytes32"
        },
        {
          "internalType": "address",
          "name": "account",
          "type": "address"
        }
      ],
      "name": "revokeRole",
      "outputs": [],
      "stateMutability": "nonpayable",
      "type": "function"
    },
    {
      "inputs": [
        {
          "internalType": "address",
          "name": "pool",
          "type": "address"
        },
        {
          "internalType": "uint256",
          "name": "tokenAmountIn",
          "type": "uint256"
        },
        {
          "internalType": "uint256",
          "name": "minUsdlOut",
          "type": "uint256"
        },
        {
          "internalType": "uint256",
          "name": "deadline",
          "type": "uint256"
        }
      ],
      "name": "sell",
      "outputs": [
        {
          "internalType": "uint256",
          "name": "amountOut",
          "type": "uint256"
        }
      ],
      "stateMutability": "nonpayable",
      "type": "function"
    },
    {
      "inputs": [
        {
          "internalType": "address",
          "name": "pool",
          "type": "address"
        },
        {
          "internalType": "uint256",
          "name": "tokenAmountIn",
          "type": "uint256"
        },
        {
          "internalType": "uint256",
          "name": "minUsdlOut",
          "type": "uint256"
        },
        {
          "internalType": "uint256",
          "name": "deadline",
          "type": "uint256"
        },
        {
          "components": [
            {
              "internalType": "uint256",
              "name": "value",
              "type": "uint256"
            },
            {
              "internalType": "uint256",
              "name": "deadline",
              "type": "uint256"
            },
            {
              "internalType": "uint8",
              "name": "v",
              "type": "uint8"
            },
            {
              "internalType": "bytes32",
              "name": "r",
              "type": "bytes32"
            },
            {
              "internalType": "bytes32",
              "name": "s",
              "type": "bytes32"
            }
          ],
          "internalType": "struct IRouter.PermitParams",
          "name": "permit",
          "type": "tuple"
        }
      ],
      "name": "sellWithPermit",
      "outputs": [
        {
          "internalType": "uint256",
          "name": "amountOut",
          "type": "uint256"
        }
      ],
      "stateMutability": "nonpayable",
      "type": "function"
    },
    {
      "inputs": [
        {
          "internalType": "address",
          "name": "tokenIn",
          "type": "address"
        },
        {
          "internalType": "address",
          "name": "tokenOut",
          "type": "address"
        },
        {
          "internalType": "uint256",
          "name": "amountIn",
          "type": "uint256"
        },
        {
          "internalType": "uint256",
          "name": "minAmountOut",
          "type": "uint256"
        },
        {
          "internalType": "uint256",
          "name": "deadline",
          "type": "uint256"
        }
      ],
      "name": "swapTokenForToken",
      "outputs": [
        {
          "internalType": "uint256",
          "name": "amountOut",
          "type": "uint256"
        },
        {
          "internalType": "uint256",
          "name": "intermediateUsdl",
          "type": "uint256"
        }
      ],
      "stateMutability": "nonpayable",
      "type": "function"
    },
    {
      "inputs": [
        {
          "internalType": "address",
          "name": "tokenIn",
          "type": "address"
        },
        {
          "internalType": "address",
          "name": "tokenOut",
          "type": "address"
        },
        {
          "internalType": "uint256",
          "name": "amountIn",
          "type": "uint256"
        },
        {
          "internalType": "uint256",
          "name": "minAmountOut",
          "type": "uint256"
        },
        {
          "internalType": "uint256",
          "name": "deadline",
          "type": "uint256"
        },
        {
          "components": [
            {
              "internalType": "uint256",
              "name": "value",
              "type": "uint256"
            },
            {
              "internalType": "uint256",
              "name": "deadline",
              "type": "uint256"
            },
            {
              "internalType": "uint8",
              "name": "v",
              "type": "uint8"
            },
            {
              "internalType": "bytes32",
              "name": "r",
              "type": "bytes32"
            },
            {
              "internalType": "bytes32",
              "name": "s",
              "type": "bytes32"
            }
          ],
          "internalType": "struct IRouter.PermitParams",
          "name": "permit",
          "type": "tuple"
        }
      ],
      "name": "swapTokenForTokenWithPermit",
      "outputs": [
        {
          "internalType": "uint256",
          "name": "amountOut",
          "type": "uint256"
        },
        {
          "internalType": "uint256",
          "name": "intermediateUsdl",
          "type": "uint256"
        }
      ],
      "stateMutability": "nonpayable",
      "type": "function"
    },
    {
      "inputs": [
        {
          "internalType": "address",
          "name": "newImplementation",
          "type": "address"
        },
        {
          "internalType": "bytes",
          "name": "data",
          "type": "bytes"
        }
      ],
      "name": "upgradeToAndCall",
      "outputs": [],
      "stateMutability": "payable",
      "type": "function"
    },
    {
      "inputs": [],
      "name": "usdlAddress",
      "outputs": [
        {
          "internalType": "address",
          "name": "",
          "type": "address"
        }
      ],
      "stateMutability": "view",
      "type": "function"
    }
  ],
  "bytecode": "0x60a080604052346100e9573060805260017f9b779b17422d0df92223018b32b4d1fa46e071723d6817e2486d003becc55f0055600080516020611d9d8339815191525460ff8160401c166100d9576002600160401b03196001600160401b03821601610085575b604051611cae90816100ef823960805181818161068501526107620152f35b6001600160401b0319166001600160401b03908117600080516020611d9d8339815191525581527fc7f505b2f371ae2175ee4913f4499e1f2633a7b5936321eed1cdaeb6115181d290602090a13880610066565b62dc149f60e41b60005260046000fd5b600080fdfe6080604052600436101561001257600080fd5b60003560e01c80631459457a14610bc15780631622dbe414610ba55780631894fbf814610ae0578063248a9ca314610ab35780632e10f97614610a8a5780632f2ff15d14610a4a57806336568abe146109fb5780633aa73d77146109445780634f1ef286146106ee57806352d1902d1461067257806357c0d7fd146105fa5780638ef5184b1461059d57806391d148541461055057806392cdbac514610534578063a217fddf14610518578063ac9650d81461035a578063afcff50f14610331578063c45a015514610308578063d547741f146102bf578063dc6142951461017a578063f5efbb4f146101515763ffafb5691461010e57600080fd5b3461014c57602061014461013f61012436610e53565b600454919592949291309033906001600160a01b03166112a0565b611124565b604051908152f35b600080fd5b3461014c57600036600319011261014c576003546040516001600160a01b039091168152602090f35b3461014c5761012036600319011261014c576004356001600160401b03811161014c576101ab903690600401610ee2565b906024356001600160401b03811161014c576101cb903690600401610ee2565b6101d3610f0f565b906101dc610e0f565b9260a036608319011261014c576101f1611264565b6004546001600160a01b03169560c43560ff8116969087900361014c576000806102bb996102819982604051602081019263d505accf60e01b8452336024830152306044830152608435606483015260a435608483015260a482015260e43560c48201526101043560e482015260e4815261026e61010482610e90565b51925af15061027b610f8b565b506118c4565b6001600080516020611c5983398151915255604080516001600160a01b039485168152939092166020840152908201529081906060820190565b0390f35b3461014c57604036600319011261014c576103066004356102de610df9565b906103016102fa82600052600060205260016040600020015490565b339061167b565b6116c9565b005b3461014c57600036600319011261014c576001546040516001600160a01b039091168152602090f35b3461014c57600036600319011261014c576002546040516001600160a01b039091168152602090f35b3461014c57602036600319011261014c576004356001600160401b03811161014c573660238201121561014c5780600401356001600160401b03811161014c573660248260051b8401011161014c576103b281610f74565b916103c06040519384610e90565b818352601f196103cf83610f74565b0160005b818110610507575050368190036042190160005b8381101561049f57600060248260051b850101358381121561049b5784016024810135906001600160401b0382116104975760440181360381136104975790829181604051928392833781018381520390305af4610443610f8b565b901561046957906001916104578288610fbb565b526104628187610fbb565b50016103e7565b90610493604051928392631b3dcf4560e21b84526004840152604060248401526044830190610f1f565b0390fd5b8280fd5b5080fd5b846040518091602082016020835281518091526040830190602060408260051b8601019301916000905b8282106104d857505050500390f35b919360019193955060206104f78192603f198a82030186528851610f1f565b96019201920185949391926104c9565b8060606020809388010152016103d3565b3461014c57600036600319011261014c57602060405160008152f35b3461014c57602061014461054736610e25565b92919091611751565b3461014c57604036600319011261014c57610569610df9565b600435600052600060205260406000209060018060a01b0316600052602052602060ff604060002054166040519015158152f35b3461014c5760a036600319011261014c5760406105dc6105bb610de3565b6105c3610df9565b6105cb611264565b608435916064359160443591611333565b6001600080516020611c598339815191525582519182526020820152f35b3461014c57608036600319011261014c576004356001600160401b03811161014c5761062a903690600401610ee2565b90602435906001600160401b03821161014c576102bb92610652610281933690600401610ee2565b9061065b610f0f565b92610664610e0f565b9461066d611264565b6118c4565b3461014c57600036600319011261014c577f00000000000000000000000000000000000000000000000000000000000000006001600160a01b031630036106dd5760206040517f360894a13ba1a3210667c828492db98dca3e2076cc3735a920a3ca505d382bbc8152f35b6345a93fc960e01b60005260046000fd5b604036600319011261014c57610702610de3565b602435906001600160401b03821161014c573660238301121561014c57816004013561072d81610ec7565b9061073b6040519283610e90565b8082526020820193366024838301011161014c5781600092602460209301873783010152307f00000000000000000000000000000000000000000000000000000000000000006001600160a01b031614610933573360009081527fad3228b676f7d3cd4284a5443f17f1962b36e491b30a40b2405849e597ba5fb5602052604090205460ff161561091a576040516352d1902d60e01b81526001600160a01b03831690602081600481855afa600091816108e6575b506108065763340aafcd60e11b60005260046000fd5b7f360894a13ba1a3210667c828492db98dca3e2076cc3735a920a3ca505d382bbc036108d557823b156108d557827f360894a13ba1a3210667c828492db98dca3e2076cc3735a920a3ca505d382bbc557fbc7cd75a20ee27fd9adebab32041f755214dbc6bffa90cc0225b39da2e5c2d3b600080a2518061088357005b60009283925af4610892610f8b565b501561089a57005b60405162461bcd60e51b81526020600482015260136024820152721d5c19dc985919481a5b9a5d0819985a5b1959606a1b6044820152606490fd5b63340aafcd60e11b60005260046000fd5b9091506020813d602011610912575b8161090260209383610e90565b8101031261014c575190866107f0565b3d91506108f5565b62b0d32560e11b60005233600452600060245260446000fd5b6309e1070b60e31b60005260046000fd5b3461014c5761095236610e53565b6040516313aedd4b60e31b815294919391906020866004816001600160a01b0386165afa9586156109ef576000966109a1575b60206101448787878761099c888e309033906112a0565b611751565b9550939291906020863d6020116109e7575b816109c060209383610e90565b8101031261014c5761099c610144956109da602098610f60565b9750919293949550610985565b3d91506109b3565b6040513d6000823e3d90fd5b3461014c57604036600319011261014c57600435610a17610df9565b336001600160a01b0390911603610a33576103069033906116c9565b62b0d32560e11b6000523360045260245260446000fd5b3461014c57604036600319011261014c57610306600435610a69610df9565b90610a856102fa82600052600060205260016040600020015490565b611098565b3461014c57600036600319011261014c576004546040516001600160a01b039091168152602090f35b3461014c57602036600319011261014c576020610144600435600052600060205260016040600020015490565b3461014c5761014036600319011261014c57610afa610de3565b610b02610df9565b9060a03660a319011261014c57610b17611264565b60e4359060ff821680920361014c576040926000806105dc948651602081019163d505accf60e01b835233602483015230604483015260a435606483015260c435608483015260a48201526101043560c48201526101243560e482015260e48152610b8461010482610e90565b519082865af150610b93610f8b565b50608435916064359160443591611333565b3461014c576020610144610bb836610e25565b92919091611124565b3461014c5760a036600319011261014c57610bda610de3565b610be2610df9565b6044356001600160a01b0381169081900361014c57610bff610e0f565b6084356001600160a01b0381169490929085840361014c57600080516020611c39833981519152549560ff8760401c1615966001600160401b038116600181101580610ddc575b610dc457151580610dd4575b610dc45787610d97575b5060016001600160401b0319600080516020611c39833981519152541617600080516020611c398339815191525515610d86576001600160a01b0316938415610d86576001600160a01b0316918215610d86576001600160a01b0316918215610d8657610d14946001600160601b0360a01b60015416176001556001600160601b0360a01b60025416176002556001600160601b0360a01b60035416176003556001600160601b0360a01b6004541617600455610fe5565b506001600080516020611c5983398151915255610d2d57005b68ff000000000000000019600080516020611c398339815191525416600080516020611c39833981519152557fc7f505b2f371ae2175ee4913f4499e1f2633a7b5936321eed1cdaeb6115181d2602060405160018152a1005b63d92e233d60e01b60005260046000fd5b68ff000000000000000019166801000000000000000017600080516020611c398339815191525587610c5c565b62dc149f60e41b60005260046000fd5b508715610c52565b5088610c46565b600435906001600160a01b038216820361014c57565b602435906001600160a01b038216820361014c57565b606435906001600160a01b038216820361014c57565b608090600319011261014c576004356001600160a01b038116810361014c5790602435906044359060643590565b61012060031982011261014c576004356001600160a01b038116810361014c5791602435916044359160a060643592608319011261014c57608490565b90601f801991011681019081106001600160401b03821117610eb157604052565b634e487b7160e01b600052604160045260246000fd5b6001600160401b038111610eb157601f01601f191660200190565b9181601f8401121561014c578235916001600160401b03831161014c576020838186019501011161014c57565b6044359060ff8216820361014c57565b919082519283825260005b848110610f4b575050826000602080949584010152601f8019910116010190565b80602080928401015182828601015201610f2a565b51906001600160a01b038216820361014c57565b6001600160401b038111610eb15760051b60200190565b3d15610fb6573d90610f9c82610ec7565b91610faa6040519384610e90565b82523d6000602084013e565b606090565b8051821015610fcf5760209160051b010190565b634e487b7160e01b600052603260045260246000fd5b6001600160a01b03811660009081527fad3228b676f7d3cd4284a5443f17f1962b36e491b30a40b2405849e597ba5fb5602052604090205460ff161561102b5750600090565b6001600160a01b031660008181527fad3228b676f7d3cd4284a5443f17f1962b36e491b30a40b2405849e597ba5fb560205260408120805460ff191660011790553391907f2f8788117e7eff1d82e926ec794901d17c78024a50270940304540a733656f0d8180a4600190565b6000818152602081815260408083206001600160a01b038616845290915290205460ff16156110c8575050600090565b6000818152602081815260408083206001600160a01b0395909516808452949091528120805460ff19166001179055339291907f2f8788117e7eff1d82e926ec794901d17c78024a50270940304540a733656f0d9080a4600190565b9392909193814211611253578215611242576001600160a01b038116918215610d865761115082611b23565b15611231576111af956111728560209460018060a01b03600454163390611b8f565b604051633826229b60e11b8152600481018690526024810191909152600160448201523360648201526084810191909152948590819060a4820190565b03816000855af19384156109ef576000946111fa575b508360405192835260208301527f89f5adc174562e07c9c9b1cae7109bbecb21cf9d1b2847e550042b8653c54a0e60403393a3565b90936020823d602011611229575b8161121560209383610e90565b8101031261122657505192386111c5565b80fd5b3d9150611208565b6301dbb3ff60e61b60005260046000fd5b631f2a200560e01b60005260046000fd5b631ab7da6b60e01b60005260046000fd5b6002600080516020611c59833981519152541461128f576002600080516020611c5983398151915255565b633ee5aeb560e01b60005260046000fd5b9092919260408301359260ff841680940361014c576000946080869592869360405193602085019663d505accf60e01b885260018060a01b0316602486015260018060a01b03166044850152813560648501526020820135608485015260a4840152606081013560c4840152013560e482015260e4815261132361010482610e90565b51925af150611330610f8b565b50565b93949290854211611253578215611242576001600160a01b03908116929085169182841461166a5782158015611662575b610d865760025460405163bbadc03b60e01b8152600481018590526001600160a01b039091169790966020886024818c5afa9788156109ef57600098611623575b50602060249899604051998a809263bbadc03b60e01b82528a60048301525afa9788156109ef576000986115e7575b506001600160a01b038916801580156115d6575b611231576113fd8560009b6020943390611b8f565b60a4604051809b8193633826229b60e11b83528860048401528160248401528160448401523060648401528660848401525af19788156109ef576000986115a0575b50908791600080849960018060a01b03600454169082604051602081019263a9059cbb60e01b845260018060a01b03169889602483015260448201526044815261148a606482610e90565b51925af1611496610f8b565b9015908115611570575b5061155f57604051633826229b60e11b8152600481018a9052602481019290925260016044830152336064830152608482015290602090829060a49082906000905af19081156109ef5760009161152d575b508096604051928352602083015260408201527fef2dce1faa347130cf25c6d059af1f6f181983e69a2fadd79ed8751a532d3d9660603392a4565b906020823d602011611557575b8161154760209383610e90565b81010312611226575051386114f2565b3d915061153a565b6312171d8360e31b60005260046000fd5b8051801515925082611585575b5050386114a0565b6115989250602080918301019101611b0b565b15388061157d565b9091976020823d6020116115ce575b816115bc60209383610e90565b8101031261122657505196903861143f565b3d91506115af565b506001600160a01b038916156113e8565b9097506020813d60201161161b575b8161160360209383610e90565b8101031261014c5761161490610f60565b96386113d4565b3d91506115f6565b97506020883d60201161165a575b8161163e60209383610e90565b8101031261014c576020611653602499610f60565b98506113a5565b3d9150611631565b508315611364565b63100dac0560e11b60005260046000fd5b90816000526000602052604060002060018060a01b03821660005260205260ff60406000205416156116ab575050565b62b0d32560e11b60005260018060a01b031660045260245260446000fd5b6000818152602081815260408083206001600160a01b038616845290915290205460ff166116f8575050600090565b6000818152602081815260408083206001600160a01b0395909516808452949091528120805460ff19169055339291907ff6391f5c32d9c69d2a47ea670b442974b53935d1edc7fd64eb21e047a839171b9080a4600190565b90919392804211611253578215611242576001600160a01b038216918215610d865761177c81611b23565b15611231576040516313aedd4b60e31b8152602081600481875afa80156109ef578591600091611862575b50916117b4923390611b8f565b60405194633826229b60e11b8652836004870152602486015260006044860152336064860152608485015260208460a4816000855af19384156109ef5760009461182e575b508360405192835260208301527fa082022e93cfcd9f1da5f9236718053910f7e840da080c789c7845698dc032ff60403393a3565b90936020823d60201161185a575b8161184960209383610e90565b8101031261122657505192386117f9565b3d915061183c565b9150506020813d60201161189b575b8161187e60209383610e90565b8101031261014c576117b4916118948692610f60565b90926117a7565b3d9150611871565b908060209392818452848401376000828201840152601f01601f1916010190565b91929594936004602060018060a01b0360035416604051928380926337382d3960e21b82525afa9081156109ef57600091611ad9575b5080611a20575b5061194a93929160009160609660ff61195c60018060a01b0360015416976040519c8d9a8b998a98635db8591560e01b8a523360048b015260a060248b015260a48a01916118a3565b878103600319016044890152916118a3565b921660648401526001600160a01b0316608483015203925af19182156109ef57600091829183946119cd575b506040518481529293919233906001600160a01b0380861691908716907ffe7e33f239f268e882861cae62e631558d814973588d97738cc084b8b348959990602090a4565b92915092506060823d606011611a18575b816119eb60609383610e90565b8101031261122657506119fd81610f60565b6040611a0b60208401610f60565b9201519091909238611988565b3d91506119de565b6001546040516361d027b360e01b815290602090829060049082906001600160a01b03165afa9081156109ef57600091611a85575b5091606096611a7961194a9796959360009560018060a01b03600454163390611b8f565b96509150919293611901565b959493919290506020863d602011611ad1575b81611aa560209383610e90565b8101031261014c57606096611a79600094611ac261194a99610f60565b93955093959697505096611a55565b3d9150611a98565b906020823d602011611b03575b81611af360209383610e90565b81010312611226575051386118fa565b3d9150611ae6565b9081602091031261014c5751801515810361014c5790565b60025460405163c699e63360e01b81526001600160a01b0392831660048201529160209183916024918391165afa9081156109ef57600091611b63575090565b611b85915060203d602011611b88575b611b7d8183610e90565b810190611b0b565b90565b503d611b73565b6040516323b872dd60e01b602082019081526001600160a01b039384166024830152939092166044830152606480830194909452928152600092839290918390611bda608482610e90565b51925af1611be6610f8b565b9015908115611c08575b50611bf757565b631e4e7d0960e21b60005260046000fd5b8051801515925082611c1d575b505038611bf0565b611c309250602080918301019101611b0b565b153880611c1556fe4377386e2795aba8c0ce23a1e6e67bac790e4b4166f14b7e9365049ab946f8c09b779b17422d0df92223018b32b4d1fa46e071723d6817e2486d003becc55f00a26469706673582212202e17f7a3227bc7de41836d221225a45e8e26ba293142a2bf21ed784f632e975b64736f6c634300081b00334377386e2795aba8c0ce23a1e6e67bac790e4b4166f14b7e9365049ab946f8c0",
  "linkReferences": {},
  "deployedLinkReferences": {}
}