{
  "_format": "hh-sol-artifact-1",
  "contractName": "MockSidioraPoolRegistry",
  "sourceName": "contracts/meta-ag/mocks/MockSidioraPoolRegistry.sol",
  "abi": [
    {
      "inputs": [
        {
          "internalType": "address",
          "name": "token",
          "type": "address"
        }
      ],
      "name": "getPoolByToken",
      "outputs": [
        {
          "internalType": "address",
          "name": "",
          "type": "address"
        }
      ],
      "stateMutability": "view",
      "type": "function"
    },
    {
      "inputs": [],
      "name": "revertOnLookup",
      "outputs": [
        {
          "internalType": "bool",
          "name": "",
          "type": "bool"
        }
      ],
      "stateMutability": "view",
      "type": "function"
    },
    {
      "inputs": [
        {
          "internalType": "address",
          "name": "token",
          "type": "address"
        },
        {
          "internalType": "address",
          "name": "pool",
          "type": "address"
        }
      ],
      "name": "setPoolByToken",
      "outputs": [],
      "stateMutability": "nonpayable",
      "type": "function"
    },
    {
      "inputs": [
        {
          "internalType": "bool",
          "name": "v",
          "type": "bool"
        }
      ],
      "name": "setRevertOnLookup",
      "outputs": [],
      "stateMutability": "nonpayable",
      "type": "function"
    }
  ],
  "bytecode": "0x608080604052346015576101e3908161001b8239f35b600080fdfe6080604052600436101561001257600080fd5b60003560e01c80637049fe0f1461013e5780637dd17d911461011b578063bbadc03b1461007e5763d5fa39801461004857600080fd5b34610079576020366003190112610079576004358015158091036100795760ff801960015416911617600155600080f35b600080fd5b3461007957602036600319011261007957610097610197565b60ff600154166100c7576001600160a01b0390811660009081526020818152604091829020549151919092168152f35b60405162461bcd60e51b815260206004820152602660248201527f4d6f636b536964696f7261506f6f6c52656769737472793a20666f72636564206044820152651c995d995c9d60d21b6064820152608490fd5b3461007957600036600319011261007957602060ff600154166040519015158152f35b3461007957604036600319011261007957610157610197565b6024356001600160a01b0381169190829003610079576001600160a01b0316600090815260208190526040902080546001600160a01b0319169091179055005b600435906001600160a01b03821682036100795756fea2646970667358221220d7949b5bcaa68264ed35d1910dcb1a716bbd40bbba540ead96d695c2d07e131164736f6c634300081b0033",
  "linkReferences": {},
  "deployedLinkReferences": {}
}