{
  "_format": "hh-sol-artifact-1",
  "contractName": "FeeLibWrapper",
  "sourceName": "contracts/test/FeeLibWrapper.sol",
  "abi": [
    {
      "inputs": [],
      "name": "DivisionByZero",
      "type": "error"
    },
    {
      "inputs": [],
      "name": "Overflow",
      "type": "error"
    },
    {
      "inputs": [
        {
          "internalType": "uint256",
          "name": "feeDecayRate",
          "type": "uint256"
        },
        {
          "internalType": "uint256",
          "name": "poolAgeSeconds",
          "type": "uint256"
        }
      ],
      "name": "calculateAgeFactor",
      "outputs": [
        {
          "internalType": "uint256",
          "name": "",
          "type": "uint256"
        }
      ],
      "stateMutability": "pure",
      "type": "function"
    },
    {
      "inputs": [
        {
          "internalType": "uint256",
          "name": "concentrationWeight",
          "type": "uint256"
        },
        {
          "internalType": "uint256",
          "name": "topHolderBps",
          "type": "uint256"
        }
      ],
      "name": "calculateConcentrationFactor",
      "outputs": [
        {
          "internalType": "uint256",
          "name": "",
          "type": "uint256"
        }
      ],
      "stateMutability": "pure",
      "type": "function"
    },
    {
      "inputs": [
        {
          "internalType": "uint256",
          "name": "baseFee",
          "type": "uint256"
        },
        {
          "internalType": "uint256",
          "name": "minFee",
          "type": "uint256"
        },
        {
          "internalType": "uint256",
          "name": "maxFee",
          "type": "uint256"
        },
        {
          "internalType": "uint256",
          "name": "feeDecayRate",
          "type": "uint256"
        },
        {
          "internalType": "uint256",
          "name": "volatilityWeight",
          "type": "uint256"
        },
        {
          "internalType": "uint256",
          "name": "concentrationWeight",
          "type": "uint256"
        },
        {
          "internalType": "uint256",
          "name": "poolAgeSeconds",
          "type": "uint256"
        },
        {
          "internalType": "uint256",
          "name": "volatility",
          "type": "uint256"
        },
        {
          "internalType": "uint256",
          "name": "topHolderBps",
          "type": "uint256"
        }
      ],
      "name": "calculateDynamicFee",
      "outputs": [
        {
          "internalType": "uint256",
          "name": "",
          "type": "uint256"
        }
      ],
      "stateMutability": "pure",
      "type": "function"
    },
    {
      "inputs": [
        {
          "internalType": "uint256[8]",
          "name": "snapshots",
          "type": "uint256[8]"
        },
        {
          "internalType": "uint256",
          "name": "count",
          "type": "uint256"
        }
      ],
      "name": "calculateVolatility",
      "outputs": [
        {
          "internalType": "uint256",
          "name": "",
          "type": "uint256"
        }
      ],
      "stateMutability": "pure",
      "type": "function"
    },
    {
      "inputs": [
        {
          "internalType": "uint256",
          "name": "volatilityWeight",
          "type": "uint256"
        },
        {
          "internalType": "uint256",
          "name": "volatility",
          "type": "uint256"
        }
      ],
      "name": "calculateVolatilityFactor",
      "outputs": [
        {
          "internalType": "uint256",
          "name": "",
          "type": "uint256"
        }
      ],
      "stateMutability": "pure",
      "type": "function"
    }
  ],
  "bytecode": "0x60808060405234601557610574908161001b8239f35b600080fdfe6080604052600436101561001257600080fd5b60003560e01c80630f6573f414610131578063ad61f338146100ab578063dd8f9caa14610092578063ea6e73da146100795763eb92cfc51461005357600080fd5b3461007457602061006c610066366101b9565b90610454565b604051908152f35b600080fd5b3461007457602061006c61008c366101b9565b90610444565b3461007457602061006c6100a5366101b9565b9061041f565b346100745761012036600319011261007457366023121561007457604051610100810181811067ffffffffffffffff82111761011b57604052803661010411610074576020916004915b610104831061010c578361006c6101043584610246565b823581529183019183016100f5565b634e487b7160e01b600052604160045260246000fd5b346100745761012036600319011261007457602060243560443561018d61015c60c435606435610454565b61018861016d60e435608435610444565b61018861017f6101043560a43561041f565b936004356101cf565b6101cf565b90828210156101a0575050604051908152f35b8181929350116101b1575b5061006c565b9050826101ab565b6040906003190112610074576004359060243590565b919082018092116101dc57565b634e487b7160e01b600052601160045260246000fd5b9060088110156102035760051b0190565b634e487b7160e01b600052603260045260246000fd5b919082039182116101dc57565b8115610230570490565b634e487b7160e01b600052601260045260246000fd5b919060028110610418576000908160015b82811061039057508215610387578261026f91610226565b6000916001915b8183106102ae5750505061028b929350610226565b620f4240810290808204620f424014901517156101dc576102ab906104eb565b90565b9091926000906102be85896101f2565b51600019860186811193909184610373576102d9838c6101f2565b51101561034f57506102eb868a6101f2565b51926101dc57600192610301610308928b6101f2565b5190610219565b905b8380831115610339576103236103299161032f94610219565b8061046e565b906101cf565b935b019190610276565b6103236103499361032992610219565b93610331565b6001935061036d9161036291508a6101f2565b51610301878b6101f2565b9061030a565b634e487b7160e01b82526011600452602482fd5b50600093505050565b929061039c84876101f2565b5160001985018581119291836101dc576103b6828a6101f2565b5110156103f5576103c786896101f2565b51926101dc576103de92610301610329928a6101f2565b905b60001981146101dc5760018091019301610257565b610412925061040761032991896101f2565b51610301878a6101f2565b906103e0565b5060009150565b811561043d578181029181830414901517156101dc57612710900490565b5050600090565b90801561043d576102ab9161046e565b90610e109004600101806001116101dc576102ab91610226565b600019828209828202918280831092039180830392146104df57620f42408210156104ce577fde8f6cefed634549b62c77574f722e1ac57e23f24d8fd5cb790fb65668c2613993620f4240910990828211900360fa1b910360061c170290565b631a93c68960e11b60005260046000fd5b5050620f424091500490565b90811561053857600382111561053257818060011c600181018091116101dc57905b838210610518575050565b909250610529836101888184610226565b60011c9061050d565b60019150565b6000915056fea2646970667358221220201c6f2a312f094bfa302894ecbaea258cdd09fa7ee6f2d5611e4e9510c4468564736f6c634300081b0033",
  "linkReferences": {},
  "deployedLinkReferences": {}
}