{
  "_format": "hh-sol-artifact-1",
  "contractName": "MockInitializable",
  "sourceName": "contracts/test/MockInitializable.sol",
  "abi": [
    {
      "inputs": [],
      "name": "AlreadyInitialized",
      "type": "error"
    },
    {
      "inputs": [],
      "name": "NotInitializing",
      "type": "error"
    },
    {
      "anonymous": false,
      "inputs": [
        {
          "indexed": false,
          "internalType": "uint64",
          "name": "version",
          "type": "uint64"
        }
      ],
      "name": "Initialized",
      "type": "event"
    },
    {
      "inputs": [],
      "name": "getInitializedVersion",
      "outputs": [
        {
          "internalType": "uint64",
          "name": "",
          "type": "uint64"
        }
      ],
      "stateMutability": "view",
      "type": "function"
    },
    {
      "inputs": [
        {
          "internalType": "uint256",
          "name": "_value",
          "type": "uint256"
        }
      ],
      "name": "initialize",
      "outputs": [],
      "stateMutability": "nonpayable",
      "type": "function"
    },
    {
      "inputs": [],
      "name": "initialized",
      "outputs": [
        {
          "internalType": "bool",
          "name": "",
          "type": "bool"
        }
      ],
      "stateMutability": "view",
      "type": "function"
    },
    {
      "inputs": [],
      "name": "isInitializing",
      "outputs": [
        {
          "internalType": "bool",
          "name": "",
          "type": "bool"
        }
      ],
      "stateMutability": "view",
      "type": "function"
    },
    {
      "inputs": [
        {
          "internalType": "uint256",
          "name": "_value",
          "type": "uint256"
        }
      ],
      "name": "reinitialize2",
      "outputs": [],
      "stateMutability": "nonpayable",
      "type": "function"
    },
    {
      "inputs": [
        {
          "internalType": "uint256",
          "name": "_value",
          "type": "uint256"
        }
      ],
      "name": "reinitialize3",
      "outputs": [],
      "stateMutability": "nonpayable",
      "type": "function"
    },
    {
      "inputs": [],
      "name": "value",
      "outputs": [
        {
          "internalType": "uint256",
          "name": "",
          "type": "uint256"
        }
      ],
      "stateMutability": "view",
      "type": "function"
    }
  ],
  "bytecode": "0x608080604052346015576103dc908161001b8239f35b600080fdfe608080604052600436101561001357600080fd5b60003560e01c9081630e3d6a7c146102ed57508063158ef93e146102ca5780633ec91f05146102975780633fa4f24514610279578063b3c6501514610244578063dcd51202146101a95763fe4b84df1461006c57600080fd5b346101a45760203660031901126101a4576000805160206103878339815191525460ff8160401c16159067ffffffffffffffff811660018110158061019d575b61018557151580610195575b6101855781610158575b506000805160206103878339815191525490600167ffffffffffffffff1983161760008051602061038783398151915255600435600055600160ff198154161760015561010b57005b60019068ffffffffffffffffff191617600080516020610387833981519152557fc7f505b2f371ae2175ee4913f4499e1f2633a7b5936321eed1cdaeb6115181d2602060405160018152a1005b68ff00000000000000001916680100000000000000001760008051602061038783398151915255386100c2565b62dc149f60e41b60005260046000fd5b5081156100b8565b50826100ac565b600080fd5b346101a45760203660031901126101a4576000805160206103878339815191525460ff8160401c16801561022f575b6101855760039060043560005568ffffffffffffffffff191617600080516020610387833981519152557fc7f505b2f371ae2175ee4913f4499e1f2633a7b5936321eed1cdaeb6115181d2602060405160038152a1005b50600367ffffffffffffffff821610156101d8565b346101a45760003660031901126101a457602067ffffffffffffffff6000805160206103878339815191525416604051908152f35b346101a45760003660031901126101a4576020600054604051908152f35b346101a45760003660031901126101a457602060ff6000805160206103878339815191525460401c166040519015158152f35b346101a45760003660031901126101a457602060ff600154166040519015158152f35b346101a45760203660031901126101a4576000805160206103878339815191525460ff8160401c168015610371575b610185577fc7f505b2f371ae2175ee4913f4499e1f2633a7b5936321eed1cdaeb6115181d291600260209260043560005568ffffffffffffffffff1916176000805160206103878339815191525560028152a1005b50600267ffffffffffffffff8216101561031c56fe4377386e2795aba8c0ce23a1e6e67bac790e4b4166f14b7e9365049ab946f8c0a26469706673582212202c6e1d3c30f5243375860d63bf5cb6ce665809123a06281298987770dc9e82b464736f6c634300081b0033",
  "linkReferences": {},
  "deployedLinkReferences": {}
}