{
  "_format": "hh-sol-artifact-1",
  "contractName": "MockInitializableDisabled",
  "sourceName": "contracts/test/MockInitializable.sol",
  "abi": [
    {
      "inputs": [],
      "stateMutability": "nonpayable",
      "type": "constructor"
    },
    {
      "inputs": [],
      "name": "AlreadyInitialized",
      "type": "error"
    },
    {
      "inputs": [],
      "name": "NotInitializing",
      "type": "error"
    },
    {
      "anonymous": false,
      "inputs": [
        {
          "indexed": false,
          "internalType": "uint64",
          "name": "version",
          "type": "uint64"
        }
      ],
      "name": "Initialized",
      "type": "event"
    },
    {
      "inputs": [
        {
          "internalType": "uint256",
          "name": "_value",
          "type": "uint256"
        }
      ],
      "name": "initialize",
      "outputs": [],
      "stateMutability": "nonpayable",
      "type": "function"
    },
    {
      "inputs": [],
      "name": "value",
      "outputs": [
        {
          "internalType": "uint256",
          "name": "",
          "type": "uint256"
        }
      ],
      "stateMutability": "view",
      "type": "function"
    }
  ],
  "bytecode": "0x6080806040523460ad5760008051602061028a8339815191525460ff8160401c16609d576002600160401b03196001600160401b03821601604a575b6040516101d790816100b38239f35b6001600160401b0319166001600160401b0390811760008051602061028a8339815191525581527fc7f505b2f371ae2175ee4913f4499e1f2633a7b5936321eed1cdaeb6115181d290602090a13880603b565b62dc149f60e41b60005260046000fd5b600080fdfe608080604052600436101561001357600080fd5b60003560e01c9081633fa4f24514610166575063fe4b84df1461003557600080fd5b34610161576020366003190112610161576000805160206101828339815191525460ff8160401c16159067ffffffffffffffff811660018110158061015a575b61014257151580610152575b6101425781610115575b506000805160206101828339815191525490600167ffffffffffffffff19831617600080516020610182833981519152556004356000556100c857005b60019068ffffffffffffffffff191617600080516020610182833981519152557fc7f505b2f371ae2175ee4913f4499e1f2633a7b5936321eed1cdaeb6115181d2602060405160018152a1005b68ff000000000000000019166801000000000000000017600080516020610182833981519152553861008b565b62dc149f60e41b60005260046000fd5b508115610081565b5082610075565b600080fd5b34610161576000366003190112610161576020906000548152f3fe4377386e2795aba8c0ce23a1e6e67bac790e4b4166f14b7e9365049ab946f8c0a2646970667358221220c0fc818b97ec6a4703bbc0b7e2e9dffd9dce06b1941490ed261494f3e56a38ee64736f6c634300081b00334377386e2795aba8c0ce23a1e6e67bac790e4b4166f14b7e9365049ab946f8c0",
  "linkReferences": {},
  "deployedLinkReferences": {}
}