{
  "_format": "hh-sol-artifact-1",
  "contractName": "MockInitializableChild",
  "sourceName": "contracts/test/MockInitializable.sol",
  "abi": [
    {
      "inputs": [],
      "name": "AlreadyInitialized",
      "type": "error"
    },
    {
      "inputs": [],
      "name": "NotInitializing",
      "type": "error"
    },
    {
      "anonymous": false,
      "inputs": [
        {
          "indexed": false,
          "internalType": "uint64",
          "name": "version",
          "type": "uint64"
        }
      ],
      "name": "Initialized",
      "type": "event"
    },
    {
      "inputs": [],
      "name": "childValue",
      "outputs": [
        {
          "internalType": "uint256",
          "name": "",
          "type": "uint256"
        }
      ],
      "stateMutability": "view",
      "type": "function"
    },
    {
      "inputs": [
        {
          "internalType": "uint256",
          "name": "_parent",
          "type": "uint256"
        },
        {
          "internalType": "uint256",
          "name": "_child",
          "type": "uint256"
        }
      ],
      "name": "initialize",
      "outputs": [],
      "stateMutability": "nonpayable",
      "type": "function"
    },
    {
      "inputs": [],
      "name": "parentValue",
      "outputs": [
        {
          "internalType": "uint256",
          "name": "",
          "type": "uint256"
        }
      ],
      "stateMutability": "view",
      "type": "function"
    }
  ],
  "bytecode": "0x60808060405234601557610223908161001b8239f35b600080fdfe608080604052600436101561001357600080fd5b60003560e01c90816325206462146101b25750806339c82a75146101945763e4a301161461004057600080fd5b3461018f57604036600319011261018f576000805160206101ce8339815191525460ff8160401c16159067ffffffffffffffff8116600181101580610188575b61017057151580610180575b6101705781610143575b506000805160206101ce833981519152549060ff600167ffffffffffffffff19841617806000805160206101ce8339815191525560401c1615610132576004356001556024356000556100e557005b60019068ffffffffffffffffff1916176000805160206101ce833981519152557fc7f505b2f371ae2175ee4913f4499e1f2633a7b5936321eed1cdaeb6115181d2602060405160018152a1005b631afcd79f60e31b60005260046000fd5b68ff0000000000000000191668010000000000000000176000805160206101ce8339815191525538610096565b62dc149f60e41b60005260046000fd5b50811561008c565b5082610080565b600080fd5b3461018f57600036600319011261018f576020600054604051908152f35b3461018f57600036600319011261018f576020906001548152f3fe4377386e2795aba8c0ce23a1e6e67bac790e4b4166f14b7e9365049ab946f8c0a26469706673582212209610acfce56aa127edd9630f8470c00b1a2debc4503a7b053bdc3979d340452f64736f6c634300081b0033",
  "linkReferences": {},
  "deployedLinkReferences": {}
}