{
  "_format": "hh-sol-artifact-1",
  "contractName": "MockUUPSV2",
  "sourceName": "contracts/test/MockUUPS.sol",
  "abi": [
    {
      "inputs": [],
      "name": "AlreadyInitialized",
      "type": "error"
    },
    {
      "inputs": [],
      "name": "InvalidImplementation",
      "type": "error"
    },
    {
      "inputs": [],
      "name": "InvalidImplementation",
      "type": "error"
    },
    {
      "inputs": [],
      "name": "NotInitializing",
      "type": "error"
    },
    {
      "inputs": [],
      "name": "UUPSNotThroughActiveProxy",
      "type": "error"
    },
    {
      "inputs": [],
      "name": "UUPSNotThroughProxy",
      "type": "error"
    },
    {
      "inputs": [],
      "name": "UnauthorizedUpgrade",
      "type": "error"
    },
    {
      "anonymous": false,
      "inputs": [
        {
          "indexed": false,
          "internalType": "uint64",
          "name": "version",
          "type": "uint64"
        }
      ],
      "name": "Initialized",
      "type": "event"
    },
    {
      "anonymous": false,
      "inputs": [
        {
          "indexed": true,
          "internalType": "address",
          "name": "implementation",
          "type": "address"
        }
      ],
      "name": "Upgraded",
      "type": "event"
    },
    {
      "inputs": [],
      "name": "extra",
      "outputs": [
        {
          "internalType": "uint256",
          "name": "",
          "type": "uint256"
        }
      ],
      "stateMutability": "view",
      "type": "function"
    },
    {
      "inputs": [],
      "name": "proxiableUUID",
      "outputs": [
        {
          "internalType": "bytes32",
          "name": "",
          "type": "bytes32"
        }
      ],
      "stateMutability": "view",
      "type": "function"
    },
    {
      "inputs": [
        {
          "internalType": "uint256",
          "name": "_val",
          "type": "uint256"
        }
      ],
      "name": "setExtra",
      "outputs": [],
      "stateMutability": "nonpayable",
      "type": "function"
    },
    {
      "inputs": [
        {
          "internalType": "uint256",
          "name": "_val",
          "type": "uint256"
        }
      ],
      "name": "setValue",
      "outputs": [],
      "stateMutability": "nonpayable",
      "type": "function"
    },
    {
      "inputs": [
        {
          "internalType": "address",
          "name": "newImplementation",
          "type": "address"
        },
        {
          "internalType": "bytes",
          "name": "data",
          "type": "bytes"
        }
      ],
      "name": "upgradeToAndCall",
      "outputs": [],
      "stateMutability": "payable",
      "type": "function"
    },
    {
      "inputs": [],
      "name": "upgrader",
      "outputs": [
        {
          "internalType": "address",
          "name": "",
          "type": "address"
        }
      ],
      "stateMutability": "view",
      "type": "function"
    },
    {
      "inputs": [],
      "name": "value",
      "outputs": [
        {
          "internalType": "uint256",
          "name": "",
          "type": "uint256"
        }
      ],
      "stateMutability": "view",
      "type": "function"
    },
    {
      "inputs": [],
      "name": "version",
      "outputs": [
        {
          "internalType": "uint256",
          "name": "",
          "type": "uint256"
        }
      ],
      "stateMutability": "pure",
      "type": "function"
    }
  ],
  "bytecode": "0x60a0806040523460295730608052610484908161002f823960805181818161010601526101f20152f35b600080fdfe608080604052600436101561001357600080fd5b60003560e01c908163190024e0146103df575080633fa4f245146103c15780634f1ef2861461016f57806352d1902d146100f357806354fd4d50146100d757806355241077146100be578063a234fb5b146100a55763af2697451461007757600080fd5b346100a05760003660031901126100a0576001546040516001600160a01b039091168152602090f35b600080fd5b346100a05760203660031901126100a057600435600255005b346100a05760203660031901126100a057600435600055005b346100a05760003660031901126100a057602060405160028152f35b346100a05760003660031901126100a0577f00000000000000000000000000000000000000000000000000000000000000006001600160a01b0316300361015e5760206040517f360894a13ba1a3210667c828492db98dca3e2076cc3735a920a3ca505d382bbc8152f35b6345a93fc960e01b60005260046000fd5b60403660031901126100a0576004356001600160a01b038116908181036100a0576024359167ffffffffffffffff83116100a057366023840112156100a0578260040135906101bd82610432565b916101cb60405193846103fa565b808352602083019436602483830101116100a05781600092602460209301883784010152307f00000000000000000000000000000000000000000000000000000000000000006001600160a01b0316146103b0576001546001600160a01b0316330361039f576040516352d1902d60e01b8152602081600481855afa6000918161036b575b506102665763340aafcd60e11b60005260046000fd5b7f360894a13ba1a3210667c828492db98dca3e2076cc3735a920a3ca505d382bbc0361035a57823b1561035a57827f360894a13ba1a3210667c828492db98dca3e2076cc3735a920a3ca505d382bbc557fbc7cd75a20ee27fd9adebab32041f755214dbc6bffa90cc0225b39da2e5c2d3b600080a251806102e357005b60009283925af43d15610355573d6102fa81610432565b9061030860405192836103fa565b8152600060203d92013e5b1561031a57005b60405162461bcd60e51b81526020600482015260136024820152721d5c19dc985919481a5b9a5d0819985a5b1959606a1b6044820152606490fd5b610313565b63340aafcd60e11b60005260046000fd5b9091506020813d602011610397575b81610387602093836103fa565b810103126100a057519086610250565b3d915061037a565b630e985e9560e21b60005260046000fd5b6309e1070b60e31b60005260046000fd5b346100a05760003660031901126100a0576020600054604051908152f35b346100a05760003660031901126100a0576020906002548152f35b90601f8019910116810190811067ffffffffffffffff82111761041c57604052565b634e487b7160e01b600052604160045260246000fd5b67ffffffffffffffff811161041c57601f01601f19166020019056fea26469706673582212206d147f60d2cdb33dbfcb56232ed2d54d9cd94e316cbbeef817b915b09584b41c64736f6c634300081b0033",
  "linkReferences": {},
  "deployedLinkReferences": {}
}