{
  "_format": "hh-sol-artifact-1",
  "contractName": "MockUUPS",
  "sourceName": "contracts/test/MockUUPS.sol",
  "abi": [
    {
      "inputs": [],
      "name": "AlreadyInitialized",
      "type": "error"
    },
    {
      "inputs": [],
      "name": "InvalidImplementation",
      "type": "error"
    },
    {
      "inputs": [],
      "name": "InvalidImplementation",
      "type": "error"
    },
    {
      "inputs": [],
      "name": "NotInitializing",
      "type": "error"
    },
    {
      "inputs": [],
      "name": "UUPSNotThroughActiveProxy",
      "type": "error"
    },
    {
      "inputs": [],
      "name": "UUPSNotThroughProxy",
      "type": "error"
    },
    {
      "inputs": [],
      "name": "UnauthorizedUpgrade",
      "type": "error"
    },
    {
      "anonymous": false,
      "inputs": [
        {
          "indexed": false,
          "internalType": "uint64",
          "name": "version",
          "type": "uint64"
        }
      ],
      "name": "Initialized",
      "type": "event"
    },
    {
      "anonymous": false,
      "inputs": [
        {
          "indexed": true,
          "internalType": "address",
          "name": "implementation",
          "type": "address"
        }
      ],
      "name": "Upgraded",
      "type": "event"
    },
    {
      "inputs": [
        {
          "internalType": "address",
          "name": "_upgrader",
          "type": "address"
        }
      ],
      "name": "initialize",
      "outputs": [],
      "stateMutability": "nonpayable",
      "type": "function"
    },
    {
      "inputs": [],
      "name": "proxiableUUID",
      "outputs": [
        {
          "internalType": "bytes32",
          "name": "",
          "type": "bytes32"
        }
      ],
      "stateMutability": "view",
      "type": "function"
    },
    {
      "inputs": [
        {
          "internalType": "uint256",
          "name": "_val",
          "type": "uint256"
        }
      ],
      "name": "setValue",
      "outputs": [],
      "stateMutability": "nonpayable",
      "type": "function"
    },
    {
      "inputs": [
        {
          "internalType": "address",
          "name": "newImplementation",
          "type": "address"
        },
        {
          "internalType": "bytes",
          "name": "data",
          "type": "bytes"
        }
      ],
      "name": "upgradeToAndCall",
      "outputs": [],
      "stateMutability": "payable",
      "type": "function"
    },
    {
      "inputs": [],
      "name": "upgrader",
      "outputs": [
        {
          "internalType": "address",
          "name": "",
          "type": "address"
        }
      ],
      "stateMutability": "view",
      "type": "function"
    },
    {
      "inputs": [],
      "name": "value",
      "outputs": [
        {
          "internalType": "uint256",
          "name": "",
          "type": "uint256"
        }
      ],
      "stateMutability": "view",
      "type": "function"
    },
    {
      "inputs": [],
      "name": "version",
      "outputs": [
        {
          "internalType": "uint256",
          "name": "",
          "type": "uint256"
        }
      ],
      "stateMutability": "pure",
      "type": "function"
    }
  ],
  "bytecode": "0x60a08060405234602957306080526105c3908161002f8239608051818181610230015261030e0152f35b600080fdfe608080604052600436101561001357600080fd5b60003560e01c9081633fa4f245146104e8575080634f1ef2861461029957806352d1902d1461021d57806354fd4d501461020157806355241077146101e8578063af269745146101bf5763c4d66de81461006c57600080fd5b346101ba5760203660031901126101ba57610085610503565b60008051602061056e8339815191525460ff8160401c16159067ffffffffffffffff81166001811015806101b3575b61019b571515806101ab575b61019b578161016e575b5060008051602061056e8339815191525491600167ffffffffffffffff1984161760008051602061056e8339815191525560018060a01b03166bffffffffffffffffffffffff60a01b600154161760015561012157005b60019068ffffffffffffffffff19161760008051602061056e833981519152557fc7f505b2f371ae2175ee4913f4499e1f2633a7b5936321eed1cdaeb6115181d2602060405160018152a1005b68ff00000000000000001916680100000000000000001760008051602061056e83398151915255386100ca565b62dc149f60e41b60005260046000fd5b5081156100c0565b50826100b4565b600080fd5b346101ba5760003660031901126101ba576001546040516001600160a01b039091168152602090f35b346101ba5760203660031901126101ba57600435600055005b346101ba5760003660031901126101ba57602060405160018152f35b346101ba5760003660031901126101ba577f00000000000000000000000000000000000000000000000000000000000000006001600160a01b031630036102885760206040517f360894a13ba1a3210667c828492db98dca3e2076cc3735a920a3ca505d382bbc8152f35b6345a93fc960e01b60005260046000fd5b60403660031901126101ba576102ad610503565b6024359067ffffffffffffffff82116101ba57366023830112156101ba5781600401356102d981610551565b906102e76040519283610519565b808252602082019336602483830101116101ba5781600092602460209301873783010152307f00000000000000000000000000000000000000000000000000000000000000006001600160a01b0316146104d7576001546001600160a01b031633036104c6576040516352d1902d60e01b81526001600160a01b03831690602081600481855afa60009181610492575b5061038d5763340aafcd60e11b60005260046000fd5b7f360894a13ba1a3210667c828492db98dca3e2076cc3735a920a3ca505d382bbc0361048157823b1561048157827f360894a13ba1a3210667c828492db98dca3e2076cc3735a920a3ca505d382bbc557fbc7cd75a20ee27fd9adebab32041f755214dbc6bffa90cc0225b39da2e5c2d3b600080a2518061040a57005b60009283925af43d1561047c573d61042181610551565b9061042f6040519283610519565b8152600060203d92013e5b1561044157005b60405162461bcd60e51b81526020600482015260136024820152721d5c19dc985919481a5b9a5d0819985a5b1959606a1b6044820152606490fd5b61043a565b63340aafcd60e11b60005260046000fd5b9091506020813d6020116104be575b816104ae60209383610519565b810103126101ba57519086610377565b3d91506104a1565b630e985e9560e21b60005260046000fd5b6309e1070b60e31b60005260046000fd5b346101ba5760003660031901126101ba576020906000548152f35b600435906001600160a01b03821682036101ba57565b90601f8019910116810190811067ffffffffffffffff82111761053b57604052565b634e487b7160e01b600052604160045260246000fd5b67ffffffffffffffff811161053b57601f01601f19166020019056fe4377386e2795aba8c0ce23a1e6e67bac790e4b4166f14b7e9365049ab946f8c0a26469706673582212203a01b0ce8929fc5c344abeb2e021139299a38137168f856e7024bc70bf54963364736f6c634300081b0033",
  "linkReferences": {},
  "deployedLinkReferences": {}
}