{
  "_format": "hh-sol-artifact-1",
  "contractName": "SidioraAdapter",
  "sourceName": "contracts/meta-ag/adapters/SidioraAdapter.sol",
  "abi": [
    {
      "inputs": [
        {
          "internalType": "address",
          "name": "poolRegistry_",
          "type": "address"
        },
        {
          "internalType": "address",
          "name": "quoter_",
          "type": "address"
        },
        {
          "internalType": "address",
          "name": "sidioraRouter_",
          "type": "address"
        },
        {
          "internalType": "address",
          "name": "usdl_",
          "type": "address"
        },
        {
          "internalType": "address",
          "name": "admin_",
          "type": "address"
        }
      ],
      "stateMutability": "nonpayable",
      "type": "constructor"
    },
    {
      "inputs": [],
      "name": "ApproveFailed",
      "type": "error"
    },
    {
      "inputs": [],
      "name": "Expired",
      "type": "error"
    },
    {
      "inputs": [
        {
          "internalType": "address",
          "name": "account",
          "type": "address"
        },
        {
          "internalType": "bytes32",
          "name": "role",
          "type": "bytes32"
        }
      ],
      "name": "MissingRole",
      "type": "error"
    },
    {
      "inputs": [],
      "name": "PairNotSupported",
      "type": "error"
    },
    {
      "inputs": [],
      "name": "PoolNotFound",
      "type": "error"
    },
    {
      "inputs": [],
      "name": "SlippageExceeded",
      "type": "error"
    },
    {
      "inputs": [],
      "name": "TransferFailed",
      "type": "error"
    },
    {
      "inputs": [],
      "name": "TransferFromFailed",
      "type": "error"
    },
    {
      "inputs": [],
      "name": "ZeroAddress",
      "type": "error"
    },
    {
      "inputs": [],
      "name": "ZeroAmount",
      "type": "error"
    },
    {
      "anonymous": false,
      "inputs": [
        {
          "indexed": true,
          "internalType": "bytes32",
          "name": "role",
          "type": "bytes32"
        },
        {
          "indexed": true,
          "internalType": "bytes32",
          "name": "previousAdminRole",
          "type": "bytes32"
        },
        {
          "indexed": true,
          "internalType": "bytes32",
          "name": "newAdminRole",
          "type": "bytes32"
        }
      ],
      "name": "RoleAdminChanged",
      "type": "event"
    },
    {
      "anonymous": false,
      "inputs": [
        {
          "indexed": true,
          "internalType": "bytes32",
          "name": "role",
          "type": "bytes32"
        },
        {
          "indexed": true,
          "internalType": "address",
          "name": "account",
          "type": "address"
        },
        {
          "indexed": true,
          "internalType": "address",
          "name": "sender",
          "type": "address"
        }
      ],
      "name": "RoleGranted",
      "type": "event"
    },
    {
      "anonymous": false,
      "inputs": [
        {
          "indexed": true,
          "internalType": "bytes32",
          "name": "role",
          "type": "bytes32"
        },
        {
          "indexed": true,
          "internalType": "address",
          "name": "account",
          "type": "address"
        },
        {
          "indexed": true,
          "internalType": "address",
          "name": "sender",
          "type": "address"
        }
      ],
      "name": "RoleRevoked",
      "type": "event"
    },
    {
      "anonymous": false,
      "inputs": [
        {
          "indexed": true,
          "internalType": "bytes32",
          "name": "adapterId",
          "type": "bytes32"
        },
        {
          "indexed": true,
          "internalType": "address",
          "name": "tokenIn",
          "type": "address"
        },
        {
          "indexed": true,
          "internalType": "address",
          "name": "tokenOut",
          "type": "address"
        },
        {
          "indexed": false,
          "internalType": "uint256",
          "name": "amountIn",
          "type": "uint256"
        },
        {
          "indexed": false,
          "internalType": "uint256",
          "name": "amountOut",
          "type": "uint256"
        },
        {
          "indexed": false,
          "internalType": "address",
          "name": "recipient",
          "type": "address"
        }
      ],
      "name": "SwapExecuted",
      "type": "event"
    },
    {
      "inputs": [],
      "name": "DEFAULT_ADMIN_ROLE",
      "outputs": [
        {
          "internalType": "bytes32",
          "name": "",
          "type": "bytes32"
        }
      ],
      "stateMutability": "view",
      "type": "function"
    },
    {
      "inputs": [],
      "name": "adapterId",
      "outputs": [
        {
          "internalType": "bytes32",
          "name": "",
          "type": "bytes32"
        }
      ],
      "stateMutability": "pure",
      "type": "function"
    },
    {
      "inputs": [],
      "name": "adapterName",
      "outputs": [
        {
          "internalType": "string",
          "name": "",
          "type": "string"
        }
      ],
      "stateMutability": "pure",
      "type": "function"
    },
    {
      "inputs": [],
      "name": "adapterVersion",
      "outputs": [
        {
          "internalType": "string",
          "name": "",
          "type": "string"
        }
      ],
      "stateMutability": "pure",
      "type": "function"
    },
    {
      "inputs": [
        {
          "internalType": "address",
          "name": "tokenIn",
          "type": "address"
        },
        {
          "internalType": "address",
          "name": "tokenOut",
          "type": "address"
        },
        {
          "internalType": "uint256",
          "name": "amountIn",
          "type": "uint256"
        },
        {
          "internalType": "uint256",
          "name": "minAmountOut",
          "type": "uint256"
        },
        {
          "internalType": "address",
          "name": "from",
          "type": "address"
        },
        {
          "internalType": "address",
          "name": "recipient",
          "type": "address"
        },
        {
          "internalType": "uint256",
          "name": "deadline",
          "type": "uint256"
        },
        {
          "internalType": "bytes",
          "name": "adapterData",
          "type": "bytes"
        }
      ],
      "name": "executeSwap",
      "outputs": [
        {
          "components": [
            {
              "internalType": "uint256",
              "name": "amountOut",
              "type": "uint256"
            },
            {
              "internalType": "uint256",
              "name": "feeAmount",
              "type": "uint256"
            },
            {
              "internalType": "bytes",
              "name": "adapterData",
              "type": "bytes"
            }
          ],
          "internalType": "struct IProtocolAdapter.SwapResult",
          "name": "result",
          "type": "tuple"
        }
      ],
      "stateMutability": "nonpayable",
      "type": "function"
    },
    {
      "inputs": [
        {
          "internalType": "address",
          "name": "tokenIn",
          "type": "address"
        },
        {
          "internalType": "address",
          "name": "tokenOut",
          "type": "address"
        }
      ],
      "name": "getMaxInput",
      "outputs": [
        {
          "internalType": "uint256",
          "name": "",
          "type": "uint256"
        }
      ],
      "stateMutability": "view",
      "type": "function"
    },
    {
      "inputs": [
        {
          "internalType": "address",
          "name": "tokenIn",
          "type": "address"
        },
        {
          "internalType": "address",
          "name": "tokenOut",
          "type": "address"
        },
        {
          "internalType": "uint256",
          "name": "amountIn",
          "type": "uint256"
        }
      ],
      "name": "getQuote",
      "outputs": [
        {
          "components": [
            {
              "internalType": "uint256",
              "name": "amountOut",
              "type": "uint256"
            },
            {
              "internalType": "uint256",
              "name": "priceImpactBps",
              "type": "uint256"
            },
            {
              "internalType": "uint256",
              "name": "feeBps",
              "type": "uint256"
            },
            {
              "internalType": "uint256",
              "name": "feeAmount",
              "type": "uint256"
            },
            {
              "internalType": "bool",
              "name": "available",
              "type": "bool"
            },
            {
              "internalType": "bytes",
              "name": "adapterData",
              "type": "bytes"
            }
          ],
          "internalType": "struct IProtocolAdapter.QuoteResult",
          "name": "result",
          "type": "tuple"
        }
      ],
      "stateMutability": "view",
      "type": "function"
    },
    {
      "inputs": [
        {
          "internalType": "bytes32",
          "name": "role",
          "type": "bytes32"
        }
      ],
      "name": "getRoleAdmin",
      "outputs": [
        {
          "internalType": "bytes32",
          "name": "",
          "type": "bytes32"
        }
      ],
      "stateMutability": "view",
      "type": "function"
    },
    {
      "inputs": [],
      "name": "getSupportedPairs",
      "outputs": [
        {
          "internalType": "address[]",
          "name": "tokenIns",
          "type": "address[]"
        },
        {
          "internalType": "address[]",
          "name": "tokenOuts",
          "type": "address[]"
        }
      ],
      "stateMutability": "pure",
      "type": "function"
    },
    {
      "inputs": [
        {
          "internalType": "bytes32",
          "name": "role",
          "type": "bytes32"
        },
        {
          "internalType": "address",
          "name": "account",
          "type": "address"
        }
      ],
      "name": "grantRole",
      "outputs": [],
      "stateMutability": "nonpayable",
      "type": "function"
    },
    {
      "inputs": [
        {
          "internalType": "bytes32",
          "name": "role",
          "type": "bytes32"
        },
        {
          "internalType": "address",
          "name": "account",
          "type": "address"
        }
      ],
      "name": "hasRole",
      "outputs": [
        {
          "internalType": "bool",
          "name": "",
          "type": "bool"
        }
      ],
      "stateMutability": "view",
      "type": "function"
    },
    {
      "inputs": [],
      "name": "poolRegistry",
      "outputs": [
        {
          "internalType": "contract IPoolRegistry",
          "name": "",
          "type": "address"
        }
      ],
      "stateMutability": "view",
      "type": "function"
    },
    {
      "inputs": [],
      "name": "quoter",
      "outputs": [
        {
          "internalType": "contract IQuoter",
          "name": "",
          "type": "address"
        }
      ],
      "stateMutability": "view",
      "type": "function"
    },
    {
      "inputs": [
        {
          "internalType": "bytes32",
          "name": "role",
          "type": "bytes32"
        },
        {
          "internalType": "address",
          "name": "callerConfirmation",
          "type": "address"
        }
      ],
      "name": "renounceRole",
      "outputs": [],
      "stateMutability": "nonpayable",
      "type": "function"
    },
    {
      "inputs": [
        {
          "internalType": "bytes32",
          "name": "role",
          "type": "bytes32"
        },
        {
          "internalType": "address",
          "name": "account",
          "type": "address"
        }
      ],
      "name": "revokeRole",
      "outputs": [],
      "stateMutability": "nonpayable",
      "type": "function"
    },
    {
      "inputs": [
        {
          "internalType": "address",
          "name": "registry",
          "type": "address"
        }
      ],
      "name": "setPoolRegistry",
      "outputs": [],
      "stateMutability": "nonpayable",
      "type": "function"
    },
    {
      "inputs": [
        {
          "internalType": "address",
          "name": "quoter_",
          "type": "address"
        }
      ],
      "name": "setQuoter",
      "outputs": [],
      "stateMutability": "nonpayable",
      "type": "function"
    },
    {
      "inputs": [
        {
          "internalType": "address",
          "name": "router",
          "type": "address"
        }
      ],
      "name": "setSidioraRouter",
      "outputs": [],
      "stateMutability": "nonpayable",
      "type": "function"
    },
    {
      "inputs": [
        {
          "internalType": "address",
          "name": "usdl_",
          "type": "address"
        }
      ],
      "name": "setUsdl",
      "outputs": [],
      "stateMutability": "nonpayable",
      "type": "function"
    },
    {
      "inputs": [],
      "name": "sidioraRouter",
      "outputs": [
        {
          "internalType": "contract IRouter",
          "name": "",
          "type": "address"
        }
      ],
      "stateMutability": "view",
      "type": "function"
    },
    {
      "inputs": [
        {
          "internalType": "address",
          "name": "tokenIn",
          "type": "address"
        },
        {
          "internalType": "address",
          "name": "tokenOut",
          "type": "address"
        }
      ],
      "name": "supportsSwap",
      "outputs": [
        {
          "internalType": "bool",
          "name": "",
          "type": "bool"
        }
      ],
      "stateMutability": "view",
      "type": "function"
    },
    {
      "inputs": [],
      "name": "usdl",
      "outputs": [
        {
          "internalType": "address",
          "name": "",
          "type": "address"
        }
      ],
      "stateMutability": "view",
      "type": "function"
    }
  ],
  "bytecode": "0x60803461012c57601f6118c638819003918201601f19168301916001600160401b038311848410176101315780849260a09460405283398101031261012c5761004781610147565b61005360208301610147565b9161006060408201610147565b90610079608061007260608401610147565b9201610147565b6001600160a01b0390931693841561011b576001600160a01b031691821561011b576001600160a01b031690811561011b576001600160a01b031691821561011b576001600160a01b0384161561011b57600180546001600160a01b03199081169096179055600280548616919091179055600380548516919091179055600480549093161790915561010b9061015b565b506040516116bb90816101eb8239f35b63d92e233d60e01b60005260046000fd5b600080fd5b634e487b7160e01b600052604160045260246000fd5b51906001600160a01b038216820361012c57565b6001600160a01b03811660009081526000805160206118a6833981519152602052604090205460ff161561018f5750600090565b6001600160a01b031660008181526000805160206118a683398151915260205260408120805460ff191660011790553391907f2f8788117e7eff1d82e926ec794901d17c78024a50270940304540a733656f0d8180a460019056fe6080604052600436101561001257600080fd5b60003560e01c8063075cc6fa14610c75578063248a9ca314610c485780632f2ff15d14610c0857806336568abe14610bb95780634862165714610b705780635fb86b0114610b355780637b77cd6a14610aec578063824e885e146104ac57806386616b521461047657806391d14854146104295780639679ad1c14610400578063a217fddf146103e4578063a77ec9e01461039d578063afcff50f14610374578063b2b08fba14610340578063ba286578146102f1578063c515ee2314610273578063c6bbd5a71461024a578063d527c998146101df578063d547741f14610196578063f073658a1461016d5763f912c64b1461010e57600080fd5b3461016857602036600319011261016857610127610cbe565b6101303361135b565b6001600160a01b03168015610157576001600160601b0360a01b6002541617600255600080f35b63d92e233d60e01b60005260046000fd5b600080fd5b34610168576000366003190112610168576004546040516001600160a01b039091168152602090f35b34610168576040366003190112610168576101dd6004356101b5610cd4565b906101d86101d182600052600060205260016040600020015490565b33906113be565b611498565b005b34610168576000366003190112610168576102396020610246604051916102068184610db6565b60008352600036813760405161021c8282610db6565b600081526000368137604051948594604086526040860190610d2b565b9184830390850152610d2b565b0390f35b34610168576000366003190112610168576002546040516001600160a01b039091168152602090f35b346101685760603660031901126101685760a06102a2610291610cbe565b610299610cd4565b60443591610f69565b61024660405192839260208452805160208501526020810151604085015260408101516060850152606081015160808501526080810151151582850152015160c08084015260e0830190610cea565b346101685760003660031901126101685761024660408051906103148183610db6565b600d82526c536964696f7261414d4d2e763160981b602083015251918291602083526020830190610cea565b3461016857604036600319011261016857602061036c61035e610cbe565b610366610cd4565b90610e70565b604051908152f35b34610168576000366003190112610168576001546040516001600160a01b039091168152602090f35b346101685760003660031901126101685761024660408051906103c08183610db6565b60058252640312e302e360dc1b602083015251918291602083526020830190610cea565b3461016857600036600319011261016857602060405160008152f35b34610168576000366003190112610168576003546040516001600160a01b039091168152602090f35b3461016857604036600319011261016857610442610cd4565b600435600052600060205260406000209060018060a01b0316600052602052602060ff604060002054166040519015158152f35b346101685760403660031901126101685760206104a2610494610cbe565b61049c610cd4565b90610dec565b6040519015158152f35b3461016857610100366003190112610168576104c6610cbe565b6104ce610cd4565b608435919060443590606435906001600160a01b03851685036101685760a4356001600160a01b038116928382036101685760e43560c43567ffffffffffffffff8211610168573660238301121561016857816004013567ffffffffffffffff8111610168578201983660248b01116101685760606040805161055081610d68565b600081526000602082015201528115998a1580610ae3575b610ad2578815610ac15761057c878b610dec565b15610ab057606090849003126101685760248301359260ff8416809403610168576000916105ba6064836105b36044879601610dd8565b5001610dd8565b506040516323b872dd60e01b602082019081526001600160a01b039092166024820152306044820152606481018b905261060181608481015b03601f198101835282610db6565b5190828c5af161060f611520565b9015908115610a80575b50610a6f576003546001600160a01b03169815610a695750600019905b6106408989611578565b60405163095ea7b360e01b602082019081526001600160a01b038b1660248301526044820189905260009182919061067b81606481016105f3565b5190828c5af1610689611520565b9015908115610a39575b50610a2857806108ed57506106a784611604565b6001600160a01b038116156108dc57600354604051630588b6f960e21b81526001600160a01b0392831660048201526024810189905260448101859052606481019390935260209183916084918391600091165af180156108d05760009061089c575b6107179150975b87611578565b861061088b573083036107ec575b5060408051938452602084018690528301919091526001600160a01b039081169216907fd564e890383109bf777b017b704e5421847c7803ff18a2a9e21133702f2d2263907f5fbd3d15de897e3d7882253e93215e4db986fa0fc8931d8d0af819e834e9c22d90606090a46040519061079d82610d68565b8152602081019060008252610246602092604051906107bc8583610db6565b60008252604084019182526040519485948186525190850152516040840152516060808401526080830190610cea565b60405163a9059cbb60e01b602082019081526001600160a01b03909216602482015260448101879052600091829161082781606481016105f3565b519082855af1610835611520565b901590811561085b575b5061084a5785610725565b6312171d8360e31b60005260046000fd5b8051801515925082610870575b50508661083f565b6108839250602080918301019101611560565b158680610868565b638199f5f360e01b60005260046000fd5b506020813d6020116108c8575b816108b660209383610db6565b8101031261016857610717905161070a565b3d91506108a9565b6040513d6000823e3d90fd5b6301dbb3ff60e61b60005260046000fd5b60010361099f576108fd87611604565b6001600160a01b038116156108dc576003546040516392cdbac560e01b81526001600160a01b0392831660048201526024810189905260448101859052606481019390935260209183916084918391600091165af180156108d05760009061096b575b610717915097610711565b506020813d602011610997575b8161098560209383610db6565b81010312610168576107179051610960565b3d9150610978565b60035460408051638ef5184b60e01b81526001600160a01b038a811660048301528781166024830152604482018a9052606482018690526084820194909452929091839160a4918391600091165af180156108d057600090610a0657610717915097610711565b506040813d604011610a20575b8161098560409383610db6565b3d9150610a13565b633e3f8f7360e01b60005260046000fd5b8051801515925082610a4e575b50508a610693565b610a619250602080918301019101611560565b158a80610a46565b90610636565b631e4e7d0960e21b60005260046000fd5b8051801515925082610a95575b50508a610619565b610aa89250602080918301019101611560565b158a80610a8d565b6365db466f60e01b60005260046000fd5b631f2a200560e01b60005260046000fd5b630407b05b60e31b60005260046000fd5b50824211610568565b3461016857602036600319011261016857610b05610cbe565b610b0e3361135b565b6001600160a01b03168015610157576001600160601b0360a01b6001541617600155600080f35b346101685760003660031901126101685760206040517fd564e890383109bf777b017b704e5421847c7803ff18a2a9e21133702f2d22638152f35b3461016857602036600319011261016857610b89610cbe565b610b923361135b565b6001600160a01b03168015610157576001600160601b0360a01b6004541617600455600080f35b3461016857604036600319011261016857600435610bd5610cd4565b336001600160a01b0390911603610bf1576101dd903390611498565b62b0d32560e11b6000523360045260245260446000fd5b34610168576040366003190112610168576101dd600435610c27610cd4565b90610c436101d182600052600060205260016040600020015490565b61140c565b3461016857602036600319011261016857602061036c600435600052600060205260016040600020015490565b3461016857602036600319011261016857610c8e610cbe565b610c973361135b565b6001600160a01b03168015610157576001600160601b0360a01b6003541617600355600080f35b600435906001600160a01b038216820361016857565b602435906001600160a01b038216820361016857565b919082519283825260005b848110610d16575050826000602080949584010152601f8019910116010190565b80602080928401015182828601015201610cf5565b906020808351928381520192019060005b818110610d495750505090565b82516001600160a01b0316845260209384019390920191600101610d3c565b6060810190811067ffffffffffffffff821117610d8457604052565b634e487b7160e01b600052604160045260246000fd5b60c0810190811067ffffffffffffffff821117610d8457604052565b90601f8019910116810190811067ffffffffffffffff821117610d8457604052565b35906001600160a01b038216820361016857565b6001600160a01b03818116908316818114610e67576004546001600160a01b0316918214610e515714610e38576001600160a01b0390610e2b90611604565b1615159081610e38575090565b6001600160a01b039150610e4b90611604565b16151590565b506001600160a01b0392610e4b92509050611604565b50505050600090565b90610e7b8183610dec565b15610f0e576004546001600160a01b038381169391168303610f155750610ea190611604565b6001600160a01b03168015610f0e576020906024604051809481936370a0823160e01b835260048301525afa9081156108d057600091610edf575090565b90506020813d602011610f06575b81610efa60209383610db6565b81010312610168575190565b3d9150610eed565b5050600090565b610f1f9150611604565b610ea1565b90816060910312610168576040805191610f3d83610d68565b80518352602081015160208401520151604082015290565b51906001600160a01b038216820361016857565b604051939291610f7885610d9a565b600080865260208601819052604086018190526060808701829052608087019190915260a08601526001600160a01b03828116908216868282148015611353575b61134a5750610fc88385610dec565b15611343576004546001600160a01b031691821461128057146111aa57600254604051633f8b9be760e11b81526001600160a01b03938416600482015291831660248301526044820193909352916101209183916064918391165afa80916000916110dc575b50906110375750565b909150604081015190606081015182018092116110c657805160c08201519260018060a01b0360e0840151169261010060018060a01b039101511660405193600260208601526040850152606084015260608352611096608084610db6565b604051936110a385610d9a565b82855260208501526000604085015260608401521515608083015260a082015290565b634e487b7160e01b600052601160045260246000fd5b610120813d82116111a2575b816110f66101209383610db6565b8101031261119e576040519161012083019083821067ffffffffffffffff83111761118a575061117e9161010091604052805184526020810151602085015260408101516040850152606081015160608501526080810151608085015260a081015160a085015260c081015160c085015261117360e08201610f55565b60e085015201610f55565b6101008201523861102e565b634e487b7160e01b81526041600452602490fd5b5080fd5b3d91506110e8565b509192916001600160a01b03906111c090611604565b16801561127b57600254604051631367dc7960e21b815260048101839052602481019390935260006044840152606090839060649082906001600160a01b03165afa6000928161124a575b5061121557505090565b908092505160206040840151930151604051926001602085015260408401526000606084015260608352611096608084610db6565b61126d91935060603d606011611274575b6112658183610db6565b810190610f24565b913861120b565b503d61125b565b505090565b50939493506001600160a01b03915061129890611604565b16801561127b57600254604051631367dc7960e21b815260048101839052602481019390935260016044840152606090839060649082906001600160a01b03165afa60009281611322575b506112ed57505090565b908092505160206040840151930151604051926000602085015260408401526000606084015260608352611096608084610db6565b61133c91935060603d606011611274576112658183610db6565b91386112e3565b5050505050565b96505050505050565b508515610fb9565b6001600160a01b03811660009081527fad3228b676f7d3cd4284a5443f17f1962b36e491b30a40b2405849e597ba5fb5602052604090205460ff161561139e5750565b62b0d32560e11b60005260018060a01b0316600452600060245260446000fd5b90816000526000602052604060002060018060a01b03821660005260205260ff60406000205416156113ee575050565b62b0d32560e11b60005260018060a01b031660045260245260446000fd5b6000818152602081815260408083206001600160a01b038616845290915290205460ff161561143c575050600090565b6000818152602081815260408083206001600160a01b0395909516808452949091528120805460ff19166001179055339291907f2f8788117e7eff1d82e926ec794901d17c78024a50270940304540a733656f0d9080a4600190565b6000818152602081815260408083206001600160a01b038616845290915290205460ff166114c7575050600090565b6000818152602081815260408083206001600160a01b0395909516808452949091528120805460ff19169055339291907ff6391f5c32d9c69d2a47ea670b442974b53935d1edc7fd64eb21e047a839171b9080a4600190565b3d1561155b573d9067ffffffffffffffff8211610d84576040519161154f601f8201601f191660200184610db6565b82523d6000602084013e565b606090565b90816020910312610168575180151581036101685790565b60405163095ea7b360e01b602082019081526001600160a01b0390931660248201526000604480830182905282529283929183906115b7606482610db6565b51925af16115c3611520565b90159081156115d4575b50610a2857565b80518015159250826115e9575b5050386115cd565b6115fc9250602080918301019101611560565b1538806115e1565b60015460405163bbadc03b60e01b81526001600160a01b0392831660048201529160209183916024918391165afa60009181611649575b506116465750600090565b90565b9091506020813d60201161167d575b8161166560209383610db6565b810103126101685761167690610f55565b903861163b565b3d915061165856fea2646970667358221220e3ddda1d078e9357aa7c8d985305983943f4e222bf4acb7185ee6abd8ba9998264736f6c634300081b0033ad3228b676f7d3cd4284a5443f17f1962b36e491b30a40b2405849e597ba5fb5",
  "linkReferences": {},
  "deployedLinkReferences": {}
}