{
  "_format": "hh-sol-artifact-1",
  "contractName": "MetaAGQuoter",
  "sourceName": "contracts/meta-ag/quoter/MetaAGQuoter.sol",
  "abi": [
    {
      "inputs": [],
      "stateMutability": "nonpayable",
      "type": "constructor"
    },
    {
      "inputs": [],
      "name": "AlreadyInitialized",
      "type": "error"
    },
    {
      "inputs": [],
      "name": "DivisionByZero",
      "type": "error"
    },
    {
      "inputs": [],
      "name": "InvalidImplementation",
      "type": "error"
    },
    {
      "inputs": [],
      "name": "InvalidImplementation",
      "type": "error"
    },
    {
      "inputs": [
        {
          "internalType": "address",
          "name": "account",
          "type": "address"
        },
        {
          "internalType": "bytes32",
          "name": "role",
          "type": "bytes32"
        }
      ],
      "name": "MissingRole",
      "type": "error"
    },
    {
      "inputs": [],
      "name": "NotInitializing",
      "type": "error"
    },
    {
      "inputs": [],
      "name": "Overflow",
      "type": "error"
    },
    {
      "inputs": [],
      "name": "UUPSNotThroughActiveProxy",
      "type": "error"
    },
    {
      "inputs": [],
      "name": "UUPSNotThroughProxy",
      "type": "error"
    },
    {
      "inputs": [],
      "name": "UnauthorizedUpgrade",
      "type": "error"
    },
    {
      "inputs": [],
      "name": "ZeroAddress",
      "type": "error"
    },
    {
      "anonymous": false,
      "inputs": [
        {
          "indexed": false,
          "internalType": "uint64",
          "name": "version",
          "type": "uint64"
        }
      ],
      "name": "Initialized",
      "type": "event"
    },
    {
      "anonymous": false,
      "inputs": [
        {
          "indexed": true,
          "internalType": "bytes32",
          "name": "role",
          "type": "bytes32"
        },
        {
          "indexed": true,
          "internalType": "bytes32",
          "name": "previousAdminRole",
          "type": "bytes32"
        },
        {
          "indexed": true,
          "internalType": "bytes32",
          "name": "newAdminRole",
          "type": "bytes32"
        }
      ],
      "name": "RoleAdminChanged",
      "type": "event"
    },
    {
      "anonymous": false,
      "inputs": [
        {
          "indexed": true,
          "internalType": "bytes32",
          "name": "role",
          "type": "bytes32"
        },
        {
          "indexed": true,
          "internalType": "address",
          "name": "account",
          "type": "address"
        },
        {
          "indexed": true,
          "internalType": "address",
          "name": "sender",
          "type": "address"
        }
      ],
      "name": "RoleGranted",
      "type": "event"
    },
    {
      "anonymous": false,
      "inputs": [
        {
          "indexed": true,
          "internalType": "bytes32",
          "name": "role",
          "type": "bytes32"
        },
        {
          "indexed": true,
          "internalType": "address",
          "name": "account",
          "type": "address"
        },
        {
          "indexed": true,
          "internalType": "address",
          "name": "sender",
          "type": "address"
        }
      ],
      "name": "RoleRevoked",
      "type": "event"
    },
    {
      "anonymous": false,
      "inputs": [
        {
          "indexed": true,
          "internalType": "address",
          "name": "implementation",
          "type": "address"
        }
      ],
      "name": "Upgraded",
      "type": "event"
    },
    {
      "inputs": [],
      "name": "BPS_DENOMINATOR",
      "outputs": [
        {
          "internalType": "uint256",
          "name": "",
          "type": "uint256"
        }
      ],
      "stateMutability": "view",
      "type": "function"
    },
    {
      "inputs": [],
      "name": "DEFAULT_ADMIN_ROLE",
      "outputs": [
        {
          "internalType": "bytes32",
          "name": "",
          "type": "bytes32"
        }
      ],
      "stateMutability": "view",
      "type": "function"
    },
    {
      "inputs": [
        {
          "components": [
            {
              "internalType": "address",
              "name": "tokenIn",
              "type": "address"
            },
            {
              "internalType": "address",
              "name": "tokenOut",
              "type": "address"
            },
            {
              "internalType": "uint256",
              "name": "amount",
              "type": "uint256"
            },
            {
              "internalType": "bool",
              "name": "isExactIn",
              "type": "bool"
            }
          ],
          "internalType": "struct IMetaAGQuoter.QuoteRequest[]",
          "name": "requests",
          "type": "tuple[]"
        }
      ],
      "name": "batchQuote",
      "outputs": [
        {
          "components": [
            {
              "internalType": "uint256",
              "name": "amountIn",
              "type": "uint256"
            },
            {
              "internalType": "uint256",
              "name": "amountOut",
              "type": "uint256"
            },
            {
              "internalType": "uint256",
              "name": "grossAmountOut",
              "type": "uint256"
            },
            {
              "internalType": "uint256",
              "name": "executionPrice",
              "type": "uint256"
            },
            {
              "internalType": "uint256",
              "name": "spotPriceIn",
              "type": "uint256"
            },
            {
              "internalType": "uint256",
              "name": "spotPriceOut",
              "type": "uint256"
            },
            {
              "internalType": "uint256",
              "name": "feeAmount",
              "type": "uint256"
            },
            {
              "internalType": "uint256",
              "name": "feeBps",
              "type": "uint256"
            },
            {
              "internalType": "bool",
              "name": "sufficientLiquidity",
              "type": "bool"
            },
            {
              "internalType": "uint256",
              "name": "availableLiquidity",
              "type": "uint256"
            },
            {
              "internalType": "uint256",
              "name": "priceTimestampIn",
              "type": "uint256"
            },
            {
              "internalType": "uint256",
              "name": "priceTimestampOut",
              "type": "uint256"
            },
            {
              "internalType": "bool",
              "name": "priceStaleIn",
              "type": "bool"
            },
            {
              "internalType": "bool",
              "name": "priceStaleOut",
              "type": "bool"
            }
          ],
          "internalType": "struct IMetaAGQuoter.QuoteResult[]",
          "name": "results",
          "type": "tuple[]"
        }
      ],
      "stateMutability": "view",
      "type": "function"
    },
    {
      "inputs": [],
      "name": "getAllLiquidityInfo",
      "outputs": [
        {
          "internalType": "address[]",
          "name": "tokens",
          "type": "address[]"
        },
        {
          "internalType": "uint256[]",
          "name": "reserves",
          "type": "uint256[]"
        },
        {
          "internalType": "uint256[]",
          "name": "prices",
          "type": "uint256[]"
        },
        {
          "internalType": "bool[]",
          "name": "stale",
          "type": "bool[]"
        }
      ],
      "stateMutability": "view",
      "type": "function"
    },
    {
      "inputs": [
        {
          "internalType": "address",
          "name": "token",
          "type": "address"
        }
      ],
      "name": "getLiquidityInfo",
      "outputs": [
        {
          "internalType": "uint256",
          "name": "available",
          "type": "uint256"
        },
        {
          "internalType": "uint256",
          "name": "tokenPrice",
          "type": "uint256"
        },
        {
          "internalType": "bool",
          "name": "isStale",
          "type": "bool"
        }
      ],
      "stateMutability": "view",
      "type": "function"
    },
    {
      "inputs": [
        {
          "internalType": "bytes32",
          "name": "role",
          "type": "bytes32"
        }
      ],
      "name": "getRoleAdmin",
      "outputs": [
        {
          "internalType": "bytes32",
          "name": "",
          "type": "bytes32"
        }
      ],
      "stateMutability": "view",
      "type": "function"
    },
    {
      "inputs": [
        {
          "internalType": "address",
          "name": "token",
          "type": "address"
        },
        {
          "internalType": "uint256",
          "name": "period",
          "type": "uint256"
        }
      ],
      "name": "getTWAP",
      "outputs": [
        {
          "internalType": "uint256",
          "name": "",
          "type": "uint256"
        }
      ],
      "stateMutability": "view",
      "type": "function"
    },
    {
      "inputs": [
        {
          "internalType": "address",
          "name": "token",
          "type": "address"
        }
      ],
      "name": "getTokenPrice",
      "outputs": [
        {
          "internalType": "uint256",
          "name": "price",
          "type": "uint256"
        },
        {
          "internalType": "uint256",
          "name": "timestamp",
          "type": "uint256"
        },
        {
          "internalType": "bool",
          "name": "isStale",
          "type": "bool"
        }
      ],
      "stateMutability": "view",
      "type": "function"
    },
    {
      "inputs": [
        {
          "internalType": "address[]",
          "name": "tokens",
          "type": "address[]"
        }
      ],
      "name": "getTokenPrices",
      "outputs": [
        {
          "internalType": "uint256[]",
          "name": "prices",
          "type": "uint256[]"
        },
        {
          "internalType": "uint256[]",
          "name": "timestamps",
          "type": "uint256[]"
        },
        {
          "internalType": "bool[]",
          "name": "stale",
          "type": "bool[]"
        }
      ],
      "stateMutability": "view",
      "type": "function"
    },
    {
      "inputs": [
        {
          "internalType": "bytes32",
          "name": "role",
          "type": "bytes32"
        },
        {
          "internalType": "address",
          "name": "account",
          "type": "address"
        }
      ],
      "name": "grantRole",
      "outputs": [],
      "stateMutability": "nonpayable",
      "type": "function"
    },
    {
      "inputs": [
        {
          "internalType": "bytes32",
          "name": "role",
          "type": "bytes32"
        },
        {
          "internalType": "address",
          "name": "account",
          "type": "address"
        }
      ],
      "name": "hasRole",
      "outputs": [
        {
          "internalType": "bool",
          "name": "",
          "type": "bool"
        }
      ],
      "stateMutability": "view",
      "type": "function"
    },
    {
      "inputs": [
        {
          "internalType": "address",
          "name": "priceOracle_",
          "type": "address"
        },
        {
          "internalType": "address",
          "name": "vault_",
          "type": "address"
        },
        {
          "internalType": "address",
          "name": "weth_",
          "type": "address"
        },
        {
          "internalType": "address",
          "name": "pecor_",
          "type": "address"
        },
        {
          "internalType": "address",
          "name": "admin",
          "type": "address"
        }
      ],
      "name": "initialize",
      "outputs": [],
      "stateMutability": "nonpayable",
      "type": "function"
    },
    {
      "inputs": [],
      "name": "pecor",
      "outputs": [
        {
          "internalType": "address",
          "name": "",
          "type": "address"
        }
      ],
      "stateMutability": "view",
      "type": "function"
    },
    {
      "inputs": [],
      "name": "priceOracle",
      "outputs": [
        {
          "internalType": "contract IPriceOracle",
          "name": "",
          "type": "address"
        }
      ],
      "stateMutability": "view",
      "type": "function"
    },
    {
      "inputs": [],
      "name": "proxiableUUID",
      "outputs": [
        {
          "internalType": "bytes32",
          "name": "",
          "type": "bytes32"
        }
      ],
      "stateMutability": "view",
      "type": "function"
    },
    {
      "inputs": [
        {
          "internalType": "address",
          "name": "tokenIn",
          "type": "address"
        },
        {
          "internalType": "address",
          "name": "tokenOut",
          "type": "address"
        },
        {
          "internalType": "uint256",
          "name": "amountIn",
          "type": "uint256"
        }
      ],
      "name": "quoteExactIn",
      "outputs": [
        {
          "components": [
            {
              "internalType": "uint256",
              "name": "amountIn",
              "type": "uint256"
            },
            {
              "internalType": "uint256",
              "name": "amountOut",
              "type": "uint256"
            },
            {
              "internalType": "uint256",
              "name": "grossAmountOut",
              "type": "uint256"
            },
            {
              "internalType": "uint256",
              "name": "executionPrice",
              "type": "uint256"
            },
            {
              "internalType": "uint256",
              "name": "spotPriceIn",
              "type": "uint256"
            },
            {
              "internalType": "uint256",
              "name": "spotPriceOut",
              "type": "uint256"
            },
            {
              "internalType": "uint256",
              "name": "feeAmount",
              "type": "uint256"
            },
            {
              "internalType": "uint256",
              "name": "feeBps",
              "type": "uint256"
            },
            {
              "internalType": "bool",
              "name": "sufficientLiquidity",
              "type": "bool"
            },
            {
              "internalType": "uint256",
              "name": "availableLiquidity",
              "type": "uint256"
            },
            {
              "internalType": "uint256",
              "name": "priceTimestampIn",
              "type": "uint256"
            },
            {
              "internalType": "uint256",
              "name": "priceTimestampOut",
              "type": "uint256"
            },
            {
              "internalType": "bool",
              "name": "priceStaleIn",
              "type": "bool"
            },
            {
              "internalType": "bool",
              "name": "priceStaleOut",
              "type": "bool"
            }
          ],
          "internalType": "struct IMetaAGQuoter.QuoteResult",
          "name": "",
          "type": "tuple"
        }
      ],
      "stateMutability": "view",
      "type": "function"
    },
    {
      "inputs": [
        {
          "internalType": "address",
          "name": "tokenOut",
          "type": "address"
        },
        {
          "internalType": "uint256",
          "name": "nativeAmountIn",
          "type": "uint256"
        }
      ],
      "name": "quoteExactInNative",
      "outputs": [
        {
          "components": [
            {
              "internalType": "uint256",
              "name": "amountIn",
              "type": "uint256"
            },
            {
              "internalType": "uint256",
              "name": "amountOut",
              "type": "uint256"
            },
            {
              "internalType": "uint256",
              "name": "grossAmountOut",
              "type": "uint256"
            },
            {
              "internalType": "uint256",
              "name": "executionPrice",
              "type": "uint256"
            },
            {
              "internalType": "uint256",
              "name": "spotPriceIn",
              "type": "uint256"
            },
            {
              "internalType": "uint256",
              "name": "spotPriceOut",
              "type": "uint256"
            },
            {
              "internalType": "uint256",
              "name": "feeAmount",
              "type": "uint256"
            },
            {
              "internalType": "uint256",
              "name": "feeBps",
              "type": "uint256"
            },
            {
              "internalType": "bool",
              "name": "sufficientLiquidity",
              "type": "bool"
            },
            {
              "internalType": "uint256",
              "name": "availableLiquidity",
              "type": "uint256"
            },
            {
              "internalType": "uint256",
              "name": "priceTimestampIn",
              "type": "uint256"
            },
            {
              "internalType": "uint256",
              "name": "priceTimestampOut",
              "type": "uint256"
            },
            {
              "internalType": "bool",
              "name": "priceStaleIn",
              "type": "bool"
            },
            {
              "internalType": "bool",
              "name": "priceStaleOut",
              "type": "bool"
            }
          ],
          "internalType": "struct IMetaAGQuoter.QuoteResult",
          "name": "",
          "type": "tuple"
        }
      ],
      "stateMutability": "view",
      "type": "function"
    },
    {
      "inputs": [
        {
          "internalType": "address",
          "name": "tokenIn",
          "type": "address"
        },
        {
          "internalType": "uint256",
          "name": "amountIn",
          "type": "uint256"
        }
      ],
      "name": "quoteExactInToNative",
      "outputs": [
        {
          "components": [
            {
              "internalType": "uint256",
              "name": "amountIn",
              "type": "uint256"
            },
            {
              "internalType": "uint256",
              "name": "amountOut",
              "type": "uint256"
            },
            {
              "internalType": "uint256",
              "name": "grossAmountOut",
              "type": "uint256"
            },
            {
              "internalType": "uint256",
              "name": "executionPrice",
              "type": "uint256"
            },
            {
              "internalType": "uint256",
              "name": "spotPriceIn",
              "type": "uint256"
            },
            {
              "internalType": "uint256",
              "name": "spotPriceOut",
              "type": "uint256"
            },
            {
              "internalType": "uint256",
              "name": "feeAmount",
              "type": "uint256"
            },
            {
              "internalType": "uint256",
              "name": "feeBps",
              "type": "uint256"
            },
            {
              "internalType": "bool",
              "name": "sufficientLiquidity",
              "type": "bool"
            },
            {
              "internalType": "uint256",
              "name": "availableLiquidity",
              "type": "uint256"
            },
            {
              "internalType": "uint256",
              "name": "priceTimestampIn",
              "type": "uint256"
            },
            {
              "internalType": "uint256",
              "name": "priceTimestampOut",
              "type": "uint256"
            },
            {
              "internalType": "bool",
              "name": "priceStaleIn",
              "type": "bool"
            },
            {
              "internalType": "bool",
              "name": "priceStaleOut",
              "type": "bool"
            }
          ],
          "internalType": "struct IMetaAGQuoter.QuoteResult",
          "name": "",
          "type": "tuple"
        }
      ],
      "stateMutability": "view",
      "type": "function"
    },
    {
      "inputs": [
        {
          "internalType": "address",
          "name": "tokenIn",
          "type": "address"
        },
        {
          "internalType": "address",
          "name": "tokenOut",
          "type": "address"
        },
        {
          "internalType": "uint256",
          "name": "amountOut",
          "type": "uint256"
        }
      ],
      "name": "quoteExactOut",
      "outputs": [
        {
          "components": [
            {
              "internalType": "uint256",
              "name": "amountIn",
              "type": "uint256"
            },
            {
              "internalType": "uint256",
              "name": "amountOut",
              "type": "uint256"
            },
            {
              "internalType": "uint256",
              "name": "grossAmountOut",
              "type": "uint256"
            },
            {
              "internalType": "uint256",
              "name": "executionPrice",
              "type": "uint256"
            },
            {
              "internalType": "uint256",
              "name": "spotPriceIn",
              "type": "uint256"
            },
            {
              "internalType": "uint256",
              "name": "spotPriceOut",
              "type": "uint256"
            },
            {
              "internalType": "uint256",
              "name": "feeAmount",
              "type": "uint256"
            },
            {
              "internalType": "uint256",
              "name": "feeBps",
              "type": "uint256"
            },
            {
              "internalType": "bool",
              "name": "sufficientLiquidity",
              "type": "bool"
            },
            {
              "internalType": "uint256",
              "name": "availableLiquidity",
              "type": "uint256"
            },
            {
              "internalType": "uint256",
              "name": "priceTimestampIn",
              "type": "uint256"
            },
            {
              "internalType": "uint256",
              "name": "priceTimestampOut",
              "type": "uint256"
            },
            {
              "internalType": "bool",
              "name": "priceStaleIn",
              "type": "bool"
            },
            {
              "internalType": "bool",
              "name": "priceStaleOut",
              "type": "bool"
            }
          ],
          "internalType": "struct IMetaAGQuoter.QuoteResult",
          "name": "",
          "type": "tuple"
        }
      ],
      "stateMutability": "view",
      "type": "function"
    },
    {
      "inputs": [
        {
          "internalType": "address",
          "name": "stablecoin",
          "type": "address"
        },
        {
          "internalType": "address",
          "name": "token",
          "type": "address"
        },
        {
          "internalType": "uint256",
          "name": "stablecoinAmount",
          "type": "uint256"
        }
      ],
      "name": "quoteMarketBuy",
      "outputs": [
        {
          "components": [
            {
              "internalType": "uint256",
              "name": "amountIn",
              "type": "uint256"
            },
            {
              "internalType": "uint256",
              "name": "amountOut",
              "type": "uint256"
            },
            {
              "internalType": "uint256",
              "name": "grossAmountOut",
              "type": "uint256"
            },
            {
              "internalType": "uint256",
              "name": "executionPrice",
              "type": "uint256"
            },
            {
              "internalType": "uint256",
              "name": "spotPriceIn",
              "type": "uint256"
            },
            {
              "internalType": "uint256",
              "name": "spotPriceOut",
              "type": "uint256"
            },
            {
              "internalType": "uint256",
              "name": "feeAmount",
              "type": "uint256"
            },
            {
              "internalType": "uint256",
              "name": "feeBps",
              "type": "uint256"
            },
            {
              "internalType": "bool",
              "name": "sufficientLiquidity",
              "type": "bool"
            },
            {
              "internalType": "uint256",
              "name": "availableLiquidity",
              "type": "uint256"
            },
            {
              "internalType": "uint256",
              "name": "priceTimestampIn",
              "type": "uint256"
            },
            {
              "internalType": "uint256",
              "name": "priceTimestampOut",
              "type": "uint256"
            },
            {
              "internalType": "bool",
              "name": "priceStaleIn",
              "type": "bool"
            },
            {
              "internalType": "bool",
              "name": "priceStaleOut",
              "type": "bool"
            }
          ],
          "internalType": "struct IMetaAGQuoter.QuoteResult",
          "name": "",
          "type": "tuple"
        }
      ],
      "stateMutability": "view",
      "type": "function"
    },
    {
      "inputs": [
        {
          "internalType": "address",
          "name": "token",
          "type": "address"
        },
        {
          "internalType": "address",
          "name": "stablecoin",
          "type": "address"
        },
        {
          "internalType": "uint256",
          "name": "tokenAmount",
          "type": "uint256"
        }
      ],
      "name": "quoteMarketSell",
      "outputs": [
        {
          "components": [
            {
              "internalType": "uint256",
              "name": "amountIn",
              "type": "uint256"
            },
            {
              "internalType": "uint256",
              "name": "amountOut",
              "type": "uint256"
            },
            {
              "internalType": "uint256",
              "name": "grossAmountOut",
              "type": "uint256"
            },
            {
              "internalType": "uint256",
              "name": "executionPrice",
              "type": "uint256"
            },
            {
              "internalType": "uint256",
              "name": "spotPriceIn",
              "type": "uint256"
            },
            {
              "internalType": "uint256",
              "name": "spotPriceOut",
              "type": "uint256"
            },
            {
              "internalType": "uint256",
              "name": "feeAmount",
              "type": "uint256"
            },
            {
              "internalType": "uint256",
              "name": "feeBps",
              "type": "uint256"
            },
            {
              "internalType": "bool",
              "name": "sufficientLiquidity",
              "type": "bool"
            },
            {
              "internalType": "uint256",
              "name": "availableLiquidity",
              "type": "uint256"
            },
            {
              "internalType": "uint256",
              "name": "priceTimestampIn",
              "type": "uint256"
            },
            {
              "internalType": "uint256",
              "name": "priceTimestampOut",
              "type": "uint256"
            },
            {
              "internalType": "bool",
              "name": "priceStaleIn",
              "type": "bool"
            },
            {
              "internalType": "bool",
              "name": "priceStaleOut",
              "type": "bool"
            }
          ],
          "internalType": "struct IMetaAGQuoter.QuoteResult",
          "name": "",
          "type": "tuple"
        }
      ],
      "stateMutability": "view",
      "type": "function"
    },
    {
      "inputs": [
        {
          "internalType": "bytes32",
          "name": "role",
          "type": "bytes32"
        },
        {
          "internalType": "address",
          "name": "callerConfirmation",
          "type": "address"
        }
      ],
      "name": "renounceRole",
      "outputs": [],
      "stateMutability": "nonpayable",
      "type": "function"
    },
    {
      "inputs": [
        {
          "internalType": "bytes32",
          "name": "role",
          "type": "bytes32"
        },
        {
          "internalType": "address",
          "name": "account",
          "type": "address"
        }
      ],
      "name": "revokeRole",
      "outputs": [],
      "stateMutability": "nonpayable",
      "type": "function"
    },
    {
      "inputs": [
        {
          "internalType": "address",
          "name": "newImplementation",
          "type": "address"
        },
        {
          "internalType": "bytes",
          "name": "data",
          "type": "bytes"
        }
      ],
      "name": "upgradeToAndCall",
      "outputs": [],
      "stateMutability": "payable",
      "type": "function"
    },
    {
      "inputs": [],
      "name": "vault",
      "outputs": [
        {
          "internalType": "contract IPECORVault",
          "name": "",
          "type": "address"
        }
      ],
      "stateMutability": "view",
      "type": "function"
    },
    {
      "inputs": [],
      "name": "weth",
      "outputs": [
        {
          "internalType": "address",
          "name": "",
          "type": "address"
        }
      ],
      "stateMutability": "view",
      "type": "function"
    }
  ],
  "bytecode": "0x60a080604052346100c557306080526000805160206123758339815191525460ff8160401c166100b5576002600160401b03196001600160401b03821601610061575b6040516122aa90816100cb823960805181818161083401526109110152f35b6001600160401b0319166001600160401b039081176000805160206123758339815191525581527fc7f505b2f371ae2175ee4913f4499e1f2633a7b5936321eed1cdaeb6115181d290602090a13880610042565b62dc149f60e41b60005260046000fd5b600080fdfe6080604052600436101561001257600080fd5b60003560e01c806312be4fe01461081c5780631459457a14610fe55780631c45be8314610fbc578063248a9ca314610f875780632630c12f14610f5e5780632f2ff15d14610f1e5780633425eb9414610d6d57806336568abe14610d1e5780633fc8cef314610cf557806345ac924d14610af35780634f1ef2861461089d57806352d1902d146108215780635323412e1461081c5780636f6ac6a21461081c5780636f8c10a8146107815780637020df951461075e5780637c0f84561461061557806391d14854146105c8578063a217fddf146105ac578063d02641a014610569578063d3229fed14610529578063d547741f146104e0578063e1a45218146104c3578063e9505c98146101b5578063f6824a51146101685763fbfa77cf1461013a57600080fd5b34610163576000366003190112610163576002546040516001600160a01b039091168152602090f35b600080fd5b34610163576040366003190112610163576101c06101a66101876111e9565b61018f6113c6565b5060035460243591906001600160a01b031661187a565b6101b3604051809261124f565bf35b34610163576000366003190112610163576002546040516314cbd99360e01b8152906001600160a01b0316600082600481845afa91821561040c57600092610418575b508151906102058261158f565b9161020f8161158f565b906102198161143e565b926102276040519485611374565b818452601f196102368361143e565b013660208601376001546001600160a01b03169060005b8381106102d757505050506040519260808401608085528551809152602060a0860196019060005b8181106102b85786806102b4886102a6896102988e8b878203602089015261130a565b90858203604087015261130a565b90838203606085015261133e565b0390f35b82516001600160a01b0316885260209788019790920191600101610275565b6001600160a01b036102e9828a61148f565b51604051630fa6707960e21b815291166004820152602081602481865afa90811561040c576000916103db575b50610321828961148f565b526001600160a01b03610334828a61148f565b516040516341976e0960e01b81529116600482015290602082602481875afa806000916103a2575b6001935061038557506000610371828861148f565b528161037d828961148f565b525b0161024d565b61038f828861148f565b52600061039c828961148f565b5261037f565b9192906020823d82116103d3575b816103bd60209383611374565b810103126103d05750516001929161035c565b80fd5b3d91506103b0565b906020823d8211610404575b816103f460209383611374565b810103126103d057505189610316565b3d91506103e7565b6040513d6000823e3d90fd5b90913d8082843e6104298184611374565b8201916020818403126104bf578051906001600160401b0382116104bb57019180601f840112156104bf578251916104608361143e565b9361046e6040519586611374565b83855260208086019460051b8201019283116104bf57602001925b82841061049b575050505090826101f8565b83516001600160a01b03811681036104bb57815260209384019301610489565b8280fd5b5080fd5b346101635760003660031901126101635760206040516127108152f35b34610163576040366003190112610163576105276004356104ff6111ff565b9061052261051b82600052600060205260016040600020015490565b3390611e61565b611eaf565b005b34610163576040366003190112610163576101c06101a66105486111e9565b6105506113c6565b50600354602435916001600160a01b039091169061187a565b34610163576020366003190112610163576102b461058d6105886111e9565b611500565b6040805193845260208401929092521515908201529081906060820190565b3461016357600036600319011261016357602060405160008152f35b34610163576040366003190112610163576105e16111ff565b600435600052600060205260406000209060018060a01b0316600052602052602060ff604060002054166040519015158152f35b346101635760203660031901126101635760246106306111e9565b600254604051630fa6707960e21b81526001600160a01b039283166004820181905290939092600092602092869290918391165afa92831561075157819361071d575b506001546040516341976e0960e01b81526004810193909352602090839060249082906001600160a01b03165afa909182826106e6575b50506106db57506000906102b460015b60405193849384919260409194936060840195845260208401521515910152565b906102b460006106ba565b909192506020823d602011610715575b8161070360209383611374565b810103126103d05750519083806106aa565b3d91506106f6565b9092506020813d602011610749575b8161073960209383611374565b810103126104bb57519183610673565b3d915061072c565b50604051903d90823e3d90fd5b34610163576101c06101a661077236611215565b9161077b6113c6565b50611618565b346101635760403660031901126101635761079a6111e9565b600154604051630df1821560e31b81526001600160a01b03928316600482015260248035908201529160209183916044918391165afa801561040c576000906107e9575b602090604051908152f35b506020813d602011610814575b8161080360209383611374565b8101031261016357602090516107de565b3d91506107f6565b6112e7565b34610163576000366003190112610163577f00000000000000000000000000000000000000000000000000000000000000006001600160a01b0316300361088c5760206040517f360894a13ba1a3210667c828492db98dca3e2076cc3735a920a3ca505d382bbc8152f35b6345a93fc960e01b60005260046000fd5b6040366003190112610163576108b16111e9565b602435906001600160401b03821161016357366023830112156101635781600401356108dc816113ab565b906108ea6040519283611374565b808252602082019336602483830101116101635781600092602460209301873783010152307f00000000000000000000000000000000000000000000000000000000000000006001600160a01b031614610ae2573360009081527fad3228b676f7d3cd4284a5443f17f1962b36e491b30a40b2405849e597ba5fb5602052604090205460ff1615610ac9576040516352d1902d60e01b81526001600160a01b03831690602081600481855afa60009181610a95575b506109b55763340aafcd60e11b60005260046000fd5b7f360894a13ba1a3210667c828492db98dca3e2076cc3735a920a3ca505d382bbc03610a8457823b15610a8457827f360894a13ba1a3210667c828492db98dca3e2076cc3735a920a3ca505d382bbc557fbc7cd75a20ee27fd9adebab32041f755214dbc6bffa90cc0225b39da2e5c2d3b600080a25180610a3257005b60009283925af4610a41611f37565b5015610a4957005b60405162461bcd60e51b81526020600482015260136024820152721d5c19dc985919481a5b9a5d0819985a5b1959606a1b6044820152606490fd5b63340aafcd60e11b60005260046000fd5b9091506020813d602011610ac1575b81610ab160209383611374565b810103126101635751908661099f565b3d9150610aa4565b62b0d32560e11b60005233600452600060245260446000fd5b6309e1070b60e31b60005260046000fd5b34610163576020366003190112610163576004356001600160401b0381116101635736602382011215610163578060040135906001600160401b038211610163573660248360051b83010111610163579060018060a01b0360015416906040519283916347dad24160e11b8352806024840160206004860152526024604484019201906000905b808210610cc05750505091818060009403915afa801561040c5760009182908392610bdc575b610bc0846102b485610bce8660405195869560608752606087019061130a565b90858203602087015261130a565b90838203604085015261133e565b9150503d8083833e610bee8183611374565b8101916060828403126103d05781516001600160401b0381116104bf5783610c179184016114a3565b9060208301516001600160401b0381116104bf5784610c379185016114a3565b926040810151906001600160401b0382116104bb57019380601f860112156104bf57845191610c658361143e565b95610c736040519788611374565b83875260208088019460051b8201019283116104bf57602001925b828410610ca7575092949392506102b49150610ba09050565b835180151581036104bb57815260209384019301610c8e565b919350918335906001600160a01b03821682036101635760208091600193848060a01b03168152019401920185939291610b7a565b34610163576000366003190112610163576003546040516001600160a01b039091168152602090f35b3461016357604036600319011261016357600435610d3a6111ff565b336001600160a01b0390911603610d5657610527903390611eaf565b62b0d32560e11b6000523360045260245260446000fd5b34610163576020366003190112610163576004356001600160401b03811161016357366023820112156101635780600401356001600160401b038111610163576024820191602436918360071b01011161016357610dca8161143e565b91610dd86040519384611374565b818352601f19610de78361143e565b0160005b818110610f075750506003546001600160a01b03169060005b838110610e5d578460405180916020820160208352815180915260206040840192019060005b818110610e38575050500390f35b9193509160206101c082610e4f600194885161124f565b019401910191849392610e2a565b610e70610e6b828685611455565b61147b565b90610e876020610e81838887611455565b0161147b565b916001600160a01b03811615610f00575b6001600160a01b03831615610ef8575b6040610eb5838887611455565b01356060610ec4848988611455565b013590811515820361016357600194610edc93611a74565b610ee6828861148f565b52610ef1818761148f565b5001610e04565b849250610ea8565b5083610e98565b602090610f126113c6565b82828801015201610deb565b3461016357604036600319011261016357610527600435610f3d6111ff565b90610f5961051b82600052600060205260016040600020015490565b611dd5565b34610163576000366003190112610163576001546040516001600160a01b039091168152602090f35b34610163576020366003190112610163576020610fb4600435600052600060205260016040600020015490565b604051908152f35b34610163576000366003190112610163576004546040516001600160a01b039091168152602090f35b346101635760a036600319011261016357610ffe6111e9565b6110066111ff565b6044356001600160a01b03811690819003610163576064356001600160a01b0381169081900361016357608435916001600160a01b03831680840361016357600080516020612255833981519152549560ff8760401c1615966001600160401b0381166001811015806111e2575b6111ca571515806111da575b6111ca578761119d575b50600080516020612255833981519152805467ffffffffffffffff191660011790556001600160a01b031694851561118c576001600160a01b031690811561118c57821561118c571561118c5761112c946001600160601b0360a01b60015416176001556001600160601b0360a01b60025416176002556001600160601b0360a01b60035416176003556001600160601b0360a01b6004541617600455611d22565b5061113357005b68ff0000000000000000196000805160206122558339815191525416600080516020612255833981519152557fc7f505b2f371ae2175ee4913f4499e1f2633a7b5936321eed1cdaeb6115181d2602060405160018152a1005b63d92e233d60e01b60005260046000fd5b68ff000000000000000019166801000000000000000017600080516020612255833981519152558761108a565b62dc149f60e41b60005260046000fd5b508715611080565b5088611074565b600435906001600160a01b038216820361016357565b602435906001600160a01b038216820361016357565b6060906003190112610163576004356001600160a01b038116810361016357906024356001600160a01b0381168103610163579060443590565b6101a08091805184526020810151602085015260408101516040850152606081015160608501526080810151608085015260a081015160a085015260c081015160c085015260e081015160e08501526101008101511515610100850152610120810151610120850152610140810151610140850152610160810151610160850152610180810151151561018085015201511515910152565b34610163576101c06101a66112fb36611215565b916113046113c6565b5061187a565b906020808351928381520192019060005b8181106113285750505090565b825184526020938401939092019160010161131b565b906020808351928381520192019060005b81811061135c5750505090565b8251151584526020938401939092019160010161134f565b90601f801991011681019081106001600160401b0382111761139557604052565b634e487b7160e01b600052604160045260246000fd5b6001600160401b03811161139557601f01601f191660200190565b604051906101c082018281106001600160401b038211176113955760405260006101a0838281528260208201528260408201528260608201528260808201528260a08201528260c08201528260e082015282610100820152826101208201528261014082015282610160820152826101808201520152565b6001600160401b0381116113955760051b60200190565b91908110156114655760071b0190565b634e487b7160e01b600052603260045260246000fd5b356001600160a01b03811681036101635790565b80518210156114655760209160051b010190565b9080601f830112156101635781516114ba8161143e565b926114c86040519485611374565b81845260208085019260051b82010192831161016357602001905b8282106114f05750505090565b81518152602091820191016114e3565b60015460405163775cf7b160e11b81526001600160a01b039283166004820152929160609184916024918391165afa9182600091600094611554575b5061154d5750600091508190600190565b9190600090565b915092506060813d606011611587575b8161157160609383611374565b810103126101635760208151910151923861153c565b3d9150611564565b906115998261143e565b6115a66040519182611374565b82815280926115b7601f199161143e565b0190602036910137565b90816020910312610163575160ff811681036101635790565b919082039182116115e757565b634e487b7160e01b600052601160045260246000fd5b919082018092116115e757565b604d81116115e757600a0a90565b60009392916116256113c6565b9461162f83611500565b61163885611500565b9291938560808d01528460a08d01526101408c01526101608b015215156101808a015215156101a089015261166b611f67565b60e089015281158015611872575b61186a57600254604051633c2e3e7b60e11b81526001600160a01b039687166004820152951694602081602481895afa90811561185f579060ff918591611840575b50604051633c2e3e7b60e11b81526001600160a01b039096166004870181905291169490936020826024818a5afa9182156107515786928260ff926117129796949261180f575b50508960208d0152169288612018565b9160e087015180151580611804575b6117d4575b5061173860209360c0890151906115fd565b8088528560408901526117b4575b50602460405180948193630fa6707960e21b835260048301525afa90811561040c57600091611782575b50806101208501521015610100830152565b906020823d6020116117ac575b8161179c60209383611374565b810103126103d057505138611770565b3d915061178f565b6117c06117c99161160a565b87519086612155565b606087015238611746565b806127100361271081116115e7576117ec9185612155565b600181018091116115e75760c0880152611738611726565b508061271011611721565b61183291925060203d602011611839575b61182a8183611374565b8101906115c1565b9038611702565b503d611820565b611859915060203d6020116118395761182a8183611374565b386116bb565b6040513d86823e3d90fd5b505050505050565b508015611679565b9291926118856113c6565b9361188f82611500565b61189b86949394611500565b9291938660808c01528460a08c01526101408b01526101608a0152151561018089015215156101a08801526118ce611f67565b60e088015282158015611a6c575b611a6557600254604051633c2e3e7b60e11b81526001600160a01b039586166004820152941693602081602481885afa801561040c5760ff91600091611a46575b50604051633c2e3e7b60e11b81526001600160a01b03909716600488018190529691169190602081602481895afa94851561040c578361199d9360ff602098888e61197497600093611a27575b50521692876121f3565b604089019080825260e08a015180151580611a1e575b611a09575b50505160c0890151906115da565b9183880192808452816119ea575b5050505192602460405180948193630fa6707960e21b835260048301525afa90811561040c576000916117825750806101208501521015610100830152565b6119f66119fc9361160a565b90612155565b60608701523880806119ab565b611a12916120a8565b60c08a0152388061198f565b5081151561198a565b611a3f9193508c3d8e116118395761182a8183611374565b913861196a565b611a5f915060203d6020116118395761182a8183611374565b3861191d565b5050505050565b5080156118dc565b9091939293611a816113c6565b94611a8b83611500565b611a96879297611500565b9291988560808d01528960a08d01526101408c01526101608b015215156101808a015215156101a0890152611ac9611f67565b60e089015281158015611d1a575b61186a57600254604051633c2e3e7b60e11b81526001600160a01b039687166004820152951694602081602481895afa801561040c5760ff91600091611cfb575b50604051633c2e3e7b60e11b81526001600160a01b039093166004840181905297911692906020836024818a5afa90811561040c5760ff85928895600091611cdc575b5016928b8715611c395791611b78939186611ba1969452866121f3565b60408a019080825260e08b015180151580611c30575b611c1b575b50505160c08a0151906115da565b8060208a015281611c02575b5050505b15611bf95750602080850151925b602460405180948193630fa6707960e21b835260048301525afa90811561040c576000916117825750806101208501521015610100830152565b60209092611bbf565b6119f6611c0e9361160a565b6060870152388281611bad565b611c24916120a8565b60c08b01523880611b93565b50811515611b8e565b946020611c4896015287612018565b60e088015180151580611cd1575b611c9e575b5060c0880151611c6a916115fd565b808852836040890152611c7e575b50611bb1565b611c8a611c939161160a565b87519084612155565b606087015238611c78565b806127100361271081116115e757611cb69183612155565b90600182018092116115e757611c6a9160c08a015290611c5b565b508061271011611c56565b611cf5915060203d6020116118395761182a8183611374565b38611b5b565b611d14915060203d6020116118395761182a8183611374565b38611b18565b508515611ad7565b6001600160a01b03811660009081527fad3228b676f7d3cd4284a5443f17f1962b36e491b30a40b2405849e597ba5fb5602052604090205460ff1615611d685750600090565b6001600160a01b031660008181527fad3228b676f7d3cd4284a5443f17f1962b36e491b30a40b2405849e597ba5fb560205260408120805460ff191660011790553391907f2f8788117e7eff1d82e926ec794901d17c78024a50270940304540a733656f0d8180a4600190565b6000818152602081815260408083206001600160a01b038616845290915290205460ff1615611e05575050600090565b6000818152602081815260408083206001600160a01b0395909516808452949091528120805460ff19166001179055339291907f2f8788117e7eff1d82e926ec794901d17c78024a50270940304540a733656f0d9080a4600190565b90816000526000602052604060002060018060a01b03821660005260205260ff6040600020541615611e91575050565b62b0d32560e11b60005260018060a01b031660045260245260446000fd5b6000818152602081815260408083206001600160a01b038616845290915290205460ff16611ede575050600090565b6000818152602081815260408083206001600160a01b0395909516808452949091528120805460ff19169055339291907ff6391f5c32d9c69d2a47ea670b442974b53935d1edc7fd64eb21e047a839171b9080a4600190565b3d15611f62573d90611f48826113ab565b91611f566040519384611374565b82523d6000602084013e565b606090565b6004546001600160a01b03168015611fdf57600080916040516020810190632ffdaf8960e01b825260048152611f9e602482611374565b51915afa611faa611f37565b9080611fd3575b611fbb5750600090565b60208151918180820193849201010312610163575190565b50602081511015611fb1565b50600090565b818102929181159184041417156115e757565b8115612002570490565b634e487b7160e01b600052601260045260246000fd5b916120239192612122565b91838111612090575b8193818111612069575b50505081156120625781612049916115fd565b6000198101919082116115e75761205f91611ff8565b90565b5050600090565b6120879394506120819161207c916115da565b61160a565b90611fe5565b90388080612036565b916120a29061208161207c86866115da565b9161202c565b6000198282098282029182808310920391808303921461211757612710821015612106577fbc01a36e2eb1c432ca57a786c226809d495182a9930be0ded288ce703afb7e9193612710910990828211900360fc1b910360041c170290565b631a93c68960e11b60005260046000fd5b505061271091500490565b60001982820991808202928380821091039080821461214e576001910310156121065760019109900390565b5050505090565b9180156121e25760001982840992828102928380861095039480860395146121d5578285101561210657829109816000038216809204600281600302188082026002030280820260020302808202600203028082026002030280820260020302809102600203029360018380600003040190848311900302920304170290565b50509061205f9250611ff8565b6323d359a360e01b60005260046000fd5b906121fd91612122565b9282811161223c575b8192818111612222575b50505080156120625761205f91611ff8565b61223493506120819161207c916115da565b388080612210565b9261224e9061208161207c85876115da565b9261220656fe4377386e2795aba8c0ce23a1e6e67bac790e4b4166f14b7e9365049ab946f8c0a2646970667358221220b4e0e7ddfd647232272652b7a9b3c1e22398b612a9de9048e9d328135bffccd564736f6c634300081b00334377386e2795aba8c0ce23a1e6e67bac790e4b4166f14b7e9365049ab946f8c0",
  "linkReferences": {},
  "deployedLinkReferences": {}
}