{
  "_format": "hh-sol-artifact-1",
  "contractName": "CooldownOptical",
  "sourceName": "contracts/opticals/presets/CooldownOptical.sol",
  "abi": [
    {
      "inputs": [
        {
          "internalType": "address",
          "name": "_poolRegistry",
          "type": "address"
        },
        {
          "internalType": "address",
          "name": "_owner",
          "type": "address"
        },
        {
          "internalType": "uint256",
          "name": "_cooldownSeconds",
          "type": "uint256"
        }
      ],
      "stateMutability": "nonpayable",
      "type": "constructor"
    },
    {
      "inputs": [],
      "name": "CooldownActive",
      "type": "error"
    },
    {
      "inputs": [],
      "name": "NotOwner",
      "type": "error"
    },
    {
      "inputs": [],
      "name": "NotPool",
      "type": "error"
    },
    {
      "inputs": [
        {
          "internalType": "address",
          "name": "",
          "type": "address"
        },
        {
          "internalType": "uint256",
          "name": "",
          "type": "uint256"
        }
      ],
      "name": "afterFeeDistribution",
      "outputs": [
        {
          "internalType": "bytes4",
          "name": "",
          "type": "bytes4"
        }
      ],
      "stateMutability": "nonpayable",
      "type": "function"
    },
    {
      "inputs": [
        {
          "internalType": "address",
          "name": "",
          "type": "address"
        },
        {
          "internalType": "address",
          "name": "",
          "type": "address"
        },
        {
          "internalType": "bool",
          "name": "",
          "type": "bool"
        },
        {
          "internalType": "uint256",
          "name": "",
          "type": "uint256"
        },
        {
          "internalType": "uint256",
          "name": "",
          "type": "uint256"
        }
      ],
      "name": "afterSwap",
      "outputs": [
        {
          "internalType": "bytes4",
          "name": "",
          "type": "bytes4"
        }
      ],
      "stateMutability": "nonpayable",
      "type": "function"
    },
    {
      "inputs": [
        {
          "internalType": "address",
          "name": "",
          "type": "address"
        },
        {
          "internalType": "uint256",
          "name": "feeAmount",
          "type": "uint256"
        }
      ],
      "name": "beforeFeeDistribution",
      "outputs": [
        {
          "internalType": "uint256",
          "name": "adjustedFee",
          "type": "uint256"
        }
      ],
      "stateMutability": "nonpayable",
      "type": "function"
    },
    {
      "inputs": [
        {
          "internalType": "address",
          "name": "pool",
          "type": "address"
        },
        {
          "internalType": "address",
          "name": "sender",
          "type": "address"
        },
        {
          "internalType": "bool",
          "name": "",
          "type": "bool"
        },
        {
          "internalType": "uint256",
          "name": "",
          "type": "uint256"
        }
      ],
      "name": "beforeSwap",
      "outputs": [
        {
          "internalType": "bool",
          "name": "proceed",
          "type": "bool"
        },
        {
          "internalType": "int256",
          "name": "amountDelta",
          "type": "int256"
        }
      ],
      "stateMutability": "nonpayable",
      "type": "function"
    },
    {
      "inputs": [],
      "name": "cooldownSeconds",
      "outputs": [
        {
          "internalType": "uint256",
          "name": "",
          "type": "uint256"
        }
      ],
      "stateMutability": "view",
      "type": "function"
    },
    {
      "inputs": [],
      "name": "getFlags",
      "outputs": [
        {
          "internalType": "uint8",
          "name": "",
          "type": "uint8"
        }
      ],
      "stateMutability": "pure",
      "type": "function"
    },
    {
      "inputs": [
        {
          "internalType": "address",
          "name": "",
          "type": "address"
        },
        {
          "internalType": "address",
          "name": "",
          "type": "address"
        }
      ],
      "name": "lastTradeTime",
      "outputs": [
        {
          "internalType": "uint256",
          "name": "",
          "type": "uint256"
        }
      ],
      "stateMutability": "view",
      "type": "function"
    },
    {
      "inputs": [],
      "name": "owner",
      "outputs": [
        {
          "internalType": "address",
          "name": "",
          "type": "address"
        }
      ],
      "stateMutability": "view",
      "type": "function"
    },
    {
      "inputs": [],
      "name": "poolRegistry",
      "outputs": [
        {
          "internalType": "address",
          "name": "",
          "type": "address"
        }
      ],
      "stateMutability": "view",
      "type": "function"
    }
  ],
  "bytecode": "0x60e03461009457601f61047238819003918201601f19168301916001600160401b038311848410176100995780849260609460405283398101031261009457610047816100af565b906040610056602083016100af565b9101519160805260a05260c0526040516103ae90816100c4823960805181610139015260a051816101ed015260c05181818161010001526103320152f35b600080fd5b634e487b7160e01b600052604160045260246000fd5b51906001600160a01b03821682036100945756fe6080604052600436101561001257600080fd5b60003560e01c806339b1d853146102385780636cc7149d1461021c5780638da5cb5b146101d7578063ae3bd4bd146101ab578063ae7e71d914610168578063afcff50f14610123578063b8221bc4146100e8578063f74c1c1a146100aa5763f80d2cc71461007f57600080fd5b346100a55760403660031901126100a557610098610287565b5060206040516024358152f35b600080fd5b346100a55760a03660031901126100a5576100c3610287565b506100cc61029d565b506100d56102b3565b50604051637ba60e0d60e11b8152602090f35b346100a55760003660031901126100a55760206040517f00000000000000000000000000000000000000000000000000000000000000008152f35b346100a55760003660031901126100a5576040517f00000000000000000000000000000000000000000000000000000000000000006001600160a01b03168152602090f35b346100a55760803660031901126100a557604061019d610186610287565b61018e61029d565b906101976102b3565b506102c2565b825191151582526020820152f35b346100a55760403660031901126100a5576101c4610287565b5060405163ae3bd4bd60e01b8152602090f35b346100a55760003660031901126100a5576040517f00000000000000000000000000000000000000000000000000000000000000006001600160a01b03168152602090f35b346100a55760003660031901126100a557602060405160018152f35b346100a55760403660031901126100a557610251610287565b61025961029d565b6001600160a01b03918216600090815260208181526040808320949093168252928352819020549051908152f35b600435906001600160a01b03821682036100a557565b602435906001600160a01b03821682036100a557565b6044359081151582036100a557565b6001600160a01b0390811660008181526020818152604080832094861683529390529190912054801515908161032e575b5061032457600052600060205260406000209060018060a01b03166000526020526040600020429055600190600090565b5050600090600090565b90507f00000000000000000000000000000000000000000000000000000000000000008101809111610362574210386102f3565b634e487b7160e01b600052601160045260246000fdfea26469706673582212200bfb9c11860930c3dc47d0b121b9444925c9b4f74cae47c83867094980b26d6f64736f6c634300081b0033",
  "linkReferences": {},
  "deployedLinkReferences": {}
}