{
  "_format": "hh-sol-artifact-1",
  "contractName": "MockERC721Base",
  "sourceName": "contracts/test/MockERC721Base.sol",
  "abi": [
    {
      "inputs": [],
      "stateMutability": "nonpayable",
      "type": "constructor"
    },
    {
      "inputs": [],
      "name": "AlreadyMinted",
      "type": "error"
    },
    {
      "inputs": [],
      "name": "NonERC721Receiver",
      "type": "error"
    },
    {
      "inputs": [],
      "name": "NotApproved",
      "type": "error"
    },
    {
      "inputs": [],
      "name": "NotTokenOwner",
      "type": "error"
    },
    {
      "inputs": [],
      "name": "TokenNotFound",
      "type": "error"
    },
    {
      "inputs": [],
      "name": "ZeroAddress",
      "type": "error"
    },
    {
      "anonymous": false,
      "inputs": [
        {
          "indexed": true,
          "internalType": "address",
          "name": "owner",
          "type": "address"
        },
        {
          "indexed": true,
          "internalType": "address",
          "name": "approved",
          "type": "address"
        },
        {
          "indexed": true,
          "internalType": "uint256",
          "name": "tokenId",
          "type": "uint256"
        }
      ],
      "name": "Approval",
      "type": "event"
    },
    {
      "anonymous": false,
      "inputs": [
        {
          "indexed": true,
          "internalType": "address",
          "name": "owner",
          "type": "address"
        },
        {
          "indexed": true,
          "internalType": "address",
          "name": "operator",
          "type": "address"
        },
        {
          "indexed": false,
          "internalType": "bool",
          "name": "approved",
          "type": "bool"
        }
      ],
      "name": "ApprovalForAll",
      "type": "event"
    },
    {
      "anonymous": false,
      "inputs": [
        {
          "indexed": true,
          "internalType": "address",
          "name": "from",
          "type": "address"
        },
        {
          "indexed": true,
          "internalType": "address",
          "name": "to",
          "type": "address"
        },
        {
          "indexed": true,
          "internalType": "uint256",
          "name": "tokenId",
          "type": "uint256"
        }
      ],
      "name": "Transfer",
      "type": "event"
    },
    {
      "inputs": [
        {
          "internalType": "address",
          "name": "to",
          "type": "address"
        },
        {
          "internalType": "uint256",
          "name": "tokenId",
          "type": "uint256"
        }
      ],
      "name": "approve",
      "outputs": [],
      "stateMutability": "nonpayable",
      "type": "function"
    },
    {
      "inputs": [
        {
          "internalType": "address",
          "name": "owner_",
          "type": "address"
        }
      ],
      "name": "balanceOf",
      "outputs": [
        {
          "internalType": "uint256",
          "name": "",
          "type": "uint256"
        }
      ],
      "stateMutability": "view",
      "type": "function"
    },
    {
      "inputs": [
        {
          "internalType": "uint256",
          "name": "tokenId",
          "type": "uint256"
        }
      ],
      "name": "burn",
      "outputs": [],
      "stateMutability": "nonpayable",
      "type": "function"
    },
    {
      "inputs": [
        {
          "internalType": "uint256",
          "name": "tokenId",
          "type": "uint256"
        }
      ],
      "name": "exists",
      "outputs": [
        {
          "internalType": "bool",
          "name": "",
          "type": "bool"
        }
      ],
      "stateMutability": "view",
      "type": "function"
    },
    {
      "inputs": [
        {
          "internalType": "uint256",
          "name": "tokenId",
          "type": "uint256"
        }
      ],
      "name": "getApproved",
      "outputs": [
        {
          "internalType": "address",
          "name": "",
          "type": "address"
        }
      ],
      "stateMutability": "view",
      "type": "function"
    },
    {
      "inputs": [
        {
          "internalType": "address",
          "name": "owner_",
          "type": "address"
        },
        {
          "internalType": "address",
          "name": "operator",
          "type": "address"
        }
      ],
      "name": "isApprovedForAll",
      "outputs": [
        {
          "internalType": "bool",
          "name": "",
          "type": "bool"
        }
      ],
      "stateMutability": "view",
      "type": "function"
    },
    {
      "inputs": [
        {
          "internalType": "address",
          "name": "to",
          "type": "address"
        },
        {
          "internalType": "uint256",
          "name": "tokenId",
          "type": "uint256"
        }
      ],
      "name": "mint",
      "outputs": [],
      "stateMutability": "nonpayable",
      "type": "function"
    },
    {
      "inputs": [],
      "name": "name",
      "outputs": [
        {
          "internalType": "string",
          "name": "",
          "type": "string"
        }
      ],
      "stateMutability": "view",
      "type": "function"
    },
    {
      "inputs": [
        {
          "internalType": "uint256",
          "name": "tokenId",
          "type": "uint256"
        }
      ],
      "name": "ownerOf",
      "outputs": [
        {
          "internalType": "address",
          "name": "owner_",
          "type": "address"
        }
      ],
      "stateMutability": "view",
      "type": "function"
    },
    {
      "inputs": [
        {
          "internalType": "address",
          "name": "from",
          "type": "address"
        },
        {
          "internalType": "address",
          "name": "to",
          "type": "address"
        },
        {
          "internalType": "uint256",
          "name": "tokenId",
          "type": "uint256"
        }
      ],
      "name": "safeTransferFrom",
      "outputs": [],
      "stateMutability": "nonpayable",
      "type": "function"
    },
    {
      "inputs": [
        {
          "internalType": "address",
          "name": "from",
          "type": "address"
        },
        {
          "internalType": "address",
          "name": "to",
          "type": "address"
        },
        {
          "internalType": "uint256",
          "name": "tokenId",
          "type": "uint256"
        },
        {
          "internalType": "bytes",
          "name": "data",
          "type": "bytes"
        }
      ],
      "name": "safeTransferFrom",
      "outputs": [],
      "stateMutability": "nonpayable",
      "type": "function"
    },
    {
      "inputs": [
        {
          "internalType": "address",
          "name": "operator",
          "type": "address"
        },
        {
          "internalType": "bool",
          "name": "approved",
          "type": "bool"
        }
      ],
      "name": "setApprovalForAll",
      "outputs": [],
      "stateMutability": "nonpayable",
      "type": "function"
    },
    {
      "inputs": [
        {
          "internalType": "bytes4",
          "name": "interfaceId",
          "type": "bytes4"
        }
      ],
      "name": "supportsInterface",
      "outputs": [
        {
          "internalType": "bool",
          "name": "",
          "type": "bool"
        }
      ],
      "stateMutability": "view",
      "type": "function"
    },
    {
      "inputs": [],
      "name": "symbol",
      "outputs": [
        {
          "internalType": "string",
          "name": "",
          "type": "string"
        }
      ],
      "stateMutability": "view",
      "type": "function"
    },
    {
      "inputs": [
        {
          "internalType": "address",
          "name": "from",
          "type": "address"
        },
        {
          "internalType": "address",
          "name": "to",
          "type": "address"
        },
        {
          "internalType": "uint256",
          "name": "tokenId",
          "type": "uint256"
        }
      ],
      "name": "transferFrom",
      "outputs": [],
      "stateMutability": "nonpayable",
      "type": "function"
    }
  ],
  "bytecode": "0x60806040523461032357604080519081016001600160401b03811182821017610230576040908152600782526615195cdd13919560ca1b602083015280519081016001600160401b038111828210176102305760405260048152631513919560e21b602082015281516001600160401b03811161023057600054600181811c91168015610319575b602082101461021057601f81116102b5575b50602092601f82116001146102515792819293600092610246575b50508160011b916000199060031b1c1916176000555b80516001600160401b03811161023057600154600181811c91168015610226575b602082101461021057601f81116101ab575b50602091601f82116001146101475791819260009261013c575b50508160011b916000199060031b1c1916176001555b604051610b8490816103298239f35b015190503880610117565b601f198216926001600052806000209160005b8581106101935750836001951061017a575b505050811b0160015561012d565b015160001960f88460031b161c1916905538808061016c565b9192602060018192868501518155019401920161015a565b60016000527fb10e2d527612073b26eecdfd717e6a320cf44b4afac2b0732d9fcbe2b7fa0cf6601f830160051c81019160208410610206575b601f0160051c01905b8181106101fa57506100fd565b600081556001016101ed565b90915081906101e4565b634e487b7160e01b600052602260045260246000fd5b90607f16906100eb565b634e487b7160e01b600052604160045260246000fd5b0151905038806100b4565b601f1982169360008052806000209160005b86811061029d5750836001959610610284575b505050811b016000556100ca565b015160001960f88460031b161c19169055388080610276565b91926020600181928685015181550194019201610263565b600080527f290decd9548b62a8d60345a988386fc84ba6bc95484008f6362f93160ef3e563601f830160051c8101916020841061030f575b601f0160051c01905b8181106103035750610099565b600081556001016102f6565b90915081906102ed565b90607f1690610087565b600080fdfe608080604052600436101561001357600080fd5b60003560e01c90816301ffc9a71461078b5750806306fdde03146106ed578063081812fc1461068b578063095ea7b3146105c457806323b872dd146105ad57806340c10f19146104f657806342842e0e146104cc57806342966c681461042c5780634f558e79146103f65780636352211e146103c657806370a082311461037557806395d89b4114610262578063a22cb465146101d5578063b88d4fde146101245763e985e9c5146100c457600080fd5b3461011f57604036600319011261011f576100dd610841565b6100e5610857565b9060018060a01b0316600052600560205260406000209060018060a01b0316600052602052602060ff604060002054166040519015158152f35b600080fd5b3461011f57608036600319011261011f5761013d610841565b610145610857565b6064359167ffffffffffffffff831161011f573660238401121561011f5782600401359167ffffffffffffffff83116101bf5760405192610190601f8201601f1916602001856107de565b808452366024828701011161011f5760208160009260246101bd9801838801378501015260443591610a12565b005b634e487b7160e01b600052604160045260246000fd5b3461011f57604036600319011261011f576101ee610841565b6024359081151580920361011f57336000526005602052604060002060018060a01b038216600052602052604060002060ff1981541660ff841617905560405191825260018060a01b0316907f17307eab39ab6107e8899845ad3d59bd9653f200f220920489ca2b5937696c3160203392a3005b3461011f57600036600319011261011f5760006040519080600154908160011c9160018116801561036b575b6020841081146103575783865290811561033057506001146102d3575b6102cf846102bb818603826107de565b604051918291602083526020830190610800565b0390f35b600181527fb10e2d527612073b26eecdfd717e6a320cf44b4afac2b0732d9fcbe2b7fa0cf6939250905b808210610316575090915081016020016102bb826102ab565b9192600181602092548385880101520191019092916102fd565b60ff191660208087019190915292151560051b850190920192506102bb91508390506102ab565b634e487b7160e01b83526022600452602483fd5b92607f169261028e565b3461011f57602036600319011261011f576001600160a01b03610396610841565b1680156103b55760005260036020526020604060002054604051908152f35b63d92e233d60e01b60005260046000fd5b3461011f57602036600319011261011f5760206103e46004356109f1565b6040516001600160a01b039091168152f35b3461011f57602036600319011261011f576004356000526002602052602060018060a01b03604060002054161515604051908152f35b3461011f57602036600319011261011f57600435600061044b826109f1565b8282526004602052604082206bffffffffffffffffffffffff60a01b815416905560018060a01b031680825260036020526040822061048a8154610b1c565b905582825260026020526040822080546001600160a01b03191690557fddf252ad1be2c89b69c2b068fc378daa952ba7f163c4a11628f55a4df523b3ef8280a4005b3461011f576101bd6104dd3661086d565b90604051926104ed6020856107de565b60008452610a12565b3461011f57604036600319011261011f5761050f610841565b602435906001600160a01b031680156103b5576000828152600260205260409020546001600160a01b031661059c5780600052600360205260406000206105568154610b3f565b9055600082815260026020526040812080546001600160a01b031916831790557fddf252ad1be2c89b69c2b068fc378daa952ba7f163c4a11628f55a4df523b3ef8180a4005b631bbdf5c560e31b60005260046000fd5b3461011f576101bd6105be3661086d565b916108a7565b3461011f57604036600319011261011f576105dd610841565b602435906001600160a01b036105f2836109f1565b16908133141580610667575b61065657600083815260046020526040812080546001600160a01b0319166001600160a01b039390931692831790559091907f8c5be1e5ebec7d5bd14f71427d1e84f3dd0314c0f7b2291e5b200ac8c7c3b9259080a4005b63c19f17a960e01b60005260046000fd5b50600082815260056020908152604080832033845290915290205460ff16156105fe565b3461011f57602036600319011261011f576004356000818152600260205260409020546001600160a01b0316156106dc576000526004602052602060018060a01b0360406000205416604051908152f35b630cbdb7b360e41b60005260046000fd5b3461011f57600036600319011261011f5760405160008054600181811c91839181168015610781575b602084108114610357578386529081156103305750600114610742576102cf846102bb818603826107de565b80805260208120939250905b808210610767575090915081016020016102bb826102ab565b91926001816020925483858801015201910190929161074e565b92607f1692610716565b3461011f57602036600319011261011f576004359063ffffffff60e01b821680920361011f576020916380ac58cd60e01b81149081156107cd575b5015158152f35b6301ffc9a760e01b149050836107c6565b90601f8019910116810190811067ffffffffffffffff8211176101bf57604052565b919082519283825260005b84811061082c575050826000602080949584010152601f8019910116010190565b8060208092840101518282860101520161080b565b600435906001600160a01b038216820361011f57565b602435906001600160a01b038216820361011f57565b606090600319011261011f576004356001600160a01b038116810361011f57906024356001600160a01b038116810361011f579060443590565b906001600160a01b036108b9846109f1565b168033149081156109d0575b81156109ab575b5015610656576108db836109f1565b6001600160a01b03928316921682900361099a576001600160a01b03169081156103b55782600052600460205260406000206bffffffffffffffffffffffff60a01b8154169055806000526003602052604060002061093a8154610b1c565b905581600052600360205260406000206109548154610b3f565b9055600083815260026020526040812080546001600160a01b031916841790557fddf252ad1be2c89b69c2b068fc378daa952ba7f163c4a11628f55a4df523b3ef9080a4565b6359dc379f60e01b60005260046000fd5b600090815260056020908152604080832033845290915290205460ff169050386108cc565b6000858152600460205260409020546001600160a01b0316331491506108c5565b6000908152600260205260409020546001600160a01b03169081156106dc57565b919290610a208482856108a7565b803b610a2d575b50505050565b610a7393600060209460405196879586948593630a85bd0160e11b855233600486015260018060a01b031660248501526044840152608060648401526084830190610800565b03926001600160a01b03165af18091600091610ad2575b5090610aa1576320149b4360e21b60005260046000fd5b6001600160e01b03191663757a42ff60e11b01610ac15738808080610a27565b6320149b4360e21b60005260046000fd5b6020813d602011610b14575b81610aeb602093836107de565b81010312610b105751906001600160e01b031982168203610b0d575038610a8a565b80fd5b5080fd5b3d9150610ade565b8015610b29576000190190565b634e487b7160e01b600052601160045260246000fd5b6000198114610b29576001019056fea2646970667358221220c305cc107979b7063ec799fdaa09a1ffb7b9a5537fa253c093e773a55fccefb264736f6c634300081b0033",
  "linkReferences": {},
  "deployedLinkReferences": {}
}