{
  "_format": "hh-sol-artifact-1",
  "contractName": "Quoter",
  "sourceName": "contracts/periphery/Quoter.sol",
  "abi": [
    {
      "inputs": [],
      "stateMutability": "nonpayable",
      "type": "constructor"
    },
    {
      "inputs": [],
      "name": "AlreadyInitialized",
      "type": "error"
    },
    {
      "inputs": [],
      "name": "DivisionByZero",
      "type": "error"
    },
    {
      "inputs": [],
      "name": "InsufficientInput",
      "type": "error"
    },
    {
      "inputs": [],
      "name": "InsufficientLiquidity",
      "type": "error"
    },
    {
      "inputs": [],
      "name": "InvalidImplementation",
      "type": "error"
    },
    {
      "inputs": [],
      "name": "InvalidImplementation",
      "type": "error"
    },
    {
      "inputs": [
        {
          "internalType": "address",
          "name": "account",
          "type": "address"
        },
        {
          "internalType": "bytes32",
          "name": "role",
          "type": "bytes32"
        }
      ],
      "name": "MissingRole",
      "type": "error"
    },
    {
      "inputs": [],
      "name": "NotInitializing",
      "type": "error"
    },
    {
      "inputs": [],
      "name": "Overflow",
      "type": "error"
    },
    {
      "inputs": [],
      "name": "UUPSNotThroughActiveProxy",
      "type": "error"
    },
    {
      "inputs": [],
      "name": "UUPSNotThroughProxy",
      "type": "error"
    },
    {
      "inputs": [],
      "name": "UnauthorizedUpgrade",
      "type": "error"
    },
    {
      "inputs": [],
      "name": "ZeroAddress",
      "type": "error"
    },
    {
      "anonymous": false,
      "inputs": [
        {
          "indexed": false,
          "internalType": "uint64",
          "name": "version",
          "type": "uint64"
        }
      ],
      "name": "Initialized",
      "type": "event"
    },
    {
      "anonymous": false,
      "inputs": [
        {
          "indexed": true,
          "internalType": "bytes32",
          "name": "role",
          "type": "bytes32"
        },
        {
          "indexed": true,
          "internalType": "bytes32",
          "name": "previousAdminRole",
          "type": "bytes32"
        },
        {
          "indexed": true,
          "internalType": "bytes32",
          "name": "newAdminRole",
          "type": "bytes32"
        }
      ],
      "name": "RoleAdminChanged",
      "type": "event"
    },
    {
      "anonymous": false,
      "inputs": [
        {
          "indexed": true,
          "internalType": "bytes32",
          "name": "role",
          "type": "bytes32"
        },
        {
          "indexed": true,
          "internalType": "address",
          "name": "account",
          "type": "address"
        },
        {
          "indexed": true,
          "internalType": "address",
          "name": "sender",
          "type": "address"
        }
      ],
      "name": "RoleGranted",
      "type": "event"
    },
    {
      "anonymous": false,
      "inputs": [
        {
          "indexed": true,
          "internalType": "bytes32",
          "name": "role",
          "type": "bytes32"
        },
        {
          "indexed": true,
          "internalType": "address",
          "name": "account",
          "type": "address"
        },
        {
          "indexed": true,
          "internalType": "address",
          "name": "sender",
          "type": "address"
        }
      ],
      "name": "RoleRevoked",
      "type": "event"
    },
    {
      "anonymous": false,
      "inputs": [
        {
          "indexed": true,
          "internalType": "address",
          "name": "implementation",
          "type": "address"
        }
      ],
      "name": "Upgraded",
      "type": "event"
    },
    {
      "inputs": [],
      "name": "DEFAULT_ADMIN_ROLE",
      "outputs": [
        {
          "internalType": "bytes32",
          "name": "",
          "type": "bytes32"
        }
      ],
      "stateMutability": "view",
      "type": "function"
    },
    {
      "inputs": [
        {
          "internalType": "uint256",
          "name": "offset",
          "type": "uint256"
        },
        {
          "internalType": "uint256",
          "name": "limit",
          "type": "uint256"
        }
      ],
      "name": "getAllPools",
      "outputs": [
        {
          "internalType": "address[]",
          "name": "",
          "type": "address[]"
        }
      ],
      "stateMutability": "view",
      "type": "function"
    },
    {
      "inputs": [
        {
          "internalType": "address",
          "name": "pool",
          "type": "address"
        }
      ],
      "name": "getMarketCap",
      "outputs": [
        {
          "internalType": "uint256",
          "name": "",
          "type": "uint256"
        }
      ],
      "stateMutability": "view",
      "type": "function"
    },
    {
      "inputs": [
        {
          "internalType": "address",
          "name": "pool",
          "type": "address"
        }
      ],
      "name": "getPoolPrice",
      "outputs": [
        {
          "internalType": "uint256",
          "name": "",
          "type": "uint256"
        }
      ],
      "stateMutability": "view",
      "type": "function"
    },
    {
      "inputs": [
        {
          "internalType": "address",
          "name": "pool",
          "type": "address"
        }
      ],
      "name": "getPoolStats",
      "outputs": [
        {
          "components": [
            {
              "internalType": "uint256",
              "name": "virtualUsdl",
              "type": "uint256"
            },
            {
              "internalType": "uint256",
              "name": "realUsdl",
              "type": "uint256"
            },
            {
              "internalType": "uint256",
              "name": "tokenReserve",
              "type": "uint256"
            },
            {
              "internalType": "uint256",
              "name": "cumulativeVolume",
              "type": "uint256"
            },
            {
              "internalType": "uint256",
              "name": "currentFeeBps",
              "type": "uint256"
            },
            {
              "internalType": "uint256",
              "name": "poolAge",
              "type": "uint256"
            },
            {
              "internalType": "uint256",
              "name": "marketCap",
              "type": "uint256"
            },
            {
              "internalType": "uint256",
              "name": "price",
              "type": "uint256"
            }
          ],
          "internalType": "struct IQuoter.PoolStats",
          "name": "stats",
          "type": "tuple"
        }
      ],
      "stateMutability": "view",
      "type": "function"
    },
    {
      "inputs": [
        {
          "internalType": "address",
          "name": "creator",
          "type": "address"
        }
      ],
      "name": "getPoolsByCreator",
      "outputs": [
        {
          "internalType": "address[]",
          "name": "",
          "type": "address[]"
        }
      ],
      "stateMutability": "view",
      "type": "function"
    },
    {
      "inputs": [
        {
          "internalType": "bytes32",
          "name": "role",
          "type": "bytes32"
        }
      ],
      "name": "getRoleAdmin",
      "outputs": [
        {
          "internalType": "bytes32",
          "name": "",
          "type": "bytes32"
        }
      ],
      "stateMutability": "view",
      "type": "function"
    },
    {
      "inputs": [
        {
          "internalType": "bytes32",
          "name": "role",
          "type": "bytes32"
        },
        {
          "internalType": "address",
          "name": "account",
          "type": "address"
        }
      ],
      "name": "grantRole",
      "outputs": [],
      "stateMutability": "nonpayable",
      "type": "function"
    },
    {
      "inputs": [
        {
          "internalType": "bytes32",
          "name": "role",
          "type": "bytes32"
        },
        {
          "internalType": "address",
          "name": "account",
          "type": "address"
        }
      ],
      "name": "hasRole",
      "outputs": [
        {
          "internalType": "bool",
          "name": "",
          "type": "bool"
        }
      ],
      "stateMutability": "view",
      "type": "function"
    },
    {
      "inputs": [
        {
          "internalType": "address",
          "name": "_poolRegistry",
          "type": "address"
        },
        {
          "internalType": "address",
          "name": "_protocolConfig",
          "type": "address"
        },
        {
          "internalType": "address",
          "name": "_admin",
          "type": "address"
        }
      ],
      "name": "initialize",
      "outputs": [],
      "stateMutability": "nonpayable",
      "type": "function"
    },
    {
      "inputs": [],
      "name": "poolRegistry",
      "outputs": [
        {
          "internalType": "address",
          "name": "",
          "type": "address"
        }
      ],
      "stateMutability": "view",
      "type": "function"
    },
    {
      "inputs": [],
      "name": "protocolConfig",
      "outputs": [
        {
          "internalType": "address",
          "name": "",
          "type": "address"
        }
      ],
      "stateMutability": "view",
      "type": "function"
    },
    {
      "inputs": [],
      "name": "proxiableUUID",
      "outputs": [
        {
          "internalType": "bytes32",
          "name": "",
          "type": "bytes32"
        }
      ],
      "stateMutability": "view",
      "type": "function"
    },
    {
      "inputs": [
        {
          "internalType": "address",
          "name": "pool",
          "type": "address"
        },
        {
          "internalType": "uint256",
          "name": "amountIn",
          "type": "uint256"
        },
        {
          "internalType": "bool",
          "name": "isBuy",
          "type": "bool"
        }
      ],
      "name": "quoteExactInput",
      "outputs": [
        {
          "components": [
            {
              "internalType": "uint256",
              "name": "amountOut",
              "type": "uint256"
            },
            {
              "internalType": "uint256",
              "name": "feeAmount",
              "type": "uint256"
            },
            {
              "internalType": "uint256",
              "name": "priceImpactBps",
              "type": "uint256"
            }
          ],
          "internalType": "struct IQuoter.QuoteResult",
          "name": "result",
          "type": "tuple"
        }
      ],
      "stateMutability": "view",
      "type": "function"
    },
    {
      "inputs": [
        {
          "internalType": "address",
          "name": "tokenIn",
          "type": "address"
        },
        {
          "internalType": "address",
          "name": "tokenOut",
          "type": "address"
        },
        {
          "internalType": "uint256",
          "name": "amountIn",
          "type": "uint256"
        }
      ],
      "name": "quoteMultihop",
      "outputs": [
        {
          "components": [
            {
              "internalType": "uint256",
              "name": "amountOut",
              "type": "uint256"
            },
            {
              "internalType": "uint256",
              "name": "intermediateUsdl",
              "type": "uint256"
            },
            {
              "internalType": "uint256",
              "name": "sellFeeAmount",
              "type": "uint256"
            },
            {
              "internalType": "uint256",
              "name": "buyFeeAmount",
              "type": "uint256"
            },
            {
              "internalType": "uint256",
              "name": "sellPriceImpactBps",
              "type": "uint256"
            },
            {
              "internalType": "uint256",
              "name": "buyPriceImpactBps",
              "type": "uint256"
            },
            {
              "internalType": "uint256",
              "name": "combinedPriceImpactBps",
              "type": "uint256"
            },
            {
              "internalType": "address",
              "name": "poolA",
              "type": "address"
            },
            {
              "internalType": "address",
              "name": "poolB",
              "type": "address"
            }
          ],
          "internalType": "struct IQuoter.MultihopQuoteResult",
          "name": "result",
          "type": "tuple"
        }
      ],
      "stateMutability": "view",
      "type": "function"
    },
    {
      "inputs": [
        {
          "internalType": "bytes32",
          "name": "role",
          "type": "bytes32"
        },
        {
          "internalType": "address",
          "name": "callerConfirmation",
          "type": "address"
        }
      ],
      "name": "renounceRole",
      "outputs": [],
      "stateMutability": "nonpayable",
      "type": "function"
    },
    {
      "inputs": [
        {
          "internalType": "bytes32",
          "name": "role",
          "type": "bytes32"
        },
        {
          "internalType": "address",
          "name": "account",
          "type": "address"
        }
      ],
      "name": "revokeRole",
      "outputs": [],
      "stateMutability": "nonpayable",
      "type": "function"
    },
    {
      "inputs": [
        {
          "internalType": "address",
          "name": "newImplementation",
          "type": "address"
        },
        {
          "internalType": "bytes",
          "name": "data",
          "type": "bytes"
        }
      ],
      "name": "upgradeToAndCall",
      "outputs": [],
      "stateMutability": "payable",
      "type": "function"
    }
  ],
  "bytecode": "0x60a080604052346100c557306080526000805160206122218339815191525460ff8160401c166100b5576002600160401b03196001600160401b03821601610061575b60405161215690816100cb8239608051818181610dfc0152610eda0152f35b6001600160401b0319166001600160401b039081176000805160206122218339815191525581527fc7f505b2f371ae2175ee4913f4499e1f2633a7b5936321eed1cdaeb6115181d290602090a13880610042565b62dc149f60e41b60005260046000fd5b600080fdfe608080604052600436101561001357600080fd5b60003560e01c9081630a6de2c91461137a57508063248a9ca31461134d5780632f2ff15d1461130d57806336568abe146112be5780634d9f71e4146110bc5780634f1ef28614610e6557806352d1902d14610de95780637f1737ce146108aa5780638ae97595146105d957806391d148541461058c578063a217fddf14610570578063a7753f091461050b578063afcff50f146104e2578063c0c53b8b14610324578063c84728ef14610297578063d146d31d1461015c578063d547741f146101135763f5efbb4f146100e557600080fd5b3461010e57600036600319011261010e576002546040516001600160a01b039091168152602090f35b600080fd5b3461010e57604036600319011261010e5761015a600435610132611410565b9061015561014e82600052600060205260016040600020015490565b33906115cd565b61175a565b005b3461010e57602036600319011261010e576001600160a01b0361017d6113fa565b16604051630240bc6b60e21b8152606081600481855afa801561024b57600080600092610257575b60049293506020916101b6916114df565b93604051928380926313aedd4b60e31b82525afa90811561024b576000916101ff575b60206101f7856101f2866101ec87611cb1565b92611c71565b611ee9565b604051908152f35b9290506020833d602011610243575b8161021b60209383611443565b8101031261010e576101f26101f7926101ec61023860209661152c565b9395505092506101d9565b3d915061020e565b6040513d6000823e3d90fd5b505050600460206102826101b69360603d606011610290575b61027a8183611443565b8101906114c4565b9194509092509050826101a5565b503d610270565b3461010e57602036600319011261010e576102b06113fa565b60015460405163c84728ef60e01b81526001600160a01b0392831660048201529160009183916024918391165afa801561024b576102fd91600091610301575b5060405191829182611481565b0390f35b61031e91503d806000833e6103168183611443565b810190611540565b826102f0565b3461010e57606036600319011261010e5761033d6113fa565b610345611410565b6044356001600160a01b0381169283820361010e57600080516020612101833981519152549360ff8560401c16159467ffffffffffffffff81166001811015806104db575b6104c3571515806104d3575b6104c35785610496575b50600167ffffffffffffffff196000805160206121018339815191525416176000805160206121018339815191525515610485576001600160a01b031691821561048557610425926bffffffffffffffffffffffff60a01b600154161760015560018060a01b03166bffffffffffffffffffffffff60a01b600254161760025561161b565b5061042c57005b68ff0000000000000000196000805160206121018339815191525416600080516020612101833981519152557fc7f505b2f371ae2175ee4913f4499e1f2633a7b5936321eed1cdaeb6115181d2602060405160018152a1005b63d92e233d60e01b60005260046000fd5b68ff00000000000000001916680100000000000000001760008051602061210183398151915255856103a0565b62dc149f60e41b60005260046000fd5b508515610396565b508661038a565b3461010e57600036600319011261010e576001546040516001600160a01b039091168152602090f35b3461010e57604036600319011261010e5760015460405163a7753f0960e01b81526004803590820152602480359082015290600090829060449082906001600160a01b03165afa801561024b576102fd91600091610301575060405191829182611481565b3461010e57600036600319011261010e57602060405160008152f35b3461010e57604036600319011261010e576105a5611410565b600435600052600060205260406000209060018060a01b0316600052602052602060ff604060002054166040519015158152f35b3461010e57602036600319011261010e576105f26113fa565b6040516105fe81611426565b60008152602081016000815260408201600081526060830160008152608084016000815260a08501916000835260c08601936000855260e087019560008752600460018060a01b038a169960608b60405193848092630240bc6b60e21b82525afa801561024b57600492600091600091600091610888575b50865284528a52604051637a6ea0ab60e11b8152916020908390818e5afa801561024b57600090610854575b6106ae92508552611818565b8452604051635998884360e11b81526020816004818d5afa801561024b57600090610820575b6106df91504261151f565b8552604051634c6afee560e11b81526020816004818d5afa90811561024b576000916107ee575b50875261071688518251906114df565b988251610757575b506101009850604051975188525160208801525160408701525160608601525160808501525160a08401525160c08301525160e0820152f35b6020600491604051928380926313aedd4b60e31b82525afa90811561024b576000916107a3575b50610100996101f261079261079b93611cb1565b91855190611c71565b86528961071e565b90506020813d6020116107e6575b816107be60209383611443565b8101031261010e57610100996101f26107926107dc61079b9461152c565b935050509961077e565b3d91506107b1565b90506020813d602011610818575b8161080960209383611443565b8101031261010e57518a610706565b3d91506107fc565b506020813d60201161084c575b8161083a60209383611443565b8101031261010e576106df90516106d4565b3d915061082d565b506020823d602011610880575b8161086e60209383611443565b8101031261010e576106ae91516106a2565b3d9150610861565b9150506108a4915060603d6060116102905761027a8183611443565b8e610676565b3461010e57606036600319011261010e576108c36113fa565b6108cb611410565b6044359160405191610120830183811067ffffffffffffffff821117610dd3576040526000835260208301600081526040840160008152606085016000815260808601906000825260a08701926000845260c08801946000865260e0890196600088526101008a019860008a5260018060a01b03169081158015610dc2575b610485576001600160a01b0316908082146104855760015460405163bbadc03b60e01b815260048101929092526001600160a01b031691602082602481865afa801561024b57600090610d88575b6001600160a01b03168a5260405163bbadc03b60e01b815260048101919091529160209150829060249082905afa90811561024b57600091610d4e575b506001600160a01b03908116808a52885190911615908115610d45575b50610485578651604051630240bc6b60e21b815290606090829060049082906001600160a01b03165afa90811561024b5760008091600093610d1a575b50610a6691610a3d916114df565b9b612710610a5c610a5660018060a01b038d5116611818565b836114ec565b049081865261151f565b610a71818d84611c19565b835281151580610d11575b610c63575b50508751604051630240bc6b60e21b81529a506060908b9060049082906001600160a01b03165afa998a1561024b576000809160009c610c3a575b5090610ac7916114df565b8851909a9081908c90610ae2906001600160a01b0316611818565b845190610aee916114ec565b6127109004808752845190610b029161151f565b8092610b0d92611c19565b8b5281151580610c31575b610b7c575b50506101209950610b3184518651906114df565b86526040805199518a52905160208a01529051908801525160608701525160808601525160a08501525160c0840152516001600160a01b0390811660e0840152905116610100820152f35b610b93610b9c91610b8d848f611c71565b9d6114df565b918b519061151f565b908115610b1d5790610bad91611c71565b8a80821115610c0057610bbf9161151f565b6127108102908082046127101490151715610bea576101209a610be1916114ff565b85528a80610b1d565b634e487b7160e01b600052601160045260246000fd5b90610c0a9161151f565b6127108102908082046127101490151715610bea576101209a610c2c916114ff565b610be1565b508b1515610b18565b9050610ac79b50610c5a915060603d6060116102905761027a8183611443565b9b909190610abc565b610c8390610c7d610c74848f611c71565b9d85519061151f565b926114df565b9081151580610d08575b15610a815790610c9c91611c71565b8a81811115610cd95790610caf9161151f565b6127108102908082046127101490151715610bea5760049a610cd0916114ff565b84528a80610a81565b610ce29161151f565b6127108102908082046127101490151715610bea5760049a610d03916114ff565b610cd0565b50801515610c8d565b508b1515610a7c565b610a3d9350610a669250610d3d915060603d6060116102905761027a8183611443565b935091610a2f565b9050158b6109f2565b90506020813d602011610d80575b81610d6960209383611443565b8101031261010e57610d7a9061152c565b8b6109d5565b3d9150610d5c565b506020823d602011610dba575b81610da260209383611443565b8101031261010e57610db560209261152c565b610998565b3d9150610d95565b506001600160a01b0381161561094a565b634e487b7160e01b600052604160045260246000fd5b3461010e57600036600319011261010e577f00000000000000000000000000000000000000000000000000000000000000006001600160a01b03163003610e545760206040517f360894a13ba1a3210667c828492db98dca3e2076cc3735a920a3ca505d382bbc8152f35b6345a93fc960e01b60005260046000fd5b604036600319011261010e57610e796113fa565b6024359067ffffffffffffffff821161010e573660238301121561010e578160040135610ea581611465565b90610eb36040519283611443565b8082526020820193366024838301011161010e5781600092602460209301873783010152307f00000000000000000000000000000000000000000000000000000000000000006001600160a01b0316146110ab573360009081527fad3228b676f7d3cd4284a5443f17f1962b36e491b30a40b2405849e597ba5fb5602052604090205460ff1615611092576040516352d1902d60e01b81526001600160a01b03831690602081600481855afa6000918161105e575b50610f7e5763340aafcd60e11b60005260046000fd5b7f360894a13ba1a3210667c828492db98dca3e2076cc3735a920a3ca505d382bbc0361104d57823b1561104d57827f360894a13ba1a3210667c828492db98dca3e2076cc3735a920a3ca505d382bbc557fbc7cd75a20ee27fd9adebab32041f755214dbc6bffa90cc0225b39da2e5c2d3b600080a25180610ffb57005b60009283925af461100a611c81565b501561101257005b60405162461bcd60e51b81526020600482015260136024820152721d5c19dc985919481a5b9a5d0819985a5b1959606a1b6044820152606490fd5b63340aafcd60e11b60005260046000fd5b9091506020813d60201161108a575b8161107a60209383611443565b8101031261010e57519086610f68565b3d915061106d565b62b0d32560e11b60005233600452600060245260446000fd5b6309e1070b60e31b60005260046000fd5b3461010e57606036600319011261010e576110d56113fa565b60243560443591821515830361010e57604051916060830183811067ffffffffffffffff821117610dd3576040526000835260208301906000825260408401926000845260405191630240bc6b60e21b835260608360048160018060a01b0386165afa92831561024b5760008091600095611282575b50610a5c610a566111636111699594612710946114df565b95611818565b86156112705761117a818484611c19565b86525b82151580611267575b6111a5575b606086868660405192518352516020830152516040820152f35b6111af8383611c71565b9615611252576111c2906111cb926114df565b9185519061151f565b905b816111d9575b8061118b565b906111e391611c71565b8480821115611220576111f59161151f565b6127108102908082046127101490151715610bea57606094611216916114ff565b82525b84806111d3565b9061122a9161151f565b6127108102908082046127101490151715610bea5760609461124b916114ff565b8252611219565b610c7d6112619287519061151f565b906111cd565b50811515611186565b61127b818385611c19565b865261117d565b61116395506111699392506127109150610a566112b0610a5c9260603d6060116102905761027a8183611443565b9850949550925061114b9050565b3461010e57604036600319011261010e576004356112da611410565b336001600160a01b03909116036112f65761015a90339061175a565b62b0d32560e11b6000523360045260245260446000fd5b3461010e57604036600319011261010e5761015a60043561132c611410565b9061134861014e82600052600060205260016040600020015490565b6116ce565b3461010e57602036600319011261010e5760206101f7600435600052600060205260016040600020015490565b3461010e57602036600319011261010e576020816004816001600160a01b036113a16113fa565b634c6afee560e11b8352165afa801561024b576000906113c7575b602090604051908152f35b506020813d6020116113f2575b816113e160209383611443565b8101031261010e57602090516113bc565b3d91506113d4565b600435906001600160a01b038216820361010e57565b602435906001600160a01b038216820361010e57565b610100810190811067ffffffffffffffff821117610dd357604052565b90601f8019910116810190811067ffffffffffffffff821117610dd357604052565b67ffffffffffffffff8111610dd357601f01601f191660200190565b602060408183019282815284518094520192019060005b8181106114a55750505090565b82516001600160a01b0316845260209384019390920191600101611498565b9081606091031261010e578051916040602083015192015190565b91908201809211610bea57565b81810292918115918404141715610bea57565b8115611509570490565b634e487b7160e01b600052601260045260246000fd5b91908203918211610bea57565b51906001600160a01b038216820361010e57565b60208183031261010e5780519067ffffffffffffffff821161010e57019080601f8301121561010e5781519167ffffffffffffffff8311610dd3578260051b90604051936115916020840186611443565b845260208085019282010192831161010e57602001905b8282106115b55750505090565b602080916115c28461152c565b8152019101906115a8565b90816000526000602052604060002060018060a01b03821660005260205260ff60406000205416156115fd575050565b62b0d32560e11b60005260018060a01b031660045260245260446000fd5b6001600160a01b03811660009081527fad3228b676f7d3cd4284a5443f17f1962b36e491b30a40b2405849e597ba5fb5602052604090205460ff16156116615750600090565b6001600160a01b031660008181527fad3228b676f7d3cd4284a5443f17f1962b36e491b30a40b2405849e597ba5fb560205260408120805460ff191660011790553391907f2f8788117e7eff1d82e926ec794901d17c78024a50270940304540a733656f0d8180a4600190565b6000818152602081815260408083206001600160a01b038616845290915290205460ff16156116fe575050600090565b6000818152602081815260408083206001600160a01b0395909516808452949091528120805460ff19166001179055339291907f2f8788117e7eff1d82e926ec794901d17c78024a50270940304540a733656f0d9080a4600190565b6000818152602081815260408083206001600160a01b038616845290915290205460ff16611789575050600090565b6000818152602081815260408083206001600160a01b0395909516808452949091528120805460ff19169055339291907ff6391f5c32d9c69d2a47ea670b442974b53935d1edc7fd64eb21e047a839171b9080a4600190565b9060088110156117f35760051b0190565b634e487b7160e01b600052603260045260246000fd5b6000198114610bea5760010190565b600254604051635998884360e11b81526001600160a01b039283169290911690602081600481865afa90811561024b57600091611be5575b506101006118606004924261151f565b936040519283809263680aef9360e01b82525afa90811561024b57600091611b71575b5060009060005b60088110611b4557509061189d91611d18565b6040516302fd696560e61b81529091602082600481845afa91821561024b57600092611b11575b5060405163071de20d60e01b815293602085600481855afa94851561024b57600095611add575b5060405163bf769a3f60e01b815293602085600481865afa94851561024b57600095611aa6575b50604051630557653160e21b815291602083600481875afa92831561024b57600093611a72575b5060405163294ae7f960e01b815292602084600481885afa93841561024b57600094611a3b575b50602060049560405196878092630801b85360e21b82525afa94851561024b57600095611a07575b50610e106000920460010191826001116119f35750926119c76119c06119d29796946119ba6119cd956119cd986114ff565b936120e9565b9350600090565b946114df565b6114df565b90828210156119e057505090565b8181929350116119ee575090565b905090565b634e487b7160e01b81526011600452602490fd5b9094506020813d602011611a33575b81611a2360209383611443565b8101031261010e57519338611988565b3d9150611a16565b9493506020853d602011611a6a575b81611a5760209383611443565b8101031261010e57935192936020611960565b3d9150611a4a565b9092506020813d602011611a9e575b81611a8e60209383611443565b8101031261010e57519138611939565b3d9150611a81565b90946020823d602011611ad5575b81611ac160209383611443565b81010312611ad25750519338611912565b80fd5b3d9150611ab4565b90946020823d602011611b09575b81611af860209383611443565b81010312611ad257505193386118eb565b3d9150611aeb565b9091506020813d602011611b3d575b81611b2d60209383611443565b8101031261010e575190386118c4565b3d9150611b20565b611b4f81836117e2565b51611b5d575b60010161188a565b91611b69600191611809565b929050611b55565b906101003d8111611bde575b611b878184611443565b82019061010083830312611ad25781601f84011215611ad25760405192611bad84611426565b83916101008201938411611ad25750905b828210611bce5750505038611883565b8151815260209182019101611bbe565b503d611b7d565b90506020813d602011611c11575b81611c0060209383611443565b8101031261010e5751610100611850565b3d9150611bf3565b908215611c605781158015611c58575b611c475782610c7d611c4494611c3e936114ec565b906114ff565b90565b63bb55fd2760e01b60005260046000fd5b508015611c29565b63f8b3bb6160e01b60005260046000fd5b908015611c4757611c4491611f75565b3d15611cac573d90611c9282611465565b91611ca06040519384611443565b82523d6000602084013e565b606090565b6000809160405160208101906318160ddd60e01b825260048152611cd6602482611443565b51915afa611ce2611c81565b90158015611d0d575b611d07576020815191818082019384920101031261010e575190565b50600090565b506020815110611ceb565b919060028110611ee2576000908160015b828110611e5f57508215611e565782611d41916114ff565b6000916001915b818310611d7d57505050611d5d9293506114ff565b620f4240810290808204620f42401490151715610bea57611c4490612096565b909192600090611d8d85896117e2565b51600019860186811193909184611e4257611da8838c6117e2565b511015611e1e5750611dba868a6117e2565b5192610bea57600192611dd0611dd7928b6117e2565b519061151f565b905b8380831115611e0857611df2611df891611dfe9461151f565b8061202a565b906114df565b935b019190611d48565b611df2611e1893611df89261151f565b93611e00565b60019350611e3c91611e3191508a6117e2565b51611dd0878b6117e2565b90611dd9565b634e487b7160e01b82526011600452602482fd5b50600093505050565b9290611e6b84876117e2565b516000198501908582119081610bea57611e85838a6117e2565b511015611ec057611e9686896117e2565b5190610bea57600192611df8611eb392611dd0611eb9958c6117e2565b92611809565b9301611d29565b50611eb3600192611df8611ed7611eb9948b6117e2565b51611dd0898c6117e2565b5060009150565b60001982820982820291828083109203918083039214611f6457670de0b6b3a7640000821015611f53577faccb18165bd6fe31ae1cf318dc5b51eee0e1ba569b88cd74c1773b91fac1066993670de0b6b3a7640000910990828211900360ee1b910360121c170290565b631a93c68960e11b60005260046000fd5b5050670de0b6b3a764000091500490565b811561201957600019670de0b6b3a7640000820991670de0b6b3a764000082029182808510940393808503941461200d5781841015611f5357670de0b6b3a7640000829109816000038216809204600281600302188082026002030280820260020302808202600203028082026002030280820260020302809102600203029360018380600003040190848311900302920304170290565b5090611c4492506114ff565b6323d359a360e01b60005260046000fd5b6000198282098282029182808310920391808303921461208a57620f4240821015611f53577fde8f6cefed634549b62c77574f722e1ac57e23f24d8fd5cb790fb65668c2613993620f4240910990828211900360fa1b910360061c170290565b5050620f424091500490565b9081156120e35760038211156120dd57818060011c60018101809111610bea57905b8382106120c3575050565b9092506120d4836119cd81846114ff565b60011c906120b8565b60019150565b60009150565b9080156120f957611c449161202a565b505060009056fe4377386e2795aba8c0ce23a1e6e67bac790e4b4166f14b7e9365049ab946f8c0a2646970667358221220acb949b309735bef18deee55fc5bdc416e4bf0c96cca4b60cff7854b8831e02d64736f6c634300081b00334377386e2795aba8c0ce23a1e6e67bac790e4b4166f14b7e9365049ab946f8c0",
  "linkReferences": {},
  "deployedLinkReferences": {}
}