{
  "_format": "hh-sol-artifact-1",
  "contractName": "PoolAddressWrapper",
  "sourceName": "contracts/test/PoolAddressWrapper.sol",
  "abi": [
    {
      "inputs": [
        {
          "internalType": "address",
          "name": "factory",
          "type": "address"
        },
        {
          "internalType": "address",
          "name": "beacon",
          "type": "address"
        },
        {
          "internalType": "address",
          "name": "token",
          "type": "address"
        },
        {
          "internalType": "bytes",
          "name": "creationCode",
          "type": "bytes"
        }
      ],
      "name": "computeAddress",
      "outputs": [
        {
          "internalType": "address",
          "name": "",
          "type": "address"
        }
      ],
      "stateMutability": "pure",
      "type": "function"
    },
    {
      "inputs": [
        {
          "internalType": "address",
          "name": "token",
          "type": "address"
        }
      ],
      "name": "computeSalt",
      "outputs": [
        {
          "internalType": "bytes32",
          "name": "",
          "type": "bytes32"
        }
      ],
      "stateMutability": "pure",
      "type": "function"
    }
  ],
  "bytecode": "0x608080604052346015576102bf908161001b8239f35b600080fdfe608080604052600436101561001357600080fd5b60003560e01c9081632c427ccf146101d7575063628045951461003557600080fd5b346101bc5760803660031901126101bc5761004e610226565b6024356001600160a01b038116908190036101bc57604435916001600160a01b03831683036101bc5760643567ffffffffffffffff81116101bc57366023820112156101bc57806004013567ffffffffffffffff81116101c157604051916100c0601f8301601f19166020018461023c565b81835236602483830101116101bc576020956000878461015595602461016396018389013786010152604051878101916bffffffffffffffffffffffff199060601b1682526014815261011460348261023c565b519020946040519087820152604080820152600060608201526060815261013c60808261023c565b60405192839161014f898401809761025e565b9061025e565b03601f19810183528261023c565b519020604051928484019260ff60f81b84526bffffffffffffffffffffffff199060601b16602185015260358401526055830152605582526101a660758361023c565b905190206040516001600160a01b039091168152f35b600080fd5b634e487b7160e01b600052604160045260246000fd5b346101bc5760203660031901126101bc576020906101f3610226565b60601b6bffffffffffffffffffffffff1916828201908152601482529061021b60348261023c565b519020604051908152f35b600435906001600160a01b03821682036101bc57565b90601f8019910116810190811067ffffffffffffffff8211176101c157604052565b9081519160005b838110610276575050016000815290565b806020809284010151818501520161026556fea2646970667358221220b214193b32c0cf4fbcd5b15a01641d8aede9f721bdc4a3c2c3ba41f0cd8b77a664736f6c634300081b0033",
  "linkReferences": {},
  "deployedLinkReferences": {}
}