{
  "_format": "hh-sol-artifact-1",
  "contractName": "MockReentrantERC20",
  "sourceName": "contracts/meta-ag/mocks/MockReentrantERC20.sol",
  "abi": [
    {
      "inputs": [
        {
          "internalType": "string",
          "name": "name_",
          "type": "string"
        },
        {
          "internalType": "string",
          "name": "symbol_",
          "type": "string"
        },
        {
          "internalType": "uint8",
          "name": "decimals_",
          "type": "uint8"
        }
      ],
      "stateMutability": "nonpayable",
      "type": "constructor"
    },
    {
      "anonymous": false,
      "inputs": [
        {
          "indexed": true,
          "internalType": "address",
          "name": "owner",
          "type": "address"
        },
        {
          "indexed": true,
          "internalType": "address",
          "name": "spender",
          "type": "address"
        },
        {
          "indexed": false,
          "internalType": "uint256",
          "name": "value",
          "type": "uint256"
        }
      ],
      "name": "Approval",
      "type": "event"
    },
    {
      "anonymous": false,
      "inputs": [
        {
          "indexed": false,
          "internalType": "address",
          "name": "target",
          "type": "address"
        },
        {
          "indexed": false,
          "internalType": "bytes",
          "name": "payload",
          "type": "bytes"
        }
      ],
      "name": "ReentryArmed",
      "type": "event"
    },
    {
      "anonymous": false,
      "inputs": [
        {
          "indexed": false,
          "internalType": "bool",
          "name": "ok",
          "type": "bool"
        },
        {
          "indexed": false,
          "internalType": "bytes",
          "name": "ret",
          "type": "bytes"
        }
      ],
      "name": "ReentryAttempted",
      "type": "event"
    },
    {
      "anonymous": false,
      "inputs": [
        {
          "indexed": true,
          "internalType": "address",
          "name": "from",
          "type": "address"
        },
        {
          "indexed": true,
          "internalType": "address",
          "name": "to",
          "type": "address"
        },
        {
          "indexed": false,
          "internalType": "uint256",
          "name": "value",
          "type": "uint256"
        }
      ],
      "name": "Transfer",
      "type": "event"
    },
    {
      "inputs": [
        {
          "internalType": "address",
          "name": "",
          "type": "address"
        },
        {
          "internalType": "address",
          "name": "",
          "type": "address"
        }
      ],
      "name": "allowance",
      "outputs": [
        {
          "internalType": "uint256",
          "name": "",
          "type": "uint256"
        }
      ],
      "stateMutability": "view",
      "type": "function"
    },
    {
      "inputs": [
        {
          "internalType": "address",
          "name": "spender",
          "type": "address"
        },
        {
          "internalType": "uint256",
          "name": "amount",
          "type": "uint256"
        }
      ],
      "name": "approve",
      "outputs": [
        {
          "internalType": "bool",
          "name": "",
          "type": "bool"
        }
      ],
      "stateMutability": "nonpayable",
      "type": "function"
    },
    {
      "inputs": [
        {
          "internalType": "address",
          "name": "target",
          "type": "address"
        },
        {
          "internalType": "bytes",
          "name": "payload",
          "type": "bytes"
        }
      ],
      "name": "armReentry",
      "outputs": [],
      "stateMutability": "nonpayable",
      "type": "function"
    },
    {
      "inputs": [
        {
          "internalType": "address",
          "name": "",
          "type": "address"
        }
      ],
      "name": "balanceOf",
      "outputs": [
        {
          "internalType": "uint256",
          "name": "",
          "type": "uint256"
        }
      ],
      "stateMutability": "view",
      "type": "function"
    },
    {
      "inputs": [],
      "name": "decimals",
      "outputs": [
        {
          "internalType": "uint8",
          "name": "",
          "type": "uint8"
        }
      ],
      "stateMutability": "view",
      "type": "function"
    },
    {
      "inputs": [],
      "name": "disarmReentry",
      "outputs": [],
      "stateMutability": "nonpayable",
      "type": "function"
    },
    {
      "inputs": [],
      "name": "lastReentryOk",
      "outputs": [
        {
          "internalType": "bool",
          "name": "",
          "type": "bool"
        }
      ],
      "stateMutability": "view",
      "type": "function"
    },
    {
      "inputs": [],
      "name": "lastReentryRecorded",
      "outputs": [
        {
          "internalType": "bool",
          "name": "",
          "type": "bool"
        }
      ],
      "stateMutability": "view",
      "type": "function"
    },
    {
      "inputs": [],
      "name": "lastReentryRet",
      "outputs": [
        {
          "internalType": "bytes",
          "name": "",
          "type": "bytes"
        }
      ],
      "stateMutability": "view",
      "type": "function"
    },
    {
      "inputs": [
        {
          "internalType": "address",
          "name": "to",
          "type": "address"
        },
        {
          "internalType": "uint256",
          "name": "amount",
          "type": "uint256"
        }
      ],
      "name": "mint",
      "outputs": [],
      "stateMutability": "nonpayable",
      "type": "function"
    },
    {
      "inputs": [],
      "name": "name",
      "outputs": [
        {
          "internalType": "string",
          "name": "",
          "type": "string"
        }
      ],
      "stateMutability": "view",
      "type": "function"
    },
    {
      "inputs": [],
      "name": "reentryArmed",
      "outputs": [
        {
          "internalType": "bool",
          "name": "",
          "type": "bool"
        }
      ],
      "stateMutability": "view",
      "type": "function"
    },
    {
      "inputs": [],
      "name": "reentryCalldata",
      "outputs": [
        {
          "internalType": "bytes",
          "name": "",
          "type": "bytes"
        }
      ],
      "stateMutability": "view",
      "type": "function"
    },
    {
      "inputs": [],
      "name": "reentryTarget",
      "outputs": [
        {
          "internalType": "address",
          "name": "",
          "type": "address"
        }
      ],
      "stateMutability": "view",
      "type": "function"
    },
    {
      "inputs": [],
      "name": "symbol",
      "outputs": [
        {
          "internalType": "string",
          "name": "",
          "type": "string"
        }
      ],
      "stateMutability": "view",
      "type": "function"
    },
    {
      "inputs": [],
      "name": "totalSupply",
      "outputs": [
        {
          "internalType": "uint256",
          "name": "",
          "type": "uint256"
        }
      ],
      "stateMutability": "view",
      "type": "function"
    },
    {
      "inputs": [
        {
          "internalType": "address",
          "name": "to",
          "type": "address"
        },
        {
          "internalType": "uint256",
          "name": "amount",
          "type": "uint256"
        }
      ],
      "name": "transfer",
      "outputs": [
        {
          "internalType": "bool",
          "name": "",
          "type": "bool"
        }
      ],
      "stateMutability": "nonpayable",
      "type": "function"
    },
    {
      "inputs": [
        {
          "internalType": "address",
          "name": "from",
          "type": "address"
        },
        {
          "internalType": "address",
          "name": "to",
          "type": "address"
        },
        {
          "internalType": "uint256",
          "name": "amount",
          "type": "uint256"
        }
      ],
      "name": "transferFrom",
      "outputs": [
        {
          "internalType": "bool",
          "name": "",
          "type": "bool"
        }
      ],
      "stateMutability": "nonpayable",
      "type": "function"
    }
  ],
  "bytecode": "0x6080604052346103425761122c8038038061001981610347565b9283398101906060818303126103425780516001600160401b038111610342578261004591830161036c565b60208201519092906001600160401b0381116103425760409161006991840161036c565b91015160ff81168091036103425782516001600160401b03811161024d57600054600181811c91168015610338575b602082101461022d57601f81116102d4575b506020601f821160011461026e5781929394600092610263575b50508160011b916000199060031b1c1916176000555b81516001600160401b03811161024d57600154600181811c91168015610243575b602082101461022d57601f81116101c8575b50602092601f82116001146101635792819293600092610158575b50508160011b916000199060031b1c1916176001555b60ff196002541617600255604051610e5490816103d88239f35b015190503880610128565b601f198216936001600052806000209160005b8681106101b05750836001959610610197575b505050811b0160015561013e565b015160001960f88460031b161c19169055388080610189565b91926020600181928685015181550194019201610176565b60016000527fb10e2d527612073b26eecdfd717e6a320cf44b4afac2b0732d9fcbe2b7fa0cf6601f830160051c81019160208410610223575b601f0160051c01905b818110610217575061010d565b6000815560010161020a565b9091508190610201565b634e487b7160e01b600052602260045260246000fd5b90607f16906100fb565b634e487b7160e01b600052604160045260246000fd5b0151905038806100c4565b601f1982169060008052806000209160005b8181106102bc575095836001959697106102a3575b505050811b016000556100da565b015160001960f88460031b161c19169055388080610295565b9192602060018192868b015181550194019201610280565b600080527f290decd9548b62a8d60345a988386fc84ba6bc95484008f6362f93160ef3e563601f830160051c8101916020841061032e575b601f0160051c01905b81811061032257506100aa565b60008155600101610315565b909150819061030c565b90607f1690610098565b600080fd5b6040519190601f01601f191682016001600160401b0381118382101761024d57604052565b81601f82011215610342578051906001600160401b03821161024d5761039b601f8301601f1916602001610347565b92828452602083830101116103425760005b8281106103c257505060206000918301015290565b806020809284010151828287010152016103ad56fe6080604052600436101561001257600080fd5b60003560e01c806306fdde03146108c7578063095ea7b31461084d57806318160ddd1461082f57806323b872dd14610743578063313ce5671461072257806340c10f19146106a757806342a675691461068457806349ac10881461066757806370a082311461062d57806388478a391461059757806388c968791461037357806395d89b41146102cb5780639be091ce146102a5578063a9059cbb1461026c578063add90d5914610184578063dd62ed3e14610133578063eb9d77f91461010a5763f389b48f146100e257600080fd5b3461010557600036600319011261010557602060ff600a54166040519015158152f35b600080fd5b34610105576000366003190112610105576006546040516001600160a01b039091168152602090f35b346101055760403660031901126101055761014c610a02565b610154610a18565b6001600160a01b039182166000908152600560209081526040808320949093168252928352819020549051908152f35b3461010557600036600319011261010557604051600954600090816101a88261094f565b808552916001811690811561024557506001146101e8575b6101e4846101d081860382610989565b6040519182916020835260208301906109c1565b0390f35b600981527f6e1540171b6c0c960b71a7020d9f60077f6af931a8bbf590da0223dacf75c7af939250905b80821061022b575090915081016020016101d0826101c0565b919260018160209254838588010152019101909291610212565b60ff191660208087019190915292151560051b850190920192506101d091508390506101c0565b3461010557604036600319011261010557610292610288610a02565b6024359033610a5e565b61029a610b3c565b602060405160018152f35b3461010557600036600319011261010557602060ff60085460081c166040519015158152f35b3461010557600036600319011261010557604051600154600090816102ef8261094f565b80855291600181169081156102455750600114610316576101e4846101d081860382610989565b600181527fb10e2d527612073b26eecdfd717e6a320cf44b4afac2b0732d9fcbe2b7fa0cf6939250905b808210610359575090915081016020016101d0826101c0565b919260018160209254838588010152019101909291610340565b346101055760403660031901126101055761038c610a02565b60243567ffffffffffffffff811161010557366023820112156101055780600401359167ffffffffffffffff83116101055736602484840101116101055760018060a01b031690816bffffffffffffffffffffffff60a01b60065416176006556000916103fa60075461094f565b601f8111610546575b508293601f81116001146104ac5790816104588160609487987f2b0502af45e6cd95d323fcbfc2333af132d1eb97b68e0be30ef820486058a7dd989161049e575b508160011b916000199060031b1c19161790565b6007555b600160ff19600854161760085580602460405195869485526040602086015282604086015201848401378181018301869052601f01601f19168101030190a180f35b602491508701013589610444565b60078452600080516020610dff833981519152601f198216855b81811061052b5750907f2b0502af45e6cd95d323fcbfc2333af132d1eb97b68e0be30ef820486058a7dd95968360609594931061050e575b5050600181811b0160075561045c565b850160240135600019600384901b60f8161c1916905586806104fe565b858801602401358355602097880197600190930192016104c6565b60078452600080516020610dff833981519152601f860160051c8101916020871061058d575b601f0160051c01905b8181106105825750610403565b848155600101610575565b909150819061056c565b3461010557600036600319011261010557604051600754600090816105bb8261094f565b808552916001811690811561024557506001146105e2576101e4846101d081860382610989565b60078152600080516020610dff833981519152939250905b808210610613575090915081016020016101d0826101c0565b9192600181602092548385880101520191019092916105fa565b34610105576020366003190112610105576001600160a01b0361064e610a02565b1660005260046020526020604060002054604051908152f35b34610105576000366003190112610105576008805460ff19169055005b3461010557600036600319011261010557602060ff600854166040519015158152f35b34610105576040366003190112610105576106c0610a02565b60007fddf252ad1be2c89b69c2b068fc378daa952ba7f163c4a11628f55a4df523b3ef6020602435936106f585600354610a51565b60035560018060a01b0316938484526004825260408420610717828254610a51565b9055604051908152a3005b3461010557600036600319011261010557602060ff60025416604051908152f35b346101055760603660031901126101055761075c610a02565b610764610a18565b6001600160a01b03821660008181526005602090815260408083203384529091529020549260443592918385106107d7576102929484600182016107ab575b505050610a5e565b6107b491610a2e565b6000918252600560209081526040808420338552909152909120558480846107a3565b60405162461bcd60e51b815260206004820152602a60248201527f4d6f636b5265656e7472616e7445524332303a20696e73756666696369656e7460448201526920616c6c6f77616e636560b01b6064820152608490fd5b34610105576000366003190112610105576020600354604051908152f35b3461010557604036600319011261010557610866610a02565b3360008181526005602090815260408083206001600160a01b03909516808452948252918290206024359081905591519182527f8c5be1e5ebec7d5bd14f71427d1e84f3dd0314c0f7b2291e5b200ac8c7c3b92591a3602060405160018152f35b346101055760003660031901126101055760405160008054816108e98261094f565b80855291600181169081156102455750600114610910576101e4846101d081860382610989565b80805260208120939250905b808210610935575090915081016020016101d0826101c0565b91926001816020925483858801015201910190929161091c565b90600182811c9216801561097f575b602083101461096957565b634e487b7160e01b600052602260045260246000fd5b91607f169161095e565b90601f8019910116810190811067ffffffffffffffff8211176109ab57604052565b634e487b7160e01b600052604160045260246000fd5b919082519283825260005b8481106109ed575050826000602080949584010152601f8019910116010190565b806020809284010151828286010152016109cc565b600435906001600160a01b038216820361010557565b602435906001600160a01b038216820361010557565b91908203918211610a3b57565b634e487b7160e01b600052601160045260246000fd5b91908201809211610a3b57565b60018060a01b0316908160005260046020528260406000205410610ae65760207fddf252ad1be2c89b69c2b068fc378daa952ba7f163c4a11628f55a4df523b3ef9183600052600482526040600020610ab8868254610a2e565b905560018060a01b03169384600052600482526040600020610adb828254610a51565b9055604051908152a3565b60405162461bcd60e51b815260206004820152602860248201527f4d6f636b5265656e7472616e7445524332303a20696e73756666696369656e746044820152672062616c616e636560c01b6064820152608490fd5b60085460ff811615610dfb5760ff191660085560018060a01b03600654166040516000600754610b6b8161094f565b9060018116908115610de65750600114610da7575b5091816000809493819403925af1903d15610d9f573d9167ffffffffffffffff83116109ab5760405192610bbe601f8201601f191660200185610989565b83523d6000602085013e5b15159160085461ff008460081b169061ff0019161760085580519267ffffffffffffffff84116109ab57610bfe60095461094f565b601f8111610d3a575b50602093601f8111600114610c965780610c59917fb934eb23f80902b97164e581fb1047e293726235b2f68a2621e35359a5067bca9596600091610c8b57508160011b916000199060031b1c19161790565b6009555b600160ff19600a541617600a55610c8660405192839283526040602084015260408301906109c1565b0390a1565b905084015138610444565b601f19811660096000527f6e1540171b6c0c960b71a7020d9f60077f6af931a8bbf590da0223dacf75c7af9060005b818110610d225750907fb934eb23f80902b97164e581fb1047e293726235b2f68a2621e35359a5067bca9596836001949310610d09575b5050811b01600955610c5d565b85015160001960f88460031b161c191690553880610cfc565b85880151835560209788019760019093019201610cc5565b60096000527f6e1540171b6c0c960b71a7020d9f60077f6af931a8bbf590da0223dacf75c7af601f860160051c81019160208710610d95575b601f0160051c01905b818110610d895750610c07565b60008155600101610d7c565b9091508190610d73565b606091610bc9565b90506007600052600080516020610dff8339815191526000905b828210610dd2575050810181610b80565b600181602092548487015201910190610dc1565b60ff1916845250801515028201905081610b80565b5056fea66cc928b5edb82af9bd49922954155ab7b0942694bea4ce44661d9a8736c688a2646970667358221220904a6a8b57f5820d0c95255c111fb330a470f70353ff71e158fc9f09407042ae64736f6c634300081b0033",
  "linkReferences": {},
  "deployedLinkReferences": {}
}