{
  "_format": "hh-sol-artifact-1",
  "contractName": "ProtocolConfig",
  "sourceName": "contracts/protocol/ProtocolConfig.sol",
  "abi": [
    {
      "inputs": [],
      "stateMutability": "nonpayable",
      "type": "constructor"
    },
    {
      "inputs": [],
      "name": "AlreadyInitialized",
      "type": "error"
    },
    {
      "inputs": [],
      "name": "FeeOutOfRange",
      "type": "error"
    },
    {
      "inputs": [],
      "name": "InvalidImplementation",
      "type": "error"
    },
    {
      "inputs": [],
      "name": "InvalidImplementation",
      "type": "error"
    },
    {
      "inputs": [
        {
          "internalType": "address",
          "name": "account",
          "type": "address"
        },
        {
          "internalType": "bytes32",
          "name": "role",
          "type": "bytes32"
        }
      ],
      "name": "MissingRole",
      "type": "error"
    },
    {
      "inputs": [],
      "name": "NotInitializing",
      "type": "error"
    },
    {
      "inputs": [],
      "name": "UUPSNotThroughActiveProxy",
      "type": "error"
    },
    {
      "inputs": [],
      "name": "UUPSNotThroughProxy",
      "type": "error"
    },
    {
      "inputs": [],
      "name": "UnauthorizedUpgrade",
      "type": "error"
    },
    {
      "inputs": [],
      "name": "ZeroAddress",
      "type": "error"
    },
    {
      "anonymous": false,
      "inputs": [
        {
          "indexed": true,
          "internalType": "bytes32",
          "name": "key",
          "type": "bytes32"
        },
        {
          "indexed": false,
          "internalType": "uint256",
          "name": "oldValue",
          "type": "uint256"
        },
        {
          "indexed": false,
          "internalType": "uint256",
          "name": "newValue",
          "type": "uint256"
        }
      ],
      "name": "ConfigUpdated",
      "type": "event"
    },
    {
      "anonymous": false,
      "inputs": [
        {
          "indexed": false,
          "internalType": "uint64",
          "name": "version",
          "type": "uint64"
        }
      ],
      "name": "Initialized",
      "type": "event"
    },
    {
      "anonymous": false,
      "inputs": [
        {
          "indexed": true,
          "internalType": "bytes32",
          "name": "role",
          "type": "bytes32"
        },
        {
          "indexed": true,
          "internalType": "bytes32",
          "name": "previousAdminRole",
          "type": "bytes32"
        },
        {
          "indexed": true,
          "internalType": "bytes32",
          "name": "newAdminRole",
          "type": "bytes32"
        }
      ],
      "name": "RoleAdminChanged",
      "type": "event"
    },
    {
      "anonymous": false,
      "inputs": [
        {
          "indexed": true,
          "internalType": "bytes32",
          "name": "role",
          "type": "bytes32"
        },
        {
          "indexed": true,
          "internalType": "address",
          "name": "account",
          "type": "address"
        },
        {
          "indexed": true,
          "internalType": "address",
          "name": "sender",
          "type": "address"
        }
      ],
      "name": "RoleGranted",
      "type": "event"
    },
    {
      "anonymous": false,
      "inputs": [
        {
          "indexed": true,
          "internalType": "bytes32",
          "name": "role",
          "type": "bytes32"
        },
        {
          "indexed": true,
          "internalType": "address",
          "name": "account",
          "type": "address"
        },
        {
          "indexed": true,
          "internalType": "address",
          "name": "sender",
          "type": "address"
        }
      ],
      "name": "RoleRevoked",
      "type": "event"
    },
    {
      "anonymous": false,
      "inputs": [
        {
          "indexed": true,
          "internalType": "address",
          "name": "implementation",
          "type": "address"
        }
      ],
      "name": "Upgraded",
      "type": "event"
    },
    {
      "inputs": [],
      "name": "DEFAULT_ADMIN_ROLE",
      "outputs": [
        {
          "internalType": "bytes32",
          "name": "",
          "type": "bytes32"
        }
      ],
      "stateMutability": "view",
      "type": "function"
    },
    {
      "inputs": [],
      "name": "baseFeeBps",
      "outputs": [
        {
          "internalType": "uint256",
          "name": "",
          "type": "uint256"
        }
      ],
      "stateMutability": "view",
      "type": "function"
    },
    {
      "inputs": [],
      "name": "concentrationWeight",
      "outputs": [
        {
          "internalType": "uint256",
          "name": "",
          "type": "uint256"
        }
      ],
      "stateMutability": "view",
      "type": "function"
    },
    {
      "inputs": [],
      "name": "creationFee",
      "outputs": [
        {
          "internalType": "uint256",
          "name": "",
          "type": "uint256"
        }
      ],
      "stateMutability": "view",
      "type": "function"
    },
    {
      "inputs": [],
      "name": "eventEmitter",
      "outputs": [
        {
          "internalType": "address",
          "name": "",
          "type": "address"
        }
      ],
      "stateMutability": "view",
      "type": "function"
    },
    {
      "inputs": [],
      "name": "feeDecayRate",
      "outputs": [
        {
          "internalType": "uint256",
          "name": "",
          "type": "uint256"
        }
      ],
      "stateMutability": "view",
      "type": "function"
    },
    {
      "inputs": [
        {
          "internalType": "bytes32",
          "name": "role",
          "type": "bytes32"
        }
      ],
      "name": "getRoleAdmin",
      "outputs": [
        {
          "internalType": "bytes32",
          "name": "",
          "type": "bytes32"
        }
      ],
      "stateMutability": "view",
      "type": "function"
    },
    {
      "inputs": [
        {
          "internalType": "bytes32",
          "name": "role",
          "type": "bytes32"
        },
        {
          "internalType": "address",
          "name": "account",
          "type": "address"
        }
      ],
      "name": "grantRole",
      "outputs": [],
      "stateMutability": "nonpayable",
      "type": "function"
    },
    {
      "inputs": [
        {
          "internalType": "bytes32",
          "name": "role",
          "type": "bytes32"
        },
        {
          "internalType": "address",
          "name": "account",
          "type": "address"
        }
      ],
      "name": "hasRole",
      "outputs": [
        {
          "internalType": "bool",
          "name": "",
          "type": "bool"
        }
      ],
      "stateMutability": "view",
      "type": "function"
    },
    {
      "inputs": [
        {
          "internalType": "address",
          "name": "_usdlAddress",
          "type": "address"
        },
        {
          "internalType": "address",
          "name": "_eventEmitter",
          "type": "address"
        },
        {
          "internalType": "address",
          "name": "_admin",
          "type": "address"
        }
      ],
      "name": "initialize",
      "outputs": [],
      "stateMutability": "nonpayable",
      "type": "function"
    },
    {
      "inputs": [],
      "name": "maxFeeBps",
      "outputs": [
        {
          "internalType": "uint256",
          "name": "",
          "type": "uint256"
        }
      ],
      "stateMutability": "view",
      "type": "function"
    },
    {
      "inputs": [],
      "name": "minFeeBps",
      "outputs": [
        {
          "internalType": "uint256",
          "name": "",
          "type": "uint256"
        }
      ],
      "stateMutability": "view",
      "type": "function"
    },
    {
      "inputs": [],
      "name": "protocolFeeBps",
      "outputs": [
        {
          "internalType": "uint256",
          "name": "",
          "type": "uint256"
        }
      ],
      "stateMutability": "view",
      "type": "function"
    },
    {
      "inputs": [],
      "name": "proxiableUUID",
      "outputs": [
        {
          "internalType": "bytes32",
          "name": "",
          "type": "bytes32"
        }
      ],
      "stateMutability": "view",
      "type": "function"
    },
    {
      "inputs": [
        {
          "internalType": "bytes32",
          "name": "role",
          "type": "bytes32"
        },
        {
          "internalType": "address",
          "name": "callerConfirmation",
          "type": "address"
        }
      ],
      "name": "renounceRole",
      "outputs": [],
      "stateMutability": "nonpayable",
      "type": "function"
    },
    {
      "inputs": [
        {
          "internalType": "bytes32",
          "name": "role",
          "type": "bytes32"
        },
        {
          "internalType": "address",
          "name": "account",
          "type": "address"
        }
      ],
      "name": "revokeRole",
      "outputs": [],
      "stateMutability": "nonpayable",
      "type": "function"
    },
    {
      "inputs": [
        {
          "internalType": "uint256",
          "name": "newBaseFeeBps",
          "type": "uint256"
        }
      ],
      "name": "setBaseFeeBps",
      "outputs": [],
      "stateMutability": "nonpayable",
      "type": "function"
    },
    {
      "inputs": [
        {
          "internalType": "uint256",
          "name": "newCreationFee",
          "type": "uint256"
        }
      ],
      "name": "setCreationFee",
      "outputs": [],
      "stateMutability": "nonpayable",
      "type": "function"
    },
    {
      "inputs": [
        {
          "internalType": "uint256",
          "name": "newDecayRate",
          "type": "uint256"
        },
        {
          "internalType": "uint256",
          "name": "newVolWeight",
          "type": "uint256"
        },
        {
          "internalType": "uint256",
          "name": "newConcWeight",
          "type": "uint256"
        }
      ],
      "name": "setFeeWeights",
      "outputs": [],
      "stateMutability": "nonpayable",
      "type": "function"
    },
    {
      "inputs": [
        {
          "internalType": "uint256",
          "name": "newProtocolFeeBps",
          "type": "uint256"
        }
      ],
      "name": "setProtocolFeeBps",
      "outputs": [],
      "stateMutability": "nonpayable",
      "type": "function"
    },
    {
      "inputs": [
        {
          "internalType": "uint256",
          "name": "newVirtualUsdl",
          "type": "uint256"
        },
        {
          "internalType": "uint256",
          "name": "newVirtualToken",
          "type": "uint256"
        }
      ],
      "name": "setVirtualDefaults",
      "outputs": [],
      "stateMutability": "nonpayable",
      "type": "function"
    },
    {
      "inputs": [
        {
          "internalType": "address",
          "name": "newImplementation",
          "type": "address"
        },
        {
          "internalType": "bytes",
          "name": "data",
          "type": "bytes"
        }
      ],
      "name": "upgradeToAndCall",
      "outputs": [],
      "stateMutability": "payable",
      "type": "function"
    },
    {
      "inputs": [],
      "name": "usdlAddress",
      "outputs": [
        {
          "internalType": "address",
          "name": "",
          "type": "address"
        }
      ],
      "stateMutability": "view",
      "type": "function"
    },
    {
      "inputs": [],
      "name": "virtualTokenDefault",
      "outputs": [
        {
          "internalType": "uint256",
          "name": "",
          "type": "uint256"
        }
      ],
      "stateMutability": "view",
      "type": "function"
    },
    {
      "inputs": [],
      "name": "virtualUsdlDefault",
      "outputs": [
        {
          "internalType": "uint256",
          "name": "",
          "type": "uint256"
        }
      ],
      "stateMutability": "view",
      "type": "function"
    },
    {
      "inputs": [],
      "name": "volatilityWeight",
      "outputs": [
        {
          "internalType": "uint256",
          "name": "",
          "type": "uint256"
        }
      ],
      "stateMutability": "view",
      "type": "function"
    }
  ],
  "bytecode": "0x60a080604052346100c557306080526000805160206110018339815191525460ff8160401c166100b5576002600160401b03196001600160401b03821601610061575b604051610f3690816100cb823960805181818161072001526107fe0152f35b6001600160401b0319166001600160401b039081176000805160206110018339815191525581527fc7f505b2f371ae2175ee4913f4499e1f2633a7b5936321eed1cdaeb6115181d290602090a13880610042565b62dc149f60e41b60005260046000fd5b600080fdfe608080604052600436101561001357600080fd5b60003560e01c908163071de20d14610b4157508063071ed6b514610b23578063155d94c414610b055780632006e14c14610ae7578063248a9ca314610ab2578063294ae7f914610a945780632e10f97614610a6b5780632f2ff15d14610a2b57806335659fb814610a0d57806336568abe146109be5780634f1ef2861461078957806352d1902d1461070d57806391d14854146106c05780639ff78c3014610697578063a217fddf1461067b578063a389301a14610620578063a83f1b4a14610587578063b7d8622514610535578063bf5a594014610517578063bf769a3f146104f9578063c0417e5814610489578063c0c53b8b14610296578063d547741f1461024f578063d9fce32414610231578063dce0b4e4146102135763f1726fe71461013d57600080fd5b3461020e57606036600319011261020e5761020c60443560043560243561016333610bdc565b6101db600854916009546101ad600a5495806008558360095587600a55604095865161018f8882610b88565b600c81526b66656544656361795261746560a01b6020820152610e54565b83516101b98582610b88565b601081526f1d9bdb185d1a5b1a5d1e55d95a59da1d60821b6020820152610e54565b6101e781519182610b88565b601381527218dbdb98d95b9d1c985d1a5bdb95d95a59da1d606a1b6020820152610e54565b005b600080fd5b3461020e57600036600319011261020e576020600b54604051908152f35b3461020e57600036600319011261020e576020600354604051908152f35b3461020e57604036600319011261020e5761020c60043561026e610b5c565b9061029161028a82600052600060205260016040600020015490565b3390610c3f565b610dcc565b3461020e57606036600319011261020e576102af610b72565b6102b7610b5c565b6044356001600160a01b0381169182820361020e57600080516020610ee1833981519152549360ff8560401c16159467ffffffffffffffff8116600181101580610482575b61046a5715158061047a575b61046a578561043d575b50600080516020610ee1833981519152805467ffffffffffffffff191660011790556001600160a01b031692831561042c571561042c576103cc926bffffffffffffffffffffffff60a01b600154161760015560018060a01b03166bffffffffffffffffffffffff60a01b600c541617600c556402540be40060025566038d7ea4c68000600355600a60045561012c600555601e6006556103e86007556101f460085560646009556064600a556305f5e100600b55610c8d565b506103d357005b68ff000000000000000019600080516020610ee18339815191525416600080516020610ee1833981519152557fc7f505b2f371ae2175ee4913f4499e1f2633a7b5936321eed1cdaeb6115181d2602060405160018152a1005b63d92e233d60e01b60005260046000fd5b68ff000000000000000019166801000000000000000017600080516020610ee18339815191525585610312565b62dc149f60e41b60005260046000fd5b508515610308565b50866102fc565b3461020e57602036600319011261020e576004356104a633610bdc565b61138881116104e85761020c90600754816007556040516104c8604082610b88565b600e81526d70726f746f636f6c46656542707360901b6020820152610e54565b630c8249ad60e01b60005260046000fd5b3461020e57600036600319011261020e576020600554604051908152f35b3461020e57600036600319011261020e576020600654604051908152f35b3461020e57602036600319011261020e5761020c60043561055533610bdc565b600b5481600b5560405161056a604082610b88565b600b81526a6372656174696f6e46656560a81b6020820152610e54565b3461020e57604036600319011261020e5761020c6024356004356105aa33610bdc565b6002546105ef60035492806002558460035560409283516105cb8582610b88565b60128152711d9a5c9d1d585b155cd91b111959985d5b1d60721b6020820152610e54565b6105fb81519182610b88565b60138152721d9a5c9d1d585b151bdad95b911959985d5b1d606a1b6020820152610e54565b3461020e57602036600319011261020e5760043561063d33610bdc565b60055481116104e85761020c906006548160065560405161065f604082610b88565b600a8152696261736546656542707360b01b6020820152610e54565b3461020e57600036600319011261020e57602060405160008152f35b3461020e57600036600319011261020e57600c546040516001600160a01b039091168152602090f35b3461020e57604036600319011261020e576106d9610b5c565b600435600052600060205260406000209060018060a01b0316600052602052602060ff604060002054166040519015158152f35b3461020e57600036600319011261020e577f00000000000000000000000000000000000000000000000000000000000000006001600160a01b031630036107785760206040517f360894a13ba1a3210667c828492db98dca3e2076cc3735a920a3ca505d382bbc8152f35b6345a93fc960e01b60005260046000fd5b604036600319011261020e5761079d610b72565b6024359067ffffffffffffffff821161020e573660238301121561020e5781600401356107c981610bc0565b906107d76040519283610b88565b8082526020820193366024838301011161020e5781600092602460209301873783010152307f00000000000000000000000000000000000000000000000000000000000000006001600160a01b0316146109ad5761083433610bdc565b6040516352d1902d60e01b81526001600160a01b03831690602081600481855afa60009181610979575b506108745763340aafcd60e11b60005260046000fd5b7f360894a13ba1a3210667c828492db98dca3e2076cc3735a920a3ca505d382bbc0361096857823b1561096857827f360894a13ba1a3210667c828492db98dca3e2076cc3735a920a3ca505d382bbc557fbc7cd75a20ee27fd9adebab32041f755214dbc6bffa90cc0225b39da2e5c2d3b600080a251806108f157005b60009283925af43d15610963573d61090881610bc0565b906109166040519283610b88565b8152600060203d92013e5b1561092857005b60405162461bcd60e51b81526020600482015260136024820152721d5c19dc985919481a5b9a5d0819985a5b1959606a1b6044820152606490fd5b610921565b63340aafcd60e11b60005260046000fd5b9091506020813d6020116109a5575b8161099560209383610b88565b8101031261020e5751908661085e565b3d9150610988565b6309e1070b60e31b60005260046000fd5b3461020e57604036600319011261020e576004356109da610b5c565b336001600160a01b03909116036109f65761020c903390610dcc565b62b0d32560e11b6000523360045260245260446000fd5b3461020e57600036600319011261020e576020600754604051908152f35b3461020e57604036600319011261020e5761020c600435610a4a610b5c565b90610a6661028a82600052600060205260016040600020015490565b610d40565b3461020e57600036600319011261020e576001546040516001600160a01b039091168152602090f35b3461020e57600036600319011261020e576020600954604051908152f35b3461020e57602036600319011261020e576020610adf600435600052600060205260016040600020015490565b604051908152f35b3461020e57600036600319011261020e576020600a54604051908152f35b3461020e57600036600319011261020e576020600854604051908152f35b3461020e57600036600319011261020e576020600254604051908152f35b3461020e57600036600319011261020e576020906004548152f35b602435906001600160a01b038216820361020e57565b600435906001600160a01b038216820361020e57565b90601f8019910116810190811067ffffffffffffffff821117610baa57604052565b634e487b7160e01b600052604160045260246000fd5b67ffffffffffffffff8111610baa57601f01601f191660200190565b6001600160a01b03811660009081527fad3228b676f7d3cd4284a5443f17f1962b36e491b30a40b2405849e597ba5fb5602052604090205460ff1615610c1f5750565b62b0d32560e11b60005260018060a01b0316600452600060245260446000fd5b90816000526000602052604060002060018060a01b03821660005260205260ff6040600020541615610c6f575050565b62b0d32560e11b60005260018060a01b031660045260245260446000fd5b6001600160a01b03811660009081527fad3228b676f7d3cd4284a5443f17f1962b36e491b30a40b2405849e597ba5fb5602052604090205460ff1615610cd35750600090565b6001600160a01b031660008181527fad3228b676f7d3cd4284a5443f17f1962b36e491b30a40b2405849e597ba5fb560205260408120805460ff191660011790553391907f2f8788117e7eff1d82e926ec794901d17c78024a50270940304540a733656f0d8180a4600190565b6000818152602081815260408083206001600160a01b038616845290915290205460ff1615610d70575050600090565b6000818152602081815260408083206001600160a01b0395909516808452949091528120805460ff19166001179055339291907f2f8788117e7eff1d82e926ec794901d17c78024a50270940304540a733656f0d9080a4600190565b6000818152602081815260408083206001600160a01b038616845290915290205460ff16610dfb575050600090565b6000818152602081815260408083206001600160a01b0395909516808452949091528120805460ff19169055339291907ff6391f5c32d9c69d2a47ea670b442974b53935d1edc7fd64eb21e047a839171b9080a4600190565b600c5460009392916001600160a01b039091169081610e75575b5050505050565b6020815191012090803b15610edc578492918360649260405196879586946385ceceb560e01b86526004860152602485015260448401525af18015610ed157610ec1575b808080610e6e565b81610ecb91610b88565b38610eb9565b6040513d84823e3d90fd5b8480fdfe4377386e2795aba8c0ce23a1e6e67bac790e4b4166f14b7e9365049ab946f8c0a264697066735822122080245b1da5e771ca58f71c35f3c897bb089086ea16b95db1fce2d3c1f37cfd5d64736f6c634300081b00334377386e2795aba8c0ce23a1e6e67bac790e4b4166f14b7e9365049ab946f8c0",
  "linkReferences": {},
  "deployedLinkReferences": {}
}