{
  "_format": "hh-sol-artifact-1",
  "contractName": "LaunchpadOpticalFactory",
  "sourceName": "contracts/opticals/LaunchpadOpticalFactory.sol",
  "abi": [
    {
      "inputs": [],
      "stateMutability": "nonpayable",
      "type": "constructor"
    },
    {
      "inputs": [],
      "name": "AlreadyInitialized",
      "type": "error"
    },
    {
      "inputs": [],
      "name": "ArrayTooLong",
      "type": "error"
    },
    {
      "inputs": [],
      "name": "InvalidImplementation",
      "type": "error"
    },
    {
      "inputs": [],
      "name": "InvalidImplementation",
      "type": "error"
    },
    {
      "inputs": [
        {
          "internalType": "address",
          "name": "account",
          "type": "address"
        },
        {
          "internalType": "bytes32",
          "name": "role",
          "type": "bytes32"
        }
      ],
      "name": "MissingRole",
      "type": "error"
    },
    {
      "inputs": [],
      "name": "NotInitializing",
      "type": "error"
    },
    {
      "inputs": [],
      "name": "UUPSNotThroughActiveProxy",
      "type": "error"
    },
    {
      "inputs": [],
      "name": "UUPSNotThroughProxy",
      "type": "error"
    },
    {
      "inputs": [],
      "name": "UnauthorizedUpgrade",
      "type": "error"
    },
    {
      "inputs": [],
      "name": "ZeroAddress",
      "type": "error"
    },
    {
      "anonymous": false,
      "inputs": [
        {
          "indexed": false,
          "internalType": "uint64",
          "name": "version",
          "type": "uint64"
        }
      ],
      "name": "Initialized",
      "type": "event"
    },
    {
      "anonymous": false,
      "inputs": [
        {
          "indexed": true,
          "internalType": "address",
          "name": "optical",
          "type": "address"
        },
        {
          "indexed": true,
          "internalType": "address",
          "name": "creator",
          "type": "address"
        },
        {
          "indexed": false,
          "internalType": "address",
          "name": "teamClaimAddress",
          "type": "address"
        },
        {
          "indexed": false,
          "internalType": "uint256",
          "name": "cliffDuration",
          "type": "uint256"
        },
        {
          "indexed": false,
          "internalType": "uint256",
          "name": "vestingDuration",
          "type": "uint256"
        },
        {
          "indexed": false,
          "internalType": "uint256",
          "name": "capitalRaiseBps",
          "type": "uint256"
        },
        {
          "indexed": false,
          "internalType": "uint256",
          "name": "capitalRaiseDuration",
          "type": "uint256"
        }
      ],
      "name": "LaunchpadOpticalCreated",
      "type": "event"
    },
    {
      "anonymous": false,
      "inputs": [
        {
          "indexed": true,
          "internalType": "bytes32",
          "name": "role",
          "type": "bytes32"
        },
        {
          "indexed": true,
          "internalType": "bytes32",
          "name": "previousAdminRole",
          "type": "bytes32"
        },
        {
          "indexed": true,
          "internalType": "bytes32",
          "name": "newAdminRole",
          "type": "bytes32"
        }
      ],
      "name": "RoleAdminChanged",
      "type": "event"
    },
    {
      "anonymous": false,
      "inputs": [
        {
          "indexed": true,
          "internalType": "bytes32",
          "name": "role",
          "type": "bytes32"
        },
        {
          "indexed": true,
          "internalType": "address",
          "name": "account",
          "type": "address"
        },
        {
          "indexed": true,
          "internalType": "address",
          "name": "sender",
          "type": "address"
        }
      ],
      "name": "RoleGranted",
      "type": "event"
    },
    {
      "anonymous": false,
      "inputs": [
        {
          "indexed": true,
          "internalType": "bytes32",
          "name": "role",
          "type": "bytes32"
        },
        {
          "indexed": true,
          "internalType": "address",
          "name": "account",
          "type": "address"
        },
        {
          "indexed": true,
          "internalType": "address",
          "name": "sender",
          "type": "address"
        }
      ],
      "name": "RoleRevoked",
      "type": "event"
    },
    {
      "anonymous": false,
      "inputs": [
        {
          "indexed": true,
          "internalType": "address",
          "name": "implementation",
          "type": "address"
        }
      ],
      "name": "Upgraded",
      "type": "event"
    },
    {
      "inputs": [],
      "name": "DEFAULT_ADMIN_ROLE",
      "outputs": [
        {
          "internalType": "bytes32",
          "name": "",
          "type": "bytes32"
        }
      ],
      "stateMutability": "view",
      "type": "function"
    },
    {
      "inputs": [
        {
          "internalType": "address[]",
          "name": "teamWallets",
          "type": "address[]"
        },
        {
          "internalType": "uint256",
          "name": "cliffDuration",
          "type": "uint256"
        },
        {
          "internalType": "uint256",
          "name": "vestingDuration",
          "type": "uint256"
        },
        {
          "internalType": "uint256",
          "name": "capitalRaiseBps",
          "type": "uint256"
        },
        {
          "internalType": "uint256",
          "name": "capitalRaiseDuration",
          "type": "uint256"
        },
        {
          "internalType": "address",
          "name": "teamClaimAddress",
          "type": "address"
        }
      ],
      "name": "createLaunchpadOptical",
      "outputs": [
        {
          "internalType": "address",
          "name": "optical",
          "type": "address"
        }
      ],
      "stateMutability": "nonpayable",
      "type": "function"
    },
    {
      "inputs": [],
      "name": "feeAccumulator",
      "outputs": [
        {
          "internalType": "address",
          "name": "",
          "type": "address"
        }
      ],
      "stateMutability": "view",
      "type": "function"
    },
    {
      "inputs": [
        {
          "internalType": "uint256",
          "name": "offset",
          "type": "uint256"
        },
        {
          "internalType": "uint256",
          "name": "limit",
          "type": "uint256"
        }
      ],
      "name": "getAllOpticals",
      "outputs": [
        {
          "internalType": "address[]",
          "name": "",
          "type": "address[]"
        }
      ],
      "stateMutability": "view",
      "type": "function"
    },
    {
      "inputs": [],
      "name": "getDeployedCount",
      "outputs": [
        {
          "internalType": "uint256",
          "name": "",
          "type": "uint256"
        }
      ],
      "stateMutability": "view",
      "type": "function"
    },
    {
      "inputs": [
        {
          "internalType": "address",
          "name": "creator",
          "type": "address"
        }
      ],
      "name": "getOpticalsByCreator",
      "outputs": [
        {
          "internalType": "address[]",
          "name": "",
          "type": "address[]"
        }
      ],
      "stateMutability": "view",
      "type": "function"
    },
    {
      "inputs": [
        {
          "internalType": "bytes32",
          "name": "role",
          "type": "bytes32"
        }
      ],
      "name": "getRoleAdmin",
      "outputs": [
        {
          "internalType": "bytes32",
          "name": "",
          "type": "bytes32"
        }
      ],
      "stateMutability": "view",
      "type": "function"
    },
    {
      "inputs": [
        {
          "internalType": "bytes32",
          "name": "role",
          "type": "bytes32"
        },
        {
          "internalType": "address",
          "name": "account",
          "type": "address"
        }
      ],
      "name": "grantRole",
      "outputs": [],
      "stateMutability": "nonpayable",
      "type": "function"
    },
    {
      "inputs": [
        {
          "internalType": "bytes32",
          "name": "role",
          "type": "bytes32"
        },
        {
          "internalType": "address",
          "name": "account",
          "type": "address"
        }
      ],
      "name": "hasRole",
      "outputs": [
        {
          "internalType": "bool",
          "name": "",
          "type": "bool"
        }
      ],
      "stateMutability": "view",
      "type": "function"
    },
    {
      "inputs": [
        {
          "internalType": "address",
          "name": "_poolRegistry",
          "type": "address"
        },
        {
          "internalType": "address",
          "name": "_feeAccumulator",
          "type": "address"
        },
        {
          "internalType": "address",
          "name": "_opticalRegistry",
          "type": "address"
        },
        {
          "internalType": "address",
          "name": "_admin",
          "type": "address"
        }
      ],
      "name": "initialize",
      "outputs": [],
      "stateMutability": "nonpayable",
      "type": "function"
    },
    {
      "inputs": [],
      "name": "opticalRegistry",
      "outputs": [
        {
          "internalType": "address",
          "name": "",
          "type": "address"
        }
      ],
      "stateMutability": "view",
      "type": "function"
    },
    {
      "inputs": [],
      "name": "poolRegistry",
      "outputs": [
        {
          "internalType": "address",
          "name": "",
          "type": "address"
        }
      ],
      "stateMutability": "view",
      "type": "function"
    },
    {
      "inputs": [],
      "name": "proxiableUUID",
      "outputs": [
        {
          "internalType": "bytes32",
          "name": "",
          "type": "bytes32"
        }
      ],
      "stateMutability": "view",
      "type": "function"
    },
    {
      "inputs": [
        {
          "internalType": "bytes32",
          "name": "role",
          "type": "bytes32"
        },
        {
          "internalType": "address",
          "name": "callerConfirmation",
          "type": "address"
        }
      ],
      "name": "renounceRole",
      "outputs": [],
      "stateMutability": "nonpayable",
      "type": "function"
    },
    {
      "inputs": [
        {
          "internalType": "bytes32",
          "name": "role",
          "type": "bytes32"
        },
        {
          "internalType": "address",
          "name": "account",
          "type": "address"
        }
      ],
      "name": "revokeRole",
      "outputs": [],
      "stateMutability": "nonpayable",
      "type": "function"
    },
    {
      "inputs": [
        {
          "internalType": "address",
          "name": "newImplementation",
          "type": "address"
        },
        {
          "internalType": "bytes",
          "name": "data",
          "type": "bytes"
        }
      ],
      "name": "upgradeToAndCall",
      "outputs": [],
      "stateMutability": "payable",
      "type": "function"
    }
  ],
  "bytecode": "0x60a080604052346100c557306080526000805160206124e28339815191525460ff8160401c166100b5576002600160401b03196001600160401b03821601610061575b60405161241790816100cb8239608051818181610490015261056e0152f35b6001600160401b0319166001600160401b039081176000805160206124e28339815191525581527fc7f505b2f371ae2175ee4913f4499e1f2633a7b5936321eed1cdaeb6115181d290602090a13880610042565b62dc149f60e41b60005260046000fd5b600080fdfe608080604052600436101561001357600080fd5b600090813560e01c9081630ff6541414610b2957508063127bbbb914610b0657806320ed12f914610825578063248a9ca3146107ef5780632f2ff15d146107ae57806336568abe146107605780634f1ef286146104f757806352d1902d1461047d5780635eaea35f1461045457806373b5708c1461042b57806391d14854146103e0578063a217fddf146103c4578063afcff50f1461039b578063d547741f1461034f578063f8c8765e1461015e5763fd59f2e1146100d157600080fd5b3461015b57602036600319011261015b576001600160a01b036100f2610ba3565b168152600560205260408120604051918260208354918281520192825260208220915b81811061013c576101388561012c81870382610bb9565b60405191829182610b45565b0390f35b82546001600160a01b0316845260209093019260019283019201610115565b80fd5b503461015b57608036600319011261015b57610178610ba3565b90610181610b88565b6044356001600160a01b0381169081900361034b576064356001600160a01b03811692909190838303610347576000805160206123c2833981519152549360ff8560401c16159467ffffffffffffffff8116600181101580610340575b6103325715158061032a575b61031c57856102f4575b50600167ffffffffffffffff196000805160206123c28339815191525416176000805160206123c283398151915255156102e5576001600160a01b031680156102e55761028393949560018060a01b03166001600160601b0360a01b60015416176001556001600160601b0360a01b60025416176002556001600160601b0360a01b6003541617600355610dd1565b5061028b5780f35b68ff0000000000000000196000805160206123c283398151915254166000805160206123c2833981519152557fc7f505b2f371ae2175ee4913f4499e1f2633a7b5936321eed1cdaeb6115181d2602060405160018152a180f35b63d92e233d60e01b8552600485fd5b68ff00000000000000001916600160401b176000805160206123c283398151915255386101f4565b62dc149f60e41b8752600487fd5b5085156101ea565b62dc149f60e41b8852600488fd5b50866101de565b8480fd5b8280fd5b503461015b57604036600319011261015b5761039760043561036f610b88565b9061039261038b82600052600060205260016040600020015490565b3390610d83565b610f10565b5080f35b503461015b578060031936011261015b576001546040516001600160a01b039091168152602090f35b503461015b578060031936011261015b57602090604051908152f35b503461015b57604036600319011261015b5760406103fc610b88565b91600435815280602052209060018060a01b0316600052602052602060ff604060002054166040519015158152f35b503461015b578060031936011261015b576003546040516001600160a01b039091168152602090f35b503461015b578060031936011261015b576002546040516001600160a01b039091168152602090f35b503461015b578060031936011261015b577f00000000000000000000000000000000000000000000000000000000000000006001600160a01b031630036104e85760206040517f360894a13ba1a3210667c828492db98dca3e2076cc3735a920a3ca505d382bbc8152f35b6345a93fc960e01b8152600490fd5b50604036600319011261015b5761050c610ba3565b906024359167ffffffffffffffff831161075c573660238401121561075c5782600401359261053a84610bf1565b936105486040519586610bb9565b8085526020850191366024838301011161034757818592602460209301853786010152307f00000000000000000000000000000000000000000000000000000000000000006001600160a01b03161461074d5782805260208381526040808520336000908152925290205460ff1615610736576040516352d1902d60e01b81526001600160a01b0383169490602081600481895afa8591816106fe575b506105f95763340aafcd60e11b8552600485fd5b7f360894a13ba1a3210667c828492db98dca3e2076cc3735a920a3ca505d382bbc036106ef57823b156106ef578394837f360894a13ba1a3210667c828492db98dca3e2076cc3735a920a3ca505d382bbc557fbc7cd75a20ee27fd9adebab32041f755214dbc6bffa90cc0225b39da2e5c2d3b8580a251908161067b57505050f35b83925af43d156106ea573d61068f81610bf1565b9061069d6040519283610bb9565b81528260203d92013e5b156106af5780f35b60405162461bcd60e51b81526020600482015260136024820152721d5c19dc985919481a5b9a5d0819985a5b1959606a1b6044820152606490fd5b6106a7565b63340aafcd60e11b8452600484fd5b9091506020813d60201161072e575b8161071a60209383610bb9565b8101031261072a575190386105e5565b8580fd5b3d915061070d565b62b0d32560e11b8352336004526024839052604483fd5b6309e1070b60e31b8352600483fd5b5080fd5b503461015b57604036600319011261015b5760043561077d610b88565b336001600160a01b039091160361079957610397903390610f10565b62b0d32560e11b825233600452602452604490fd5b503461015b57604036600319011261015b576103976004356107ce610b88565b906107ea61038b82600052600060205260016040600020015490565b610e84565b503461015b57602036600319011261015b57602061081d600435600052600060205260016040600020015490565b604051908152f35b503461015b5760c036600319011261015b5760043567ffffffffffffffff811161075c573660238201121561075c5780600401359067ffffffffffffffff821161034b573660248360051b8301011161034b576024359160a4356001600160a01b0381169260843592606435926044359290869003610b02578515610af357600154600254604051936001600160a01b0391821692611429808701939091169086841067ffffffffffffffff851117610adf579180918796959493610f9988396101408401908452336020850152336040850152610140606085015252602461016083019401908c905b808210610aa957505050808a60806101209301528660a08201528760c08201528860e0820152896101008201520152039087f08015610a9e576002546001600160a01b039182169691889116803b1561075c578190602460405180948193630c21dbdf60e31b83528c60048401525af18015610a9357610a7f575b50600454600160401b811015610a6b578060016109ac92016004556004610c48565b81546001600160a01b0360039290921b91821b19169088901b179055338752600560205260408720805497600160401b891015610a575750876109f691600160209a018155610c48565b81549060031b9088821b9160018060a01b03901b191617905560405194855286850152604084015260608301526080820152817f182ff01eafdecafe90cef1c7521ca6f2420afb542e708e5dfd1e90343735ddda60a03393a3604051908152f35b634e487b7160e01b81526041600452602490fd5b634e487b7160e01b88526041600452602488fd5b87610a8c91989298610bb9565b953861098a565b6040513d8a823e3d90fd5b6040513d88823e3d90fd5b91955091929385359060018060a01b038216809203610adb57602081600193829352019601920186959493929161090f565b8d80fd5b634e487b7160e01b8d52604160045260248dfd5b63d92e233d60e01b8852600488fd5b8780fd5b503461015b57604036600319011261015b5761013861012c602435600435610c76565b90503461075c578160031936011261075c576020906004548152f35b602060408183019282815284518094520192019060005b818110610b695750505090565b82516001600160a01b0316845260209384019390920191600101610b5c565b602435906001600160a01b0382168203610b9e57565b600080fd5b600435906001600160a01b0382168203610b9e57565b90601f8019910116810190811067ffffffffffffffff821117610bdb57604052565b634e487b7160e01b600052604160045260246000fd5b67ffffffffffffffff8111610bdb57601f01601f191660200190565b67ffffffffffffffff8111610bdb5760051b60200190565b91908201809211610c3257565b634e487b7160e01b600052601160045260246000fd5b8054821015610c605760005260206000200190600090565b634e487b7160e01b600052603260045260246000fd5b6004549182821015610d6657610c8c9082610c25565b91808311610d5e575b50808203918211610c325790610caa81610c0d565b91610cb86040519384610bb9565b818352601f19610cc783610c0d565b013660208501376004549060005b838110610ce3575050505090565b610ced8183610c25565b600084821015610d4a57600490527f8a35acfbc15ff81a39ae7d344fd709f28e8600b4aa8c65c6b64bfe7fe36bd19b015485516001600160a01b0390911690600090831015610d4a5750600582901b860160200152600101610cd5565b634e487b7160e01b81526032600452602490fd5b915038610c95565b505050604051610d77602082610bb9565b60008152600036813790565b90816000526000602052604060002060018060a01b03821660005260205260ff6040600020541615610db3575050565b62b0d32560e11b60005260018060a01b031660045260245260446000fd5b6001600160a01b03811660009081527fad3228b676f7d3cd4284a5443f17f1962b36e491b30a40b2405849e597ba5fb5602052604090205460ff1615610e175750600090565b6001600160a01b031660008181527fad3228b676f7d3cd4284a5443f17f1962b36e491b30a40b2405849e597ba5fb560205260408120805460ff191660011790553391907f2f8788117e7eff1d82e926ec794901d17c78024a50270940304540a733656f0d8180a4600190565b6000818152602081815260408083206001600160a01b038616845290915290205460ff1615610eb4575050600090565b6000818152602081815260408083206001600160a01b0395909516808452949091528120805460ff19166001179055339291907f2f8788117e7eff1d82e926ec794901d17c78024a50270940304540a733656f0d9080a4600190565b6000818152602081815260408083206001600160a01b038616845290915290205460ff16610f3f575050600090565b6000818152602081815260408083206001600160a01b0395909516808452949091528120805460ff19169055339291907ff6391f5c32d9c69d2a47ea670b442974b53935d1edc7fd64eb21e047a839171b9080a460019056fe6101c0604052346102f6576114298038038061001a81610311565b928339810190610140818303126102f65761003481610336565b9061004160208201610336565b9061004e60408201610336565b60608201519093906001600160401b0381116102f65782019480601f870112156102f6578551956001600160401b0387116102fb578660051b90602080610096818501610311565b809a815201928201019283116102f657602001905b8282106102de57505050608082015160a08301519160c08401519360e0810151956100e66101206100df6101008501610336565b9301610336565b60809390935260a0526001600160a01b0387169687156102cd576001600160a01b038216156102cd576001600160a01b038316156102cd576103e886116102bc576301e1338084116102ab576305a39a8085116102ab576301e1338087116102ab57601489511161029a5760c05260e052610100526101205261014052610160526101805281516101a05260005260006020526040600020600160ff1982541617905560005b81518110156101e5576001906001600160a01b036101aa828561034a565b51166101b7575b0161018c565b818060a01b036101c7828561034a565b5116600052600060205260406000208260ff198254161790556101b1565b6040516110b49081610375823960805181610339015260a051816105e7015260c05181610943015260e0518181816103f8015261085101526101005181818161045701526107d30152610120518181816102a901528181610ad00152610e0b01526101405181818161090c01528181610af90152610e46015261016051818181610300015281816107020152610cad0152610180518181816106c90152818161077e0152610d0001526101a051816108d10152f35b631f4941f960e01b60005260046000fd5b634a94fa8360e11b60005260046000fd5b63f7fc11bd60e01b60005260046000fd5b636f61f64160e01b60005260046000fd5b602080916102eb84610336565b8152019101906100ab565b600080fd5b634e487b7160e01b600052604160045260246000fd5b6040519190601f01601f191682016001600160401b038111838210176102fb57604052565b51906001600160a01b03821682036102f657565b805182101561035e5760209160051b010190565b634e487b7160e01b600052603260045260246000fdfe608080604052600436101561001357600080fd5b600090813560e01c90816302d05d3f1461092f575080631514617e146108f45780632c420122146108b957806330d373f5146108805780634a5ecb36146107285780634ccb398e1461083b5780635300a4a41461028c57806356fcdcb4146108025780635eaea35f146107bd5780636cc7149d146107a157806371f3533214610766578063760a2e8a1461072857806379ec5214146106525780637cd0814b1461063357806387993a4e146106165780638da5cb5b146105d15780639f1245ad14610586578063a77463911461054d578063a9b00985146103dc578063ae3bd4bd146103af578063ae7e71d914610368578063afcff50f14610323578063c6532ff3146102e8578063d0fe7ca2146102cc578063d85349f714610291578063f43ae5071461028c578063f74c1c1a146101e6578063f80d2cc7146101b65763ffc7b0951461016057600080fd5b346101b35760403660031901126101b35760c061018c61017e610972565b61018661098d565b90610dc4565b936040939193519515158652602086015260408501526060840152608083015260a0820152f35b80fd5b50346101b35760403660031901126101b35760206101de6101d5610972565b60243590610cab565b604051908152f35b50346101b35760a03660031901126101b357610200610972565b61020861098d565b916102116109c2565b158061026d575b61022f575b604051637ba60e0d60e11b8152602090f35b60409160018060a01b031681526002602052209060018060a01b0316600052602052604060002061026360643582546109d1565b905538808061021d565b506001600160a01b03831681526020819052604081205460ff16610218565b6109a3565b50346101b357806003193601126101b35760206040517f00000000000000000000000000000000000000000000000000000000000000008152f35b50346101b357806003193601126101b357602060405160148152f35b50346101b357806003193601126101b35760206040517f00000000000000000000000000000000000000000000000000000000000000008152f35b50346101b357806003193601126101b3576040517f00000000000000000000000000000000000000000000000000000000000000006001600160a01b03168152602090f35b50346101b35760803660031901126101b35760406103a1610387610972565b61038f61098d565b6103976109c2565b9060643592610a6c565b825191151582526020820152f35b50346101b35760403660031901126101b3576103c9610972565b5060405163ae3bd4bd60e01b8152602090f35b50346101b35760203660031901126101b3576103f6610972565b7f00000000000000000000000000000000000000000000000000000000000000006001600160a01b0316903382900361053e576001600160a01b031680835260036020526040832054801561052f57818452600360205260408420849055837f00000000000000000000000000000000000000000000000000000000000000006001600160a01b0316803b1561052b57819060646040518094819363613022fd60e01b83528860048401528760248401528960448401525af18015610520576104e9575b5060207fe8067320421baf056a2b16baecdc6fff89d3e90e2642fd0ab434b9845d8702c191604051908152a380f35b846105187fe8067320421baf056a2b16baecdc6fff89d3e90e2642fd0ab434b9845d8702c193966020936109f4565b9491506104ba565b6040513d87823e3d90fd5b5080fd5b6312d37ee560e31b8452600484fd5b633a7cfa5d60e21b8352600483fd5b50346101b35760203660031901126101b3576020906040906001600160a01b03610575610972565b168152600383522054604051908152f35b50346101b35760403660031901126101b35760406020916105a5610972565b6105ad61098d565b6001600160a01b039182168352600285528383209116825283522054604051908152f35b50346101b357806003193601126101b3576040517f00000000000000000000000000000000000000000000000000000000000000006001600160a01b03168152602090f35b50346101b357806003193601126101b35760206040516103e88152f35b50346101b357806003193601126101b35760206040516305a39a808152f35b50346101b35760203660031901126101b35760809061066f610972565b81829160018060a01b031680845260036020526040808520549482815260046020528181205492815260016020522054806106bf575b506040519384526020840152604083015215156060820152f35b9092506106ee91507f0000000000000000000000000000000000000000000000000000000000000000906109d1565b80421115806106ff575b91386106a5565b507f000000000000000000000000000000000000000000000000000000000000000015156106f8565b50346101b35760203660031901126101b35760209060ff906040906001600160a01b03610753610972565b1681528084522054166040519015158152f35b50346101b357806003193601126101b35760206040517f00000000000000000000000000000000000000000000000000000000000000008152f35b50346101b357806003193601126101b357602060405160078152f35b50346101b357806003193601126101b3576040517f00000000000000000000000000000000000000000000000000000000000000006001600160a01b03168152602090f35b50346101b35760203660031901126101b3576020906040906001600160a01b0361082a610972565b168152600183522054604051908152f35b50346101b357806003193601126101b3576040517f00000000000000000000000000000000000000000000000000000000000000006001600160a01b03168152602090f35b50346101b35760203660031901126101b3576020906040906001600160a01b036108a8610972565b168152600483522054604051908152f35b50346101b357806003193601126101b35760206040517f00000000000000000000000000000000000000000000000000000000000000008152f35b50346101b357806003193601126101b35760206040517f00000000000000000000000000000000000000000000000000000000000000008152f35b90503461052b578160031936011261052b577f00000000000000000000000000000000000000000000000000000000000000006001600160a01b03168152602090f35b600435906001600160a01b038216820361098857565b600080fd5b602435906001600160a01b038216820361098857565b346109885760003660031901126109885760206040516301e133808152f35b60443590811515820361098857565b919082018092116109de57565b634e487b7160e01b600052601160045260246000fd5b90601f8019910116810190811067ffffffffffffffff821117610a1657604052565b634e487b7160e01b600052604160045260246000fd5b919082039182116109de57565b818102929181159184041417156109de57565b8115610a56570490565b634e487b7160e01b600052601260045260246000fd5b6001600160a01b03811660008181526001602052604090205492949093909215610c6b575b610c5f5760018060a01b0384169384600052600060205260ff6040600020541615610c5257836000526001602052610ace60406000205442610a2c565b7f000000000000000000000000000000000000000000000000000000000000000090818110610c1b577f000000000000000000000000000000000000000000000000000000000000000091610b2383826109d1565b821015610c0b57610b3391610a2c565b90670de0b6b3a7640000820291808304670de0b6b3a764000014901517156109de57670de0b6b3a764000092610b6f610b7592610ba094610a4c565b94610f99565b92856000526002602052604060002087600052602052610b9b60406000205480956109d1565b610a39565b0490600091818111610bfa575b5050808211610bc25750505050600190600090565b7fb3966d45988315ed5a8dc1f14ca6aa97a4d2c0615f4a43cdc146990a715a40699160409182519182526020820152a3600090600090565b610c049250610a2c565b3880610bad565b5050505050505050600190600090565b5050505060207f4acfead499d5bfd950d77435a2671732e5e612aba3b219ba1f129c48829b502b91604051908152a3600090600090565b5050505050600190600090565b50505050600190600090565b83600052600160205242604060002055837fe604181e9b1b472a9fd7581a81193c352a32c4a286112bcad619d427b19257c96020604051428152a2610a91565b7f0000000000000000000000000000000000000000000000000000000000000000908115610db9576001600160a01b03166000818152600160205260409020549091908015610dbe57610cfe9042610a2c565b7f000000000000000000000000000000000000000000000000000000000000000010610db957610d316127109184610a39565b04908115610db9579182610db69360005260036020526040600020610d578482546109d1565b90558060005260046020526040600020610d728482546109d1565b90558060005260046020527f48b3413afdad030150d68e8ed719b41dd32593b330f034158efe3134ffde0dae604080600020548151908682526020820152a2610a2c565b90565b505090565b50505090565b91600060018060a01b038316600052600060205260ff604060002054169360018060a01b038116928360005260016020526040600020549182158015610f51575b610f3f577f000000000000000000000000000000000000000000000000000000000000000093610e3585856109d1565b96610e4086866109d1565b90610e6c7f000000000000000000000000000000000000000000000000000000000000000080936109d1565b976000526002602052604060002060018060a01b038216600052602052610e996040600020549642610a2c565b93878510610f315790610eab91610f99565b95610eb686886109d1565b93610ec183836109d1565b8110610ecf57505050509290565b610edc9293959750610a2c565b91670de0b6b3a7640000830292808404670de0b6b3a764000014901517156109de57610f14610f1a92670de0b6b3a764000094610a4c565b90610a39565b0492828411610f2557565b9050610db68284610a2c565b506000965086949350505050565b50600094508493508392508291508190565b508615610e05565b3d15610f94573d9067ffffffffffffffff8211610a165760405191610f88601f8201601f1916602001846109f4565b82523d6000602084013e565b606090565b6000809160405160208101906313aedd4b60e31b825260048152610fbe6024826109f4565b51915afa610fca610f59565b90158015611073575b61106c5760208180518101031261098857602001516001600160a01b038116919082900361098857600091829160405160208101916370a0823160e01b835260018060a01b031660248201526024815261102e6044826109f4565b51915afa61103a610f59565b90158015611061575b61105b57602081805181010312610988576020015190565b50600090565b506020815110611043565b5050600090565b506020815110610fd356fea26469706673582212202afdd73a2df2246079d00b40299621d67fd5e75735093ab61aef40af578bb92064736f6c634300081b00334377386e2795aba8c0ce23a1e6e67bac790e4b4166f14b7e9365049ab946f8c0a264697066735822122081e09dc1a6b5dc70645ffd385a3606638fc9848489a4cab0f434c378def0f01764736f6c634300081b00334377386e2795aba8c0ce23a1e6e67bac790e4b4166f14b7e9365049ab946f8c0",
  "linkReferences": {},
  "deployedLinkReferences": {}
}