{
  "_format": "hh-sol-artifact-1",
  "contractName": "AntiSnipeOptical",
  "sourceName": "contracts/opticals/presets/AntiSnipeOptical.sol",
  "abi": [
    {
      "inputs": [
        {
          "internalType": "address",
          "name": "_poolRegistry",
          "type": "address"
        },
        {
          "internalType": "address",
          "name": "_owner",
          "type": "address"
        },
        {
          "internalType": "uint256",
          "name": "_maxBuyBps",
          "type": "uint256"
        },
        {
          "internalType": "uint256",
          "name": "_protectionBlocks",
          "type": "uint256"
        }
      ],
      "stateMutability": "nonpayable",
      "type": "constructor"
    },
    {
      "inputs": [],
      "name": "NotOwner",
      "type": "error"
    },
    {
      "inputs": [],
      "name": "NotPool",
      "type": "error"
    },
    {
      "inputs": [],
      "name": "ProtectionActive",
      "type": "error"
    },
    {
      "inputs": [
        {
          "internalType": "address",
          "name": "",
          "type": "address"
        },
        {
          "internalType": "uint256",
          "name": "",
          "type": "uint256"
        }
      ],
      "name": "afterFeeDistribution",
      "outputs": [
        {
          "internalType": "bytes4",
          "name": "",
          "type": "bytes4"
        }
      ],
      "stateMutability": "nonpayable",
      "type": "function"
    },
    {
      "inputs": [
        {
          "internalType": "address",
          "name": "",
          "type": "address"
        },
        {
          "internalType": "address",
          "name": "",
          "type": "address"
        },
        {
          "internalType": "bool",
          "name": "",
          "type": "bool"
        },
        {
          "internalType": "uint256",
          "name": "",
          "type": "uint256"
        },
        {
          "internalType": "uint256",
          "name": "",
          "type": "uint256"
        }
      ],
      "name": "afterSwap",
      "outputs": [
        {
          "internalType": "bytes4",
          "name": "",
          "type": "bytes4"
        }
      ],
      "stateMutability": "nonpayable",
      "type": "function"
    },
    {
      "inputs": [
        {
          "internalType": "address",
          "name": "",
          "type": "address"
        },
        {
          "internalType": "uint256",
          "name": "feeAmount",
          "type": "uint256"
        }
      ],
      "name": "beforeFeeDistribution",
      "outputs": [
        {
          "internalType": "uint256",
          "name": "adjustedFee",
          "type": "uint256"
        }
      ],
      "stateMutability": "nonpayable",
      "type": "function"
    },
    {
      "inputs": [
        {
          "internalType": "address",
          "name": "pool",
          "type": "address"
        },
        {
          "internalType": "address",
          "name": "",
          "type": "address"
        },
        {
          "internalType": "bool",
          "name": "isBuy",
          "type": "bool"
        },
        {
          "internalType": "uint256",
          "name": "amountIn",
          "type": "uint256"
        }
      ],
      "name": "beforeSwap",
      "outputs": [
        {
          "internalType": "bool",
          "name": "proceed",
          "type": "bool"
        },
        {
          "internalType": "int256",
          "name": "amountDelta",
          "type": "int256"
        }
      ],
      "stateMutability": "nonpayable",
      "type": "function"
    },
    {
      "inputs": [],
      "name": "getFlags",
      "outputs": [
        {
          "internalType": "uint8",
          "name": "",
          "type": "uint8"
        }
      ],
      "stateMutability": "pure",
      "type": "function"
    },
    {
      "inputs": [],
      "name": "maxBuyBps",
      "outputs": [
        {
          "internalType": "uint256",
          "name": "",
          "type": "uint256"
        }
      ],
      "stateMutability": "view",
      "type": "function"
    },
    {
      "inputs": [],
      "name": "owner",
      "outputs": [
        {
          "internalType": "address",
          "name": "",
          "type": "address"
        }
      ],
      "stateMutability": "view",
      "type": "function"
    },
    {
      "inputs": [
        {
          "internalType": "address",
          "name": "",
          "type": "address"
        }
      ],
      "name": "poolCreationBlock",
      "outputs": [
        {
          "internalType": "uint256",
          "name": "",
          "type": "uint256"
        }
      ],
      "stateMutability": "view",
      "type": "function"
    },
    {
      "inputs": [],
      "name": "poolRegistry",
      "outputs": [
        {
          "internalType": "address",
          "name": "",
          "type": "address"
        }
      ],
      "stateMutability": "view",
      "type": "function"
    },
    {
      "inputs": [],
      "name": "protectionBlocks",
      "outputs": [
        {
          "internalType": "uint256",
          "name": "",
          "type": "uint256"
        }
      ],
      "stateMutability": "view",
      "type": "function"
    },
    {
      "inputs": [
        {
          "internalType": "address",
          "name": "pool",
          "type": "address"
        }
      ],
      "name": "registerPool",
      "outputs": [],
      "stateMutability": "nonpayable",
      "type": "function"
    }
  ],
  "bytecode": "0x610100346100ad57601f61064a38819003918201601f19168301916001600160401b038311848410176100b2578084926080946040528339810103126100ad57610048816100c8565b90610055602082016100c8565b606060408301519201519260805260a05260c05260e05260405161056d90816100dd82396080518161018d015260a05181610290015260c05181818161015401526103c3015260e051818181610119015261041e0152f35b600080fd5b634e487b7160e01b600052604160045260246000fd5b51906001600160a01b03821682036100ad5756fe608080604052600436101561001357600080fd5b60003560e01c9081633059f415146102db575080636cc7149d146102bf5780638da5cb5b1461027a578063abd908461461022e578063ae3bd4bd14610202578063ae7e71d9146101bc578063afcff50f14610177578063dfb3f51a1461013c578063f421a0c114610101578063f74c1c1a146100c35763f80d2cc71461009857600080fd5b346100be5760403660031901126100be576100b1610311565b5060206040516024358152f35b600080fd5b346100be5760a03660031901126100be576100dc610311565b506100e5610327565b506100ee61033d565b50604051637ba60e0d60e11b8152602090f35b346100be5760003660031901126100be5760206040517f00000000000000000000000000000000000000000000000000000000000000008152f35b346100be5760003660031901126100be5760206040517f00000000000000000000000000000000000000000000000000000000000000008152f35b346100be5760003660031901126100be576040517f00000000000000000000000000000000000000000000000000000000000000006001600160a01b03168152602090f35b346100be5760803660031901126100be5760406101f46101da610311565b6101e2610327565b506101eb61033d565b6064359161036f565b825191151582526020820152f35b346100be5760403660031901126100be5761021b610311565b5060405163ae3bd4bd60e01b8152602090f35b346100be5760203660031901126100be576001600160a01b0361024f610311565b168060005260006020526040600020541561026657005b600052600060205243604060002055600080f35b346100be5760003660031901126100be576040517f00000000000000000000000000000000000000000000000000000000000000006001600160a01b03168152602090f35b346100be5760003660031901126100be57602060405160018152f35b346100be5760203660031901126100be576020906001600160a01b036102ff610311565b16600052600082526040600020548152f35b600435906001600160a01b03821682036100be57565b602435906001600160a01b03821682036100be57565b6044359081151582036100be57565b9190820180921161035957565b634e487b7160e01b600052601160045260246000fd5b901561040d576001600160a01b0381166000908152602081905260409020548015908115610417575b5061040d576103a681610483565b9150501561040d576103ba6103c191610483565b509061034c565b7f0000000000000000000000000000000000000000000000000000000000000000908181029181830414901517156103595761271090041061040557600190600090565b600090600090565b5050600190600090565b61044391507f00000000000000000000000000000000000000000000000000000000000000009061034c565b431138610398565b90601f8019910116810190811067ffffffffffffffff82111761046d57604052565b634e487b7160e01b600052604160045260246000fd5b9060009160009160008080936040516020810190630240bc6b60e21b8252600481526104b060248261044b565b51915afa3d1561052f573d9067ffffffffffffffff821161046d57604051916104e3601f8201601f19166020018461044b565b82523d6000602084013e5b80610523575b6104fb5750565b809350809194506060925051810103126100be57602081015160408201516060909201519092565b506060815110156104f4565b6060906104ee56fea264697066735822122080b3fe7c357eb7f450e7aacadb5f3668302b31d2539cf1eb956e498875c2a15864736f6c634300081b0033",
  "linkReferences": {},
  "deployedLinkReferences": {}
}