{
  "_format": "hh-sol-artifact-1",
  "contractName": "MockFeedAdapterC",
  "sourceName": "contracts/meta-ag/mocks/MockFeedAdapter.sol",
  "abi": [
    {
      "inputs": [
        {
          "internalType": "uint256",
          "name": "maxStaleness_",
          "type": "uint256"
        }
      ],
      "stateMutability": "nonpayable",
      "type": "constructor"
    },
    {
      "anonymous": false,
      "inputs": [
        {
          "indexed": true,
          "internalType": "bytes32",
          "name": "sourceId",
          "type": "bytes32"
        },
        {
          "indexed": true,
          "internalType": "address",
          "name": "token",
          "type": "address"
        },
        {
          "indexed": false,
          "internalType": "uint256",
          "name": "price",
          "type": "uint256"
        },
        {
          "indexed": false,
          "internalType": "uint256",
          "name": "confidence",
          "type": "uint256"
        }
      ],
      "name": "AdapterPriceServed",
      "type": "event"
    },
    {
      "anonymous": false,
      "inputs": [
        {
          "indexed": true,
          "internalType": "bytes32",
          "name": "sourceId",
          "type": "bytes32"
        },
        {
          "indexed": true,
          "internalType": "address",
          "name": "adapter",
          "type": "address"
        }
      ],
      "name": "AdapterRegistered",
      "type": "event"
    },
    {
      "inputs": [],
      "name": "adapterName",
      "outputs": [
        {
          "internalType": "string",
          "name": "",
          "type": "string"
        }
      ],
      "stateMutability": "pure",
      "type": "function"
    },
    {
      "inputs": [
        {
          "internalType": "address",
          "name": "token",
          "type": "address"
        }
      ],
      "name": "getFeedPrice",
      "outputs": [
        {
          "components": [
            {
              "internalType": "uint256",
              "name": "price",
              "type": "uint256"
            },
            {
              "internalType": "uint256",
              "name": "timestamp",
              "type": "uint256"
            },
            {
              "internalType": "uint256",
              "name": "confidence",
              "type": "uint256"
            },
            {
              "internalType": "bytes32",
              "name": "sourceId",
              "type": "bytes32"
            }
          ],
          "internalType": "struct IDataFeedAdapter.FeedPrice",
          "name": "feed",
          "type": "tuple"
        }
      ],
      "stateMutability": "view",
      "type": "function"
    },
    {
      "inputs": [
        {
          "internalType": "address[]",
          "name": "tokens",
          "type": "address[]"
        }
      ],
      "name": "getFeedPrices",
      "outputs": [
        {
          "components": [
            {
              "internalType": "uint256",
              "name": "price",
              "type": "uint256"
            },
            {
              "internalType": "uint256",
              "name": "timestamp",
              "type": "uint256"
            },
            {
              "internalType": "uint256",
              "name": "confidence",
              "type": "uint256"
            },
            {
              "internalType": "bytes32",
              "name": "sourceId",
              "type": "bytes32"
            }
          ],
          "internalType": "struct IDataFeedAdapter.FeedPrice[]",
          "name": "feeds",
          "type": "tuple[]"
        }
      ],
      "stateMutability": "view",
      "type": "function"
    },
    {
      "inputs": [],
      "name": "getSupportedTokens",
      "outputs": [
        {
          "internalType": "address[]",
          "name": "",
          "type": "address[]"
        }
      ],
      "stateMutability": "view",
      "type": "function"
    },
    {
      "inputs": [],
      "name": "maxStaleness",
      "outputs": [
        {
          "internalType": "uint256",
          "name": "",
          "type": "uint256"
        }
      ],
      "stateMutability": "view",
      "type": "function"
    },
    {
      "inputs": [],
      "name": "revertOnGet",
      "outputs": [
        {
          "internalType": "bool",
          "name": "",
          "type": "bool"
        }
      ],
      "stateMutability": "view",
      "type": "function"
    },
    {
      "inputs": [
        {
          "internalType": "uint256",
          "name": "s",
          "type": "uint256"
        }
      ],
      "name": "setMaxStaleness",
      "outputs": [],
      "stateMutability": "nonpayable",
      "type": "function"
    },
    {
      "inputs": [
        {
          "internalType": "address",
          "name": "token",
          "type": "address"
        },
        {
          "internalType": "uint256",
          "name": "price",
          "type": "uint256"
        },
        {
          "internalType": "uint256",
          "name": "timestamp",
          "type": "uint256"
        },
        {
          "internalType": "uint256",
          "name": "confidence",
          "type": "uint256"
        }
      ],
      "name": "setPrice",
      "outputs": [],
      "stateMutability": "nonpayable",
      "type": "function"
    },
    {
      "inputs": [
        {
          "internalType": "bool",
          "name": "v",
          "type": "bool"
        }
      ],
      "name": "setRevertOnGet",
      "outputs": [],
      "stateMutability": "nonpayable",
      "type": "function"
    },
    {
      "inputs": [
        {
          "internalType": "address",
          "name": "token",
          "type": "address"
        },
        {
          "internalType": "bool",
          "name": "supported",
          "type": "bool"
        }
      ],
      "name": "setSupported",
      "outputs": [],
      "stateMutability": "nonpayable",
      "type": "function"
    },
    {
      "inputs": [],
      "name": "sourceId",
      "outputs": [
        {
          "internalType": "bytes32",
          "name": "",
          "type": "bytes32"
        }
      ],
      "stateMutability": "pure",
      "type": "function"
    },
    {
      "inputs": [
        {
          "internalType": "address",
          "name": "token",
          "type": "address"
        }
      ],
      "name": "supportsToken",
      "outputs": [
        {
          "internalType": "bool",
          "name": "",
          "type": "bool"
        }
      ],
      "stateMutability": "view",
      "type": "function"
    }
  ],
  "bytecode": "0x608034604e57601f61091238819003918201601f19168301916001600160401b03831184841017605357808492602094604052833981010312604e57516000556040516108a8908161006a8239f35b600080fd5b634e487b7160e01b600052604160045260246000fdfe608080604052600436101561001357600080fd5b60003560e01c9081630450d53e146105cf57508063061f765014610590578063100bc9e1146105775780631c988b6f1461054657806387cf469614610528578063a3a776d314610399578063ba286578146102e5578063d069aab9146102aa578063d3c7c2c7146101de578063d5936b7f146101ae578063dcb8d69b1461018b5763e1238d9d146100a357600080fd5b34610186576020366003190112610186576100bc610699565b6100c4610785565b5060ff600454166101415760018060a01b03166000526002602052608060406000206003604051916100f5836106af565b8054835260018101546020840152600281015460408401520154606082015261013f6040518092606080918051845260208101516020850152604081015160408501520151910152565bf35b60405162461bcd60e51b815260206004820152601e60248201527f4d6f636b46656564416461707465723a20666f726365642072657665727400006044820152606490fd5b600080fd5b3461018657600036600319011261018657602060ff600454166040519015158152f35b34610186576040366003190112610186576101c7610699565b6024358015158103610186576101dc916107d4565b005b34610186576000366003190112610186576040518060206001549283815201809260016000527fb10e2d527612073b26eecdfd717e6a320cf44b4afac2b0732d9fcbe2b7fa0cf69060005b81811061028b575050508161023f9103826106cb565b6040519182916020830190602084525180915260408301919060005b818110610269575050500390f35b82516001600160a01b031684528594506020938401939092019160010161025b565b82546001600160a01b0316845260209093019260019283019201610229565b346101865760003660031901126101865760206040517f332aa0f16d29a0713c35b2bdc2fcafe0ba21be44d6c9d3cfcf7aa5ec14d9b69d8152f35b34610186576000366003190112610186576040516040810181811067ffffffffffffffff8211176103835760405260148152734d6f636b46656564416461707465722e432e763160601b602082015260405190602082528181519182602083015260005b83811061036b5750508160006040809484010152601f80199101168101030190f35b60208282018101516040878401015285935001610349565b634e487b7160e01b600052604160045260246000fd5b346101865760203660031901126101865760043567ffffffffffffffff8111610186573660238201121561018657806004013567ffffffffffffffff8111610186573660248260051b84010111610186576103f38161076d565b61040060405191826106cb565b818152601f1961040f8361076d565b0160005b81811061051157505060005b828110156104a25760006024600583901b860101356001600160a01b0381169081900361049e57816040916001949352600260205220600360405191610464836106af565b80548352848101546020840152600281015460408401520154606082015261048c82856107aa565b5261049781846107aa565b500161041f565b5080fd5b5060405180916020820160208352815180915260206040840192019060005b8181106104cf575050500390f35b9193509160206080826105036001948851606080918051845260208101516020850152604081015160408501520151910152565b0194019101918493926104c1565b60209061051c610785565b82828601015201610413565b34610186576000366003190112610186576020600054604051908152f35b34610186576020366003190112610186576004358015158091036101865760ff801960045416911617600455600080f35b3461018657602036600319011261018657600435600055005b34610186576020366003190112610186576001600160a01b036105b1610699565b166000526003602052602060ff604060002054166040519015158152f35b34610186576080366003190112610186576105e8610699565b6105f1826106af565b602435825260208201916044358352600360408201606435815260608301907f332aa0f16d29a0713c35b2bdc2fcafe0ba21be44d6c9d3cfcf7aa5ec14d9b69d825260018060a01b038516958660005260026020526040600020945185555160018501555160028401555191015581600052600360205260ff604060002054161561067857005b6101dc9160005260036020526040600020600160ff198254161790556106ed565b600435906001600160a01b038216820361018657565b6080810190811067ffffffffffffffff82111761038357604052565b90601f8019910116810190811067ffffffffffffffff82111761038357604052565b600154680100000000000000008110156103835760018101600155600060015482101561075957600190527fb10e2d527612073b26eecdfd717e6a320cf44b4afac2b0732d9fcbe2b7fa0cf60180546001600160a01b0319166001600160a01b03909216919091179055565b634e487b7160e01b81526032600452602490fd5b67ffffffffffffffff81116103835760051b60200190565b60405190610792826106af565b60006060838281528260208201528260408201520152565b80518210156107be5760209160051b010190565b634e487b7160e01b600052603260045260246000fd5b6001600160a01b0381166000818152600360205260409020805460ff191660ff8515151617905591610804575050565b600154918260005b8481106108225750505061082091506106ed565b565b60008282101561075957600190527fb10e2d527612073b26eecdfd717e6a320cf44b4afac2b0732d9fcbe2b7fa0cf68101546001600160a01b0316831461086b5760010161080c565b505050505056fea2646970667358221220074a2b0416ebb5fd459d92e07b0434e8c8335c1de4a94dbc30ec2348f32ee96e64736f6c634300081b0033",
  "linkReferences": {},
  "deployedLinkReferences": {}
}