{
  "_format": "hh-sol-artifact-1",
  "contractName": "SidioraFeedAdapter",
  "sourceName": "contracts/meta-ag/oracle/adapters/SidioraFeedAdapter.sol",
  "abi": [
    {
      "inputs": [
        {
          "internalType": "address",
          "name": "poolRegistry_",
          "type": "address"
        },
        {
          "internalType": "uint256",
          "name": "minLiquidityThreshold_",
          "type": "uint256"
        },
        {
          "internalType": "address",
          "name": "admin_",
          "type": "address"
        }
      ],
      "stateMutability": "nonpayable",
      "type": "constructor"
    },
    {
      "inputs": [
        {
          "internalType": "address",
          "name": "account",
          "type": "address"
        },
        {
          "internalType": "bytes32",
          "name": "role",
          "type": "bytes32"
        }
      ],
      "name": "MissingRole",
      "type": "error"
    },
    {
      "inputs": [],
      "name": "ZeroAddress",
      "type": "error"
    },
    {
      "anonymous": false,
      "inputs": [
        {
          "indexed": true,
          "internalType": "bytes32",
          "name": "sourceId",
          "type": "bytes32"
        },
        {
          "indexed": true,
          "internalType": "address",
          "name": "token",
          "type": "address"
        },
        {
          "indexed": false,
          "internalType": "uint256",
          "name": "price",
          "type": "uint256"
        },
        {
          "indexed": false,
          "internalType": "uint256",
          "name": "confidence",
          "type": "uint256"
        }
      ],
      "name": "AdapterPriceServed",
      "type": "event"
    },
    {
      "anonymous": false,
      "inputs": [
        {
          "indexed": true,
          "internalType": "bytes32",
          "name": "sourceId",
          "type": "bytes32"
        },
        {
          "indexed": true,
          "internalType": "address",
          "name": "adapter",
          "type": "address"
        }
      ],
      "name": "AdapterRegistered",
      "type": "event"
    },
    {
      "anonymous": false,
      "inputs": [
        {
          "indexed": true,
          "internalType": "bytes32",
          "name": "role",
          "type": "bytes32"
        },
        {
          "indexed": true,
          "internalType": "bytes32",
          "name": "previousAdminRole",
          "type": "bytes32"
        },
        {
          "indexed": true,
          "internalType": "bytes32",
          "name": "newAdminRole",
          "type": "bytes32"
        }
      ],
      "name": "RoleAdminChanged",
      "type": "event"
    },
    {
      "anonymous": false,
      "inputs": [
        {
          "indexed": true,
          "internalType": "bytes32",
          "name": "role",
          "type": "bytes32"
        },
        {
          "indexed": true,
          "internalType": "address",
          "name": "account",
          "type": "address"
        },
        {
          "indexed": true,
          "internalType": "address",
          "name": "sender",
          "type": "address"
        }
      ],
      "name": "RoleGranted",
      "type": "event"
    },
    {
      "anonymous": false,
      "inputs": [
        {
          "indexed": true,
          "internalType": "bytes32",
          "name": "role",
          "type": "bytes32"
        },
        {
          "indexed": true,
          "internalType": "address",
          "name": "account",
          "type": "address"
        },
        {
          "indexed": true,
          "internalType": "address",
          "name": "sender",
          "type": "address"
        }
      ],
      "name": "RoleRevoked",
      "type": "event"
    },
    {
      "inputs": [],
      "name": "CONFIDENCE_HIGH",
      "outputs": [
        {
          "internalType": "uint256",
          "name": "",
          "type": "uint256"
        }
      ],
      "stateMutability": "view",
      "type": "function"
    },
    {
      "inputs": [],
      "name": "CONFIDENCE_LOW",
      "outputs": [
        {
          "internalType": "uint256",
          "name": "",
          "type": "uint256"
        }
      ],
      "stateMutability": "view",
      "type": "function"
    },
    {
      "inputs": [],
      "name": "CONFIDENCE_MEDIUM",
      "outputs": [
        {
          "internalType": "uint256",
          "name": "",
          "type": "uint256"
        }
      ],
      "stateMutability": "view",
      "type": "function"
    },
    {
      "inputs": [],
      "name": "DEFAULT_ADMIN_ROLE",
      "outputs": [
        {
          "internalType": "bytes32",
          "name": "",
          "type": "bytes32"
        }
      ],
      "stateMutability": "view",
      "type": "function"
    },
    {
      "inputs": [],
      "name": "adapterName",
      "outputs": [
        {
          "internalType": "string",
          "name": "",
          "type": "string"
        }
      ],
      "stateMutability": "pure",
      "type": "function"
    },
    {
      "inputs": [
        {
          "internalType": "address",
          "name": "token",
          "type": "address"
        }
      ],
      "name": "getFeedPrice",
      "outputs": [
        {
          "components": [
            {
              "internalType": "uint256",
              "name": "price",
              "type": "uint256"
            },
            {
              "internalType": "uint256",
              "name": "timestamp",
              "type": "uint256"
            },
            {
              "internalType": "uint256",
              "name": "confidence",
              "type": "uint256"
            },
            {
              "internalType": "bytes32",
              "name": "sourceId",
              "type": "bytes32"
            }
          ],
          "internalType": "struct IDataFeedAdapter.FeedPrice",
          "name": "feed",
          "type": "tuple"
        }
      ],
      "stateMutability": "view",
      "type": "function"
    },
    {
      "inputs": [
        {
          "internalType": "address[]",
          "name": "tokens",
          "type": "address[]"
        }
      ],
      "name": "getFeedPrices",
      "outputs": [
        {
          "components": [
            {
              "internalType": "uint256",
              "name": "price",
              "type": "uint256"
            },
            {
              "internalType": "uint256",
              "name": "timestamp",
              "type": "uint256"
            },
            {
              "internalType": "uint256",
              "name": "confidence",
              "type": "uint256"
            },
            {
              "internalType": "bytes32",
              "name": "sourceId",
              "type": "bytes32"
            }
          ],
          "internalType": "struct IDataFeedAdapter.FeedPrice[]",
          "name": "feeds",
          "type": "tuple[]"
        }
      ],
      "stateMutability": "view",
      "type": "function"
    },
    {
      "inputs": [
        {
          "internalType": "bytes32",
          "name": "role",
          "type": "bytes32"
        }
      ],
      "name": "getRoleAdmin",
      "outputs": [
        {
          "internalType": "bytes32",
          "name": "",
          "type": "bytes32"
        }
      ],
      "stateMutability": "view",
      "type": "function"
    },
    {
      "inputs": [],
      "name": "getSupportedTokens",
      "outputs": [
        {
          "internalType": "address[]",
          "name": "tokens",
          "type": "address[]"
        }
      ],
      "stateMutability": "view",
      "type": "function"
    },
    {
      "inputs": [
        {
          "internalType": "bytes32",
          "name": "role",
          "type": "bytes32"
        },
        {
          "internalType": "address",
          "name": "account",
          "type": "address"
        }
      ],
      "name": "grantRole",
      "outputs": [],
      "stateMutability": "nonpayable",
      "type": "function"
    },
    {
      "inputs": [
        {
          "internalType": "bytes32",
          "name": "role",
          "type": "bytes32"
        },
        {
          "internalType": "address",
          "name": "account",
          "type": "address"
        }
      ],
      "name": "hasRole",
      "outputs": [
        {
          "internalType": "bool",
          "name": "",
          "type": "bool"
        }
      ],
      "stateMutability": "view",
      "type": "function"
    },
    {
      "inputs": [],
      "name": "maxStaleness",
      "outputs": [
        {
          "internalType": "uint256",
          "name": "",
          "type": "uint256"
        }
      ],
      "stateMutability": "pure",
      "type": "function"
    },
    {
      "inputs": [],
      "name": "minLiquidityThreshold",
      "outputs": [
        {
          "internalType": "uint256",
          "name": "",
          "type": "uint256"
        }
      ],
      "stateMutability": "view",
      "type": "function"
    },
    {
      "inputs": [],
      "name": "poolRegistry",
      "outputs": [
        {
          "internalType": "contract IPoolRegistry",
          "name": "",
          "type": "address"
        }
      ],
      "stateMutability": "view",
      "type": "function"
    },
    {
      "inputs": [
        {
          "internalType": "address",
          "name": "token",
          "type": "address"
        }
      ],
      "name": "registerKnownToken",
      "outputs": [],
      "stateMutability": "nonpayable",
      "type": "function"
    },
    {
      "inputs": [
        {
          "internalType": "address[]",
          "name": "tokens",
          "type": "address[]"
        }
      ],
      "name": "registerKnownTokens",
      "outputs": [],
      "stateMutability": "nonpayable",
      "type": "function"
    },
    {
      "inputs": [
        {
          "internalType": "bytes32",
          "name": "role",
          "type": "bytes32"
        },
        {
          "internalType": "address",
          "name": "callerConfirmation",
          "type": "address"
        }
      ],
      "name": "renounceRole",
      "outputs": [],
      "stateMutability": "nonpayable",
      "type": "function"
    },
    {
      "inputs": [
        {
          "internalType": "bytes32",
          "name": "role",
          "type": "bytes32"
        },
        {
          "internalType": "address",
          "name": "account",
          "type": "address"
        }
      ],
      "name": "revokeRole",
      "outputs": [],
      "stateMutability": "nonpayable",
      "type": "function"
    },
    {
      "inputs": [
        {
          "internalType": "uint256",
          "name": "threshold_",
          "type": "uint256"
        }
      ],
      "name": "setMinLiquidityThreshold",
      "outputs": [],
      "stateMutability": "nonpayable",
      "type": "function"
    },
    {
      "inputs": [
        {
          "internalType": "address",
          "name": "registry_",
          "type": "address"
        }
      ],
      "name": "setPoolRegistry",
      "outputs": [],
      "stateMutability": "nonpayable",
      "type": "function"
    },
    {
      "inputs": [],
      "name": "sourceId",
      "outputs": [
        {
          "internalType": "bytes32",
          "name": "",
          "type": "bytes32"
        }
      ],
      "stateMutability": "pure",
      "type": "function"
    },
    {
      "inputs": [
        {
          "internalType": "address",
          "name": "token",
          "type": "address"
        }
      ],
      "name": "supportsToken",
      "outputs": [
        {
          "internalType": "bool",
          "name": "",
          "type": "bool"
        }
      ],
      "stateMutability": "view",
      "type": "function"
    }
  ],
  "bytecode": "0x6080346100bf57601f610ef138819003918201601f19168301916001600160401b038311848410176100c4578084926060946040528339810103126100bf57610047816100da565b6100586040602084015193016100da565b6001600160a01b0390911691821580156100ae575b61009d5761008d9260018060a01b031960015416176001556002556100ee565b50604051610d53908161017e8239f35b63d92e233d60e01b60005260046000fd5b506001600160a01b0382161561006d565b600080fd5b634e487b7160e01b600052604160045260246000fd5b51906001600160a01b03821682036100bf57565b6001600160a01b0381166000908152600080516020610ed1833981519152602052604090205460ff16156101225750600090565b6001600160a01b03166000818152600080516020610ed183398151915260205260408120805460ff191660011790553391907f2f8788117e7eff1d82e926ec794901d17c78024a50270940304540a733656f0d8180a460019056fe6080604052600436101561001257600080fd5b60003560e01c8063061f765014610744578063248a9ca31461070f5780632f2ff15d146106cf57806336568abe146106805780633791d9bd146106635780637b77cd6a146106045780637d0fb7f8146105e757806387cf4696146105cb57806391d148541461057e578063a217fddf14610562578063a3a776d31461045b578063aa6e949c14610419578063af2c1ca5146103fb578063afcff50f146103d2578063b38102da146103b5578063b85dd3841461038b578063ba286578146102de578063d069aab9146102a3578063d3c7c2c7146101d7578063d547741f1461018e578063e050bee51461016c5763e1238d9d1461010e57600080fd5b3461016757602036600319011261016757608061013a61012c61077a565b610134610834565b50610b0d565b6101656040518092606080918051845260208101516020850152604081015160408501520151910152565bf35b600080fd5b346101675760203660031901126101675761018633610948565b600435600255005b34610167576040366003190112610167576101d56004356101ad610790565b906101d06101c982600052600060205260016040600020015490565b33906109ab565b610a85565b005b34610167576000366003190112610167576040518060206003549283815201809260036000527fc2575a0e9e593c00f959f8c92f12db2869c3395a3b0502d05e2516446f71f85b9060005b81811061028457505050816102389103826107fa565b6040519182916020830190602084525180915260408301919060005b818110610262575050500390f35b82516001600160a01b0316845285945060209384019390920191600101610254565b82546001600160a01b0316845260209093019260019283019201610222565b346101675760003660031901126101675760206040517fd564e890383109bf777b017b704e5421847c7803ff18a2a9e21133702f2d22638152f35b34610167576000366003190112610167576040516040810181811067ffffffffffffffff82111761037557604052600d81526c536964696f7261414d4d2e763160981b602082015260405190602082528181519182602083015260005b83811061035d5750508160006040809484010152601f80199101168101030190f35b6020828201810151604087840101528593500161033b565b634e487b7160e01b600052604160045260246000fd5b34610167576020366003190112610167576101d56103a761077a565b6103b033610948565b610b82565b34610167576000366003190112610167576020604051610fa08152f35b34610167576000366003190112610167576001546040516001600160a01b039091168152602090f35b34610167576000366003190112610167576020600254604051908152f35b3461016757610427366107a6565b61043033610948565b60005b81811061043c57005b806104556103b0610450600194868861086a565b610890565b01610433565b3461016757610469366107a6565b906104738261081c565b9161048160405193846107fa565b808352601f196104908261081c565b0160005b81811061054b57505060005b818110610516578360405180916020820160208352815180915260206040840192019060005b8181106104d4575050500390f35b9193509160206080826105086001948851606080918051845260208101516020850152604081015160408501520151910152565b0194019101918493926104c6565b8061052f61052a610450600194868861086a565b610b0d565b61053982876108a4565b5261054481866108a4565b50016104a0565b602090610556610834565b82828801015201610494565b3461016757600036600319011261016757602060405160008152f35b3461016757604036600319011261016757610597610790565b600435600052600060205260406000209060018060a01b0316600052602052602060ff604060002054166040519015158152f35b3461016757600036600319011261016757602060405160788152f35b34610167576000366003190112610167576020604051611b588152f35b346101675760203660031901126101675761061d61077a565b61062633610948565b6001600160a01b03168015610652576bffffffffffffffffffffffff60a01b6001541617600155600080f35b63d92e233d60e01b60005260046000fd5b346101675760003660031901126101675760206040516105dc8152f35b346101675760403660031901126101675760043561069c610790565b336001600160a01b03909116036106b8576101d5903390610a85565b62b0d32560e11b6000523360045260245260446000fd5b34610167576040366003190112610167576101d56004356106ee610790565b9061070a6101c982600052600060205260016040600020015490565b6109f9565b3461016757602036600319011261016757602061073c600435600052600060205260016040600020015490565b604051908152f35b346101675760203660031901126101675760206001600160a01b0361076f61076a61077a565b6108b8565b161515604051908152f35b600435906001600160a01b038216820361016757565b602435906001600160a01b038216820361016757565b9060206003198301126101675760043567ffffffffffffffff811161016757826023820112156101675780600401359267ffffffffffffffff84116101675760248460051b83010111610167576024019190565b90601f8019910116810190811067ffffffffffffffff82111761037557604052565b67ffffffffffffffff81116103755760051b60200190565b604051906080820182811067ffffffffffffffff8211176103755760405260006060838281528260208201528260408201520152565b919081101561087a5760051b0190565b634e487b7160e01b600052603260045260246000fd5b356001600160a01b03811681036101675790565b805182101561087a5760209160051b010190565b60015460405163bbadc03b60e01b81526001600160a01b0392831660048201529160209183916024918391165afa80916000916108ff575b50906108fc5750600090565b90565b6020813d602011610940575b81610918602093836107fa565b8101031261093c5751906001600160a01b03821682036109395750386108f0565b80fd5b5080fd5b3d915061090b565b6001600160a01b03811660009081527fad3228b676f7d3cd4284a5443f17f1962b36e491b30a40b2405849e597ba5fb5602052604090205460ff161561098b5750565b62b0d32560e11b60005260018060a01b0316600452600060245260446000fd5b90816000526000602052604060002060018060a01b03821660005260205260ff60406000205416156109db575050565b62b0d32560e11b60005260018060a01b031660045260245260446000fd5b6000818152602081815260408083206001600160a01b038616845290915290205460ff1615610a29575050600090565b6000818152602081815260408083206001600160a01b0395909516808452949091528120805460ff19166001179055339291907f2f8788117e7eff1d82e926ec794901d17c78024a50270940304540a733656f0d9080a4600190565b6000818152602081815260408083206001600160a01b038616845290915290205460ff16610ab4575050600090565b6000818152602081815260408083206001600160a01b0395909516808452949091528120805460ff19169055339291907ff6391f5c32d9c69d2a47ea670b442974b53935d1edc7fd64eb21e047a839171b9080a4600190565b90610b45610b19610834565b927fd564e890383109bf777b017b704e5421847c7803ff18a2a9e21133702f2d226360608501526108b8565b6001600160a01b03811615610b7f57610b5d81610c1b565b8015610b7b578352426020840152610b7490610c86565b6040830152565b5050565b50565b6001600160a01b031660008181526004602052604090205460ff1615610ba55750565b8060005260046020526040600020600160ff198254161790556003546801000000000000000081101561037557600181018060035581101561087a5760036000527fc2575a0e9e593c00f959f8c92f12db2869c3395a3b0502d05e2516446f71f85b0180546001600160a01b0319169091179055565b604051634c6afee560e11b815290602090829060049082906001600160a01b03165afa60009181610c52575b506108fc5750600090565b9091506020813d602011610c7e575b81610c6e602093836107fa565b8101031261016757519038610c47565b3d9150610c61565b604051630240bc6b60e21b815290606090829060049082906001600160a01b03165afa60009181610ce6575b50610cbe57506105dc90565b60025480821015610cde5760021c1115610cd8576105dc90565b610fa090565b5050611b5890565b9091506060813d606011610d15575b81610d02606093836107fa565b8101031261016757602001519038610cb2565b3d9150610cf556fea2646970667358221220759221b52e92bc8004cc3f8109c08f1366387a40d1cc50ce77e411a36b6c784b64736f6c634300081b0033ad3228b676f7d3cd4284a5443f17f1962b36e491b30a40b2405849e597ba5fb5",
  "linkReferences": {},
  "deployedLinkReferences": {}
}