{
  "_format": "hh-sol-artifact-1",
  "contractName": "MockMulticall",
  "sourceName": "contracts/test/MockMulticall.sol",
  "abi": [
    {
      "inputs": [
        {
          "internalType": "uint256",
          "name": "index",
          "type": "uint256"
        },
        {
          "internalType": "bytes",
          "name": "reason",
          "type": "bytes"
        }
      ],
      "name": "MulticallFailed",
      "type": "error"
    },
    {
      "inputs": [],
      "name": "getValue1",
      "outputs": [
        {
          "internalType": "uint256",
          "name": "",
          "type": "uint256"
        }
      ],
      "stateMutability": "view",
      "type": "function"
    },
    {
      "inputs": [
        {
          "internalType": "bytes[]",
          "name": "data",
          "type": "bytes[]"
        }
      ],
      "name": "multicall",
      "outputs": [
        {
          "internalType": "bytes[]",
          "name": "results",
          "type": "bytes[]"
        }
      ],
      "stateMutability": "nonpayable",
      "type": "function"
    },
    {
      "inputs": [],
      "name": "revertingFunction",
      "outputs": [],
      "stateMutability": "pure",
      "type": "function"
    },
    {
      "inputs": [
        {
          "internalType": "uint256",
          "name": "_val",
          "type": "uint256"
        }
      ],
      "name": "setValue1",
      "outputs": [],
      "stateMutability": "nonpayable",
      "type": "function"
    },
    {
      "inputs": [
        {
          "internalType": "uint256",
          "name": "_val",
          "type": "uint256"
        }
      ],
      "name": "setValue2",
      "outputs": [],
      "stateMutability": "nonpayable",
      "type": "function"
    },
    {
      "inputs": [],
      "name": "value1",
      "outputs": [
        {
          "internalType": "uint256",
          "name": "",
          "type": "uint256"
        }
      ],
      "stateMutability": "view",
      "type": "function"
    },
    {
      "inputs": [],
      "name": "value2",
      "outputs": [
        {
          "internalType": "uint256",
          "name": "",
          "type": "uint256"
        }
      ],
      "stateMutability": "view",
      "type": "function"
    }
  ],
  "bytecode": "0x60808060405234601557610445908161001b8239f35b600080fdfe608080604052600436101561001357600080fd5b60003560e01c9081633033413b14610335575080635d33a27f1461031757806360d586f8146102f95780636ca0f321146102e057806374d393f0146102c7578063ac9650d8146100bc5763c84f59b41461006c57600080fd5b346100b75760003660031901126100b75760405162461bcd60e51b81526020600482015260126024820152711a5b9d195b9d1a5bdb985b081c995d995c9d60721b6044820152606490fd5b600080fd5b346100b75760203660031901126100b75760043567ffffffffffffffff81116100b757366023820112156100b75780600401359067ffffffffffffffff82116100b7573660248360051b830101116100b7579061012061011b826103cd565b610391565b818152601f1961012f836103cd565b0160005b8181106102b457505036839003604219019260005b8381101561024c57600060248260051b840101358681121561024857830160248101359067ffffffffffffffff821161024457604401813603811361024457818392918392604051928392833781018381520390305af43d1561023b573d67ffffffffffffffff8111610227576101c8601f8201601f1916602001610391565b908152809260203d92013e5b156101f957906001916101e782866103e5565b526101f281856103e5565b5001610148565b90610223604051928392631b3dcf4560e21b84526004840152604060248401526044830190610350565b0390fd5b634e487b7160e01b83526041600452602483fd5b606091506101d4565b8280fd5b5080fd5b826040518091602082016020835281518091526040830190602060408260051b8601019301916000905b82821061028557505050500390f35b919360019193955060206102a48192603f198a82030186528851610350565b9601920192018594939192610276565b6060602082850181019190915201610133565b346100b75760203660031901126100b757600435600155005b346100b75760203660031901126100b757600435600055005b346100b75760003660031901126100b7576020600054604051908152f35b346100b75760003660031901126100b7576020600154604051908152f35b346100b75760003660031901126100b7576020906000548152f35b919082519283825260005b84811061037c575050826000602080949584010152601f8019910116010190565b8060208092840101518282860101520161035b565b6040519190601f01601f1916820167ffffffffffffffff8111838210176103b757604052565b634e487b7160e01b600052604160045260246000fd5b67ffffffffffffffff81116103b75760051b60200190565b80518210156103f95760209160051b010190565b634e487b7160e01b600052603260045260246000fdfea26469706673582212200057fe3f8aeb3af6414ae7bb9b630087f57c6cf9863a926b61b6f0669cc6000264736f6c634300081b0033",
  "linkReferences": {},
  "deployedLinkReferences": {}
}