{
  "_format": "hh-sol-artifact-1",
  "contractName": "OpticalRegistry",
  "sourceName": "contracts/opticals/OpticalRegistry.sol",
  "abi": [
    {
      "inputs": [],
      "stateMutability": "nonpayable",
      "type": "constructor"
    },
    {
      "inputs": [],
      "name": "AlreadyInitialized",
      "type": "error"
    },
    {
      "inputs": [],
      "name": "AlreadyRegistered",
      "type": "error"
    },
    {
      "inputs": [],
      "name": "InvalidImplementation",
      "type": "error"
    },
    {
      "inputs": [],
      "name": "InvalidImplementation",
      "type": "error"
    },
    {
      "inputs": [
        {
          "internalType": "address",
          "name": "account",
          "type": "address"
        },
        {
          "internalType": "bytes32",
          "name": "role",
          "type": "bytes32"
        }
      ],
      "name": "MissingRole",
      "type": "error"
    },
    {
      "inputs": [],
      "name": "NotInitializing",
      "type": "error"
    },
    {
      "inputs": [],
      "name": "NotRegistered",
      "type": "error"
    },
    {
      "inputs": [],
      "name": "UUPSNotThroughActiveProxy",
      "type": "error"
    },
    {
      "inputs": [],
      "name": "UUPSNotThroughProxy",
      "type": "error"
    },
    {
      "inputs": [],
      "name": "UnauthorizedUpgrade",
      "type": "error"
    },
    {
      "inputs": [],
      "name": "ZeroAddress",
      "type": "error"
    },
    {
      "anonymous": false,
      "inputs": [
        {
          "indexed": false,
          "internalType": "uint64",
          "name": "version",
          "type": "uint64"
        }
      ],
      "name": "Initialized",
      "type": "event"
    },
    {
      "anonymous": false,
      "inputs": [
        {
          "indexed": true,
          "internalType": "address",
          "name": "optical",
          "type": "address"
        },
        {
          "indexed": false,
          "internalType": "uint256",
          "name": "timestamp",
          "type": "uint256"
        }
      ],
      "name": "OpticalDeregistered",
      "type": "event"
    },
    {
      "anonymous": false,
      "inputs": [
        {
          "indexed": true,
          "internalType": "address",
          "name": "optical",
          "type": "address"
        },
        {
          "indexed": false,
          "internalType": "uint256",
          "name": "timestamp",
          "type": "uint256"
        }
      ],
      "name": "OpticalMetadataUpdated",
      "type": "event"
    },
    {
      "anonymous": false,
      "inputs": [
        {
          "indexed": true,
          "internalType": "address",
          "name": "optical",
          "type": "address"
        },
        {
          "indexed": false,
          "internalType": "string",
          "name": "name",
          "type": "string"
        },
        {
          "indexed": false,
          "internalType": "uint8",
          "name": "riskLevel",
          "type": "uint8"
        },
        {
          "indexed": false,
          "internalType": "uint256",
          "name": "timestamp",
          "type": "uint256"
        }
      ],
      "name": "OpticalRegistered",
      "type": "event"
    },
    {
      "anonymous": false,
      "inputs": [
        {
          "indexed": true,
          "internalType": "bytes32",
          "name": "role",
          "type": "bytes32"
        },
        {
          "indexed": true,
          "internalType": "bytes32",
          "name": "previousAdminRole",
          "type": "bytes32"
        },
        {
          "indexed": true,
          "internalType": "bytes32",
          "name": "newAdminRole",
          "type": "bytes32"
        }
      ],
      "name": "RoleAdminChanged",
      "type": "event"
    },
    {
      "anonymous": false,
      "inputs": [
        {
          "indexed": true,
          "internalType": "bytes32",
          "name": "role",
          "type": "bytes32"
        },
        {
          "indexed": true,
          "internalType": "address",
          "name": "account",
          "type": "address"
        },
        {
          "indexed": true,
          "internalType": "address",
          "name": "sender",
          "type": "address"
        }
      ],
      "name": "RoleGranted",
      "type": "event"
    },
    {
      "anonymous": false,
      "inputs": [
        {
          "indexed": true,
          "internalType": "bytes32",
          "name": "role",
          "type": "bytes32"
        },
        {
          "indexed": true,
          "internalType": "address",
          "name": "account",
          "type": "address"
        },
        {
          "indexed": true,
          "internalType": "address",
          "name": "sender",
          "type": "address"
        }
      ],
      "name": "RoleRevoked",
      "type": "event"
    },
    {
      "anonymous": false,
      "inputs": [
        {
          "indexed": true,
          "internalType": "address",
          "name": "implementation",
          "type": "address"
        }
      ],
      "name": "Upgraded",
      "type": "event"
    },
    {
      "inputs": [],
      "name": "DEFAULT_ADMIN_ROLE",
      "outputs": [
        {
          "internalType": "bytes32",
          "name": "",
          "type": "bytes32"
        }
      ],
      "stateMutability": "view",
      "type": "function"
    },
    {
      "inputs": [
        {
          "internalType": "address",
          "name": "optical",
          "type": "address"
        }
      ],
      "name": "deregisterOptical",
      "outputs": [],
      "stateMutability": "nonpayable",
      "type": "function"
    },
    {
      "inputs": [],
      "name": "eventEmitter",
      "outputs": [
        {
          "internalType": "address",
          "name": "",
          "type": "address"
        }
      ],
      "stateMutability": "view",
      "type": "function"
    },
    {
      "inputs": [
        {
          "internalType": "uint256",
          "name": "offset",
          "type": "uint256"
        },
        {
          "internalType": "uint256",
          "name": "limit",
          "type": "uint256"
        }
      ],
      "name": "getAllOpticals",
      "outputs": [
        {
          "internalType": "address[]",
          "name": "",
          "type": "address[]"
        }
      ],
      "stateMutability": "view",
      "type": "function"
    },
    {
      "inputs": [],
      "name": "getOpticalCount",
      "outputs": [
        {
          "internalType": "uint256",
          "name": "",
          "type": "uint256"
        }
      ],
      "stateMutability": "view",
      "type": "function"
    },
    {
      "inputs": [
        {
          "internalType": "address",
          "name": "optical",
          "type": "address"
        }
      ],
      "name": "getOpticalMetadata",
      "outputs": [
        {
          "components": [
            {
              "internalType": "string",
              "name": "name",
              "type": "string"
            },
            {
              "internalType": "string",
              "name": "description",
              "type": "string"
            },
            {
              "internalType": "uint8",
              "name": "riskLevel",
              "type": "uint8"
            },
            {
              "internalType": "string",
              "name": "auditor",
              "type": "string"
            },
            {
              "internalType": "uint256",
              "name": "registeredAt",
              "type": "uint256"
            }
          ],
          "internalType": "struct OpticalRegistry.OpticalMetadata",
          "name": "",
          "type": "tuple"
        }
      ],
      "stateMutability": "view",
      "type": "function"
    },
    {
      "inputs": [
        {
          "internalType": "bytes32",
          "name": "role",
          "type": "bytes32"
        }
      ],
      "name": "getRoleAdmin",
      "outputs": [
        {
          "internalType": "bytes32",
          "name": "",
          "type": "bytes32"
        }
      ],
      "stateMutability": "view",
      "type": "function"
    },
    {
      "inputs": [
        {
          "internalType": "bytes32",
          "name": "role",
          "type": "bytes32"
        },
        {
          "internalType": "address",
          "name": "account",
          "type": "address"
        }
      ],
      "name": "grantRole",
      "outputs": [],
      "stateMutability": "nonpayable",
      "type": "function"
    },
    {
      "inputs": [
        {
          "internalType": "bytes32",
          "name": "role",
          "type": "bytes32"
        },
        {
          "internalType": "address",
          "name": "account",
          "type": "address"
        }
      ],
      "name": "hasRole",
      "outputs": [
        {
          "internalType": "bool",
          "name": "",
          "type": "bool"
        }
      ],
      "stateMutability": "view",
      "type": "function"
    },
    {
      "inputs": [
        {
          "internalType": "address",
          "name": "_eventEmitter",
          "type": "address"
        },
        {
          "internalType": "address",
          "name": "_admin",
          "type": "address"
        }
      ],
      "name": "initialize",
      "outputs": [],
      "stateMutability": "nonpayable",
      "type": "function"
    },
    {
      "inputs": [
        {
          "internalType": "address",
          "name": "optical",
          "type": "address"
        }
      ],
      "name": "isRegistered",
      "outputs": [
        {
          "internalType": "bool",
          "name": "",
          "type": "bool"
        }
      ],
      "stateMutability": "view",
      "type": "function"
    },
    {
      "inputs": [],
      "name": "proxiableUUID",
      "outputs": [
        {
          "internalType": "bytes32",
          "name": "",
          "type": "bytes32"
        }
      ],
      "stateMutability": "view",
      "type": "function"
    },
    {
      "inputs": [
        {
          "internalType": "address",
          "name": "optical",
          "type": "address"
        },
        {
          "internalType": "string",
          "name": "name",
          "type": "string"
        },
        {
          "internalType": "string",
          "name": "description",
          "type": "string"
        },
        {
          "internalType": "uint8",
          "name": "riskLevel",
          "type": "uint8"
        },
        {
          "internalType": "string",
          "name": "auditor",
          "type": "string"
        }
      ],
      "name": "registerOptical",
      "outputs": [],
      "stateMutability": "nonpayable",
      "type": "function"
    },
    {
      "inputs": [
        {
          "internalType": "bytes32",
          "name": "role",
          "type": "bytes32"
        },
        {
          "internalType": "address",
          "name": "callerConfirmation",
          "type": "address"
        }
      ],
      "name": "renounceRole",
      "outputs": [],
      "stateMutability": "nonpayable",
      "type": "function"
    },
    {
      "inputs": [
        {
          "internalType": "bytes32",
          "name": "role",
          "type": "bytes32"
        },
        {
          "internalType": "address",
          "name": "account",
          "type": "address"
        }
      ],
      "name": "revokeRole",
      "outputs": [],
      "stateMutability": "nonpayable",
      "type": "function"
    },
    {
      "inputs": [
        {
          "internalType": "address",
          "name": "optical",
          "type": "address"
        },
        {
          "internalType": "string",
          "name": "name",
          "type": "string"
        },
        {
          "internalType": "string",
          "name": "description",
          "type": "string"
        },
        {
          "internalType": "uint8",
          "name": "riskLevel",
          "type": "uint8"
        },
        {
          "internalType": "string",
          "name": "auditor",
          "type": "string"
        }
      ],
      "name": "updateMetadata",
      "outputs": [],
      "stateMutability": "nonpayable",
      "type": "function"
    },
    {
      "inputs": [
        {
          "internalType": "address",
          "name": "newImplementation",
          "type": "address"
        },
        {
          "internalType": "bytes",
          "name": "data",
          "type": "bytes"
        }
      ],
      "name": "upgradeToAndCall",
      "outputs": [],
      "stateMutability": "payable",
      "type": "function"
    }
  ],
  "bytecode": "0x60a080604052346100c557306080526000805160206119768339815191525460ff8160401c166100b5576002600160401b03196001600160401b03821601610061575b6040516118ab90816100cb823960805181818161082401526108d40152f35b6001600160401b0319166001600160401b039081176000805160206119768339815191525581527fc7f505b2f371ae2175ee4913f4499e1f2633a7b5936321eed1cdaeb6115181d290602090a13880610042565b62dc149f60e41b60005260046000fd5b600080fdfe6080604052600436101561001257600080fd5b60003560e01c80630ca6ea4514610d43578063127bbbb914610cd6578063248a9ca314610ca15780632f2ff15d14610c6157806336568abe14610c12578063485cc95514610a995780634f1ef2861461088d57806352d1902d1461081157806363f4b1cb146107f357806391d14854146107a657806396dc70d6146103505780639ff78c3014610327578063a217fddf1461030b578063aca74a4b14610276578063c3c5a54714610237578063d1a704ba146101255763d547741f146100d757600080fd5b346101205760403660031901126101205761011e6004356100f6611209565b9061011961011282600052600060205260016040600020015490565b3390611640565b6117cd565b005b600080fd5b346101205760203660031901126101205761013e61121f565b6000608060405161014e816112f6565b6060815260606020820152826040820152606080820152015260018060a01b031660005260026020526101ff60406000206040519061018c826112f6565b61019581611539565b825261022c6101a660018301611539565b916020840192835260ff600282015416906040850191825260ff61021260046101d160038501611539565b93606089019485520154956080880196875260405198899860208a525160a060208b015260c08a0190611384565b9051888203601f190160408a0152611384565b925116606086015251848203601f19016080860152611384565b905160a08301520390f35b34610120576020366003190112610120576001600160a01b0361025861121f565b166000526001602052602060ff604060002054166040519015158152f35b346101205760203660031901126101205761028f61121f565b610298336115dd565b6001600160a01b031660008181526001602052604090205460ff16156102fa57806000526001602052604060002060ff1981541690557f64429f557e3cc9e0bdcf3e8fcf12540e02fc6455d922b047f3f9a4ab805e8c706020604051428152a2005b63aba4733960e01b60005260046000fd5b3461012057600036600319011261012057602060405160008152f35b34610120576000366003190112610120576004546040516001600160a01b039091168152602090f35b346101205761035e36611262565b9391929661036e969596336115dd565b6001600160a01b031660008181526001602052604090205490979060ff16156102fa576103e5926103cc918960005260026020526103c3600460406000200154986040519a6103bc8c6112f6565b369161134d565b8952369161134d565b936020870194855260ff6040880194168452369161134d565b916060850192835260808501938452856000526002602052604060002094518051906001600160401b03821161060a57819061042188546113c5565b601f8111610753575b50602090601f83116001146106ee576000926106e3575b50508160011b916000199060031b1c19161785555b51805160018601916001600160401b03821161060a57819061047884546113c5565b601f8111610690575b50602090601f831160011461062b57600092610620575b50508160011b916000199060031b1c19161790555b60ff6002850191511660ff198254161790556003830190518051906001600160401b03821161060a576104e083546113c5565b601f81116105c2575b50602090601f8311600114610557576004949392916000918361054c575b50508160011b916000199060031b1c19161790555b519101557f8eaccc7b2883f4f89be68728ead58bdeeedef8263bc2f8bb03ae630867ede33a6020604051428152a2005b015190508780610507565b90601f1983169184600052816000209260005b8181106105aa575091600193918560049897969410610591575b505050811b01905561051c565b015160001960f88460031b161c19169055878080610584565b9293602060018192878601518155019501930161056a565b836000526020600020601f840160051c81019160208510610600575b601f0160051c01905b8181106105f457506104e9565b600081556001016105e7565b90915081906105de565b634e487b7160e01b600052604160045260246000fd5b015190508880610498565b60008581528281209350601f198516905b818110610678575090846001959493921061065f575b505050811b0190556104ad565b015160001960f88460031b161c19169055888080610652565b9293602060018192878601518155019501930161063c565b909150836000526020600020601f840160051c810191602085106106d9575b90601f859493920160051c01905b8181106106ca5750610481565b600081558493506001016106bd565b90915081906106af565b015190508880610441565b60008981528281209350601f198516905b81811061073b5750908460019594939210610722575b505050811b018555610456565b015160001960f88460031b161c19169055888080610715565b929360206001819287860151815501950193016106ff565b909150876000526020600020601f840160051c8101916020851061079c575b90601f859493920160051c01905b81811061078d575061042a565b60008155849350600101610780565b9091508190610772565b34610120576040366003190112610120576107bf611209565b600435600052600060205260406000209060018060a01b0316600052602052602060ff604060002054166040519015158152f35b34610120576000366003190112610120576020600354604051908152f35b34610120576000366003190112610120577f00000000000000000000000000000000000000000000000000000000000000006001600160a01b0316300361087c5760206040517f360894a13ba1a3210667c828492db98dca3e2076cc3735a920a3ca505d382bbc8152f35b6345a93fc960e01b60005260046000fd5b6040366003190112610120576108a161121f565b6024356001600160401b0381116101205736602382011215610120576108d190369060248160040135910161134d565b307f00000000000000000000000000000000000000000000000000000000000000006001600160a01b031614610a885761090a336115dd565b6040516352d1902d60e01b81526001600160a01b03831690602081600481855afa60009181610a54575b5061094a5763340aafcd60e11b60005260046000fd5b7f360894a13ba1a3210667c828492db98dca3e2076cc3735a920a3ca505d382bbc03610a4357823b15610a4357827f360894a13ba1a3210667c828492db98dca3e2076cc3735a920a3ca505d382bbc557fbc7cd75a20ee27fd9adebab32041f755214dbc6bffa90cc0225b39da2e5c2d3b600080a28051806109c857005b6000926020849301905af43d15610a3e573d6109e381611332565b906109f16040519283611311565b8152600060203d92013e5b15610a0357005b60405162461bcd60e51b81526020600482015260136024820152721d5c19dc985919481a5b9a5d0819985a5b1959606a1b6044820152606490fd5b6109fc565b63340aafcd60e11b60005260046000fd5b9091506020813d602011610a80575b81610a7060209383611311565b8101031261012057519085610934565b3d9150610a63565b6309e1070b60e31b60005260046000fd5b3461012057604036600319011261012057610ab261121f565b610aba611209565b90600080516020611856833981519152549160ff8360401c1615926001600160401b038116600181101580610c0b575b610bf357151580610c03575b610bf35783610bcb575b50600080516020611856833981519152805467ffffffffffffffff191660011790556001600160a01b03811615610bba57610b5a9160018060a01b03166bffffffffffffffffffffffff60a01b600454161760045561168e565b50610b6157005b68ff0000000000000000196000805160206118568339815191525416600080516020611856833981519152557fc7f505b2f371ae2175ee4913f4499e1f2633a7b5936321eed1cdaeb6115181d2602060405160018152a1005b63d92e233d60e01b60005260046000fd5b68ff00000000000000001916600160401b176000805160206118568339815191525583610b00565b62dc149f60e41b60005260046000fd5b508315610af6565b5084610aea565b3461012057604036600319011261012057600435610c2e611209565b336001600160a01b0390911603610c4a5761011e9033906117cd565b62b0d32560e11b6000523360045260245260446000fd5b346101205760403660031901126101205761011e600435610c80611209565b90610c9c61011282600052600060205260016040600020015490565b611741565b34610120576020366003190112610120576020610cce600435600052600060205260016040600020015490565b604051908152f35b3461012057604036600319011261012057610cf560243560043561146a565b60405180916020820160208352815180915260206040840192019060005b818110610d21575050500390f35b82516001600160a01b0316845285945060209384019390920191600101610d13565b3461012057610d5136611262565b9396610d5f929192336115dd565b6001600160a01b0316968715610bba5787600052600160205260ff604060002054166111f857610dc6610de1918960005260016020526040600020600160ff1982541617905560405195610db2876112f6565b610dbd368a8c61134d565b8752369161134d565b926020850193845260ff60408601931695868452369161134d565b90606084019182526080840192428452886000526002602052604060002094518051906001600160401b03821161060a578190610e1e88546113c5565b601f81116111a5575b50602090601f831160011461114057600092611135575b50508160011b916000199060031b1c19161785555b51805160018601916001600160401b03821161060a578190610e7584546113c5565b601f81116110e2575b50602090601f831160011461107d57600092611072575b50508160011b916000199060031b1c19161790555b60ff6002850191511660ff198254161790556003830190518051906001600160401b03821161060a57610edd83546113c5565b601f811161102a575b50602090601f8311600114610fbf5760049493929160009183610fb4575b50508160011b916000199060031b1c19161790555b5191015560035492600160401b84101561060a5782608092610f628660017fd6bb0ede8c30acc5497e1631158cb7a402c4fdd39835785bbc97cbb3c015edf298016003556113ff565b81546001600160a01b0360039290921b91821b19169089901b179055604051606080825281018690529485938585013760008383018501526020830152426040830152601f01601f19168101030190a2005b015190508a80610f04565b90601f1983169184600052816000209260005b818110611012575091600193918560049897969410610ff9575b505050811b019055610f19565b015160001960f88460031b161c191690558a8080610fec565b92936020600181928786015181550195019301610fd2565b836000526020600020601f840160051c81019160208510611068575b601f0160051c01905b81811061105c5750610ee6565b6000815560010161104f565b9091508190611046565b015190508b80610e95565b60008581528281209350601f198516905b8181106110ca57509084600195949392106110b1575b505050811b019055610eaa565b015160001960f88460031b161c191690558b80806110a4565b9293602060018192878601518155019501930161108e565b909150836000526020600020601f840160051c8101916020851061112b575b90601f859493920160051c01905b81811061111c5750610e7e565b6000815584935060010161110f565b9091508190611101565b015190508b80610e3e565b60008981528281209350601f198516905b81811061118d5750908460019594939210611174575b505050811b018555610e53565b015160001960f88460031b161c191690558b8080611167565b92936020600181928786015181550195019301611151565b909150876000526020600020601f840160051c810191602085106111ee575b90601f859493920160051c01905b8181106111df5750610e27565b600081558493506001016111d2565b90915081906111c4565b630ea075bf60e21b60005260046000fd5b602435906001600160a01b038216820361012057565b600435906001600160a01b038216820361012057565b9181601f84011215610120578235916001600160401b038311610120576020838186019501011161012057565b60a0600319820112610120576004356001600160a01b038116810361012057916024356001600160401b03811161012057826112a091600401611235565b929092916044356001600160401b03811161012057826112c291600401611235565b9290929160643560ff811681036101205791608435906001600160401b038211610120576112f291600401611235565b9091565b60a081019081106001600160401b0382111761060a57604052565b90601f801991011681019081106001600160401b0382111761060a57604052565b6001600160401b03811161060a57601f01601f191660200190565b92919261135982611332565b916113676040519384611311565b829481845281830111610120578281602093846000960137010152565b919082519283825260005b8481106113b0575050826000602080949584010152601f8019910116010190565b8060208092840101518282860101520161138f565b90600182811c921680156113f5575b60208310146113df57565b634e487b7160e01b600052602260045260246000fd5b91607f16916113d4565b60035481101561141a57600360005260206000200190600090565b634e487b7160e01b600052603260045260246000fd5b6001600160401b03811161060a5760051b60200190565b9190820180921161145457565b634e487b7160e01b600052601160045260246000fd5b90600354908183101561151c576114819083611447565b90808211611514575b508181039081116114545761149e81611430565b916114ac6040519384611311565b818352601f196114bb83611430565b0136602085013760005b8281106114d25750505090565b6114e46114df8284611447565b6113ff565b9054855160039290921b1c6001600160a01b0316919081101561141a5760019160208260051b87010152016114c5565b90503861148a565b50505060405161152d602082611311565b60008152600036813790565b906040519182600082549261154d846113c5565b80845293600181169081156115bb5750600114611574575b5061157292500383611311565b565b90506000929192526020600020906000915b81831061159f5750509060206115729282010138611565565b6020919350806001915483858901015201910190918492611586565b90506020925061157294915060ff191682840152151560051b82010138611565565b6001600160a01b03811660009081527fad3228b676f7d3cd4284a5443f17f1962b36e491b30a40b2405849e597ba5fb5602052604090205460ff16156116205750565b62b0d32560e11b60005260018060a01b0316600452600060245260446000fd5b90816000526000602052604060002060018060a01b03821660005260205260ff6040600020541615611670575050565b62b0d32560e11b60005260018060a01b031660045260245260446000fd5b6001600160a01b03811660009081527fad3228b676f7d3cd4284a5443f17f1962b36e491b30a40b2405849e597ba5fb5602052604090205460ff16156116d45750600090565b6001600160a01b031660008181527fad3228b676f7d3cd4284a5443f17f1962b36e491b30a40b2405849e597ba5fb560205260408120805460ff191660011790553391907f2f8788117e7eff1d82e926ec794901d17c78024a50270940304540a733656f0d8180a4600190565b6000818152602081815260408083206001600160a01b038616845290915290205460ff1615611771575050600090565b6000818152602081815260408083206001600160a01b0395909516808452949091528120805460ff19166001179055339291907f2f8788117e7eff1d82e926ec794901d17c78024a50270940304540a733656f0d9080a4600190565b6000818152602081815260408083206001600160a01b038616845290915290205460ff166117fc575050600090565b6000818152602081815260408083206001600160a01b0395909516808452949091528120805460ff19169055339291907ff6391f5c32d9c69d2a47ea670b442974b53935d1edc7fd64eb21e047a839171b9080a460019056fe4377386e2795aba8c0ce23a1e6e67bac790e4b4166f14b7e9365049ab946f8c0a26469706673582212204a0b2115b4229fbfdbbfffb412369ad805b6f0d7bc165f382ae5171a6338165c64736f6c634300081b00334377386e2795aba8c0ce23a1e6e67bac790e4b4166f14b7e9365049ab946f8c0",
  "linkReferences": {},
  "deployedLinkReferences": {}
}