{
  "_format": "hh-sol-artifact-1",
  "contractName": "MockReentrancyGuard",
  "sourceName": "contracts/test/MockReentrancy.sol",
  "abi": [
    {
      "inputs": [],
      "name": "ReentrancyGuardReentrantCall",
      "type": "error"
    },
    {
      "inputs": [],
      "name": "counter",
      "outputs": [
        {
          "internalType": "uint256",
          "name": "",
          "type": "uint256"
        }
      ],
      "stateMutability": "view",
      "type": "function"
    },
    {
      "inputs": [],
      "name": "crossFunctionReentrantCall",
      "outputs": [],
      "stateMutability": "nonpayable",
      "type": "function"
    },
    {
      "inputs": [],
      "name": "protectedIncrement",
      "outputs": [],
      "stateMutability": "nonpayable",
      "type": "function"
    },
    {
      "inputs": [],
      "name": "reentrantCall",
      "outputs": [],
      "stateMutability": "nonpayable",
      "type": "function"
    },
    {
      "inputs": [],
      "name": "unprotectedIncrement",
      "outputs": [],
      "stateMutability": "nonpayable",
      "type": "function"
    }
  ],
  "bytecode": "0x6080806040523460395760017f9b779b17422d0df92223018b32b4d1fa46e071723d6817e2486d003becc55f005561021b908161003f8239f35b600080fdfe6080604052600436101561001257600080fd5b60003560e01c8063080017f1146100535780630ae1fd6c146100de5780630f648d6d146100bd57806361bc221a1461009f5763628ff0741461005357600080fd5b3461009a57600036600319011261009a5761006c610185565b6100746100f9565b60017f9b779b17422d0df92223018b32b4d1fa46e071723d6817e2486d003becc55f0055005b600080fd5b3461009a57600036600319011261009a576020600054604051908152f35b3461009a57600036600319011261009a576100d6610185565b61007461015b565b3461009a57600036600319011261009a576100f761015b565b005b303b1561009a57604051630f648d6d60e01b8152600090818160048183305af1801561015057610127575050565b67ffffffffffffffff811161013c5760405250565b634e487b7160e01b82526041600452602482fd5b6040513d84823e3d90fd5b600054600019811461016f57600101600055565b634e487b7160e01b600052601160045260246000fd5b60027f9b779b17422d0df92223018b32b4d1fa46e071723d6817e2486d003becc55f0054146101d45760027f9b779b17422d0df92223018b32b4d1fa46e071723d6817e2486d003becc55f0055565b633ee5aeb560e01b60005260046000fdfea26469706673582212206a6c5506a81992194a0885de82a053f4bf7edbd2c25e7a5b85b8ce52f6267a0564736f6c634300081b0033",
  "linkReferences": {},
  "deployedLinkReferences": {}
}