{
  "_format": "hh-sol-artifact-1",
  "contractName": "ReentrancyAttacker",
  "sourceName": "contracts/test/MockReentrancy.sol",
  "abi": [
    {
      "inputs": [
        {
          "internalType": "address",
          "name": "_target",
          "type": "address"
        }
      ],
      "stateMutability": "nonpayable",
      "type": "constructor"
    },
    {
      "inputs": [],
      "name": "attack",
      "outputs": [],
      "stateMutability": "nonpayable",
      "type": "function"
    },
    {
      "inputs": [],
      "name": "attackCount",
      "outputs": [
        {
          "internalType": "uint256",
          "name": "",
          "type": "uint256"
        }
      ],
      "stateMutability": "view",
      "type": "function"
    },
    {
      "inputs": [],
      "name": "target",
      "outputs": [
        {
          "internalType": "contract MockReentrancyGuard",
          "name": "",
          "type": "address"
        }
      ],
      "stateMutability": "view",
      "type": "function"
    },
    {
      "stateMutability": "payable",
      "type": "receive"
    }
  ],
  "bytecode": "0x608034607057601f61027238819003918201601f19168301916001600160401b03831184841017607557808492602094604052833981010312607057516001600160a01b03811690819003607057600080546001600160a01b0319169190911790556040516101e6908161008c8239f35b600080fd5b634e487b7160e01b600052604160045260246000fdfe60808060405260043610156100a0575b50361561001b57600080fd5b6001546000906003811061002b57005b600019811461008c5760019081019055805481906001600160a01b0316803b15610089578190600460405180948193630f648d6d60e01b83525af1801561007e5761007257005b8161007c91610178565b005b6040513d84823e3d90fd5b50fd5b634e487b7160e01b82526011600452602482fd5b600090813560e01c908163407c282114610158575080639e5faafc146100f35763d4b839920361000f57346100f057806003193601126100f057546040516001600160a01b039091168152602090f35b80fd5b50346100f057806003193601126100f057805481906001600160a01b0316803b1561008957818091600460405180958193630f648d6d60e01b83525af1801561014b5761013d5780f35b61014691610178565b388180f35b50604051903d90823e3d90fd5b9050346101745781600319360112610174576020906001548152f35b5080fd5b90601f8019910116810190811067ffffffffffffffff82111761019a57604052565b634e487b7160e01b600052604160045260246000fdfea2646970667358221220423b633990aed197a3ecb55387b2b7bebe449ee0fb74881dcae84d3092c92ed264736f6c634300081b0033",
  "linkReferences": {},
  "deployedLinkReferences": {}
}