{"contracts/test/MockPoolRegistry.sol":{"MockPoolRegistry":{"abi":[{"inputs":[{"internalType":"address","name":"pool","type":"address"}],"name":"isRegisteredPool","outputs":[{"internalType":"bool","name":"","type":"bool"}],"stateMutability":"view","type":"function"},{"inputs":[{"internalType":"address","name":"pool","type":"address"},{"internalType":"bool","name":"registered","type":"bool"}],"name":"setRegistered","outputs":[],"stateMutability":"nonpayable","type":"function"}],"evm":{"bytecode":{"linkReferences":{},"object":"60808060405234601557610102908161001b8239f35b600080fdfe6080806040526004361015601257600080fd5b60003560e01c908163c699e633146080575063fc353ae514603257600080fd5b34607b576040366003190112607b57604760b7565b60243590811515809203607b5760018060a01b0316600052600060205260406000209060ff80198354169116179055600080f35b600080fd5b34607b576020366003190112607b576020906001600160a01b0360a060b7565b166000526000825260ff6040600020541615158152f35b600435906001600160a01b0382168203607b5756fea264697066735822122005231a56371ac6f5915b62f2bf96c4761c3421cdd0375b7831ffabb305badecb64736f6c634300081b0033","opcodes":"PUSH1 0x80 DUP1 PUSH1 0x40 MSTORE CALLVALUE PUSH1 0x15 JUMPI PUSH2 0x102 SWAP1 DUP2 PUSH2 0x1B DUP3 CODECOPY RETURN JUMPDEST PUSH1 0x0 DUP1 REVERT INVALID PUSH1 0x80 DUP1 PUSH1 0x40 MSTORE PUSH1 0x4 CALLDATASIZE LT ISZERO PUSH1 0x12 JUMPI PUSH1 0x0 DUP1 REVERT JUMPDEST PUSH1 0x0 CALLDATALOAD PUSH1 0xE0 SHR SWAP1 DUP2 PUSH4 0xC699E633 EQ PUSH1 0x80 JUMPI POP PUSH4 0xFC353AE5 EQ PUSH1 0x32 JUMPI PUSH1 0x0 DUP1 REVERT JUMPDEST CALLVALUE PUSH1 0x7B JUMPI PUSH1 0x40 CALLDATASIZE PUSH1 0x3 NOT ADD SLT PUSH1 0x7B JUMPI PUSH1 0x47 PUSH1 0xB7 JUMP JUMPDEST PUSH1 0x24 CALLDATALOAD SWAP1 DUP2 ISZERO ISZERO DUP1 SWAP3 SUB PUSH1 0x7B JUMPI PUSH1 0x1 DUP1 PUSH1 0xA0 SHL SUB AND PUSH1 0x0 MSTORE PUSH1 0x0 PUSH1 0x20 MSTORE PUSH1 0x40 PUSH1 0x0 KECCAK256 SWAP1 PUSH1 0xFF DUP1 NOT DUP4 SLOAD AND SWAP2 AND OR SWAP1 SSTORE PUSH1 0x0 DUP1 RETURN JUMPDEST PUSH1 0x0 DUP1 REVERT JUMPDEST CALLVALUE PUSH1 0x7B JUMPI PUSH1 0x20 CALLDATASIZE PUSH1 0x3 NOT ADD SLT PUSH1 0x7B JUMPI PUSH1 0x20 SWAP1 PUSH1 0x1 PUSH1 0x1 PUSH1 0xA0 SHL SUB PUSH1 0xA0 PUSH1 0xB7 JUMP JUMPDEST AND PUSH1 0x0 MSTORE PUSH1 0x0 DUP3 MSTORE PUSH1 0xFF PUSH1 0x40 PUSH1 0x0 KECCAK256 SLOAD AND ISZERO ISZERO DUP2 MSTORE RETURN JUMPDEST PUSH1 0x4 CALLDATALOAD SWAP1 PUSH1 0x1 PUSH1 0x1 PUSH1 0xA0 SHL SUB DUP3 AND DUP3 SUB PUSH1 0x7B JUMPI JUMP INVALID LOG2 PUSH5 0x6970667358 0x22 SLT KECCAK256 SDIV 0x23 BYTE JUMP CALLDATACOPY BYTE 0xC6 CREATE2 SWAP2 JUMPDEST PUSH3 0xF2BF96 0xC4 PUSH23 0x1C3421CDD0375B7831FFABB305BADECB64736F6C634300 ADDMOD SHL STOP CALLER "},"methodIdentifiers":{"isRegisteredPool(address)":"c699e633","setRegistered(address,bool)":"fc353ae5"}},"storageLayout":{"storage":[{"astId":40,"contract":"contracts/test/MockPoolRegistry.sol:MockPoolRegistry","label":"_registered","offset":0,"slot":"0","type":"t_mapping(t_address,t_bool)"}],"types":{"t_address":{"encoding":"inplace","label":"address","numberOfBytes":"20"},"t_bool":{"encoding":"inplace","label":"bool","numberOfBytes":"1"},"t_mapping(t_address,t_bool)":{"encoding":"mapping","key":"t_address","label":"mapping(address => bool)","numberOfBytes":"32","value":"t_bool"}}}}}}