{
  "_format": "hh-sol-artifact-1",
  "contractName": "MetaAGRouter",
  "sourceName": "contracts/meta-ag/router/MetaAGRouter.sol",
  "abi": [
    {
      "inputs": [],
      "stateMutability": "nonpayable",
      "type": "constructor"
    },
    {
      "inputs": [],
      "name": "AdapterAlreadyRegistered",
      "type": "error"
    },
    {
      "inputs": [],
      "name": "AdapterInactive",
      "type": "error"
    },
    {
      "inputs": [],
      "name": "AdapterNotFound",
      "type": "error"
    },
    {
      "inputs": [],
      "name": "AlreadyInitialized",
      "type": "error"
    },
    {
      "inputs": [],
      "name": "ApproveFailed",
      "type": "error"
    },
    {
      "inputs": [],
      "name": "BestQuoteUnavailable",
      "type": "error"
    },
    {
      "inputs": [],
      "name": "DeadlineExpired",
      "type": "error"
    },
    {
      "inputs": [],
      "name": "DivisionByZero",
      "type": "error"
    },
    {
      "inputs": [],
      "name": "InvalidBps",
      "type": "error"
    },
    {
      "inputs": [],
      "name": "InvalidImplementation",
      "type": "error"
    },
    {
      "inputs": [],
      "name": "InvalidImplementation",
      "type": "error"
    },
    {
      "inputs": [],
      "name": "MaxAdaptersReached",
      "type": "error"
    },
    {
      "inputs": [],
      "name": "MaxHopsExceeded",
      "type": "error"
    },
    {
      "inputs": [
        {
          "internalType": "address",
          "name": "account",
          "type": "address"
        },
        {
          "internalType": "bytes32",
          "name": "role",
          "type": "bytes32"
        }
      ],
      "name": "MissingRole",
      "type": "error"
    },
    {
      "inputs": [
        {
          "internalType": "uint256",
          "name": "index",
          "type": "uint256"
        },
        {
          "internalType": "bytes",
          "name": "reason",
          "type": "bytes"
        }
      ],
      "name": "MulticallFailed",
      "type": "error"
    },
    {
      "inputs": [],
      "name": "NoAdaptersAvailable",
      "type": "error"
    },
    {
      "inputs": [],
      "name": "NotInitializing",
      "type": "error"
    },
    {
      "inputs": [],
      "name": "NotPaused",
      "type": "error"
    },
    {
      "inputs": [],
      "name": "OracleSanityFailed",
      "type": "error"
    },
    {
      "inputs": [],
      "name": "Overflow",
      "type": "error"
    },
    {
      "inputs": [],
      "name": "Paused",
      "type": "error"
    },
    {
      "inputs": [],
      "name": "QuoteUnavailable",
      "type": "error"
    },
    {
      "inputs": [],
      "name": "ReentrancyGuardReentrantCall",
      "type": "error"
    },
    {
      "inputs": [],
      "name": "SameToken",
      "type": "error"
    },
    {
      "inputs": [],
      "name": "SlippageTooHigh",
      "type": "error"
    },
    {
      "inputs": [],
      "name": "TooFewHops",
      "type": "error"
    },
    {
      "inputs": [],
      "name": "TransferFromFailed",
      "type": "error"
    },
    {
      "inputs": [],
      "name": "UUPSNotThroughActiveProxy",
      "type": "error"
    },
    {
      "inputs": [],
      "name": "UUPSNotThroughProxy",
      "type": "error"
    },
    {
      "inputs": [],
      "name": "UnauthorizedUpgrade",
      "type": "error"
    },
    {
      "inputs": [],
      "name": "ZeroAddress",
      "type": "error"
    },
    {
      "inputs": [],
      "name": "ZeroAmount",
      "type": "error"
    },
    {
      "anonymous": false,
      "inputs": [
        {
          "indexed": true,
          "internalType": "bytes32",
          "name": "adapterId",
          "type": "bytes32"
        }
      ],
      "name": "AdapterActivated",
      "type": "event"
    },
    {
      "anonymous": false,
      "inputs": [
        {
          "indexed": true,
          "internalType": "bytes32",
          "name": "adapterId",
          "type": "bytes32"
        }
      ],
      "name": "AdapterDeactivated",
      "type": "event"
    },
    {
      "anonymous": false,
      "inputs": [
        {
          "indexed": true,
          "internalType": "bytes32",
          "name": "adapterId",
          "type": "bytes32"
        },
        {
          "indexed": true,
          "internalType": "address",
          "name": "adapter",
          "type": "address"
        },
        {
          "indexed": false,
          "internalType": "string",
          "name": "name",
          "type": "string"
        }
      ],
      "name": "AdapterRegistered",
      "type": "event"
    },
    {
      "anonymous": false,
      "inputs": [
        {
          "indexed": true,
          "internalType": "address",
          "name": "user",
          "type": "address"
        },
        {
          "indexed": true,
          "internalType": "address",
          "name": "tokenIn",
          "type": "address"
        },
        {
          "indexed": true,
          "internalType": "address",
          "name": "tokenOut",
          "type": "address"
        },
        {
          "indexed": false,
          "internalType": "uint256",
          "name": "amountIn",
          "type": "uint256"
        },
        {
          "indexed": false,
          "internalType": "uint256",
          "name": "amountOut",
          "type": "uint256"
        },
        {
          "indexed": false,
          "internalType": "bytes32",
          "name": "adapterId",
          "type": "bytes32"
        }
      ],
      "name": "BestRouteSwap",
      "type": "event"
    },
    {
      "anonymous": false,
      "inputs": [
        {
          "indexed": false,
          "internalType": "uint64",
          "name": "version",
          "type": "uint64"
        }
      ],
      "name": "Initialized",
      "type": "event"
    },
    {
      "anonymous": false,
      "inputs": [
        {
          "indexed": true,
          "internalType": "address",
          "name": "user",
          "type": "address"
        },
        {
          "indexed": true,
          "internalType": "address",
          "name": "tokenIn",
          "type": "address"
        },
        {
          "indexed": true,
          "internalType": "address",
          "name": "tokenOut",
          "type": "address"
        },
        {
          "indexed": false,
          "internalType": "uint256",
          "name": "amountIn",
          "type": "uint256"
        },
        {
          "indexed": false,
          "internalType": "uint256",
          "name": "amountOut",
          "type": "uint256"
        },
        {
          "indexed": false,
          "internalType": "uint256",
          "name": "hops",
          "type": "uint256"
        }
      ],
      "name": "MultiHopSwap",
      "type": "event"
    },
    {
      "anonymous": false,
      "inputs": [
        {
          "indexed": true,
          "internalType": "address",
          "name": "hub",
          "type": "address"
        }
      ],
      "name": "OracleHubUpdated",
      "type": "event"
    },
    {
      "anonymous": false,
      "inputs": [
        {
          "indexed": true,
          "internalType": "address",
          "name": "tokenOut",
          "type": "address"
        },
        {
          "indexed": false,
          "internalType": "uint256",
          "name": "expectedPrice",
          "type": "uint256"
        },
        {
          "indexed": false,
          "internalType": "uint256",
          "name": "actualAmountOut",
          "type": "uint256"
        },
        {
          "indexed": false,
          "internalType": "uint256",
          "name": "deviationBps",
          "type": "uint256"
        }
      ],
      "name": "OracleSanityCheckFailed",
      "type": "event"
    },
    {
      "anonymous": false,
      "inputs": [
        {
          "indexed": false,
          "internalType": "uint256",
          "name": "bps",
          "type": "uint256"
        }
      ],
      "name": "OracleSanityDeviationUpdated",
      "type": "event"
    },
    {
      "anonymous": false,
      "inputs": [
        {
          "indexed": false,
          "internalType": "bool",
          "name": "enabled",
          "type": "bool"
        }
      ],
      "name": "OracleSanityEnabledUpdated",
      "type": "event"
    },
    {
      "anonymous": false,
      "inputs": [
        {
          "indexed": false,
          "internalType": "bool",
          "name": "paused",
          "type": "bool"
        }
      ],
      "name": "PauseToggled",
      "type": "event"
    },
    {
      "anonymous": false,
      "inputs": [
        {
          "indexed": true,
          "internalType": "bytes32",
          "name": "role",
          "type": "bytes32"
        },
        {
          "indexed": true,
          "internalType": "bytes32",
          "name": "previousAdminRole",
          "type": "bytes32"
        },
        {
          "indexed": true,
          "internalType": "bytes32",
          "name": "newAdminRole",
          "type": "bytes32"
        }
      ],
      "name": "RoleAdminChanged",
      "type": "event"
    },
    {
      "anonymous": false,
      "inputs": [
        {
          "indexed": true,
          "internalType": "bytes32",
          "name": "role",
          "type": "bytes32"
        },
        {
          "indexed": true,
          "internalType": "address",
          "name": "account",
          "type": "address"
        },
        {
          "indexed": true,
          "internalType": "address",
          "name": "sender",
          "type": "address"
        }
      ],
      "name": "RoleGranted",
      "type": "event"
    },
    {
      "anonymous": false,
      "inputs": [
        {
          "indexed": true,
          "internalType": "bytes32",
          "name": "role",
          "type": "bytes32"
        },
        {
          "indexed": true,
          "internalType": "address",
          "name": "account",
          "type": "address"
        },
        {
          "indexed": true,
          "internalType": "address",
          "name": "sender",
          "type": "address"
        }
      ],
      "name": "RoleRevoked",
      "type": "event"
    },
    {
      "anonymous": false,
      "inputs": [
        {
          "indexed": true,
          "internalType": "address",
          "name": "implementation",
          "type": "address"
        }
      ],
      "name": "Upgraded",
      "type": "event"
    },
    {
      "inputs": [],
      "name": "BPS_DENOMINATOR",
      "outputs": [
        {
          "internalType": "uint256",
          "name": "",
          "type": "uint256"
        }
      ],
      "stateMutability": "view",
      "type": "function"
    },
    {
      "inputs": [],
      "name": "DEFAULT_ADMIN_ROLE",
      "outputs": [
        {
          "internalType": "bytes32",
          "name": "",
          "type": "bytes32"
        }
      ],
      "stateMutability": "view",
      "type": "function"
    },
    {
      "inputs": [],
      "name": "MAX_ADAPTERS",
      "outputs": [
        {
          "internalType": "uint256",
          "name": "",
          "type": "uint256"
        }
      ],
      "stateMutability": "view",
      "type": "function"
    },
    {
      "inputs": [],
      "name": "MAX_HOPS",
      "outputs": [
        {
          "internalType": "uint256",
          "name": "",
          "type": "uint256"
        }
      ],
      "stateMutability": "view",
      "type": "function"
    },
    {
      "inputs": [
        {
          "internalType": "bytes32",
          "name": "adapterId_",
          "type": "bytes32"
        }
      ],
      "name": "activateAdapter",
      "outputs": [],
      "stateMutability": "nonpayable",
      "type": "function"
    },
    {
      "inputs": [],
      "name": "adapterCount",
      "outputs": [
        {
          "internalType": "uint256",
          "name": "",
          "type": "uint256"
        }
      ],
      "stateMutability": "view",
      "type": "function"
    },
    {
      "inputs": [
        {
          "internalType": "bytes32",
          "name": "adapterId_",
          "type": "bytes32"
        }
      ],
      "name": "deactivateAdapter",
      "outputs": [],
      "stateMutability": "nonpayable",
      "type": "function"
    },
    {
      "inputs": [
        {
          "internalType": "bytes32",
          "name": "adapterId_",
          "type": "bytes32"
        }
      ],
      "name": "getAdapter",
      "outputs": [
        {
          "components": [
            {
              "internalType": "bytes32",
              "name": "adapterId",
              "type": "bytes32"
            },
            {
              "internalType": "address",
              "name": "adapter",
              "type": "address"
            },
            {
              "internalType": "bool",
              "name": "active",
              "type": "bool"
            },
            {
              "internalType": "string",
              "name": "name",
              "type": "string"
            }
          ],
          "internalType": "struct IMetaAGRouter.AdapterEntry",
          "name": "",
          "type": "tuple"
        }
      ],
      "stateMutability": "view",
      "type": "function"
    },
    {
      "inputs": [],
      "name": "getAdapters",
      "outputs": [
        {
          "components": [
            {
              "internalType": "bytes32",
              "name": "adapterId",
              "type": "bytes32"
            },
            {
              "internalType": "address",
              "name": "adapter",
              "type": "address"
            },
            {
              "internalType": "bool",
              "name": "active",
              "type": "bool"
            },
            {
              "internalType": "string",
              "name": "name",
              "type": "string"
            }
          ],
          "internalType": "struct IMetaAGRouter.AdapterEntry[]",
          "name": "",
          "type": "tuple[]"
        }
      ],
      "stateMutability": "view",
      "type": "function"
    },
    {
      "inputs": [
        {
          "internalType": "address",
          "name": "tokenIn",
          "type": "address"
        },
        {
          "internalType": "address",
          "name": "tokenOut",
          "type": "address"
        },
        {
          "internalType": "uint256",
          "name": "amountIn",
          "type": "uint256"
        }
      ],
      "name": "getAllQuotes",
      "outputs": [
        {
          "components": [
            {
              "internalType": "uint256",
              "name": "amountOut",
              "type": "uint256"
            },
            {
              "internalType": "uint256",
              "name": "priceImpactBps",
              "type": "uint256"
            },
            {
              "internalType": "uint256",
              "name": "feeBps",
              "type": "uint256"
            },
            {
              "internalType": "uint256",
              "name": "feeAmount",
              "type": "uint256"
            },
            {
              "internalType": "bool",
              "name": "available",
              "type": "bool"
            },
            {
              "internalType": "bytes",
              "name": "adapterData",
              "type": "bytes"
            }
          ],
          "internalType": "struct IProtocolAdapter.QuoteResult[]",
          "name": "quotes",
          "type": "tuple[]"
        },
        {
          "internalType": "bytes32[]",
          "name": "adapterIds",
          "type": "bytes32[]"
        },
        {
          "internalType": "string[]",
          "name": "names",
          "type": "string[]"
        }
      ],
      "stateMutability": "view",
      "type": "function"
    },
    {
      "inputs": [
        {
          "internalType": "address",
          "name": "tokenIn",
          "type": "address"
        },
        {
          "internalType": "address",
          "name": "tokenOut",
          "type": "address"
        },
        {
          "internalType": "uint256",
          "name": "amountIn",
          "type": "uint256"
        }
      ],
      "name": "getBestQuote",
      "outputs": [
        {
          "components": [
            {
              "internalType": "uint256",
              "name": "amountOut",
              "type": "uint256"
            },
            {
              "internalType": "uint256",
              "name": "priceImpactBps",
              "type": "uint256"
            },
            {
              "internalType": "uint256",
              "name": "feeBps",
              "type": "uint256"
            },
            {
              "internalType": "uint256",
              "name": "feeAmount",
              "type": "uint256"
            },
            {
              "internalType": "bytes32",
              "name": "adapterId",
              "type": "bytes32"
            },
            {
              "internalType": "address",
              "name": "adapter",
              "type": "address"
            },
            {
              "internalType": "bytes",
              "name": "adapterData",
              "type": "bytes"
            },
            {
              "internalType": "bool",
              "name": "found",
              "type": "bool"
            }
          ],
          "internalType": "struct IMetaAGRouter.BestQuote",
          "name": "best",
          "type": "tuple"
        }
      ],
      "stateMutability": "view",
      "type": "function"
    },
    {
      "inputs": [
        {
          "internalType": "bytes32",
          "name": "role",
          "type": "bytes32"
        }
      ],
      "name": "getRoleAdmin",
      "outputs": [
        {
          "internalType": "bytes32",
          "name": "",
          "type": "bytes32"
        }
      ],
      "stateMutability": "view",
      "type": "function"
    },
    {
      "inputs": [
        {
          "internalType": "bytes32",
          "name": "role",
          "type": "bytes32"
        },
        {
          "internalType": "address",
          "name": "account",
          "type": "address"
        }
      ],
      "name": "grantRole",
      "outputs": [],
      "stateMutability": "nonpayable",
      "type": "function"
    },
    {
      "inputs": [
        {
          "internalType": "bytes32",
          "name": "role",
          "type": "bytes32"
        },
        {
          "internalType": "address",
          "name": "account",
          "type": "address"
        }
      ],
      "name": "hasRole",
      "outputs": [
        {
          "internalType": "bool",
          "name": "",
          "type": "bool"
        }
      ],
      "stateMutability": "view",
      "type": "function"
    },
    {
      "inputs": [
        {
          "internalType": "address",
          "name": "oracleHub_",
          "type": "address"
        },
        {
          "internalType": "uint256",
          "name": "maxSanityDeviation",
          "type": "uint256"
        },
        {
          "internalType": "address",
          "name": "admin",
          "type": "address"
        }
      ],
      "name": "initialize",
      "outputs": [],
      "stateMutability": "nonpayable",
      "type": "function"
    },
    {
      "inputs": [
        {
          "internalType": "bytes32",
          "name": "adapterId_",
          "type": "bytes32"
        }
      ],
      "name": "isAdapterActive",
      "outputs": [
        {
          "internalType": "bool",
          "name": "",
          "type": "bool"
        }
      ],
      "stateMutability": "view",
      "type": "function"
    },
    {
      "inputs": [],
      "name": "maxOracleSanityDeviation",
      "outputs": [
        {
          "internalType": "uint256",
          "name": "",
          "type": "uint256"
        }
      ],
      "stateMutability": "view",
      "type": "function"
    },
    {
      "inputs": [
        {
          "internalType": "bytes[]",
          "name": "data",
          "type": "bytes[]"
        }
      ],
      "name": "multicall",
      "outputs": [
        {
          "internalType": "bytes[]",
          "name": "results",
          "type": "bytes[]"
        }
      ],
      "stateMutability": "nonpayable",
      "type": "function"
    },
    {
      "inputs": [],
      "name": "oracleHub",
      "outputs": [
        {
          "internalType": "address",
          "name": "",
          "type": "address"
        }
      ],
      "stateMutability": "view",
      "type": "function"
    },
    {
      "inputs": [],
      "name": "oracleSanityEnabled",
      "outputs": [
        {
          "internalType": "bool",
          "name": "",
          "type": "bool"
        }
      ],
      "stateMutability": "view",
      "type": "function"
    },
    {
      "inputs": [],
      "name": "pause",
      "outputs": [],
      "stateMutability": "nonpayable",
      "type": "function"
    },
    {
      "inputs": [],
      "name": "proxiableUUID",
      "outputs": [
        {
          "internalType": "bytes32",
          "name": "",
          "type": "bytes32"
        }
      ],
      "stateMutability": "view",
      "type": "function"
    },
    {
      "inputs": [
        {
          "internalType": "address",
          "name": "adapter",
          "type": "address"
        }
      ],
      "name": "registerAdapter",
      "outputs": [],
      "stateMutability": "nonpayable",
      "type": "function"
    },
    {
      "inputs": [
        {
          "internalType": "bytes32",
          "name": "role",
          "type": "bytes32"
        },
        {
          "internalType": "address",
          "name": "callerConfirmation",
          "type": "address"
        }
      ],
      "name": "renounceRole",
      "outputs": [],
      "stateMutability": "nonpayable",
      "type": "function"
    },
    {
      "inputs": [
        {
          "internalType": "bytes32",
          "name": "role",
          "type": "bytes32"
        },
        {
          "internalType": "address",
          "name": "account",
          "type": "address"
        }
      ],
      "name": "revokeRole",
      "outputs": [],
      "stateMutability": "nonpayable",
      "type": "function"
    },
    {
      "inputs": [
        {
          "internalType": "address",
          "name": "hub",
          "type": "address"
        }
      ],
      "name": "setOracleHub",
      "outputs": [],
      "stateMutability": "nonpayable",
      "type": "function"
    },
    {
      "inputs": [
        {
          "internalType": "uint256",
          "name": "bps",
          "type": "uint256"
        }
      ],
      "name": "setOracleSanityDeviation",
      "outputs": [],
      "stateMutability": "nonpayable",
      "type": "function"
    },
    {
      "inputs": [
        {
          "internalType": "bool",
          "name": "enabled",
          "type": "bool"
        }
      ],
      "name": "setOracleSanityEnabled",
      "outputs": [],
      "stateMutability": "nonpayable",
      "type": "function"
    },
    {
      "inputs": [
        {
          "internalType": "address",
          "name": "tokenIn",
          "type": "address"
        },
        {
          "internalType": "address",
          "name": "tokenOut",
          "type": "address"
        },
        {
          "internalType": "uint256",
          "name": "amountIn",
          "type": "uint256"
        },
        {
          "internalType": "uint256",
          "name": "amountOutMin",
          "type": "uint256"
        },
        {
          "internalType": "uint256",
          "name": "deadline",
          "type": "uint256"
        }
      ],
      "name": "swapBestRoute",
      "outputs": [
        {
          "internalType": "uint256",
          "name": "amountOut",
          "type": "uint256"
        }
      ],
      "stateMutability": "nonpayable",
      "type": "function"
    },
    {
      "inputs": [
        {
          "components": [
            {
              "internalType": "address",
              "name": "tokenIn",
              "type": "address"
            },
            {
              "internalType": "address",
              "name": "tokenOut",
              "type": "address"
            },
            {
              "internalType": "bytes32",
              "name": "adapterId",
              "type": "bytes32"
            },
            {
              "internalType": "uint256",
              "name": "minAmountOut",
              "type": "uint256"
            }
          ],
          "internalType": "struct IMetaAGRouter.HopParams[]",
          "name": "hops",
          "type": "tuple[]"
        },
        {
          "internalType": "uint256",
          "name": "amountIn",
          "type": "uint256"
        },
        {
          "internalType": "uint256",
          "name": "amountOutMin",
          "type": "uint256"
        },
        {
          "internalType": "uint256",
          "name": "deadline",
          "type": "uint256"
        }
      ],
      "name": "swapMultiHop",
      "outputs": [
        {
          "internalType": "uint256",
          "name": "amountOut",
          "type": "uint256"
        }
      ],
      "stateMutability": "nonpayable",
      "type": "function"
    },
    {
      "inputs": [
        {
          "internalType": "bytes32",
          "name": "adapterId_",
          "type": "bytes32"
        },
        {
          "internalType": "address",
          "name": "tokenIn",
          "type": "address"
        },
        {
          "internalType": "address",
          "name": "tokenOut",
          "type": "address"
        },
        {
          "internalType": "uint256",
          "name": "amountIn",
          "type": "uint256"
        },
        {
          "internalType": "uint256",
          "name": "amountOutMin",
          "type": "uint256"
        },
        {
          "internalType": "uint256",
          "name": "deadline",
          "type": "uint256"
        }
      ],
      "name": "swapViaAdapter",
      "outputs": [
        {
          "internalType": "uint256",
          "name": "amountOut",
          "type": "uint256"
        }
      ],
      "stateMutability": "nonpayable",
      "type": "function"
    },
    {
      "inputs": [],
      "name": "unpause",
      "outputs": [],
      "stateMutability": "nonpayable",
      "type": "function"
    },
    {
      "inputs": [
        {
          "internalType": "address",
          "name": "newImplementation",
          "type": "address"
        },
        {
          "internalType": "bytes",
          "name": "data",
          "type": "bytes"
        }
      ],
      "name": "upgradeToAndCall",
      "outputs": [],
      "stateMutability": "payable",
      "type": "function"
    }
  ],
  "bytecode": "0x60a080604052346100e9573060805260017f9b779b17422d0df92223018b32b4d1fa46e071723d6817e2486d003becc55f0055600080516020612e788339815191525460ff8160401c166100d9576002600160401b03196001600160401b03821601610085575b604051612d8990816100ef8239608051818181610c0001526110fb0152f35b6001600160401b0319166001600160401b03908117600080516020612e788339815191525581527fc7f505b2f371ae2175ee4913f4499e1f2633a7b5936321eed1cdaeb6115181d290602090a13880610066565b62dc149f60e41b60005260046000fd5b600080fdfe608080604052600436101561001357600080fd5b60003560e01c9081630af4419a14611d43575080631627e67214611b83578063228c04b814611af757806322f2caf114611727578063248a9ca3146116f25780632e4e8438146113cc5780632f2ff15d1461138c57806336568abe1461133d5780633b832410146113155780633f4ba83a146112965780634f1ef286146110875780635046cb7714610c8757806352bfed7314610c6957806352d1902d14610bed57806362315c4214610b83578063669b73d114610b20578063689ece8514610b0457806373d62b4614610adb5780638272e13814610a475780638456cb59146109da5780638c51222e146109be57806391d14854146109715780639b2183a8146107a7578063a217fddf1461078b578063ac5bfaba1461072c578063ac9650d81461057d578063b7d7e7e014610526578063b82e16e31461043c578063c350a1b51461027d578063ce16baaa14610213578063d547741f146101ca578063e1a45218146101ad5763f79001c51461018a57600080fd5b346101a85760003660031901126101a8576020600154604051908152f35b600080fd5b346101a85760003660031901126101a85760206040516127108152f35b346101a85760403660031901126101a8576102116004356101e9611d63565b9061020c61020582600052600060205260016040600020015490565b3390612816565b6129a3565b005b346101a85760203660031901126101a857600435610230336127b3565b600161024361023e836124a6565b611ef3565b5001805460ff60a01b1916600160a01b1790557fcae490f75bbbca74a50ebc8027618c1773823e3d109e1c8de542ec24e66bae0d600080a2005b346101a85760603660031901126101a857610296611d8f565b6024356102a1611d79565b600080516020612cf4833981519152549260ff8460401c1615936001600160401b038116600181101580610435575b61041d5715158061042d575b61041d57846103f5575b50600080516020612cf4833981519152805467ffffffffffffffff191660011790556001600160a01b03169182156103e4576001600160a01b038216156103e45761271081116103d357610373926001600080516020612d14833981519152556bffffffffffffffffffffffff60a01b6004541617600455600555600160ff196006541617600655612864565b5061037a57005b68ff000000000000000019600080516020612cf48339815191525416600080516020612cf4833981519152557fc7f505b2f371ae2175ee4913f4499e1f2633a7b5936321eed1cdaeb6115181d2602060405160018152a1005b63c6cc5d7f60e01b60005260046000fd5b63d92e233d60e01b60005260046000fd5b68ff00000000000000001916600160401b17600080516020612cf483398151915255846102e6565b62dc149f60e41b60005260046000fd5b5084156102dc565b50856102d0565b346101a85760003660031901126101a857600154610459816121c4565b906104676040519283611e79565b80825260208201908160016000527fb10e2d527612073b26eecdfd717e6a320cf44b4afac2b0732d9fcbe2b7fa0cf66000915b83831061050857848660405191829160208301906020845251809152604083019060408160051b85010192916000905b8282106104d957505050500390f35b919360019193955060206104f88192603f198a82030186528851611eb5565b96019201920185949391926104ca565b60036020600192610518856123f1565b81520192019201919061049a565b346101a85760203660031901126101a857600435610543336127b3565b61271081116103d3576020817f0eba7c7eb871e097f4de717f89ef2a9a17c4379be5e735fc05ecec837f22cefd92600555604051908152a1005b346101a85760203660031901126101a8576004356001600160401b0381116101a857366023820112156101a85780600401356001600160401b0381116101a8573660248260051b840101116101a8576105d5816121c4565b916105e36040519384611e79565b8183526105ef826121c4565b6106016020850191601f1901826121db565b36829003604219019060005b848110156106c557600060248260051b86010135848112156106c15785016024810135906001600160401b0382116106bd5760440181360381136106bd5790829181604051928392833781018381520390305af461066961243a565b901561068f579060019161067d82896121f8565b5261068881886121f8565b500161060d565b906106b9604051928392631b3dcf4560e21b84526004840152604060248401526044830190611e02565b0390fd5b8280fd5b5080fd5b818660405191829160208301906020845251809152604083019060408160051b85010192916000905b8282106106fd57505050500390f35b9193600191939550602061071c8192603f198a82030186528851611e02565b96019201920185949391926106ee565b346101a85760203660031901126101a857600435610749336127b3565b600161075761023e836124a6565b5001805460ff60a01b191690557f13b5394e24488cdb7bd972fea896642be9aadf1985fc12fba688e4955417d9fa600080a2005b346101a85760003660031901126101a857602060405160008152f35b346101a85760a03660031901126101a8576107c0611d8f565b6107c8611d63565b6044359060643592608435906107dc61246a565b600080516020612d34833981519152546109605781151580610957575b610946576001600160a01b03838116939082169283851461093557851561092457600154156109135761082d868385611ffb565b9660e08801511561090257808851106108f15760209787947f50900b1750490a41babdd8fc083f04636f85e1a447e93a1c7504f8db1a6b55bc946108916080946108c29660018060a01b0360a0870151169160c08701519233918c878933946124e4565b998a9160ff600654166108df575b505050500151604080519485526020850188905284015233929081906060820190565b0390a46001600080516020612d1483398151915255604051908152f35b6108e8936125a3565b8988868261089f565b63428637bb60e11b60005260046000fd5b630852ab6960e11b60005260046000fd5b630bbfd7b760e11b60005260046000fd5b631f2a200560e01b60005260046000fd5b63100dac0560e11b60005260046000fd5b631ab7da6b60e01b60005260046000fd5b508142116107f9565b6313d0ff5960e31b60005260046000fd5b346101a85760403660031901126101a85761098a611d63565b600435600052600060205260406000209060018060a01b0316600052602052602060ff604060002054166040519015158152f35b346101a85760003660031901126101a857602060405160058152f35b346101a85760003660031901126101a8576109f4336127b3565b600080516020612d3483398151915254610960576001600080516020612d34833981519152557f9077d36bc00859b5c3f320310707208543dd35092cb0a0fe117d0c6a558b148b602060405160018152a1005b346101a85760203660031901126101a857600435606080604051610a6a81611e27565b600081526000602082015260006040820152015280600052600260205260018060a01b036040600020541615610aca57610ab2610aac61023e610ac6936124a6565b506123f1565b604051918291602083526020830190611eb5565b0390f35b637bd8dfc760e11b60005260046000fd5b346101a85760003660031901126101a8576004546040516001600160a01b039091168152602090f35b346101a85760003660031901126101a857602060405160148152f35b346101a85760203660031901126101a8576004358015158091036101a85760207f709005b1687d28556fcff6e689a5ddd3b8ca706b061d8b9ac29967f43c706d6991610b6b336127b3565b60ff196006541660ff821617600655604051908152a1005b346101a85760203660031901126101a857610b9c611d8f565b610ba5336127b3565b6001600160a01b031680156103e457600480546001600160a01b031916821790557fa8efa2be7d01f3f251d7888e926638db26311eaa2e9385244b221a435f62ff9a600080a2005b346101a85760003660031901126101a8577f00000000000000000000000000000000000000000000000000000000000000006001600160a01b03163003610c585760206040517f360894a13ba1a3210667c828492db98dca3e2076cc3735a920a3ca505d382bbc8152f35b6345a93fc960e01b60005260046000fd5b346101a85760003660031901126101a8576020600554604051908152f35b346101a85760803660031901126101a8576004356001600160401b0381116101a857366023820112156101a8578060040135906001600160401b0382116101a8576024810190602436918460071b0101116101a857602435916044359260643591610cf061246a565b600080516020612d3483398151915254610960578215158061107e575b610946576002811061106d576005811161105c5781156109245780159384610e0c57610d4583610d3c83612308565b30903390612a2b565b8294600094600019840197848911965b858110610e555750505060ff60065416610e22575b610e0c57610d7781612308565b93610df6576020610d8d819784610d93946122f8565b01612308565b604080519384528684018690528301919091526001600160a01b0390811692169033907fa61a0dc6424f8063fe32da6ca37d55e261f63cb40de4711b56d97455c978f07590606090a46001600080516020612d1483398151915255604051908152f35b634e487b7160e01b600052601160045260246000fd5b634e487b7160e01b600052603260045260246000fd5b50600084610e2f83612308565b90610df6578685610e5092610e4a6020610d8d8d8a8a6122f8565b906125a3565b610d6a565b610e608187876122f8565b6040818101356000818152600260205291909120546001600160a01b0316908115610aca576001610e9561023e60ff936124a6565b50015460a01c161561104b5789610df657828c149081156110445733915b1561103957849b5b610ec484612308565b908060006020870193610ed685612308565b60405163c515ee2360e01b81526001600160a01b03928316600482015291166024820152604481019290925281606481875afa908115610ff257600091611018575b50608081015115801561100f575b610ffe578e8151106108f157610f968f95938a600095610f4e88610f498c612308565b612adc565b610f618689610f5c8d612308565b612b81565b60a0610f75610f6f8c612308565b94612308565b95015192604051998a978897634127442f60e11b8952309360048a0161239f565b038183855af1918215610ff257600092610fc9575b50610f49610fb99293612308565b519889106108f157600101610d55565b610feb610f4991610fb9943d8091833e610fe38183611e79565b810190612329565b9250610fab565b6040513d6000823e3d90fd5b636eed12ff60e01b60005260046000fd5b50805115610f26565b611033913d8091833e61102b8183611e79565b810190611f70565b38610f18565b60608301359b610ebb565b3091610eb3565b6303243e0360e61b60005260046000fd5b633e8db61760e11b60005260046000fd5b6367c6e8a360e11b60005260046000fd5b50824211610d0d565b60403660031901126101a85761109b611d8f565b602435906001600160401b0382116101a857366023830112156101a85781600401356110c681611e9a565b906110d46040519283611e79565b808252602082019336602483830101116101a85781600092602460209301873783010152307f00000000000000000000000000000000000000000000000000000000000000006001600160a01b03161461128557611131336127b3565b6040516352d1902d60e01b81526001600160a01b03831690602081600481855afa60009181611251575b506111715763340aafcd60e11b60005260046000fd5b7f360894a13ba1a3210667c828492db98dca3e2076cc3735a920a3ca505d382bbc0361124057823b1561124057827f360894a13ba1a3210667c828492db98dca3e2076cc3735a920a3ca505d382bbc557fbc7cd75a20ee27fd9adebab32041f755214dbc6bffa90cc0225b39da2e5c2d3b600080a251806111ee57005b60009283925af46111fd61243a565b501561120557005b60405162461bcd60e51b81526020600482015260136024820152721d5c19dc985919481a5b9a5d0819985a5b1959606a1b6044820152606490fd5b63340aafcd60e11b60005260046000fd5b9091506020813d60201161127d575b8161126d60209383611e79565b810103126101a85751908661115b565b3d9150611260565b6309e1070b60e31b60005260046000fd5b346101a85760003660031901126101a8576112b0336127b3565b600080516020612d348339815191525415611304576000600080516020612d34833981519152557f9077d36bc00859b5c3f320310707208543dd35092cb0a0fe117d0c6a558b148b602060405160008152a1005b636cd6020160e01b60005260046000fd5b346101a85760203660031901126101a85760206113336004356122ae565b6040519015158152f35b346101a85760403660031901126101a857600435611359611d63565b336001600160a01b0390911603611375576102119033906129a3565b62b0d32560e11b6000523360045260245260446000fd5b346101a85760403660031901126101a8576102116004356113ab611d63565b906113c761020582600052600060205260016040600020015490565b612917565b346101a8576113da36611da5565b90600154916113e8836121c4565b936113f66040519586611e79565b838552601f19611405856121c4565b0160005b8181106116a557505061141b846121c4565b936114296040519586611e79565b808552611435816121c4565b602086019390601f190136853761144b826121c4565b926114596040519485611e79565b828452611465836121c4565b956114786020860197601f1901886121db565b60005b8481106115c3575050505050604051948594606086016060875282518091526080870190602060808260051b8a01019401916000905b828210611552575050505060209086830382880152519182815201929060005b81811061153957505050838203604085015251808252602082019160208260051b82010193926000915b8383106115085786860387f35b919395509193602080611527600193601f198682030187528951611e02565b970193019301909286959492936114fb565b82518552879650602094850194909201916001016114d1565b91939460206115af819260019496999a9b9c607f1990820301865260c060a08b5180518452858101518685015260408101516040850152606081015160608501526080810151151560808501520151918160a08201520190611e02565b9701920192018998979695949391926114b1565b60016115d4829b9798999a9b611ef3565b5080546115e1848e6121f8565b526115ee6002820161220c565b6115f8848b6121f8565b52611603838a6121f8565b5001549060ff8260a01c161561169c5760405163c515ee2360e01b81526001600160a01b038581166004830152848116602483015260448201879052909260009184916064918391165afa8015610ff257600192600091611683575b5061166a82896121f8565b5261167581886121f8565b505b0198979695949861147b565b611696913d8091833e61102b8183611e79565b8c61165f565b60019150611677565b6020906040979394959697516116ba81611e42565b60008152600083820152600060408201526000606082015260006080820152606060a082015282828601015201959493929195611409565b346101a85760203660031901126101a857602061171f600435600052600060205260016040600020015490565b604051908152f35b346101a85760203660031901126101a857611740611d8f565b611749336127b3565b6001600160a01b031680156103e45780600052600360205260ff60406000205416611aa1576001546014811015611ae657604051635fb86b0160e01b815290602082600481865afa918215610ff257600092611ab2575b506000828152600260205260409020546001600160a01b0316611aa1576040516317450caf60e31b815290600082600481875afa918215610ff257600092611a4b575b506040516117f081611e27565b838152602081018581526040820190600182526060830193858552600160401b811015611a1f578060016118279201600155611ef3565b929092611a35579251825551600182018054935160ff60a01b90151560a01b166001600160a01b039092166001600160a81b0319909416939093171790915590518051600290920191906001600160401b038211611a1f57611889835461218a565b601f81116119d7575b50602090601f831160011461194a57918061193a94927f86619869725097465b6c68298d10e623edb3fb1b8b8999d47b3ce8ac52ecc800969460009261193f575b50508160011b916000199060031b1c19161790555b8360005260026020526040600020856bffffffffffffffffffffffff60a01b8254161790558460005260036020526040600020600160ff19825416179055604051918291602083526020830190611e02565b0390a3005b0151905088806118d3565b90601f1983169184600052816000209260005b8181106119bf57509260019285927f86619869725097465b6c68298d10e623edb3fb1b8b8999d47b3ce8ac52ecc800989661193a9896106119a6575b505050811b0190556118e8565b015160001960f88460031b161c19169055888080611999565b9293602060018192878601518155019501930161195d565b836000526020600020601f840160051c81019160208510611a15575b601f0160051c01905b818110611a095750611892565b600081556001016119fc565b90915081906119f3565b634e487b7160e01b600052604160045260246000fd5b634e487b7160e01b600052600060045260246000fd5b90913d8082843e611a5c8184611e79565b8201916020818403126106c1578051906001600160401b0382116106bd57019082601f83011215611a9e57508051611a979291602001611f1f565b90846117e3565b80fd5b63757d2ccf60e01b60005260046000fd5b90916020823d602011611ade575b81611acd60209383611e79565b81010312611a9e57505190836117a0565b3d9150611ac0565b630140ef3160e01b60005260046000fd5b346101a857611b0e611b0836611da5565b91611ffb565b60405180916020825280516020830152602081015160408301526040810151606083015260608101516080830152608081015160a083015260018060a01b0360a08201511660c083015260e0611b7460c083015161010083860152610120850190611e02565b91015115156101008301520390f35b346101a85760c03660031901126101a857600435611b9f611d63565b90611ba8611d79565b91606435916084359160a435611bbc61246a565b600080516020612d34833981519152546109605780151580611d3a575b610946576001600160a01b038681169490831693848614610935578615610924576000818152600260205260409020546001600160a01b0316938415610aca5760ff6001611c2961023e856124a6565b50015460a01c161561104b5760405163c515ee2360e01b81526001600160a01b0382811660048301528a166024820152604481018990529860008a606481895afa998a15610ff25760009a611d1f575b5060808a0151158015611d16575b610ffe57838a51106108f157611cd289967f50900b1750490a41babdd8fc083f04636f85e1a447e93a1c7504f8db1a6b55bc966108c29660a060209e01519233918b878933946124e4565b98899160ff60065416611d04575b50505050604051918291883396846040919493926060820195825260208201520152565b611d0d936125a3565b88878582611ce0565b50895115611c87565b611d33919a3d8091833e61102b8183611e79565b988a611c79565b50804211611bd9565b346101a85760003660031901126101a85760209060ff6006541615158152f35b602435906001600160a01b03821682036101a857565b604435906001600160a01b03821682036101a857565b600435906001600160a01b03821682036101a857565b60609060031901126101a8576004356001600160a01b03811681036101a857906024356001600160a01b03811681036101a8579060443590565b60005b838110611df25750506000910152565b8181015183820152602001611de2565b90602091611e1b81518092818552858086019101611ddf565b601f01601f1916010190565b608081019081106001600160401b03821117611a1f57604052565b60c081019081106001600160401b03821117611a1f57604052565b61010081019081106001600160401b03821117611a1f57604052565b90601f801991011681019081106001600160401b03821117611a1f57604052565b6001600160401b038111611a1f57601f01601f191660200190565b9060806060611ef0938051845260018060a01b0360208201511660208501526040810151151560408501520151918160608201520190611e02565b90565b600154811015610e0c5760016000526003602060002091020190600090565b519081151582036101a857565b90929192611f2c81611e9a565b91611f3a6040519384611e79565b8294828452828201116101a8576020611f54930190611ddf565b565b9080601f830112156101a8578151611ef092602001611f1f565b6020818303126101a8578051906001600160401b0382116101a8570160c0818303126101a85760405191611fa383611e42565b81518352602082015160208401526040820151604084015260608201516060840152611fd160808301611f12565b608084015260a08201516001600160401b0381116101a857611ff39201611f56565b60a082015290565b9291909260405161200b81611e5d565b6000815260006020820152600060408201526000606082015260006080820152600060a0820152606060c0820152600060e0820152936001549160005b838110612056575050505050565b61205f81611ef3565b50600181015460ff8160a01c16156121805760405163c515ee2360e01b81526001600160a01b03858116600483015286811660248301526044820189905290929116600083606481845afa928315610ff257600093612165575b50608083015115801561215c575b6121515760e08a0151158015612146575b6120ea575b5050506001905b01612048565b6001939950825192602081015192604082015160a060608401519254930151946040519661211788611e5d565b8752602087015260408601526060850152608084015260a083015260c08201528160e0820152969038806120dd565b5082518a51106120d8565b5050506001906120e4565b508251156120c7565b61217991933d8091833e61102b8183611e79565b91386120b9565b50506001906120e4565b90600182811c921680156121ba575b60208310146121a457565b634e487b7160e01b600052602260045260246000fd5b91607f1691612199565b6001600160401b038111611a1f5760051b60200190565b60005b8281106121ea57505050565b6060828201526020016121de565b8051821015610e0c5760209160051b010190565b90604051918260008254926122208461218a565b808452936001811690811561228c5750600114612245575b50611f5492500383611e79565b90506000929192526020600020906000915b818310612270575050906020611f549282010138612238565b6020919350806001915483858901015201910190918492612257565b905060209250611f5494915060ff191682840152151560051b82010138612238565b6001549060005b8281106122c457505050600090565b816122ce82611ef3565b5054146122dd576001016122b5565b60ff9250600191506122ee90611ef3565b50015460a01c1690565b9190811015610e0c5760071b0190565b356001600160a01b03811681036101a85790565b91908203918211610df657565b6020818303126101a8578051906001600160401b0382116101a857016060818303126101a85760405191606083018381106001600160401b03821117611a1f57604052815183526020820151602084015260408201516001600160401b0381116101a8576123979201611f56565b604082015290565b6001600160a01b0391821681529181166020830152604082019290925260608101929092529182166080820152911660a082015260c081019190915261010060e08201819052611ef092910190611e02565b906040516123fe81611e27565b8254815260018301546001600160a01b038116602083015260a01c60ff16151560408201529182906060906124359060020161220c565b910152565b3d15612465573d9061244b82611e9a565b916124596040519384611e79565b82523d6000602084013e565b606090565b6002600080516020612d148339815191525414612495576002600080516020612d1483398151915255565b633ee5aeb560e01b60005260046000fd5b6001549060005b8281106124c557637bd8dfc760e11b60005260046000fd5b816124cf82611ef3565b5054146124de576001016124ad565b91505090565b94976125349197849397612501879c9b966000989730908d612a2b565b61250b888b612adc565b61251685898c612b81565b604051634127442f60e11b8152988996879630928d60048a0161239f565b0381836001600160a01b0386165af1918215610ff257600092612567575b5061255d9192612adc565b519182106108f157565b61255d9250612580903d806000833e610fe38183611e79565b91612552565b91908260409103126101a857602061259d83611f12565b92015190565b6004805460408051630d0f307b60e41b81526001600160a01b03958616938101849052919094169381602481875afa908115610ff257600091612793575b501561275c5760408051630d0f307b60e41b81526001600160a01b0390931660048401819052929081602481875afa908115610ff257600091612763575b501561275c57604051916341976e0960e01b83526004830152602082602481865afa918215610ff257600092612727575b506020906024604051809581936341976e0960e01b835260048301525afa918215610ff2576000926126f3575b50801580156126eb575b6126e55761269492612c6b565b80156126e157808211156126cf576126af816126b49361231c565b612bbc565b600554106126be57565b631249ed1360e01b60005260046000fd5b6126af6126dc928261231c565b6126b4565b5050565b50505050565b508115612687565b90916020823d60201161271f575b8161270e60209383611e79565b81010312611a9e575051903861267d565b3d9150612701565b90916020823d602011612754575b8161274260209383611e79565b81010312611a9e575051906020612650565b3d9150612735565b5050505050565b612785915060403d60401161278c575b61277d8183611e79565b810190612586565b503861261f565b503d612773565b6127ac915060403d60401161278c5761277d8183611e79565b50386125e1565b6001600160a01b03811660009081527fad3228b676f7d3cd4284a5443f17f1962b36e491b30a40b2405849e597ba5fb5602052604090205460ff16156127f65750565b62b0d32560e11b60005260018060a01b0316600452600060245260446000fd5b90816000526000602052604060002060018060a01b03821660005260205260ff6040600020541615612846575050565b62b0d32560e11b60005260018060a01b031660045260245260446000fd5b6001600160a01b03811660009081527fad3228b676f7d3cd4284a5443f17f1962b36e491b30a40b2405849e597ba5fb5602052604090205460ff16156128aa5750600090565b6001600160a01b031660008181527fad3228b676f7d3cd4284a5443f17f1962b36e491b30a40b2405849e597ba5fb560205260408120805460ff191660011790553391907f2f8788117e7eff1d82e926ec794901d17c78024a50270940304540a733656f0d8180a4600190565b6000818152602081815260408083206001600160a01b038616845290915290205460ff1615612947575050600090565b6000818152602081815260408083206001600160a01b0395909516808452949091528120805460ff19166001179055339291907f2f8788117e7eff1d82e926ec794901d17c78024a50270940304540a733656f0d9080a4600190565b6000818152602081815260408083206001600160a01b038616845290915290205460ff166129d2575050600090565b6000818152602081815260408083206001600160a01b0395909516808452949091528120805460ff19169055339291907ff6391f5c32d9c69d2a47ea670b442974b53935d1edc7fd64eb21e047a839171b9080a4600190565b6040516323b872dd60e01b602082019081526001600160a01b039384166024830152939092166044830152606480830194909452928152600092839290918390612a76608482611e79565b51925af1612a8261243a565b9015908115612aa4575b50612a9357565b631e4e7d0960e21b60005260046000fd5b8051801515925082612ab9575b505038612a8c565b81925090602091810103126101a8576020612ad49101611f12565b153880612ab1565b60405163095ea7b360e01b602082019081526001600160a01b039093166024820152600060448083018290528252928392918390612b1b606482611e79565b51925af1612b2761243a565b9015908115612b49575b50612b3857565b633e3f8f7360e01b60005260046000fd5b8051801515925082612b5e575b505038612b31565b81925090602091810103126101a8576020612b799101611f12565b153880612b56565b6000929183809360405190602082019363095ea7b360e01b855260018060a01b03166024830152604482015260448152612b1b606482611e79565b8115612c5a57600019612710820991612710820291828085109403938085039414612c535781841015612c4257612710829109816000038216809204600281600302188082026002030280820260020302808202600203028082026002030280820260020302809102600203029360018380600003040190848311900302920304170290565b631a93c68960e11b60005260046000fd5b5091500490565b6323d359a360e01b60005260046000fd5b918015612c5a576000198284099282810292838086109503948086039514612ceb5782851015612c4257829109816000038216809204600281600302188082026002030280820260020302808202600203028082026002030280820260020302809102600203029360018380600003040190848311900302920304170290565b50509150049056fe4377386e2795aba8c0ce23a1e6e67bac790e4b4166f14b7e9365049ab946f8c09b779b17422d0df92223018b32b4d1fa46e071723d6817e2486d003becc55f0062e78cea01bee320cd4e420270b5ea74000d11b0c9f74754ebdbfc544b05a258a26469706673582212203928c20dcfde0cb72350e00b0acaf1fae750b15fdf35c6695abf1f7921c9394f64736f6c634300081b00334377386e2795aba8c0ce23a1e6e67bac790e4b4166f14b7e9365049ab946f8c0",
  "linkReferences": {},
  "deployedLinkReferences": {}
}