{
  "_format": "hh-sol-artifact-1",
  "contractName": "MockFeeOnTransferERC20",
  "sourceName": "contracts/meta-ag/mocks/MockFeeOnTransferERC20.sol",
  "abi": [
    {
      "inputs": [
        {
          "internalType": "string",
          "name": "name_",
          "type": "string"
        },
        {
          "internalType": "string",
          "name": "symbol_",
          "type": "string"
        },
        {
          "internalType": "uint8",
          "name": "decimals_",
          "type": "uint8"
        },
        {
          "internalType": "uint256",
          "name": "feeBps_",
          "type": "uint256"
        }
      ],
      "stateMutability": "nonpayable",
      "type": "constructor"
    },
    {
      "anonymous": false,
      "inputs": [
        {
          "indexed": true,
          "internalType": "address",
          "name": "owner",
          "type": "address"
        },
        {
          "indexed": true,
          "internalType": "address",
          "name": "spender",
          "type": "address"
        },
        {
          "indexed": false,
          "internalType": "uint256",
          "name": "value",
          "type": "uint256"
        }
      ],
      "name": "Approval",
      "type": "event"
    },
    {
      "anonymous": false,
      "inputs": [
        {
          "indexed": false,
          "internalType": "uint256",
          "name": "bps",
          "type": "uint256"
        }
      ],
      "name": "FeeUpdated",
      "type": "event"
    },
    {
      "anonymous": false,
      "inputs": [
        {
          "indexed": true,
          "internalType": "address",
          "name": "from",
          "type": "address"
        },
        {
          "indexed": true,
          "internalType": "address",
          "name": "to",
          "type": "address"
        },
        {
          "indexed": false,
          "internalType": "uint256",
          "name": "value",
          "type": "uint256"
        }
      ],
      "name": "Transfer",
      "type": "event"
    },
    {
      "inputs": [],
      "name": "BPS_DENOMINATOR",
      "outputs": [
        {
          "internalType": "uint256",
          "name": "",
          "type": "uint256"
        }
      ],
      "stateMutability": "view",
      "type": "function"
    },
    {
      "inputs": [
        {
          "internalType": "address",
          "name": "",
          "type": "address"
        },
        {
          "internalType": "address",
          "name": "",
          "type": "address"
        }
      ],
      "name": "allowance",
      "outputs": [
        {
          "internalType": "uint256",
          "name": "",
          "type": "uint256"
        }
      ],
      "stateMutability": "view",
      "type": "function"
    },
    {
      "inputs": [
        {
          "internalType": "address",
          "name": "spender",
          "type": "address"
        },
        {
          "internalType": "uint256",
          "name": "amount",
          "type": "uint256"
        }
      ],
      "name": "approve",
      "outputs": [
        {
          "internalType": "bool",
          "name": "",
          "type": "bool"
        }
      ],
      "stateMutability": "nonpayable",
      "type": "function"
    },
    {
      "inputs": [
        {
          "internalType": "address",
          "name": "",
          "type": "address"
        }
      ],
      "name": "balanceOf",
      "outputs": [
        {
          "internalType": "uint256",
          "name": "",
          "type": "uint256"
        }
      ],
      "stateMutability": "view",
      "type": "function"
    },
    {
      "inputs": [],
      "name": "decimals",
      "outputs": [
        {
          "internalType": "uint8",
          "name": "",
          "type": "uint8"
        }
      ],
      "stateMutability": "view",
      "type": "function"
    },
    {
      "inputs": [],
      "name": "feeBps",
      "outputs": [
        {
          "internalType": "uint256",
          "name": "",
          "type": "uint256"
        }
      ],
      "stateMutability": "view",
      "type": "function"
    },
    {
      "inputs": [
        {
          "internalType": "address",
          "name": "to",
          "type": "address"
        },
        {
          "internalType": "uint256",
          "name": "amount",
          "type": "uint256"
        }
      ],
      "name": "mint",
      "outputs": [],
      "stateMutability": "nonpayable",
      "type": "function"
    },
    {
      "inputs": [],
      "name": "name",
      "outputs": [
        {
          "internalType": "string",
          "name": "",
          "type": "string"
        }
      ],
      "stateMutability": "view",
      "type": "function"
    },
    {
      "inputs": [
        {
          "internalType": "uint256",
          "name": "bps",
          "type": "uint256"
        }
      ],
      "name": "setFeeBps",
      "outputs": [],
      "stateMutability": "nonpayable",
      "type": "function"
    },
    {
      "inputs": [],
      "name": "symbol",
      "outputs": [
        {
          "internalType": "string",
          "name": "",
          "type": "string"
        }
      ],
      "stateMutability": "view",
      "type": "function"
    },
    {
      "inputs": [],
      "name": "totalSupply",
      "outputs": [
        {
          "internalType": "uint256",
          "name": "",
          "type": "uint256"
        }
      ],
      "stateMutability": "view",
      "type": "function"
    },
    {
      "inputs": [
        {
          "internalType": "address",
          "name": "to",
          "type": "address"
        },
        {
          "internalType": "uint256",
          "name": "amount",
          "type": "uint256"
        }
      ],
      "name": "transfer",
      "outputs": [
        {
          "internalType": "bool",
          "name": "",
          "type": "bool"
        }
      ],
      "stateMutability": "nonpayable",
      "type": "function"
    },
    {
      "inputs": [
        {
          "internalType": "address",
          "name": "from",
          "type": "address"
        },
        {
          "internalType": "address",
          "name": "to",
          "type": "address"
        },
        {
          "internalType": "uint256",
          "name": "amount",
          "type": "uint256"
        }
      ],
      "name": "transferFrom",
      "outputs": [
        {
          "internalType": "bool",
          "name": "",
          "type": "bool"
        }
      ],
      "stateMutability": "nonpayable",
      "type": "function"
    }
  ],
  "bytecode": "0x6080604052346103a957610c9080380380610019816103ae565b9283398101906080818303126103a95780516001600160401b0381116103a957826100459183016103d3565b602082015190926001600160401b0382116103a9576100659183016103d3565b9060408101519060ff82168092036103a95760600151906127108210156103585783516001600160401b03811161026357600054600181811c9116801561034e575b602082101461024357601f81116102ea575b50602094601f821160011461028457948192939495600092610279575b50508160011b916000199060031b1c1916176000555b82516001600160401b03811161026357600154600181811c91168015610259575b602082101461024357601f81116101de575b506020601f8211600114610177578192939460009261016c575b50508160011b916000199060031b1c1916176001555b60ff196002541617600255600455604051610851908161043f8239f35b015190503880610139565b601f198216906001600052806000209160005b8181106101c6575095836001959697106101ad575b505050811b0160015561014f565b015160001960f88460031b161c1916905538808061019f565b9192602060018192868b01518155019401920161018a565b60016000527fb10e2d527612073b26eecdfd717e6a320cf44b4afac2b0732d9fcbe2b7fa0cf6601f830160051c81019160208410610239575b601f0160051c01905b81811061022d575061011f565b60008155600101610220565b9091508190610217565b634e487b7160e01b600052602260045260246000fd5b90607f169061010d565b634e487b7160e01b600052604160045260246000fd5b0151905038806100d6565b601f1982169560008052806000209160005b8881106102d2575083600195969798106102b9575b505050811b016000556100ec565b015160001960f88460031b161c191690553880806102ab565b91926020600181928685015181550194019201610296565b600080527f290decd9548b62a8d60345a988386fc84ba6bc95484008f6362f93160ef3e563601f830160051c81019160208410610344575b601f0160051c01905b81811061033857506100b9565b6000815560010161032b565b9091508190610322565b90607f16906100a7565b60405162461bcd60e51b8152602060048201526024808201527f4d6f636b4665654f6e5472616e7366657245524332303a2066656520746f6f206044820152630d0d2ced60e31b6064820152608490fd5b600080fd5b6040519190601f01601f191682016001600160401b0381118382101761026357604052565b81601f820112156103a9578051906001600160401b03821161026357610402601f8301601f19166020016103ae565b92828452602083830101116103a95760005b82811061042957505060206000918301015290565b8060208092840101518282870101520161041456fe6080604052600436101561001257600080fd5b60003560e01c806306fdde031461058c578063095ea7b31461051257806318160ddd146104f457806323b872dd1461040457806324a9d853146103e6578063313ce567146103c557806340c10f191461034a57806370a082311461031057806372c27b621461027057806395d89b411461014f578063a9059cbb1461011e578063dd62ed3e146100cd5763e1a45218146100ab57600080fd5b346100c85760003660031901126100c85760206040516127108152f35b600080fd5b346100c85760403660031901126100c8576100e661068f565b6100ee6106a5565b6001600160a01b039182166000908152600660209081526040808320949093168252928352819020549051908152f35b346100c85760403660031901126100c85761014461013a61068f565b60243590336106eb565b602060405160018152f35b346100c85760003660031901126100c8576000604051816001548060011c90600181168015610266575b6020831081146102525782855290811561023657506001146101e2575b50819003601f01601f1916810167ffffffffffffffff8111828210176101ce576101ca925060405260405191829182610646565b0390f35b634e487b7160e01b83526041600452602483fd5b600184529050827fb10e2d527612073b26eecdfd717e6a320cf44b4afac2b0732d9fcbe2b7fa0cf65b82821061022057506020915082010183610196565b600181602092548385880101520191019061020b565b90506020925060ff191682840152151560051b82010183610196565b634e487b7160e01b86526022600452602486fd5b91607f1691610179565b346100c85760203660031901126100c8576004356127108110156102bf576020817f8c4d35e54a3f2ef1134138fd8ea3daee6a3c89e10d2665996babdf70261e2c7692600455604051908152a1005b60405162461bcd60e51b8152602060048201526024808201527f4d6f636b4665654f6e5472616e7366657245524332303a2066656520746f6f206044820152630d0d2ced60e31b6064820152608490fd5b346100c85760203660031901126100c8576001600160a01b0361033161068f565b1660005260056020526020604060002054604051908152f35b346100c85760403660031901126100c85761036361068f565b60007fddf252ad1be2c89b69c2b068fc378daa952ba7f163c4a11628f55a4df523b3ef602060243593610398856003546106de565b60035560018060a01b03169384845260058252604084206103ba8282546106de565b9055604051908152a3005b346100c85760003660031901126100c857602060ff60025416604051908152f35b346100c85760003660031901126100c8576020600454604051908152f35b346100c85760603660031901126100c85761041d61068f565b6104256106a5565b6001600160a01b03821660008181526006602090815260408083203384529091529020549260443592918385106104985761014494846001820161046c575b5050506106eb565b610475916106bb565b600091825260066020908152604080842033855290915290912055848084610464565b60405162461bcd60e51b815260206004820152602e60248201527f4d6f636b4665654f6e5472616e7366657245524332303a20696e73756666696360448201526d69656e7420616c6c6f77616e636560901b6064820152608490fd5b346100c85760003660031901126100c8576020600354604051908152f35b346100c85760403660031901126100c85761052b61068f565b3360008181526006602090815260408083206001600160a01b03909516808452948252918290206024359081905591519182527f8c5be1e5ebec7d5bd14f71427d1e84f3dd0314c0f7b2291e5b200ac8c7c3b92591a3602060405160018152f35b346100c85760003660031901126100c85760006040518182548060011c9060018116801561063c575b6020831081146102525782855290811561023657506001146106055750819003601f01601f1916810167ffffffffffffffff8111828210176101ce576101ca925060405260405191829182610646565b90508280526020832083905b82821061062657506020915082010183610196565b6001816020925483858801015201910190610611565b91607f16916105b5565b91909160208152825180602083015260005b818110610679575060409293506000838284010152601f8019910116010190565b8060208092870101516040828601015201610658565b600435906001600160a01b03821682036100c857565b602435906001600160a01b03821682036100c857565b919082039182116106c857565b634e487b7160e01b600052601160045260246000fd5b919082018092116106c857565b60018060a01b03169081600052600560205282604060002054106107c1576004548084029084820414841517156106c8577fddf252ad1be2c89b69c2b068fc378daa952ba7f163c4a11628f55a4df523b3ef916127106020920461074f81876106bb565b95856000526005845261076860406000209182546106bb565b9055848161079f575b505060018060a01b031693846000526005825260406000206107948282546106de565b9055604051908152a3565b8484836107b06000956003546106bb565b600355604051908152a33884610771565b60405162461bcd60e51b815260206004820152602c60248201527f4d6f636b4665654f6e5472616e7366657245524332303a20696e73756666696360448201526b69656e742062616c616e636560a01b6064820152608490fdfea264697066735822122070b86132abf9491dfec8340f9de06da1e2adb7b5174890393ad332cf006a41af64736f6c634300081b0033",
  "linkReferences": {},
  "deployedLinkReferences": {}
}