{
  "_format": "hh-sol-artifact-1",
  "contractName": "FixedPoint128Wrapper",
  "sourceName": "contracts/test/FixedPoint128Wrapper.sol",
  "abi": [
    {
      "inputs": [],
      "name": "DivisionByZero",
      "type": "error"
    },
    {
      "inputs": [],
      "name": "Overflow",
      "type": "error"
    },
    {
      "inputs": [],
      "name": "Q128",
      "outputs": [
        {
          "internalType": "uint256",
          "name": "",
          "type": "uint256"
        }
      ],
      "stateMutability": "pure",
      "type": "function"
    },
    {
      "inputs": [
        {
          "internalType": "uint256",
          "name": "x",
          "type": "uint256"
        },
        {
          "internalType": "uint256",
          "name": "y",
          "type": "uint256"
        }
      ],
      "name": "divQ128",
      "outputs": [
        {
          "internalType": "uint256",
          "name": "",
          "type": "uint256"
        }
      ],
      "stateMutability": "pure",
      "type": "function"
    },
    {
      "inputs": [
        {
          "internalType": "uint256",
          "name": "x",
          "type": "uint256"
        }
      ],
      "name": "fromQ128",
      "outputs": [
        {
          "internalType": "uint256",
          "name": "",
          "type": "uint256"
        }
      ],
      "stateMutability": "pure",
      "type": "function"
    },
    {
      "inputs": [
        {
          "internalType": "uint256",
          "name": "x",
          "type": "uint256"
        },
        {
          "internalType": "uint256",
          "name": "y",
          "type": "uint256"
        }
      ],
      "name": "mulQ128",
      "outputs": [
        {
          "internalType": "uint256",
          "name": "",
          "type": "uint256"
        }
      ],
      "stateMutability": "pure",
      "type": "function"
    },
    {
      "inputs": [
        {
          "internalType": "uint256",
          "name": "x",
          "type": "uint256"
        }
      ],
      "name": "toQ128",
      "outputs": [
        {
          "internalType": "uint256",
          "name": "",
          "type": "uint256"
        }
      ],
      "stateMutability": "pure",
      "type": "function"
    }
  ],
  "bytecode": "0x6080806040523460155761027b908161001b8239f35b600080fdfe608080604052600436101561001357600080fd5b60003560e01c9081633a005a2b146101005750806377a70a28146100b55780637d2f3eee1461009c578063b4b15f711461007c5763cb19a8931461005657600080fd5b3461007757602061006f6100693661011e565b90610192565b604051908152f35b600080fd5b3461007757600036600319011261007757604051600160801b8152602090f35b3461007757602061006f6100af3661011e565b90610134565b34610077576020366003190112610077576004358060801b90808204600160801b14901517156100ea57602090604051908152f35b634e487b7160e01b600052601160045260246000fd5b346100775760203660031901126100775760209060043560801c8152f35b6040906003190112610077576004359060243590565b60009190600019828209918082029384808510940393808503941461018857600160801b8410156101795750600160801b910990828211900360801b910360801c1790565b631a93c68960e11b8152600490fd5b5050505060801c90565b811561023457600019600160801b8209918160801b9182808510940393808503941461022d578184101561021c578190600160801b9009816000038216809204600281600302188082026002030280820260020302808202600203028082026002030280820260020302809102600203029360018380600003040190848311900302920304170290565b631a93c68960e11b60005260046000fd5b5091500490565b6323d359a360e01b60005260046000fdfea2646970667358221220d4dae05fb22921fe9bec81188d8c375e58d9409832a736ce484c7adb9304e2fa64736f6c634300081b0033",
  "linkReferences": {},
  "deployedLinkReferences": {}
}