{
  "_format": "hh-sol-artifact-1",
  "contractName": "Treasury",
  "sourceName": "contracts/protocol/Treasury.sol",
  "abi": [
    {
      "inputs": [],
      "stateMutability": "nonpayable",
      "type": "constructor"
    },
    {
      "inputs": [],
      "name": "AlreadyInitialized",
      "type": "error"
    },
    {
      "inputs": [],
      "name": "InsufficientBalance",
      "type": "error"
    },
    {
      "inputs": [],
      "name": "InvalidImplementation",
      "type": "error"
    },
    {
      "inputs": [],
      "name": "InvalidImplementation",
      "type": "error"
    },
    {
      "inputs": [
        {
          "internalType": "address",
          "name": "account",
          "type": "address"
        },
        {
          "internalType": "bytes32",
          "name": "role",
          "type": "bytes32"
        }
      ],
      "name": "MissingRole",
      "type": "error"
    },
    {
      "inputs": [],
      "name": "NotInitializing",
      "type": "error"
    },
    {
      "inputs": [],
      "name": "TransferFailed",
      "type": "error"
    },
    {
      "inputs": [],
      "name": "TransferFromFailed",
      "type": "error"
    },
    {
      "inputs": [],
      "name": "UUPSNotThroughActiveProxy",
      "type": "error"
    },
    {
      "inputs": [],
      "name": "UUPSNotThroughProxy",
      "type": "error"
    },
    {
      "inputs": [],
      "name": "Unauthorized",
      "type": "error"
    },
    {
      "inputs": [],
      "name": "UnauthorizedUpgrade",
      "type": "error"
    },
    {
      "inputs": [],
      "name": "ZeroAddress",
      "type": "error"
    },
    {
      "inputs": [],
      "name": "ZeroAmount",
      "type": "error"
    },
    {
      "anonymous": false,
      "inputs": [
        {
          "indexed": true,
          "internalType": "address",
          "name": "token",
          "type": "address"
        },
        {
          "indexed": true,
          "internalType": "address",
          "name": "from",
          "type": "address"
        },
        {
          "indexed": false,
          "internalType": "uint256",
          "name": "amount",
          "type": "uint256"
        }
      ],
      "name": "Deposited",
      "type": "event"
    },
    {
      "anonymous": false,
      "inputs": [
        {
          "indexed": false,
          "internalType": "uint64",
          "name": "version",
          "type": "uint64"
        }
      ],
      "name": "Initialized",
      "type": "event"
    },
    {
      "anonymous": false,
      "inputs": [
        {
          "indexed": true,
          "internalType": "bytes32",
          "name": "role",
          "type": "bytes32"
        },
        {
          "indexed": true,
          "internalType": "bytes32",
          "name": "previousAdminRole",
          "type": "bytes32"
        },
        {
          "indexed": true,
          "internalType": "bytes32",
          "name": "newAdminRole",
          "type": "bytes32"
        }
      ],
      "name": "RoleAdminChanged",
      "type": "event"
    },
    {
      "anonymous": false,
      "inputs": [
        {
          "indexed": true,
          "internalType": "bytes32",
          "name": "role",
          "type": "bytes32"
        },
        {
          "indexed": true,
          "internalType": "address",
          "name": "account",
          "type": "address"
        },
        {
          "indexed": true,
          "internalType": "address",
          "name": "sender",
          "type": "address"
        }
      ],
      "name": "RoleGranted",
      "type": "event"
    },
    {
      "anonymous": false,
      "inputs": [
        {
          "indexed": true,
          "internalType": "bytes32",
          "name": "role",
          "type": "bytes32"
        },
        {
          "indexed": true,
          "internalType": "address",
          "name": "account",
          "type": "address"
        },
        {
          "indexed": true,
          "internalType": "address",
          "name": "sender",
          "type": "address"
        }
      ],
      "name": "RoleRevoked",
      "type": "event"
    },
    {
      "anonymous": false,
      "inputs": [
        {
          "indexed": true,
          "internalType": "address",
          "name": "implementation",
          "type": "address"
        }
      ],
      "name": "Upgraded",
      "type": "event"
    },
    {
      "anonymous": false,
      "inputs": [
        {
          "indexed": true,
          "internalType": "address",
          "name": "token",
          "type": "address"
        },
        {
          "indexed": true,
          "internalType": "address",
          "name": "to",
          "type": "address"
        },
        {
          "indexed": false,
          "internalType": "uint256",
          "name": "amount",
          "type": "uint256"
        }
      ],
      "name": "Withdrawn",
      "type": "event"
    },
    {
      "inputs": [],
      "name": "DEFAULT_ADMIN_ROLE",
      "outputs": [
        {
          "internalType": "bytes32",
          "name": "",
          "type": "bytes32"
        }
      ],
      "stateMutability": "view",
      "type": "function"
    },
    {
      "inputs": [],
      "name": "DEPOSITOR_ROLE",
      "outputs": [
        {
          "internalType": "bytes32",
          "name": "",
          "type": "bytes32"
        }
      ],
      "stateMutability": "view",
      "type": "function"
    },
    {
      "inputs": [
        {
          "internalType": "address",
          "name": "token",
          "type": "address"
        },
        {
          "internalType": "uint256",
          "name": "amount",
          "type": "uint256"
        }
      ],
      "name": "deposit",
      "outputs": [],
      "stateMutability": "nonpayable",
      "type": "function"
    },
    {
      "inputs": [],
      "name": "eventEmitter",
      "outputs": [
        {
          "internalType": "address",
          "name": "",
          "type": "address"
        }
      ],
      "stateMutability": "view",
      "type": "function"
    },
    {
      "inputs": [
        {
          "internalType": "address",
          "name": "token",
          "type": "address"
        }
      ],
      "name": "getBalance",
      "outputs": [
        {
          "internalType": "uint256",
          "name": "",
          "type": "uint256"
        }
      ],
      "stateMutability": "view",
      "type": "function"
    },
    {
      "inputs": [
        {
          "internalType": "bytes32",
          "name": "role",
          "type": "bytes32"
        }
      ],
      "name": "getRoleAdmin",
      "outputs": [
        {
          "internalType": "bytes32",
          "name": "",
          "type": "bytes32"
        }
      ],
      "stateMutability": "view",
      "type": "function"
    },
    {
      "inputs": [
        {
          "internalType": "bytes32",
          "name": "role",
          "type": "bytes32"
        },
        {
          "internalType": "address",
          "name": "account",
          "type": "address"
        }
      ],
      "name": "grantRole",
      "outputs": [],
      "stateMutability": "nonpayable",
      "type": "function"
    },
    {
      "inputs": [
        {
          "internalType": "bytes32",
          "name": "role",
          "type": "bytes32"
        },
        {
          "internalType": "address",
          "name": "account",
          "type": "address"
        }
      ],
      "name": "hasRole",
      "outputs": [
        {
          "internalType": "bool",
          "name": "",
          "type": "bool"
        }
      ],
      "stateMutability": "view",
      "type": "function"
    },
    {
      "inputs": [
        {
          "internalType": "address",
          "name": "_eventEmitter",
          "type": "address"
        },
        {
          "internalType": "address",
          "name": "_admin",
          "type": "address"
        }
      ],
      "name": "initialize",
      "outputs": [],
      "stateMutability": "nonpayable",
      "type": "function"
    },
    {
      "inputs": [],
      "name": "proxiableUUID",
      "outputs": [
        {
          "internalType": "bytes32",
          "name": "",
          "type": "bytes32"
        }
      ],
      "stateMutability": "view",
      "type": "function"
    },
    {
      "inputs": [
        {
          "internalType": "bytes32",
          "name": "role",
          "type": "bytes32"
        },
        {
          "internalType": "address",
          "name": "callerConfirmation",
          "type": "address"
        }
      ],
      "name": "renounceRole",
      "outputs": [],
      "stateMutability": "nonpayable",
      "type": "function"
    },
    {
      "inputs": [
        {
          "internalType": "bytes32",
          "name": "role",
          "type": "bytes32"
        },
        {
          "internalType": "address",
          "name": "account",
          "type": "address"
        }
      ],
      "name": "revokeRole",
      "outputs": [],
      "stateMutability": "nonpayable",
      "type": "function"
    },
    {
      "inputs": [
        {
          "internalType": "address",
          "name": "newImplementation",
          "type": "address"
        },
        {
          "internalType": "bytes",
          "name": "data",
          "type": "bytes"
        }
      ],
      "name": "upgradeToAndCall",
      "outputs": [],
      "stateMutability": "payable",
      "type": "function"
    },
    {
      "inputs": [
        {
          "internalType": "address",
          "name": "token",
          "type": "address"
        },
        {
          "internalType": "address",
          "name": "to",
          "type": "address"
        },
        {
          "internalType": "uint256",
          "name": "amount",
          "type": "uint256"
        }
      ],
      "name": "withdraw",
      "outputs": [],
      "stateMutability": "nonpayable",
      "type": "function"
    }
  ],
  "bytecode": "0x60a080604052346100c55730608052600080516020610e298339815191525460ff8160401c166100b5576002600160401b03196001600160401b03821601610061575b604051610d5e90816100cb82396080518181816103a301526104810152f35b6001600160401b0319166001600160401b03908117600080516020610e298339815191525581527fc7f505b2f371ae2175ee4913f4499e1f2633a7b5936321eed1cdaeb6115181d290602090a13880610042565b62dc149f60e41b60005260046000fd5b600080fdfe6080604052600436101561001257600080fd5b60003560e01c8063248a9ca3146109935780632f2ff15d1461095357806336568abe1461090457806347e7ef241461078a578063485cc9551461061c5780634f1ef2861461040c57806352d1902d1461039057806391d14854146103435780639ff78c301461031a578063a217fddf146102fe578063a3b0b5a3146102c3578063d547741f1461027a578063d9caed12146100f55763f8b2cb4f146100b657600080fd5b346100f05760203660031901126100f0576001600160a01b036100d76109de565b1660005260016020526020604060002054604051908152f35b600080fd5b346100f05760603660031901126100f05761010e6109de565b6101166109c8565b906044359161012433610a48565b6001600160a01b03169182156102695780156102585760018060a01b0382169182600052600160205281604060002054106102475782600052600160205260406000208054918383039283116102315760009283925560405182602082019163a9059cbb60e01b8352886024820152866044820152604481526101a86064826109f4565b51925af16101b4610cc0565b9015908115610201575b506101f05760207fd1c19fbcd4551a5edfb66d43d2e337c04837afda3482b42bdf569a8fccdae5fb91604051908152a3005b6312171d8360e31b60005260046000fd5b8051801515925082610216575b5050846101be565b6102299250602080918301019101610cf0565b15848061020e565b634e487b7160e01b600052601160045260246000fd5b631e9acf1760e31b60005260046000fd5b631f2a200560e01b60005260046000fd5b63d92e233d60e01b60005260046000fd5b346100f05760403660031901126100f0576102c16004356102996109c8565b906102bc6102b582600052600060205260016040600020015490565b3390610aab565b610c38565b005b346100f05760003660031901126100f05760206040517f8f4f2da22e8ac8f11e15f9fc141cddbb5deea8800186560abb6e68c5496619a98152f35b346100f05760003660031901126100f057602060405160008152f35b346100f05760003660031901126100f0576002546040516001600160a01b039091168152602090f35b346100f05760403660031901126100f05761035c6109c8565b600435600052600060205260406000209060018060a01b0316600052602052602060ff604060002054166040519015158152f35b346100f05760003660031901126100f0577f00000000000000000000000000000000000000000000000000000000000000006001600160a01b031630036103fb5760206040517f360894a13ba1a3210667c828492db98dca3e2076cc3735a920a3ca505d382bbc8152f35b6345a93fc960e01b60005260046000fd5b60403660031901126100f0576104206109de565b6024359067ffffffffffffffff82116100f057366023830112156100f057816004013561044c81610a2c565b9061045a60405192836109f4565b808252602082019336602483830101116100f05781600092602460209301873783010152307f00000000000000000000000000000000000000000000000000000000000000006001600160a01b03161461060b576104b733610a48565b6040516352d1902d60e01b81526001600160a01b03831690602081600481855afa600091816105d7575b506104f75763340aafcd60e11b60005260046000fd5b7f360894a13ba1a3210667c828492db98dca3e2076cc3735a920a3ca505d382bbc036105c657823b156105c657827f360894a13ba1a3210667c828492db98dca3e2076cc3735a920a3ca505d382bbc557fbc7cd75a20ee27fd9adebab32041f755214dbc6bffa90cc0225b39da2e5c2d3b600080a2518061057457005b60009283925af4610583610cc0565b501561058b57005b60405162461bcd60e51b81526020600482015260136024820152721d5c19dc985919481a5b9a5d0819985a5b1959606a1b6044820152606490fd5b63340aafcd60e11b60005260046000fd5b9091506020813d602011610603575b816105f3602093836109f4565b810103126100f0575190866104e1565b3d91506105e6565b6309e1070b60e31b60005260046000fd5b346100f05760403660031901126100f0576106356109de565b61063d6109c8565b90600080516020610d09833981519152549160ff8360401c16159267ffffffffffffffff8116600181101580610783575b61076b5715158061077b575b61076b578361073e575b50600080516020610d09833981519152805467ffffffffffffffff191660011790556001600160a01b03811615610269576106de9160018060a01b03166bffffffffffffffffffffffff60a01b6002541617600255610af9565b506106e557005b68ff000000000000000019600080516020610d098339815191525416600080516020610d09833981519152557fc7f505b2f371ae2175ee4913f4499e1f2633a7b5936321eed1cdaeb6115181d2602060405160018152a1005b68ff000000000000000019166801000000000000000017600080516020610d098339815191525583610684565b62dc149f60e41b60005260046000fd5b50831561067a565b508461066e565b346100f05760403660031901126100f0576107a36109de565b3360009081527fcd535922ec6598051cb9009e5385a1e92110f0406d6b811e10c8a3249b96d6dd6020526040902054602435919060ff16156108cc5781156102585760008060405160208101906323b872dd60e01b82523360248201523060448201528560648201526064815261081b6084826109f4565b519082855af1610829610cc0565b901590811561089c575b5061088b576001600160a01b0316600081815260016020526040902080548381019190821061023157556040519182527f8752a472e571a816aea92eec8dae9baf628e840f4929fbcc2d155e6233ff68a760203393a3005b631e4e7d0960e21b60005260046000fd5b80518015159250826108b1575b505083610833565b6108c49250602080918301019101610cf0565b1583806108a9565b62b0d32560e11b600052336004527f8f4f2da22e8ac8f11e15f9fc141cddbb5deea8800186560abb6e68c5496619a960245260446000fd5b346100f05760403660031901126100f0576004356109206109c8565b336001600160a01b039091160361093c576102c1903390610c38565b62b0d32560e11b6000523360045260245260446000fd5b346100f05760403660031901126100f0576102c16004356109726109c8565b9061098e6102b582600052600060205260016040600020015490565b610bac565b346100f05760203660031901126100f05760206109c0600435600052600060205260016040600020015490565b604051908152f35b602435906001600160a01b03821682036100f057565b600435906001600160a01b03821682036100f057565b90601f8019910116810190811067ffffffffffffffff821117610a1657604052565b634e487b7160e01b600052604160045260246000fd5b67ffffffffffffffff8111610a1657601f01601f191660200190565b6001600160a01b03811660009081527fad3228b676f7d3cd4284a5443f17f1962b36e491b30a40b2405849e597ba5fb5602052604090205460ff1615610a8b5750565b62b0d32560e11b60005260018060a01b0316600452600060245260446000fd5b90816000526000602052604060002060018060a01b03821660005260205260ff6040600020541615610adb575050565b62b0d32560e11b60005260018060a01b031660045260245260446000fd5b6001600160a01b03811660009081527fad3228b676f7d3cd4284a5443f17f1962b36e491b30a40b2405849e597ba5fb5602052604090205460ff1615610b3f5750600090565b6001600160a01b031660008181527fad3228b676f7d3cd4284a5443f17f1962b36e491b30a40b2405849e597ba5fb560205260408120805460ff191660011790553391907f2f8788117e7eff1d82e926ec794901d17c78024a50270940304540a733656f0d8180a4600190565b6000818152602081815260408083206001600160a01b038616845290915290205460ff1615610bdc575050600090565b6000818152602081815260408083206001600160a01b0395909516808452949091528120805460ff19166001179055339291907f2f8788117e7eff1d82e926ec794901d17c78024a50270940304540a733656f0d9080a4600190565b6000818152602081815260408083206001600160a01b038616845290915290205460ff16610c67575050600090565b6000818152602081815260408083206001600160a01b0395909516808452949091528120805460ff19169055339291907ff6391f5c32d9c69d2a47ea670b442974b53935d1edc7fd64eb21e047a839171b9080a4600190565b3d15610ceb573d90610cd182610a2c565b91610cdf60405193846109f4565b82523d6000602084013e565b606090565b908160209103126100f0575180151581036100f0579056fe4377386e2795aba8c0ce23a1e6e67bac790e4b4166f14b7e9365049ab946f8c0a2646970667358221220422004e9f978c6236e748169778f7329d5e3446ad3b8b3cb1e4a7148e21ddec964736f6c634300081b00334377386e2795aba8c0ce23a1e6e67bac790e4b4166f14b7e9365049ab946f8c0",
  "linkReferences": {},
  "deployedLinkReferences": {}
}