{
  "_format": "hh-sol-artifact-1",
  "contractName": "MockSidioraRouter",
  "sourceName": "contracts/meta-ag/mocks/MockSidioraRouter.sol",
  "abi": [
    {
      "inputs": [
        {
          "internalType": "address",
          "name": "pool",
          "type": "address"
        },
        {
          "internalType": "uint256",
          "name": "usdlAmountIn",
          "type": "uint256"
        },
        {
          "internalType": "uint256",
          "name": "minTokensOut",
          "type": "uint256"
        },
        {
          "internalType": "uint256",
          "name": "deadline",
          "type": "uint256"
        }
      ],
      "name": "buy",
      "outputs": [
        {
          "internalType": "uint256",
          "name": "amountOut",
          "type": "uint256"
        }
      ],
      "stateMutability": "nonpayable",
      "type": "function"
    },
    {
      "inputs": [],
      "name": "buyCallCount",
      "outputs": [
        {
          "internalType": "uint256",
          "name": "",
          "type": "uint256"
        }
      ],
      "stateMutability": "view",
      "type": "function"
    },
    {
      "inputs": [],
      "name": "buyReturn",
      "outputs": [
        {
          "internalType": "uint256",
          "name": "",
          "type": "uint256"
        }
      ],
      "stateMutability": "view",
      "type": "function"
    },
    {
      "inputs": [],
      "name": "buyTokenOut",
      "outputs": [
        {
          "internalType": "address",
          "name": "",
          "type": "address"
        }
      ],
      "stateMutability": "view",
      "type": "function"
    },
    {
      "inputs": [],
      "name": "lastBuy",
      "outputs": [
        {
          "internalType": "address",
          "name": "pool",
          "type": "address"
        },
        {
          "internalType": "uint256",
          "name": "usdlAmountIn",
          "type": "uint256"
        },
        {
          "internalType": "uint256",
          "name": "minTokensOut",
          "type": "uint256"
        },
        {
          "internalType": "uint256",
          "name": "deadline",
          "type": "uint256"
        },
        {
          "internalType": "address",
          "name": "caller",
          "type": "address"
        },
        {
          "internalType": "uint256",
          "name": "observedAllowance",
          "type": "uint256"
        }
      ],
      "stateMutability": "view",
      "type": "function"
    },
    {
      "inputs": [],
      "name": "lastMultihop",
      "outputs": [
        {
          "internalType": "address",
          "name": "tokenIn",
          "type": "address"
        },
        {
          "internalType": "address",
          "name": "tokenOut",
          "type": "address"
        },
        {
          "internalType": "uint256",
          "name": "amountIn",
          "type": "uint256"
        },
        {
          "internalType": "uint256",
          "name": "minAmountOut",
          "type": "uint256"
        },
        {
          "internalType": "uint256",
          "name": "deadline",
          "type": "uint256"
        },
        {
          "internalType": "address",
          "name": "caller",
          "type": "address"
        },
        {
          "internalType": "uint256",
          "name": "observedAllowance",
          "type": "uint256"
        }
      ],
      "stateMutability": "view",
      "type": "function"
    },
    {
      "inputs": [],
      "name": "lastSell",
      "outputs": [
        {
          "internalType": "address",
          "name": "pool",
          "type": "address"
        },
        {
          "internalType": "uint256",
          "name": "tokenAmountIn",
          "type": "uint256"
        },
        {
          "internalType": "uint256",
          "name": "minUsdlOut",
          "type": "uint256"
        },
        {
          "internalType": "uint256",
          "name": "deadline",
          "type": "uint256"
        },
        {
          "internalType": "address",
          "name": "caller",
          "type": "address"
        },
        {
          "internalType": "uint256",
          "name": "observedAllowance",
          "type": "uint256"
        }
      ],
      "stateMutability": "view",
      "type": "function"
    },
    {
      "inputs": [],
      "name": "multihopAmountOut",
      "outputs": [
        {
          "internalType": "uint256",
          "name": "",
          "type": "uint256"
        }
      ],
      "stateMutability": "view",
      "type": "function"
    },
    {
      "inputs": [],
      "name": "multihopCallCount",
      "outputs": [
        {
          "internalType": "uint256",
          "name": "",
          "type": "uint256"
        }
      ],
      "stateMutability": "view",
      "type": "function"
    },
    {
      "inputs": [],
      "name": "multihopIntermediateUsdl",
      "outputs": [
        {
          "internalType": "uint256",
          "name": "",
          "type": "uint256"
        }
      ],
      "stateMutability": "view",
      "type": "function"
    },
    {
      "inputs": [],
      "name": "resetCounts",
      "outputs": [],
      "stateMutability": "nonpayable",
      "type": "function"
    },
    {
      "inputs": [],
      "name": "revertOnBuy",
      "outputs": [
        {
          "internalType": "bool",
          "name": "",
          "type": "bool"
        }
      ],
      "stateMutability": "view",
      "type": "function"
    },
    {
      "inputs": [],
      "name": "revertOnMultihop",
      "outputs": [
        {
          "internalType": "bool",
          "name": "",
          "type": "bool"
        }
      ],
      "stateMutability": "view",
      "type": "function"
    },
    {
      "inputs": [],
      "name": "revertOnSell",
      "outputs": [
        {
          "internalType": "bool",
          "name": "",
          "type": "bool"
        }
      ],
      "stateMutability": "view",
      "type": "function"
    },
    {
      "inputs": [],
      "name": "revertReason",
      "outputs": [
        {
          "internalType": "string",
          "name": "",
          "type": "string"
        }
      ],
      "stateMutability": "view",
      "type": "function"
    },
    {
      "inputs": [
        {
          "internalType": "address",
          "name": "pool",
          "type": "address"
        },
        {
          "internalType": "uint256",
          "name": "tokenAmountIn",
          "type": "uint256"
        },
        {
          "internalType": "uint256",
          "name": "minUsdlOut",
          "type": "uint256"
        },
        {
          "internalType": "uint256",
          "name": "deadline",
          "type": "uint256"
        }
      ],
      "name": "sell",
      "outputs": [
        {
          "internalType": "uint256",
          "name": "amountOut",
          "type": "uint256"
        }
      ],
      "stateMutability": "nonpayable",
      "type": "function"
    },
    {
      "inputs": [],
      "name": "sellCallCount",
      "outputs": [
        {
          "internalType": "uint256",
          "name": "",
          "type": "uint256"
        }
      ],
      "stateMutability": "view",
      "type": "function"
    },
    {
      "inputs": [],
      "name": "sellReturn",
      "outputs": [
        {
          "internalType": "uint256",
          "name": "",
          "type": "uint256"
        }
      ],
      "stateMutability": "view",
      "type": "function"
    },
    {
      "inputs": [],
      "name": "sellTokenIn",
      "outputs": [
        {
          "internalType": "address",
          "name": "",
          "type": "address"
        }
      ],
      "stateMutability": "view",
      "type": "function"
    },
    {
      "inputs": [
        {
          "internalType": "uint256",
          "name": "v",
          "type": "uint256"
        }
      ],
      "name": "setBuyReturn",
      "outputs": [],
      "stateMutability": "nonpayable",
      "type": "function"
    },
    {
      "inputs": [
        {
          "internalType": "address",
          "name": "token",
          "type": "address"
        }
      ],
      "name": "setBuyTokenOut",
      "outputs": [],
      "stateMutability": "nonpayable",
      "type": "function"
    },
    {
      "inputs": [
        {
          "internalType": "uint256",
          "name": "amountOut_",
          "type": "uint256"
        },
        {
          "internalType": "uint256",
          "name": "intermediateUsdl_",
          "type": "uint256"
        }
      ],
      "name": "setMultihopReturn",
      "outputs": [],
      "stateMutability": "nonpayable",
      "type": "function"
    },
    {
      "inputs": [
        {
          "internalType": "bool",
          "name": "v",
          "type": "bool"
        },
        {
          "internalType": "string",
          "name": "reason",
          "type": "string"
        }
      ],
      "name": "setRevertOnBuy",
      "outputs": [],
      "stateMutability": "nonpayable",
      "type": "function"
    },
    {
      "inputs": [
        {
          "internalType": "bool",
          "name": "v",
          "type": "bool"
        },
        {
          "internalType": "string",
          "name": "reason",
          "type": "string"
        }
      ],
      "name": "setRevertOnMultihop",
      "outputs": [],
      "stateMutability": "nonpayable",
      "type": "function"
    },
    {
      "inputs": [
        {
          "internalType": "bool",
          "name": "v",
          "type": "bool"
        },
        {
          "internalType": "string",
          "name": "reason",
          "type": "string"
        }
      ],
      "name": "setRevertOnSell",
      "outputs": [],
      "stateMutability": "nonpayable",
      "type": "function"
    },
    {
      "inputs": [
        {
          "internalType": "uint256",
          "name": "v",
          "type": "uint256"
        }
      ],
      "name": "setSellReturn",
      "outputs": [],
      "stateMutability": "nonpayable",
      "type": "function"
    },
    {
      "inputs": [
        {
          "internalType": "address",
          "name": "token",
          "type": "address"
        }
      ],
      "name": "setSellTokenIn",
      "outputs": [],
      "stateMutability": "nonpayable",
      "type": "function"
    },
    {
      "inputs": [
        {
          "internalType": "bool",
          "name": "v",
          "type": "bool"
        }
      ],
      "name": "setSkipTransfers",
      "outputs": [],
      "stateMutability": "nonpayable",
      "type": "function"
    },
    {
      "inputs": [
        {
          "internalType": "address",
          "name": "usdl_",
          "type": "address"
        }
      ],
      "name": "setUsdl",
      "outputs": [],
      "stateMutability": "nonpayable",
      "type": "function"
    },
    {
      "inputs": [],
      "name": "skipTransfers",
      "outputs": [
        {
          "internalType": "bool",
          "name": "",
          "type": "bool"
        }
      ],
      "stateMutability": "view",
      "type": "function"
    },
    {
      "inputs": [
        {
          "internalType": "address",
          "name": "tokenIn",
          "type": "address"
        },
        {
          "internalType": "address",
          "name": "tokenOut",
          "type": "address"
        },
        {
          "internalType": "uint256",
          "name": "amountIn",
          "type": "uint256"
        },
        {
          "internalType": "uint256",
          "name": "minAmountOut",
          "type": "uint256"
        },
        {
          "internalType": "uint256",
          "name": "deadline",
          "type": "uint256"
        }
      ],
      "name": "swapTokenForToken",
      "outputs": [
        {
          "internalType": "uint256",
          "name": "amountOut",
          "type": "uint256"
        },
        {
          "internalType": "uint256",
          "name": "intermediateUsdl",
          "type": "uint256"
        }
      ],
      "stateMutability": "nonpayable",
      "type": "function"
    },
    {
      "inputs": [],
      "name": "usdl",
      "outputs": [
        {
          "internalType": "address",
          "name": "",
          "type": "address"
        }
      ],
      "stateMutability": "view",
      "type": "function"
    }
  ],
  "bytecode": "0x60808060405234601557611397908161001b8239f35b600080fdfe608080604052600436101561001357600080fd5b60003560e01c90816302e2260a1461113f5750806308dc6372146111265780630dc7dfee146110fd5780631622dbe414610ef2578063185928c014610ed45780631aabb66614610da65780632289076114610d7d5780633b533d1314610d575780634862165714610d1757806349633ddf14610ce65780635ffcb50b14610ccd57806361b5b63614610bc9578063705b2cd614610b695780637d45c02b14610b2f5780638ef5184b146108f157806392cdbac5146106b1578063b255912b14610651578063b5049b2414610633578063ba66b222146105cc578063ba9dd80914610477578063bb5ba8c514610451578063c45464b014610432578063d13f717f146103f8578063d67e9d3c146103d5578063db23d46b146103b7578063dc3a993f14610399578063e94572f614610376578063f073658a14610349578063f1ac65af1461032b578063fa951c0714610306578063fe4f5a1e146102e85763ff87e5ea1461017f57600080fd5b346102e35761018d3661119e565b909160ff8019601a54169115151617601a5567ffffffffffffffff81116102cd576101b9601b546111fb565b601f8111610265575b506000601f82116001146101fe5781926000926101f3575b5050600019600383901b1c191660019190911b17601b55005b0135905038806101da565b601f1982169260008051602061134283398151915291805b85811061024d57508360019510610233575b505050811b01601b55005b0135600019600384901b60f8161c19169055388080610228565b90926020600181928686013581550194019101610216565b601f820160051c6000805160206113428339815191520190602083106102b7575b601f0160051c60008051602061134283398151915201905b8181106102ab57506101c2565b6000815560010161029e565b6000805160206113428339815191529150610286565b634e487b7160e01b600052604160045260246000fd5b600080fd5b346102e35760003660031901126102e3576020601854604051908152f35b346102e35760003660031901126102e357600060135560006014556000601555600080f35b346102e35760003660031901126102e3576020601454604051908152f35b346102e35760003660031901126102e357601c5460405160089190911c6001600160a01b03168152602090f35b346102e35760003660031901126102e357602060ff601c54166040519015158152f35b346102e35760003660031901126102e3576020601554604051908152f35b346102e35760003660031901126102e3576020601354604051908152f35b346102e35760003660031901126102e357602060ff601a54166040519015158152f35b346102e35760203660031901126102e3576001600160a01b0361041961115a565b166001600160601b0360a01b601d541617601d55600080f35b346102e35760403660031901126102e357600435601855602435601955005b346102e35760003660031901126102e357602060ff601a5460101c166040519015158152f35b346102e3576104853661119e565b909162ff0000601a5491151560101b169062ff0000191617601a5567ffffffffffffffff81116102cd576104ba601b546111fb565b601f8111610564575b506000601f82116001146104fe5781926000926104f3575050600019600383901b1c191660019190911b17601b55005b0135905082806101da565b601f1982169260008051602061134283398151915291805b85811061054c5750836001951061053257505050811b01601b55005b0135600019600384901b60f8161c19169055828080610228565b90926020600181928686013581550194019101610516565b601f820160051c6000805160206113428339815191520190602083106105b6575b601f0160051c60008051602061134283398151915201905b8181106105aa57506104c3565b6000815560010161059d565b6000805160206113428339815191529150610585565b346102e35760003660031901126102e357600c54600d54600e54600f54601054601154601254604080516001600160a01b03988916815296881660208801528601949094526060850192909252608084015290921660a082015260c081019190915260e090f35b346102e35760003660031901126102e3576020601754604051908152f35b346102e35760003660031901126102e357600654600754600854600954600a54600b54604080516001600160a01b0397881681526020810196909652850193909352606084019190915292909216608082015260a081019190915260c090f35b346102e3576106bf36611170565b60ff601a9493945460081c166108d457604051926106dc84611235565b6001600160a01b03168084526020840185905260408401839052606084018290523360808501819052600060a0909501859052600680546001600160a01b031990811690931790556007869055600893909355600991909155600a80549091169091179055600b5560145461075090611304565b60145560ff601c54161561076c575b6020601754604051908152f35b601e546001600160a01b0316908161080b575b5050601754801561075f57601c5460405163a9059cbb60e01b81523360048201526024810192909252602090829060081c6001600160a01b0316816000816044810103925af180156107ff571561075f576107f19060203d6020116107f8575b6107e98183611251565b810190611329565b508061075f565b503d6107df565b6040513d6000823e3d90fd5b604051636eb1769f60e11b8152336004820152306024820152602081604481865afa9081156107ff576000916108a1575b50600b556040516323b872dd60e01b8152336004820152306024820152604481019190915290602090829060649082906000905af180156107ff57610882575b8061077f565b61089a9060203d6020116107f8576107e98183611251565b508061087c565b90506020813d6020116108cc575b816108bc60209383611251565b810103126102e35751600061083c565b3d91506108af565b60405162461bcd60e51b8152806108ed60048201611273565b0390fd5b346102e35760a03660031901126102e35761090a61115a565b6024356001600160a01b03811691908290036102e357604435906064356084359160ff601a5460101c166108d457604051636eb1769f60e11b81523360048201523060248201526001600160a01b0391909116929091602083604481875afa9283156107ff57600093610af8575b5060405160e0810181811067ffffffffffffffff8211176102cd57849160c0916040528681528860208201528760408201528360608201528460808201523360a08201520152836001600160601b0360a01b600c541617600c55856001600160601b0360a01b600d541617600d5584600e55600f55601055336001600160601b0360a01b6011541617601155601255610a12601554611304565b60155560ff601c541615610a35575b604060185460195482519182526020820152f35b6040516323b872dd60e01b81523360048201523060248201526044810192909252602090829060649082906000905af180156107ff57610adb575b506018549081610a81575b80610a21565b60405163a9059cbb60e01b81523360048201526024810192909252602090829060449082906000905af180156107ff57610abc575b80610a7b565b610ad49060203d6020116107f8576107e98183611251565b5080610ab6565b610af39060203d6020116107f8576107e98183611251565b610a70565b90926020823d602011610b27575b81610b1360209383611251565b81010312610b245750519186610978565b80fd5b3d9150610b06565b346102e35760203660031901126102e3576001600160a01b03610b5061115a565b166001600160601b0360a01b601e541617601e55600080f35b346102e35760003660031901126102e357600054600154600254600354600454600554604080516001600160a01b0397881681526020810196909652850193909352606084019190915292909216608082015260a081019190915260c090f35b346102e35760003660031901126102e357604051601b54816000610bec836111fb565b8083529260018116908115610cae5750600114610c5f575b610c1092500382611251565b60405190602082528181519182602083015260005b838110610c475750508160006040809484010152601f80199101168101030190f35b60208282018101516040878401015285935001610c25565b5090601b600052600080516020611342833981519152906000915b818310610c92575050906020610c1092820101610c04565b6020919350806001915483858801015201910190918392610c7a565b60209250610c1094915060ff191682840152151560051b820101610c04565b346102e35760203660031901126102e357600435601755005b346102e35760203660031901126102e3576004358015158091036102e35760ff8019601c5416911617601c55600080f35b346102e35760203660031901126102e357610d3061115a565b601c8054610100600160a81b03191660089290921b610100600160a81b0316919091179055005b346102e35760003660031901126102e357602060ff601a5460081c166040519015158152f35b346102e35760003660031901126102e357601d546040516001600160a01b039091168152602090f35b346102e357610db43661119e565b909161ff00601a5491151560081b169061ff00191617601a5567ffffffffffffffff81116102cd57610de7601b546111fb565b601f8111610e6c575b506000601f8211600114610e205781926000926104f3575050600019600383901b1c191660019190911b17601b55005b601f1982169260008051602061134283398151915291805b858110610e545750836001951061053257505050811b01601b55005b90926020600181928686013581550194019101610e38565b601f820160051c600080516020611342833981519152019060208310610ebe575b601f0160051c60008051602061134283398151915201905b818110610eb25750610df0565b60008155600101610ea5565b6000805160206113428339815191529150610e8d565b346102e35760003660031901126102e3576020601654604051908152f35b346102e357610f0036611170565b60ff601a9492939454166108d457601c54604051636eb1769f60e11b81523360048201523060248201529390602090859060081c6001600160a01b031681806044810103915afa9384156107ff576000946110c9575b5060405192610f6484611235565b6001600160a01b0316808452602084018690526040840182905260608401839052336080850181905260a0909401859052600080546001600160a01b031990811690921790556001869055600291909155600391909155600480549091169091179055600555601354610fd690611304565b601355601c5460ff811615610ff3575b6020601654604051908152f35b6040516323b872dd60e01b8152336004820152306024820152604481019290925260209082908160008160648101039260081c6001600160a01b03165af180156107ff576110ac575b506016548061104c575b80610fe6565b601d5460405163a9059cbb60e01b81523360048201526024810192909252602090829060449082906000906001600160a01b03165af180156107ff5715611046576110a59060203d6020116107f8576107e98183611251565b5080611046565b6110c49060203d6020116107f8576107e98183611251565b61103c565b9093506020813d6020116110f5575b816110e560209383611251565b810103126102e357519285610f56565b3d91506110d8565b346102e35760003660031901126102e357601e546040516001600160a01b039091168152602090f35b346102e35760203660031901126102e357600435601655005b346102e35760003660031901126102e3576020906019548152f35b600435906001600160a01b03821682036102e357565b60809060031901126102e3576004356001600160a01b03811681036102e35790602435906044359060643590565b60406003198201126102e35760043580151581036102e3579160243567ffffffffffffffff81116102e357826023820112156102e35780600401359267ffffffffffffffff84116102e357602484830101116102e3576024019190565b90600182811c9216801561122b575b602083101461121557565b634e487b7160e01b600052602260045260246000fd5b91607f169161120a565b60c0810190811067ffffffffffffffff8211176102cd57604052565b90601f8019910116810190811067ffffffffffffffff8211176102cd57604052565b60208152601b54600091611286826111fb565b918260208301526001811690816000146112e957506001146112a757505090565b601b60009081529192506000805160206113428339815191525b8383106112d2575060409250010190565b8054604084840101526020909201916001016112c1565b90506040935060ff929192191683830152151560051b010190565b60001981146113135760010190565b634e487b7160e01b600052601160045260246000fd5b908160209103126102e3575180151581036102e3579056fe3ad8aa4f87544323a9d1e5dd902f40c356527a7955687113db5f9a85ad579dc1a2646970667358221220302100c3a8425b3f51de7d3fee29b37e8451acbcfb48fe78015bf35e28803d6864736f6c634300081b0033",
  "linkReferences": {},
  "deployedLinkReferences": {}
}