{
  "_format": "hh-sol-artifact-1",
  "contractName": "MockRevertingERC20",
  "sourceName": "contracts/test/MockRevertingERC20.sol",
  "abi": [
    {
      "inputs": [
        {
          "internalType": "string",
          "name": "_name",
          "type": "string"
        },
        {
          "internalType": "string",
          "name": "_symbol",
          "type": "string"
        },
        {
          "internalType": "uint8",
          "name": "_decimals",
          "type": "uint8"
        }
      ],
      "stateMutability": "nonpayable",
      "type": "constructor"
    },
    {
      "anonymous": false,
      "inputs": [
        {
          "indexed": true,
          "internalType": "address",
          "name": "owner",
          "type": "address"
        },
        {
          "indexed": true,
          "internalType": "address",
          "name": "spender",
          "type": "address"
        },
        {
          "indexed": false,
          "internalType": "uint256",
          "name": "value",
          "type": "uint256"
        }
      ],
      "name": "Approval",
      "type": "event"
    },
    {
      "anonymous": false,
      "inputs": [
        {
          "indexed": true,
          "internalType": "address",
          "name": "from",
          "type": "address"
        },
        {
          "indexed": true,
          "internalType": "address",
          "name": "to",
          "type": "address"
        },
        {
          "indexed": false,
          "internalType": "uint256",
          "name": "value",
          "type": "uint256"
        }
      ],
      "name": "Transfer",
      "type": "event"
    },
    {
      "inputs": [
        {
          "internalType": "address",
          "name": "",
          "type": "address"
        },
        {
          "internalType": "address",
          "name": "",
          "type": "address"
        }
      ],
      "name": "allowance",
      "outputs": [
        {
          "internalType": "uint256",
          "name": "",
          "type": "uint256"
        }
      ],
      "stateMutability": "view",
      "type": "function"
    },
    {
      "inputs": [
        {
          "internalType": "address",
          "name": "spender",
          "type": "address"
        },
        {
          "internalType": "uint256",
          "name": "amount",
          "type": "uint256"
        }
      ],
      "name": "approve",
      "outputs": [
        {
          "internalType": "bool",
          "name": "",
          "type": "bool"
        }
      ],
      "stateMutability": "nonpayable",
      "type": "function"
    },
    {
      "inputs": [
        {
          "internalType": "address",
          "name": "",
          "type": "address"
        }
      ],
      "name": "balanceOf",
      "outputs": [
        {
          "internalType": "uint256",
          "name": "",
          "type": "uint256"
        }
      ],
      "stateMutability": "view",
      "type": "function"
    },
    {
      "inputs": [],
      "name": "decimals",
      "outputs": [
        {
          "internalType": "uint8",
          "name": "",
          "type": "uint8"
        }
      ],
      "stateMutability": "view",
      "type": "function"
    },
    {
      "inputs": [
        {
          "internalType": "address",
          "name": "to",
          "type": "address"
        },
        {
          "internalType": "uint256",
          "name": "amount",
          "type": "uint256"
        }
      ],
      "name": "mint",
      "outputs": [],
      "stateMutability": "nonpayable",
      "type": "function"
    },
    {
      "inputs": [],
      "name": "name",
      "outputs": [
        {
          "internalType": "string",
          "name": "",
          "type": "string"
        }
      ],
      "stateMutability": "view",
      "type": "function"
    },
    {
      "inputs": [
        {
          "internalType": "bool",
          "name": "_shouldRevert",
          "type": "bool"
        }
      ],
      "name": "setShouldRevert",
      "outputs": [],
      "stateMutability": "nonpayable",
      "type": "function"
    },
    {
      "inputs": [],
      "name": "shouldRevert",
      "outputs": [
        {
          "internalType": "bool",
          "name": "",
          "type": "bool"
        }
      ],
      "stateMutability": "view",
      "type": "function"
    },
    {
      "inputs": [],
      "name": "symbol",
      "outputs": [
        {
          "internalType": "string",
          "name": "",
          "type": "string"
        }
      ],
      "stateMutability": "view",
      "type": "function"
    },
    {
      "inputs": [],
      "name": "totalSupply",
      "outputs": [
        {
          "internalType": "uint256",
          "name": "",
          "type": "uint256"
        }
      ],
      "stateMutability": "view",
      "type": "function"
    },
    {
      "inputs": [
        {
          "internalType": "address",
          "name": "to",
          "type": "address"
        },
        {
          "internalType": "uint256",
          "name": "amount",
          "type": "uint256"
        }
      ],
      "name": "transfer",
      "outputs": [
        {
          "internalType": "bool",
          "name": "",
          "type": "bool"
        }
      ],
      "stateMutability": "nonpayable",
      "type": "function"
    },
    {
      "inputs": [
        {
          "internalType": "address",
          "name": "from",
          "type": "address"
        },
        {
          "internalType": "address",
          "name": "to",
          "type": "address"
        },
        {
          "internalType": "uint256",
          "name": "amount",
          "type": "uint256"
        }
      ],
      "name": "transferFrom",
      "outputs": [
        {
          "internalType": "bool",
          "name": "",
          "type": "bool"
        }
      ],
      "stateMutability": "nonpayable",
      "type": "function"
    }
  ],
  "bytecode": "0x60806040523461034f57610bfd8038038061001981610354565b92833981019060608183031261034f5780516001600160401b03811161034f5782610045918301610379565b60208201519092906001600160401b03811161034f57604091610069918401610379565b91015160ff811680910361034f576006805460ff1916600117905582516001600160401b03811161025a57600054600181811c91168015610345575b602082101461023a57601f81116102e1575b506020601f821160011461027b5781929394600092610270575b50508160011b916000199060031b1c1916176000555b81516001600160401b03811161025a57600154600181811c91168015610250575b602082101461023a57601f81116101d5575b50602092601f82116001146101705792819293600092610165575b50508160011b916000199060031b1c1916176001555b60ff19600254161760025560405161081890816103e58239f35b015190503880610135565b601f198216936001600052806000209160005b8681106101bd57508360019596106101a4575b505050811b0160015561014b565b015160001960f88460031b161c19169055388080610196565b91926020600181928685015181550194019201610183565b60016000527fb10e2d527612073b26eecdfd717e6a320cf44b4afac2b0732d9fcbe2b7fa0cf6601f830160051c81019160208410610230575b601f0160051c01905b818110610224575061011a565b60008155600101610217565b909150819061020e565b634e487b7160e01b600052602260045260246000fd5b90607f1690610108565b634e487b7160e01b600052604160045260246000fd5b0151905038806100d1565b601f1982169060008052806000209160005b8181106102c9575095836001959697106102b0575b505050811b016000556100e7565b015160001960f88460031b161c191690553880806102a2565b9192602060018192868b01518155019401920161028d565b600080527f290decd9548b62a8d60345a988386fc84ba6bc95484008f6362f93160ef3e563601f830160051c8101916020841061033b575b601f0160051c01905b81811061032f57506100b7565b60008155600101610322565b9091508190610319565b90607f16906100a5565b600080fd5b6040519190601f01601f191682016001600160401b0381118382101761025a57604052565b81601f8201121561034f578051906001600160401b03821161025a576103a8601f8301601f1916602001610354565b928284526020838301011161034f5760005b8281106103cf57505060206000918301015290565b806020809284010151828287010152016103ba56fe6080604052600436101561001257600080fd5b60003560e01c806306fdde0314610640578063095ea7b3146105b557806318160ddd1461059757806323b872dd14610447578063313ce5671461042657806340c10f19146103ab5780636813d7871461037a57806370a082311461034057806395d89b411461021f578063a9059cbb14610119578063d3072d82146100f65763dd62ed3e146100a057600080fd5b346100f15760403660031901126100f1576100b9610743565b6100c1610759565b6001600160a01b039182166000908152600560209081526040808320949093168252928352819020549051908152f35b600080fd5b346100f15760003660031901126100f157602060ff600654166040519015158152f35b346100f15760403660031901126100f157610132610743565b6024359060ff600654166101d05733600052600460205261015a82604060002054101561076f565b33600052600460205260406000206101738382546107b2565b905560018060a01b03169081600052600460205260406000206101978282546107d5565b90556040519081527fddf252ad1be2c89b69c2b068fc378daa952ba7f163c4a11628f55a4df523b3ef60203392a3602060405160018152f35b60405162461bcd60e51b815260206004820152602160248201527f4d6f636b526576657274696e6745524332303a20666f726365642072657665726044820152601d60fa1b6064820152608490fd5b346100f15760003660031901126100f1576000604051816001548060011c90600181168015610336575b6020831081146103225782855290811561030657506001146102b2575b50819003601f01601f1916810167ffffffffffffffff81118282101761029e5761029a9250604052604051918291826106fa565b0390f35b634e487b7160e01b83526041600452602483fd5b600184529050827fb10e2d527612073b26eecdfd717e6a320cf44b4afac2b0732d9fcbe2b7fa0cf65b8282106102f057506020915082010183610266565b60018160209254838588010152019101906102db565b90506020925060ff191682840152151560051b82010183610266565b634e487b7160e01b86526022600452602486fd5b91607f1691610249565b346100f15760203660031901126100f1576001600160a01b03610361610743565b1660005260046020526020604060002054604051908152f35b346100f15760203660031901126100f1576004358015158091036100f15760ff801960065416911617600655600080f35b346100f15760403660031901126100f1576103c4610743565b60007fddf252ad1be2c89b69c2b068fc378daa952ba7f163c4a11628f55a4df523b3ef6020602435936103f9856003546107d5565b60035560018060a01b031693848452600482526040842061041b8282546107d5565b9055604051908152a3005b346100f15760003660031901126100f157602060ff60025416604051908152f35b346100f15760603660031901126100f157610460610743565b610468610759565b6044359160ff600654166101d05760018060a01b03169081600052600460205261049983604060002054101561076f565b600082815260056020908152604080832033845290915290205483116105595760207fddf252ad1be2c89b69c2b068fc378daa952ba7f163c4a11628f55a4df523b3ef918360005260058252604060002060018060a01b033316600052825260406000206105088682546107b2565b9055836000526004825260406000206105228682546107b2565b905560018060a01b031693846000526004825260406000206105458282546107d5565b9055604051908152a3602060405160018152f35b60405162461bcd60e51b8152602060048201526016602482015275696e73756666696369656e7420616c6c6f77616e636560501b6044820152606490fd5b346100f15760003660031901126100f1576020600354604051908152f35b346100f15760403660031901126100f1576105ce610743565b6024359060ff600654166101d057336000526005602052604060002060018060a01b0382166000526020528160406000205560405191825260018060a01b0316907f8c5be1e5ebec7d5bd14f71427d1e84f3dd0314c0f7b2291e5b200ac8c7c3b92560203392a3602060405160018152f35b346100f15760003660031901126100f15760006040518182548060011c906001811680156106f0575b6020831081146103225782855290811561030657506001146106b95750819003601f01601f1916810167ffffffffffffffff81118282101761029e5761029a9250604052604051918291826106fa565b90508280526020832083905b8282106106da57506020915082010183610266565b60018160209254838588010152019101906106c5565b91607f1691610669565b91909160208152825180602083015260005b81811061072d575060409293506000838284010152601f8019910116010190565b806020809287010151604082860101520161070c565b600435906001600160a01b03821682036100f157565b602435906001600160a01b03821682036100f157565b1561077657565b60405162461bcd60e51b8152602060048201526014602482015273696e73756666696369656e742062616c616e636560601b6044820152606490fd5b919082039182116107bf57565b634e487b7160e01b600052601160045260246000fd5b919082018092116107bf5756fea2646970667358221220ef60291cef9e0e97ce53336db0a3c9dc5b46e6a06a894b5e04e98bcd184f365b64736f6c634300081b0033",
  "linkReferences": {},
  "deployedLinkReferences": {}
}