{
  "_format": "hh-sol-artifact-1",
  "contractName": "PoolRegistry",
  "sourceName": "contracts/data/PoolRegistry.sol",
  "abi": [
    {
      "inputs": [],
      "stateMutability": "nonpayable",
      "type": "constructor"
    },
    {
      "inputs": [],
      "name": "AlreadyInitialized",
      "type": "error"
    },
    {
      "inputs": [],
      "name": "DuplicateToken",
      "type": "error"
    },
    {
      "inputs": [],
      "name": "InvalidImplementation",
      "type": "error"
    },
    {
      "inputs": [],
      "name": "InvalidImplementation",
      "type": "error"
    },
    {
      "inputs": [
        {
          "internalType": "address",
          "name": "account",
          "type": "address"
        },
        {
          "internalType": "bytes32",
          "name": "role",
          "type": "bytes32"
        }
      ],
      "name": "MissingRole",
      "type": "error"
    },
    {
      "inputs": [],
      "name": "NotInitializing",
      "type": "error"
    },
    {
      "inputs": [],
      "name": "PoolNotFound",
      "type": "error"
    },
    {
      "inputs": [],
      "name": "UUPSNotThroughActiveProxy",
      "type": "error"
    },
    {
      "inputs": [],
      "name": "UUPSNotThroughProxy",
      "type": "error"
    },
    {
      "inputs": [],
      "name": "Unauthorized",
      "type": "error"
    },
    {
      "inputs": [],
      "name": "UnauthorizedUpgrade",
      "type": "error"
    },
    {
      "inputs": [],
      "name": "ZeroAddress",
      "type": "error"
    },
    {
      "anonymous": false,
      "inputs": [
        {
          "indexed": false,
          "internalType": "uint64",
          "name": "version",
          "type": "uint64"
        }
      ],
      "name": "Initialized",
      "type": "event"
    },
    {
      "anonymous": false,
      "inputs": [
        {
          "indexed": true,
          "internalType": "address",
          "name": "pool",
          "type": "address"
        },
        {
          "indexed": true,
          "internalType": "address",
          "name": "token",
          "type": "address"
        },
        {
          "indexed": true,
          "internalType": "address",
          "name": "creator",
          "type": "address"
        },
        {
          "indexed": false,
          "internalType": "address",
          "name": "optical",
          "type": "address"
        },
        {
          "indexed": false,
          "internalType": "uint256",
          "name": "nftId",
          "type": "uint256"
        },
        {
          "indexed": false,
          "internalType": "uint256",
          "name": "timestamp",
          "type": "uint256"
        }
      ],
      "name": "PoolRegistered",
      "type": "event"
    },
    {
      "anonymous": false,
      "inputs": [
        {
          "indexed": true,
          "internalType": "bytes32",
          "name": "role",
          "type": "bytes32"
        },
        {
          "indexed": true,
          "internalType": "bytes32",
          "name": "previousAdminRole",
          "type": "bytes32"
        },
        {
          "indexed": true,
          "internalType": "bytes32",
          "name": "newAdminRole",
          "type": "bytes32"
        }
      ],
      "name": "RoleAdminChanged",
      "type": "event"
    },
    {
      "anonymous": false,
      "inputs": [
        {
          "indexed": true,
          "internalType": "bytes32",
          "name": "role",
          "type": "bytes32"
        },
        {
          "indexed": true,
          "internalType": "address",
          "name": "account",
          "type": "address"
        },
        {
          "indexed": true,
          "internalType": "address",
          "name": "sender",
          "type": "address"
        }
      ],
      "name": "RoleGranted",
      "type": "event"
    },
    {
      "anonymous": false,
      "inputs": [
        {
          "indexed": true,
          "internalType": "bytes32",
          "name": "role",
          "type": "bytes32"
        },
        {
          "indexed": true,
          "internalType": "address",
          "name": "account",
          "type": "address"
        },
        {
          "indexed": true,
          "internalType": "address",
          "name": "sender",
          "type": "address"
        }
      ],
      "name": "RoleRevoked",
      "type": "event"
    },
    {
      "anonymous": false,
      "inputs": [
        {
          "indexed": true,
          "internalType": "address",
          "name": "implementation",
          "type": "address"
        }
      ],
      "name": "Upgraded",
      "type": "event"
    },
    {
      "inputs": [],
      "name": "DEFAULT_ADMIN_ROLE",
      "outputs": [
        {
          "internalType": "bytes32",
          "name": "",
          "type": "bytes32"
        }
      ],
      "stateMutability": "view",
      "type": "function"
    },
    {
      "inputs": [],
      "name": "FACTORY_ROLE",
      "outputs": [
        {
          "internalType": "bytes32",
          "name": "",
          "type": "bytes32"
        }
      ],
      "stateMutability": "view",
      "type": "function"
    },
    {
      "inputs": [],
      "name": "eventEmitter",
      "outputs": [
        {
          "internalType": "address",
          "name": "",
          "type": "address"
        }
      ],
      "stateMutability": "view",
      "type": "function"
    },
    {
      "inputs": [
        {
          "internalType": "uint256",
          "name": "offset",
          "type": "uint256"
        },
        {
          "internalType": "uint256",
          "name": "limit",
          "type": "uint256"
        }
      ],
      "name": "getAllPools",
      "outputs": [
        {
          "internalType": "address[]",
          "name": "",
          "type": "address[]"
        }
      ],
      "stateMutability": "view",
      "type": "function"
    },
    {
      "inputs": [
        {
          "internalType": "address",
          "name": "pool",
          "type": "address"
        }
      ],
      "name": "getNftIdByPool",
      "outputs": [
        {
          "internalType": "uint256",
          "name": "",
          "type": "uint256"
        }
      ],
      "stateMutability": "view",
      "type": "function"
    },
    {
      "inputs": [
        {
          "internalType": "address",
          "name": "token",
          "type": "address"
        }
      ],
      "name": "getPoolByToken",
      "outputs": [
        {
          "internalType": "address",
          "name": "",
          "type": "address"
        }
      ],
      "stateMutability": "view",
      "type": "function"
    },
    {
      "inputs": [],
      "name": "getPoolCount",
      "outputs": [
        {
          "internalType": "uint256",
          "name": "",
          "type": "uint256"
        }
      ],
      "stateMutability": "view",
      "type": "function"
    },
    {
      "inputs": [
        {
          "internalType": "address",
          "name": "pool",
          "type": "address"
        }
      ],
      "name": "getPoolMetadata",
      "outputs": [
        {
          "components": [
            {
              "internalType": "address",
              "name": "creator",
              "type": "address"
            },
            {
              "internalType": "address",
              "name": "token",
              "type": "address"
            },
            {
              "internalType": "address",
              "name": "optical",
              "type": "address"
            },
            {
              "internalType": "uint256",
              "name": "nftId",
              "type": "uint256"
            },
            {
              "internalType": "uint256",
              "name": "createdAt",
              "type": "uint256"
            },
            {
              "internalType": "uint256",
              "name": "createdBlock",
              "type": "uint256"
            }
          ],
          "internalType": "struct IPoolRegistry.PoolMetadata",
          "name": "",
          "type": "tuple"
        }
      ],
      "stateMutability": "view",
      "type": "function"
    },
    {
      "inputs": [
        {
          "internalType": "address",
          "name": "creator",
          "type": "address"
        }
      ],
      "name": "getPoolsByCreator",
      "outputs": [
        {
          "internalType": "address[]",
          "name": "",
          "type": "address[]"
        }
      ],
      "stateMutability": "view",
      "type": "function"
    },
    {
      "inputs": [
        {
          "internalType": "bytes32",
          "name": "role",
          "type": "bytes32"
        }
      ],
      "name": "getRoleAdmin",
      "outputs": [
        {
          "internalType": "bytes32",
          "name": "",
          "type": "bytes32"
        }
      ],
      "stateMutability": "view",
      "type": "function"
    },
    {
      "inputs": [
        {
          "internalType": "bytes32",
          "name": "role",
          "type": "bytes32"
        },
        {
          "internalType": "address",
          "name": "account",
          "type": "address"
        }
      ],
      "name": "grantRole",
      "outputs": [],
      "stateMutability": "nonpayable",
      "type": "function"
    },
    {
      "inputs": [
        {
          "internalType": "bytes32",
          "name": "role",
          "type": "bytes32"
        },
        {
          "internalType": "address",
          "name": "account",
          "type": "address"
        }
      ],
      "name": "hasRole",
      "outputs": [
        {
          "internalType": "bool",
          "name": "",
          "type": "bool"
        }
      ],
      "stateMutability": "view",
      "type": "function"
    },
    {
      "inputs": [
        {
          "internalType": "address",
          "name": "_eventEmitter",
          "type": "address"
        },
        {
          "internalType": "address",
          "name": "_admin",
          "type": "address"
        }
      ],
      "name": "initialize",
      "outputs": [],
      "stateMutability": "nonpayable",
      "type": "function"
    },
    {
      "inputs": [
        {
          "internalType": "address",
          "name": "pool",
          "type": "address"
        }
      ],
      "name": "isRegisteredPool",
      "outputs": [
        {
          "internalType": "bool",
          "name": "",
          "type": "bool"
        }
      ],
      "stateMutability": "view",
      "type": "function"
    },
    {
      "inputs": [],
      "name": "proxiableUUID",
      "outputs": [
        {
          "internalType": "bytes32",
          "name": "",
          "type": "bytes32"
        }
      ],
      "stateMutability": "view",
      "type": "function"
    },
    {
      "inputs": [
        {
          "internalType": "address",
          "name": "pool",
          "type": "address"
        },
        {
          "internalType": "address",
          "name": "token",
          "type": "address"
        },
        {
          "internalType": "address",
          "name": "creator",
          "type": "address"
        },
        {
          "internalType": "address",
          "name": "optical",
          "type": "address"
        },
        {
          "internalType": "uint256",
          "name": "nftId",
          "type": "uint256"
        }
      ],
      "name": "register",
      "outputs": [],
      "stateMutability": "nonpayable",
      "type": "function"
    },
    {
      "inputs": [
        {
          "internalType": "bytes32",
          "name": "role",
          "type": "bytes32"
        },
        {
          "internalType": "address",
          "name": "callerConfirmation",
          "type": "address"
        }
      ],
      "name": "renounceRole",
      "outputs": [],
      "stateMutability": "nonpayable",
      "type": "function"
    },
    {
      "inputs": [
        {
          "internalType": "bytes32",
          "name": "role",
          "type": "bytes32"
        },
        {
          "internalType": "address",
          "name": "account",
          "type": "address"
        }
      ],
      "name": "revokeRole",
      "outputs": [],
      "stateMutability": "nonpayable",
      "type": "function"
    },
    {
      "inputs": [
        {
          "internalType": "address",
          "name": "newImplementation",
          "type": "address"
        },
        {
          "internalType": "bytes",
          "name": "data",
          "type": "bytes"
        }
      ],
      "name": "upgradeToAndCall",
      "outputs": [],
      "stateMutability": "payable",
      "type": "function"
    }
  ],
  "bytecode": "0x60a080604052346100c5573060805260008051602061122b8339815191525460ff8160401c166100b5576002600160401b03196001600160401b03821601610061575b60405161116090816100cb823960805181818161036e015261053d0152f35b6001600160401b0319166001600160401b0390811760008051602061122b8339815191525581527fc7f505b2f371ae2175ee4913f4499e1f2633a7b5936321eed1cdaeb6115181d290602090a13880610042565b62dc149f60e41b60005260046000fd5b600080fdfe608080604052600436101561001357600080fd5b60003560e01c90816304a0fb1714610c7d57508063248a9ca314610c485780632f2ff15d14610c0857806336568abe14610bb957806343a6d1c3146108be578063485cc955146107445780634f1ef286146104c857806351de9d26146103d757806352d1902d1461035b5780638eec5d701461033d57806391d14854146102f05780639ff78c30146102c7578063a217fddf146102ab578063a7753f0914610289578063bbadc03b14610247578063c699e63314610208578063c84728ef14610178578063d547741f1461012f5763d56ed6c4146100f057600080fd5b3461012a57602036600319011261012a576001600160a01b03610111610ccc565b1660005260026020526020604060002054604051908152f35b600080fd5b3461012a57604036600319011261012a5761017660043561014e610cb6565b9061017161016a82600052600060205260016040600020015490565b3390610ef5565b611082565b005b3461012a57602036600319011261012a576001600160a01b03610199610ccc565b166000526003602052604060002060405190816020825491828152019160005260206000209060005b8181106101e9576101e5856101d981870382610cfe565b60405191829182610d3c565b0390f35b82546001600160a01b03168452602090930192600192830192016101c2565b3461012a57602036600319011261012a576001600160a01b03610229610ccc565b166000526005602052602060ff604060002054166040519015158152f35b3461012a57602036600319011261012a576001600160a01b03610268610ccc565b166000526001602052602060018060a01b0360406000205416604051908152f35b3461012a57604036600319011261012a576101e56101d9602435600435610de8565b3461012a57600036600319011261012a57602060405160008152f35b3461012a57600036600319011261012a576007546040516001600160a01b039091168152602090f35b3461012a57604036600319011261012a57610309610cb6565b600435600052600060205260406000209060018060a01b0316600052602052602060ff604060002054166040519015158152f35b3461012a57600036600319011261012a576020600654604051908152f35b3461012a57600036600319011261012a577f00000000000000000000000000000000000000000000000000000000000000006001600160a01b031630036103c65760206040517f360894a13ba1a3210667c828492db98dca3e2076cc3735a920a3ca505d382bbc8152f35b6345a93fc960e01b60005260046000fd5b3461012a57602036600319011261012a576103f0610ccc565b600060a060405161040081610ce2565b828152826020820152826040820152826060820152826080820152015260018060a01b0316600052600460205260c0604060002060405161044081610ce2565b81546001600160a01b039081168083526001840154821660208085019182526002860154841660408087019182526003880154606080890191825260048a01546080808b019182526005909b015460a09a8b01908152845198895296518916958801959095529251909616908501529351938301939093529151938101939093525190820152f35b604036600319011261012a576104dc610ccc565b6024359067ffffffffffffffff821161012a573660238301121561012a57816004013561050881610d20565b906105166040519283610cfe565b8082526020820193366024838301011161012a5781600092602460209301873783010152307f00000000000000000000000000000000000000000000000000000000000000006001600160a01b031614610733573360009081527fad3228b676f7d3cd4284a5443f17f1962b36e491b30a40b2405849e597ba5fb5602052604090205460ff161561071a576040516352d1902d60e01b81526001600160a01b03831690602081600481855afa600091816106e6575b506105e15763340aafcd60e11b60005260046000fd5b7f360894a13ba1a3210667c828492db98dca3e2076cc3735a920a3ca505d382bbc036106d557823b156106d557827f360894a13ba1a3210667c828492db98dca3e2076cc3735a920a3ca505d382bbc557fbc7cd75a20ee27fd9adebab32041f755214dbc6bffa90cc0225b39da2e5c2d3b600080a2518061065e57005b60009283925af43d156106d0573d61067581610d20565b906106836040519283610cfe565b8152600060203d92013e5b1561069557005b60405162461bcd60e51b81526020600482015260136024820152721d5c19dc985919481a5b9a5d0819985a5b1959606a1b6044820152606490fd5b61068e565b63340aafcd60e11b60005260046000fd5b9091506020813d602011610712575b8161070260209383610cfe565b8101031261012a575190866105cb565b3d91506106f5565b62b0d32560e11b60005233600452600060245260446000fd5b6309e1070b60e31b60005260046000fd5b3461012a57604036600319011261012a5761075d610ccc565b610765610cb6565b9060008051602061110b833981519152549160ff8360401c16159267ffffffffffffffff81166001811015806108b7575b61089f571515806108af575b61089f5783610877575b5060008051602061110b833981519152805467ffffffffffffffff191660011790556001600160a01b03811615610866576108069160018060a01b03166bffffffffffffffffffffffff60a01b6007541617600755610f43565b5061080d57005b68ff00000000000000001960008051602061110b833981519152541660008051602061110b833981519152557fc7f505b2f371ae2175ee4913f4499e1f2633a7b5936321eed1cdaeb6115181d2602060405160018152a1005b63d92e233d60e01b60005260046000fd5b68ff00000000000000001916600160401b1760008051602061110b83398151915255836107ac565b62dc149f60e41b60005260046000fd5b5083156107a2565b5084610796565b3461012a5760a036600319011261012a576108d7610ccc565b6108df610cb6565b6044356001600160a01b03811692919083900361012a576064356001600160a01b0381169081900361012a573360009081527faae065819044e7c1f6f3a25fcf56eec95d9ef9dcbfbb8eb1f8a4a273b3bd01466020526040902054608435939060ff1615610b81576001600160a01b03169182158015610b70575b8015610b68575b610866576001600160a01b0390811660008181526001602052604090205490949116610b57578360005260016020526040600020836bffffffffffffffffffffffff60a01b8254161790558260005260026020528060406000205584600052600360205260406000208054600160401b811015610b41576109e791600182018155610d7f565b81546001600160a01b0360039290921b91821b19169085901b17905560008381526005602052604090819020805460ff1916600117905551610a2881610ce2565b858152602080820186815260408084018681526060850186815242608087019081524360a0880190815260008b815260049788905294909420965187546001600160a01b03199081166001600160a01b03928316178955955160018901805488169183169190911790559251600288018054909616931692909217909355915160038501559051918301919091555160059190910155600654600160401b811015610b4157806001610adf92016006556006610d7f565b81546001600160a01b0360039290921b82811b199091169086901b1790915560075416610b0857005b7fdd85b374a142757b7745e1d5957bddced32d0fae0d5a038c41e7f79dc162b5ce916060916040519182526020820152426040820152a4005b634e487b7160e01b600052604160045260246000fd5b6323271fb560e11b60005260046000fd5b508415610961565b506001600160a01b0381161561095a565b62b0d32560e11b600052336004527fdfbefbf47cfe66b701d8cfdbce1de81c821590819cb07e71cb01b6602fb0ee2760245260446000fd5b3461012a57604036600319011261012a57600435610bd5610cb6565b336001600160a01b0390911603610bf157610176903390611082565b62b0d32560e11b6000523360045260245260446000fd5b3461012a57604036600319011261012a57610176600435610c27610cb6565b90610c4361016a82600052600060205260016040600020015490565b610ff6565b3461012a57602036600319011261012a576020610c75600435600052600060205260016040600020015490565b604051908152f35b3461012a57600036600319011261012a57807fdfbefbf47cfe66b701d8cfdbce1de81c821590819cb07e71cb01b6602fb0ee2760209252f35b602435906001600160a01b038216820361012a57565b600435906001600160a01b038216820361012a57565b60c0810190811067ffffffffffffffff821117610b4157604052565b90601f8019910116810190811067ffffffffffffffff821117610b4157604052565b67ffffffffffffffff8111610b4157601f01601f191660200190565b602060408183019282815284518094520192019060005b818110610d605750505090565b82516001600160a01b0316845260209384019390920191600101610d53565b8054821015610d975760005260206000200190600090565b634e487b7160e01b600052603260045260246000fd5b67ffffffffffffffff8111610b415760051b60200190565b91908201809211610dd257565b634e487b7160e01b600052601160045260246000fd5b6006549182821015610ed857610dfe9082610dc5565b91808311610ed0575b50808203918211610dd25790610e1c81610dad565b91610e2a6040519384610cfe565b818352601f19610e3983610dad565b013660208501376006549060005b838110610e55575050505090565b610e5f8183610dc5565b600084821015610ebc57600690527ff652222313e28459528d920b65115c16c04f3efc82aaedc97be59f3f377c0d3f015485516001600160a01b0390911690600090831015610ebc5750600582901b860160200152600101610e47565b634e487b7160e01b81526032600452602490fd5b915038610e07565b505050604051610ee9602082610cfe565b60008152600036813790565b90816000526000602052604060002060018060a01b03821660005260205260ff6040600020541615610f25575050565b62b0d32560e11b60005260018060a01b031660045260245260446000fd5b6001600160a01b03811660009081527fad3228b676f7d3cd4284a5443f17f1962b36e491b30a40b2405849e597ba5fb5602052604090205460ff1615610f895750600090565b6001600160a01b031660008181527fad3228b676f7d3cd4284a5443f17f1962b36e491b30a40b2405849e597ba5fb560205260408120805460ff191660011790553391907f2f8788117e7eff1d82e926ec794901d17c78024a50270940304540a733656f0d8180a4600190565b6000818152602081815260408083206001600160a01b038616845290915290205460ff1615611026575050600090565b6000818152602081815260408083206001600160a01b0395909516808452949091528120805460ff19166001179055339291907f2f8788117e7eff1d82e926ec794901d17c78024a50270940304540a733656f0d9080a4600190565b6000818152602081815260408083206001600160a01b038616845290915290205460ff166110b1575050600090565b6000818152602081815260408083206001600160a01b0395909516808452949091528120805460ff19169055339291907ff6391f5c32d9c69d2a47ea670b442974b53935d1edc7fd64eb21e047a839171b9080a460019056fe4377386e2795aba8c0ce23a1e6e67bac790e4b4166f14b7e9365049ab946f8c0a26469706673582212201ebdb9bf5af39004177b473441db4fdb99477b4c60e508509d1718046f93296c64736f6c634300081b00334377386e2795aba8c0ce23a1e6e67bac790e4b4166f14b7e9365049ab946f8c0",
  "linkReferences": {},
  "deployedLinkReferences": {}
}