{
  "_format": "hh-sol-artifact-1",
  "contractName": "SidioraFactory",
  "sourceName": "contracts/core/SidioraFactory.sol",
  "abi": [
    {
      "inputs": [],
      "stateMutability": "nonpayable",
      "type": "constructor"
    },
    {
      "inputs": [],
      "name": "AlreadyInitialized",
      "type": "error"
    },
    {
      "inputs": [],
      "name": "DuplicateToken",
      "type": "error"
    },
    {
      "inputs": [],
      "name": "InsufficientCreationFee",
      "type": "error"
    },
    {
      "inputs": [],
      "name": "InvalidImplementation",
      "type": "error"
    },
    {
      "inputs": [],
      "name": "InvalidImplementation",
      "type": "error"
    },
    {
      "inputs": [
        {
          "internalType": "address",
          "name": "account",
          "type": "address"
        },
        {
          "internalType": "bytes32",
          "name": "role",
          "type": "bytes32"
        }
      ],
      "name": "MissingRole",
      "type": "error"
    },
    {
      "inputs": [],
      "name": "NotInitializing",
      "type": "error"
    },
    {
      "inputs": [],
      "name": "TransferFailed",
      "type": "error"
    },
    {
      "inputs": [],
      "name": "TransferFromFailed",
      "type": "error"
    },
    {
      "inputs": [],
      "name": "UUPSNotThroughActiveProxy",
      "type": "error"
    },
    {
      "inputs": [],
      "name": "UUPSNotThroughProxy",
      "type": "error"
    },
    {
      "inputs": [],
      "name": "UnauthorizedUpgrade",
      "type": "error"
    },
    {
      "inputs": [],
      "name": "ZeroAddress",
      "type": "error"
    },
    {
      "anonymous": false,
      "inputs": [
        {
          "indexed": false,
          "internalType": "uint64",
          "name": "version",
          "type": "uint64"
        }
      ],
      "name": "Initialized",
      "type": "event"
    },
    {
      "anonymous": false,
      "inputs": [
        {
          "indexed": true,
          "internalType": "address",
          "name": "token",
          "type": "address"
        },
        {
          "indexed": true,
          "internalType": "address",
          "name": "pool",
          "type": "address"
        },
        {
          "indexed": true,
          "internalType": "address",
          "name": "creator",
          "type": "address"
        },
        {
          "indexed": false,
          "internalType": "uint256",
          "name": "nftId",
          "type": "uint256"
        },
        {
          "indexed": false,
          "internalType": "address",
          "name": "optical",
          "type": "address"
        }
      ],
      "name": "MarketCreated",
      "type": "event"
    },
    {
      "anonymous": false,
      "inputs": [
        {
          "indexed": true,
          "internalType": "bytes32",
          "name": "role",
          "type": "bytes32"
        },
        {
          "indexed": true,
          "internalType": "bytes32",
          "name": "previousAdminRole",
          "type": "bytes32"
        },
        {
          "indexed": true,
          "internalType": "bytes32",
          "name": "newAdminRole",
          "type": "bytes32"
        }
      ],
      "name": "RoleAdminChanged",
      "type": "event"
    },
    {
      "anonymous": false,
      "inputs": [
        {
          "indexed": true,
          "internalType": "bytes32",
          "name": "role",
          "type": "bytes32"
        },
        {
          "indexed": true,
          "internalType": "address",
          "name": "account",
          "type": "address"
        },
        {
          "indexed": true,
          "internalType": "address",
          "name": "sender",
          "type": "address"
        }
      ],
      "name": "RoleGranted",
      "type": "event"
    },
    {
      "anonymous": false,
      "inputs": [
        {
          "indexed": true,
          "internalType": "bytes32",
          "name": "role",
          "type": "bytes32"
        },
        {
          "indexed": true,
          "internalType": "address",
          "name": "account",
          "type": "address"
        },
        {
          "indexed": true,
          "internalType": "address",
          "name": "sender",
          "type": "address"
        }
      ],
      "name": "RoleRevoked",
      "type": "event"
    },
    {
      "anonymous": false,
      "inputs": [
        {
          "indexed": true,
          "internalType": "address",
          "name": "implementation",
          "type": "address"
        }
      ],
      "name": "Upgraded",
      "type": "event"
    },
    {
      "inputs": [],
      "name": "DEFAULT_ADMIN_ROLE",
      "outputs": [
        {
          "internalType": "bytes32",
          "name": "",
          "type": "bytes32"
        }
      ],
      "stateMutability": "view",
      "type": "function"
    },
    {
      "inputs": [],
      "name": "ROUTER_ROLE",
      "outputs": [
        {
          "internalType": "bytes32",
          "name": "",
          "type": "bytes32"
        }
      ],
      "stateMutability": "view",
      "type": "function"
    },
    {
      "inputs": [
        {
          "internalType": "string",
          "name": "name",
          "type": "string"
        },
        {
          "internalType": "string",
          "name": "symbol",
          "type": "string"
        },
        {
          "internalType": "uint8",
          "name": "feeStrategy",
          "type": "uint8"
        },
        {
          "internalType": "address",
          "name": "optical",
          "type": "address"
        }
      ],
      "name": "createMarket",
      "outputs": [
        {
          "internalType": "address",
          "name": "tokenAddr",
          "type": "address"
        },
        {
          "internalType": "address",
          "name": "poolAddr",
          "type": "address"
        },
        {
          "internalType": "uint256",
          "name": "nftId",
          "type": "uint256"
        }
      ],
      "stateMutability": "nonpayable",
      "type": "function"
    },
    {
      "inputs": [
        {
          "internalType": "address",
          "name": "creator",
          "type": "address"
        },
        {
          "internalType": "string",
          "name": "name",
          "type": "string"
        },
        {
          "internalType": "string",
          "name": "symbol",
          "type": "string"
        },
        {
          "internalType": "uint8",
          "name": "feeStrategy",
          "type": "uint8"
        },
        {
          "internalType": "address",
          "name": "optical",
          "type": "address"
        }
      ],
      "name": "createMarketFor",
      "outputs": [
        {
          "internalType": "address",
          "name": "tokenAddr",
          "type": "address"
        },
        {
          "internalType": "address",
          "name": "poolAddr",
          "type": "address"
        },
        {
          "internalType": "uint256",
          "name": "nftId",
          "type": "uint256"
        }
      ],
      "stateMutability": "nonpayable",
      "type": "function"
    },
    {
      "inputs": [],
      "name": "eventEmitter",
      "outputs": [
        {
          "internalType": "address",
          "name": "",
          "type": "address"
        }
      ],
      "stateMutability": "view",
      "type": "function"
    },
    {
      "inputs": [],
      "name": "feeAccumulator",
      "outputs": [
        {
          "internalType": "address",
          "name": "",
          "type": "address"
        }
      ],
      "stateMutability": "view",
      "type": "function"
    },
    {
      "inputs": [
        {
          "internalType": "address",
          "name": "creator",
          "type": "address"
        }
      ],
      "name": "getNonce",
      "outputs": [
        {
          "internalType": "uint256",
          "name": "",
          "type": "uint256"
        }
      ],
      "stateMutability": "view",
      "type": "function"
    },
    {
      "inputs": [
        {
          "internalType": "bytes32",
          "name": "role",
          "type": "bytes32"
        }
      ],
      "name": "getRoleAdmin",
      "outputs": [
        {
          "internalType": "bytes32",
          "name": "",
          "type": "bytes32"
        }
      ],
      "stateMutability": "view",
      "type": "function"
    },
    {
      "inputs": [
        {
          "internalType": "bytes32",
          "name": "role",
          "type": "bytes32"
        },
        {
          "internalType": "address",
          "name": "account",
          "type": "address"
        }
      ],
      "name": "grantRole",
      "outputs": [],
      "stateMutability": "nonpayable",
      "type": "function"
    },
    {
      "inputs": [
        {
          "internalType": "bytes32",
          "name": "role",
          "type": "bytes32"
        },
        {
          "internalType": "address",
          "name": "account",
          "type": "address"
        }
      ],
      "name": "hasRole",
      "outputs": [
        {
          "internalType": "bool",
          "name": "",
          "type": "bool"
        }
      ],
      "stateMutability": "view",
      "type": "function"
    },
    {
      "inputs": [
        {
          "internalType": "address",
          "name": "_poolBeacon",
          "type": "address"
        },
        {
          "internalType": "address",
          "name": "_nftContract",
          "type": "address"
        },
        {
          "internalType": "address",
          "name": "_poolRegistry",
          "type": "address"
        },
        {
          "internalType": "address",
          "name": "_eventEmitter",
          "type": "address"
        },
        {
          "internalType": "address",
          "name": "_protocolConfig",
          "type": "address"
        },
        {
          "internalType": "address",
          "name": "_treasury",
          "type": "address"
        },
        {
          "internalType": "address",
          "name": "_feeAccumulator",
          "type": "address"
        },
        {
          "internalType": "address",
          "name": "_usdlAddress",
          "type": "address"
        },
        {
          "internalType": "address",
          "name": "_admin",
          "type": "address"
        }
      ],
      "name": "initialize",
      "outputs": [],
      "stateMutability": "nonpayable",
      "type": "function"
    },
    {
      "inputs": [],
      "name": "nftContract",
      "outputs": [
        {
          "internalType": "address",
          "name": "",
          "type": "address"
        }
      ],
      "stateMutability": "view",
      "type": "function"
    },
    {
      "inputs": [],
      "name": "poolBeacon",
      "outputs": [
        {
          "internalType": "address",
          "name": "",
          "type": "address"
        }
      ],
      "stateMutability": "view",
      "type": "function"
    },
    {
      "inputs": [],
      "name": "poolRegistry",
      "outputs": [
        {
          "internalType": "address",
          "name": "",
          "type": "address"
        }
      ],
      "stateMutability": "view",
      "type": "function"
    },
    {
      "inputs": [],
      "name": "protocolConfig",
      "outputs": [
        {
          "internalType": "address",
          "name": "",
          "type": "address"
        }
      ],
      "stateMutability": "view",
      "type": "function"
    },
    {
      "inputs": [],
      "name": "proxiableUUID",
      "outputs": [
        {
          "internalType": "bytes32",
          "name": "",
          "type": "bytes32"
        }
      ],
      "stateMutability": "view",
      "type": "function"
    },
    {
      "inputs": [
        {
          "internalType": "bytes32",
          "name": "role",
          "type": "bytes32"
        },
        {
          "internalType": "address",
          "name": "callerConfirmation",
          "type": "address"
        }
      ],
      "name": "renounceRole",
      "outputs": [],
      "stateMutability": "nonpayable",
      "type": "function"
    },
    {
      "inputs": [
        {
          "internalType": "bytes32",
          "name": "role",
          "type": "bytes32"
        },
        {
          "internalType": "address",
          "name": "account",
          "type": "address"
        }
      ],
      "name": "revokeRole",
      "outputs": [],
      "stateMutability": "nonpayable",
      "type": "function"
    },
    {
      "inputs": [],
      "name": "treasury",
      "outputs": [
        {
          "internalType": "address",
          "name": "",
          "type": "address"
        }
      ],
      "stateMutability": "view",
      "type": "function"
    },
    {
      "inputs": [
        {
          "internalType": "address",
          "name": "newImplementation",
          "type": "address"
        },
        {
          "internalType": "bytes",
          "name": "data",
          "type": "bytes"
        }
      ],
      "name": "upgradeToAndCall",
      "outputs": [],
      "stateMutability": "payable",
      "type": "function"
    },
    {
      "inputs": [],
      "name": "usdlAddress",
      "outputs": [
        {
          "internalType": "address",
          "name": "",
          "type": "address"
        }
      ],
      "stateMutability": "view",
      "type": "function"
    }
  ],
  "bytecode": "0x60a080604052346100c55730608052600080516020612b7b8339815191525460ff8160401c166100b5576002600160401b03196001600160401b03821601610061575b604051612ab090816100cb823960805181818161048d0152610abc0152f35b6001600160401b0319166001600160401b03908117600080516020612b7b8339815191525581527fc7f505b2f371ae2175ee4913f4499e1f2633a7b5936321eed1cdaeb6115181d290602090a13880610042565b62dc149f60e41b60005260046000fd5b600080fdfe6080604052600436101561001257600080fd5b60003560e01c8063248a9ca3146101675780632d0335ab146101625780632e10f9761461015d5780632f2ff15d1461015857806330d643b51461015357806336568abe1461014e5780634f1ef2861461014957806352d1902d1461014457806357c0d7fd1461013f5780635db859151461013a5780635eaea35f1461013557806361d027b31461013057806391d148541461012b5780639ff78c3014610126578063a217fddf14610121578063afcff50f1461011c578063c5a7b2ea14610117578063d547741f14610112578063d56d229d1461010d578063f5e95acb146101085763f5efbb4f1461010357600080fd5b610a90565b6108d8565b6108af565b61086f565b610846565b61081d565b610801565b6107d8565b610785565b61075c565b610733565b61068f565b610544565b61047a565b610402565b61035a565b61031f565b6102d6565b6102ad565b610268565b3461019c57602036600319011261019c576020610194600435600052600060205260016040600020015490565b604051908152f35b600080fd5b600435906001600160a01b038216820361019c57565b602435906001600160a01b038216820361019c57565b606435906001600160a01b038216820361019c57565b608435906001600160a01b038216820361019c57565b604435906001600160a01b038216820361019c57565b60a435906001600160a01b038216820361019c57565b60c435906001600160a01b038216820361019c57565b60e435906001600160a01b038216820361019c57565b61010435906001600160a01b038216820361019c57565b3461019c57602036600319011261019c576001600160a01b036102896101a1565b1660005260096020526020604060002054604051908152f35b600091031261019c57565b3461019c57600036600319011261019c576008546040516001600160a01b039091168152602090f35b3461019c57604036600319011261019c5761031d6004356102f56101b7565b9061031861031182600052600060205260016040600020015490565b3390610e06565b610f0e565b005b3461019c57600036600319011261019c5760206040517f7a05a596cb0ce7fdea8a1e1ec73be300bdb35097c944ce1897202f7a13122eb28152f35b3461019c57604036600319011261019c576004356103766101b7565b336001600160a01b03909116036103925761031d903390610f9f565b62b0d32560e11b6000523360045260245260446000fd5b634e487b7160e01b600052604160045260246000fd5b90601f8019910116810190811067ffffffffffffffff8211176103e157604052565b6103a9565b67ffffffffffffffff81116103e157601f01601f191660200190565b604036600319011261019c576104166101a1565b6024359067ffffffffffffffff821161019c573660238301121561019c57816004013590610443826103e6565b9161045160405193846103bf565b808352366024828601011161019c57602081600092602461031d97018387013784010152610ab9565b3461019c57600036600319011261019c577f00000000000000000000000000000000000000000000000000000000000000006001600160a01b031630036104e55760206040517f360894a13ba1a3210667c828492db98dca3e2076cc3735a920a3ca505d382bbc8152f35b6345a93fc960e01b60005260046000fd5b9181601f8401121561019c5782359167ffffffffffffffff831161019c576020838186019501011161019c57565b6044359060ff8216820361019c57565b6064359060ff8216820361019c57565b3461019c57608036600319011261019c5760043567ffffffffffffffff811161019c576105759036906004016104f6565b6024359067ffffffffffffffff821161019c57610597600492369084016104f6565b61059f610524565b916105a86101cd565b6005549094906020906105cb906001600160a01b03165b6001600160a01b031690565b6040516337382d3960e21b815297889182905afa96871561068a5761062c976106049760009161065b575b5080610630575b5033611223565b604080516001600160a01b039485168152939092166020840152908201529081906060820190565b0390f35b60085461065591906001600160a01b03166006546001600160a01b03169033906110b6565b386105fd565b61067d915060203d602011610683575b61067581836103bf565b810190610bce565b386105f6565b503d61066b565b610bdd565b3461019c5760a036600319011261019c576106a86101a1565b60243567ffffffffffffffff811161019c576106c89036906004016104f6565b60449291923567ffffffffffffffff811161019c576106eb9036906004016104f6565b6106f3610534565b916106fc6101e3565b9361070633610d1c565b6001600160a01b038616156107225761062c9661060496611223565b63d92e233d60e01b60005260046000fd5b3461019c57600036600319011261019c576007546040516001600160a01b039091168152602090f35b3461019c57600036600319011261019c576006546040516001600160a01b039091168152602090f35b3461019c57604036600319011261019c57602060ff6107cc6004356107a86101b7565b906000526000845260406000209060018060a01b0316600052602052604060002090565b54166040519015158152f35b3461019c57600036600319011261019c576004546040516001600160a01b039091168152602090f35b3461019c57600036600319011261019c57602060405160008152f35b3461019c57600036600319011261019c576003546040516001600160a01b039091168152602090f35b3461019c57600036600319011261019c576001546040516001600160a01b039091168152602090f35b3461019c57604036600319011261019c5761031d60043561088e6101b7565b906108aa61031182600052600060205260016040600020015490565b610f9f565b3461019c57600036600319011261019c576002546040516001600160a01b039091168152602090f35b3461019c5761012036600319011261019c576108f26101a1565b6108fa6101b7565b906109036101f9565b61090b6101cd565b6109136101e3565b61091b61020f565b610923610225565b9161092c61023b565b93610935610251565b95600080516020612a5b833981519152549867ffffffffffffffff6109766109686109648d60ff9060401c1690565b1590565b9b67ffffffffffffffff1690565b16600181101580610a89575b610a7157151580610a81575b610a71576109d4988a610a35575b6109cf600167ffffffffffffffff19600080516020612a5b833981519152541617600080516020612a5b83398151915255565b610be9565b6109da57005b610a0660ff60401b19600080516020612a5b8339815191525416600080516020612a5b83398151915255565b604051600181527fc7f505b2f371ae2175ee4913f4499e1f2633a7b5936321eed1cdaeb6115181d290602090a1005b610a6c6801000000000000000060ff60401b19600080516020612a5b833981519152541617600080516020612a5b83398151915255565b61099c565b62dc149f60e41b60005260046000fd5b50891561098e565b508a610982565b3461019c57600036600319011261019c576005546040516001600160a01b039091168152602090f35b307f00000000000000000000000000000000000000000000000000000000000000006001600160a01b031614610bbd57610af233610da3565b6040516352d1902d60e01b81526020816004816001600160a01b0386165afa60009181610b9c575b50610b305763340aafcd60e11b60005260046000fd5b7f360894a13ba1a3210667c828492db98dca3e2076cc3735a920a3ca505d382bbc03610b8b57610b5f816116c6565b81519182610b6c57505050565b610b89926000926020849301905af4610b8361102c565b5061105c565b565b63340aafcd60e11b60005260046000fd5b610bb691925060203d6020116106835761067581836103bf565b9038610b1a565b6309e1070b60e31b60005260046000fd5b9081602091031261019c575190565b6040513d6000823e3d90fd5b979694909592939760018060a01b03881615610722576001600160a01b0316918215610722576001600160a01b0386161561072257610d1998610ca0610cf796610c83610cbd94610d149b610cda986001600160601b0360a01b600154161760015560018060a01b03166001600160601b0360a01b600254161760025560018060a01b03166001600160601b0360a01b6003541617600355565b60018060a01b03166001600160601b0360a01b6004541617600455565b60018060a01b03166001600160601b0360a01b6005541617600555565b60018060a01b03166001600160601b0360a01b6006541617600655565b60018060a01b03166001600160601b0360a01b6007541617600755565b60018060a01b03166001600160601b0360a01b6008541617600855565b610e5b565b50565b6001600160a01b03811660009081527fb5816a4d525ce17c45785e5fbae4518f6f00ef4e9d31d4d7bb129b76152ed32f602052604090205460ff1615610d5f5750565b62b0d32560e11b60009081526001600160a01b03919091166004527f7a05a596cb0ce7fdea8a1e1ec73be300bdb35097c944ce1897202f7a13122eb2602452604490fd5b6001600160a01b03811660009081527fad3228b676f7d3cd4284a5443f17f1962b36e491b30a40b2405849e597ba5fb5602052604090205460ff1615610de65750565b62b0d32560e11b60005260018060a01b0316600452600060245260446000fd5b9081600052600060205260ff610e328260406000209060018060a01b0316600052602052604060002090565b541615610e3d575050565b62b0d32560e11b60005260018060a01b031660045260245260446000fd5b6001600160a01b03811660009081527fad3228b676f7d3cd4284a5443f17f1962b36e491b30a40b2405849e597ba5fb5602052604090205460ff1615610ea15750600090565b6001600160a01b031660008181527fad3228b676f7d3cd4284a5443f17f1962b36e491b30a40b2405849e597ba5fb560205260408120805460ff191660011790553391907f2f8788117e7eff1d82e926ec794901d17c78024a50270940304540a733656f0d8180a4600190565b6000818152602081815260408083206001600160a01b038616845290915290205460ff1615610f3e575050600090565b6000818152602081815260408083206001600160a01b03861684529091529020805460ff1916600117905533916001600160a01b0316907f2f8788117e7eff1d82e926ec794901d17c78024a50270940304540a733656f0d600080a4600190565b6000818152602081815260408083206001600160a01b038616845290915290205460ff16610fce575050600090565b6000818152602081815260408083206001600160a01b03861684529091529020805460ff1916905533916001600160a01b0316907ff6391f5c32d9c69d2a47ea670b442974b53935d1edc7fd64eb21e047a839171b600080a4600190565b3d15611057573d9061103d826103e6565b9161104b60405193846103bf565b82523d6000602084013e565b606090565b1561106357565b60405162461bcd60e51b81526020600482015260136024820152721d5c19dc985919481a5b9a5d0819985a5b1959606a1b6044820152606490fd5b9081602091031261019c5751801515810361019c5790565b6040516323b872dd60e01b602082019081526001600160a01b039384166024830152939092166044830152606482019390935260009283929091839061110981608481015b03601f1981018352826103bf565b51925af161111561102c565b9015908115611137575b5061112657565b631e4e7d0960e21b60005260046000fd5b805180151592508261114c575b50503861111f565b61115f925060208091830101910161109e565b153880611144565b60001981146111765760010190565b634e487b7160e01b600052601160045260246000fd5b928593816014969460209998946001600160601b03199060601b168352878301370191848301600081523701019081520190565b908060209392818452848401376000828201840152601f01601f1916010190565b9496959290936111ff60609561120d946080895260808901916111c0565b9186830360208801526111c0565b60408401959095526001600160a01b0316910152565b94919693959290956112426105bf6105bf60055460018060a01b031690565b976040519763071ed6b560e01b89526020896004818d5afa98891561068a576000996116a3575b5060206004999a6040519a8b809263367f38c960e21b82525afa98891561068a57600099611682575b50876110fb6112d96112b68360018060a01b03166000526009602052604060002090565b8054906112c282611167565b9055604051928391888a898960208701998a61118c565b5190209360405193610d9e908186019286841067ffffffffffffffff8511176103e1578695611310958e94611896893930956111e1565b03906000f5801561068a57600854600754600454600554604051634ddb92df60e11b60208201526001600160a01b039586166024820181905294861660448201528786166064820152928516608484015290841660a4830152831660c482015291861660e483015261010482019790975261012481018690526113cf9061139b8161014481016110fb565b604051606089901b6bffffffffffffffffffffffff191660208201908152906113c781603481016110fb565b51902061175b565b6007549095906113e9906105bf906001600160a01b031681565b803b1561019c5760405163182cdbe360e11b81526001600160a01b0388166004820152906000908290602490829084905af192831561068a5761143c6020936114919360009661166e575b50898b6117fc565b600254611453906105bf906001600160a01b031681565b604051635ead19cb60e11b81526001600160a01b03808a1660048301528a16602482015260ff90921660448301529093849283919082906064820190565b03925af190811561068a5760009161164f575b50600354909384916114c0906105bf906001600160a01b031681565b90813b1561019c576040516343a6d1c360e01b81526001600160a01b03888116600483015289811660248301528281166044830152851660648201526084810184905291600090839060a490829084905af191821561068a57889261163a575b506004546001600160a01b03168061157e575b50604080519384526001600160a01b039485166020850152908416938716927fde3c5cd27ce87044b7bc6c8182270f302e537f55f8c943271a34e5163ef2b28491819081015b0390a4565b909150611593906001600160a01b03166105bf565b803b1561019c5760405163e4617ca560e01b81526001600160a01b03888116600483018190528a82166024840152848216604484015260648301528516608482015290600090829060a490829084905af1801561068a5788927fde3c5cd27ce87044b7bc6c8182270f302e537f55f8c943271a34e5163ef2b284926115799261161f575b509150611533565b8061162e6000611634936103bf565b806102a2565b38611617565b8061162e6000611649936103bf565b38611520565b611668915060203d6020116106835761067581836103bf565b386114a4565b8061162e8861167c936103bf565b38611434565b61169c91995060203d6020116106835761067581836103bf565b9738611292565b600499506116bf602091823d84116106835761067581836103bf565b9950611269565b803b15610b8b577f360894a13ba1a3210667c828492db98dca3e2076cc3735a920a3ca505d382bbc8190556001600160a01b03167fbc7cd75a20ee27fd9adebab32041f755214dbc6bffa90cc0225b39da2e5c2d3b600080a2565b60005b8381106117345750506000910152565b8181015183820152602001611724565b9061175760209282815194859201611721565b0190565b906110fb6117ee610427926040519361177760208201866103bf565b80855261263460208601396117d4608060018060a01b036001541660405193849160208301526040808301526117bc8151809281606086015260208686019101611721565b601f801991011681010301601f1981018352826103bf565b6040519283916117e8602084018097611744565b90611744565b51906000f590811561019c57565b6000929183809360405190602082019363a9059cbb60e01b855260018060a01b031660248301526044820152604481526118376064826103bf565b51925af161184361102c565b9015908115611865575b5061185457565b6312171d8360e31b60005260046000fd5b805180151592508261187a575b50503861184d565b61188d925060208091830101910161109e565b15388061187256fe60c0806040523461044557610d9e803803809161001c828561044a565b83398101906080818303126104455780516001600160401b038111610445578261004791830161046d565b602082015190926001600160401b0382116104455761006791830161046d565b604082015160609092015190926001600160a01b038216918290036104455780516001600160401b03811161035257600054600181811c9116801561043b575b602082101461033257601f81116103d7575b50806020601f821160011461037357600091610368575b508160011b916000199060031b1c1916176000555b83516001600160401b03811161035257600154600181811c91168015610348575b602082101461033257601f81116102cd575b50602094601f82116001146102665794819293949560009261025b575b50508160011b916000199060031b1c1916176001555b6006608052602081519101209160409260016020855161016b878261044a565b82815201603160f81b81522084519060208201927f8b73c3c69bb8fe3d512ecc4cf759cc79239f7b179b0ffacaa9a75d522b39400f84528683015260608201524660808201523060a082015260a081526101c660c08261044a565b51902060a052811561024a577fddf252ad1be2c89b69c2b068fc378daa952ba7f163c4a11628f55a4df523b3ef6020600092610204816002546104dc565b6002558484526003825285842061021c8282546104dc565b90558551908152a35161089e90816105008239608051816104c3015260a0518181816101e501526104860152f35b63d92e233d60e01b60005260046000fd5b015190503880610135565b601f198216956001600052806000209160005b8881106102b55750836001959697981061029c575b505050811b0160015561014b565b015160001960f88460031b161c1916905538808061028e565b91926020600181928685015181550194019201610279565b60016000527fb10e2d527612073b26eecdfd717e6a320cf44b4afac2b0732d9fcbe2b7fa0cf6601f830160051c81019160208410610328575b601f0160051c01905b81811061031c5750610118565b6000815560010161030f565b9091508190610306565b634e487b7160e01b600052602260045260246000fd5b90607f1690610106565b634e487b7160e01b600052604160045260246000fd5b9050820151386100d0565b60008080528181209250601f198416905b8181106103bf575090836001949392106103a6575b5050811b016000556100e5565b84015160001960f88460031b161c191690553880610399565b91926020600181928689015181550194019201610384565b600080527f290decd9548b62a8d60345a988386fc84ba6bc95484008f6362f93160ef3e563601f830160051c81019160208410610431575b601f0160051c01905b81811061042557506100b9565b60008155600101610418565b909150819061040f565b90607f16906100a7565b600080fd5b601f909101601f19168101906001600160401b0382119082101761035257604052565b81601f82011215610445578051906001600160401b03821161035257604051926104a1601f8401601f19166020018561044a565b828452602083830101116104455760005b8281106104c757505060206000918301015290565b806020809284010151828287010152016104b2565b919082018092116104e957565b634e487b7160e01b600052601160045260246000fdfe6080604052600436101561001257600080fd5b60003560e01c806306fdde031461060e578063095ea7b3146105e857806318160ddd146105ca57806323b872dd1461052257806330adf81f146104e7578063313ce567146104a95780633644e5151461046e57806370a08231146104345780637ecebe00146103fa57806395d89b41146102ef578063a9059cbb146102be578063d505accf146101015763dd62ed3e146100ab57600080fd5b346100fc5760403660031901126100fc576100c461072d565b6100cc610743565b6001600160a01b039182166000908152600460209081526040808320949093168252928352819020549051908152f35b600080fd5b346100fc5760e03660031901126100fc5761011a61072d565b610122610743565b6044359060643560843560ff81168091036100fc578142116102ad576001600160a01b038516600081815260056020526040902080549193919260001984146102975783600093608093600160209701905560405190868201927f6e71edae12b1b97f4d1f60370fef10105fa2faae0126114a169c64845d6126c9845288604084015260018060a01b038a1660608401528a8684015260a083015260c082015260c081526101d160e0826106ac565b5190206040518581019161190160f01b83527f0000000000000000000000000000000000000000000000000000000000000000602283015260428201526042815261021d6062826106ac565b519020906040519182528482015260a435604082015260c435606082015282805260015afa1561028b576000516001600160a01b0316801591908215610280575b505061026f5761026d92610759565b005b63ddafbaef60e01b60005260046000fd5b14159050848061025e565b6040513d6000823e3d90fd5b634e487b7160e01b600052601160045260246000fd5b63068568f360e21b60005260046000fd5b346100fc5760403660031901126100fc576102e46102da61072d565b60243590336107b3565b602060405160018152f35b346100fc5760003660031901126100fc5760006040519080600154908160011c916001811680156103f0575b6020841081146103dc578386529081156103b55750600114610358575b61035484610348818603826106ac565b604051918291826106e4565b0390f35b600181527fb10e2d527612073b26eecdfd717e6a320cf44b4afac2b0732d9fcbe2b7fa0cf6939250905b80821061039b5750909150810160200161034882610338565b919260018160209254838588010152019101909291610382565b60ff191660208087019190915292151560051b850190920192506103489150839050610338565b634e487b7160e01b83526022600452602483fd5b92607f169261031b565b346100fc5760203660031901126100fc576001600160a01b0361041b61072d565b1660005260056020526020604060002054604051908152f35b346100fc5760203660031901126100fc576001600160a01b0361045561072d565b1660005260036020526020604060002054604051908152f35b346100fc5760003660031901126100fc5760206040517f00000000000000000000000000000000000000000000000000000000000000008152f35b346100fc5760003660031901126100fc57602060405160ff7f0000000000000000000000000000000000000000000000000000000000000000168152f35b346100fc5760003660031901126100fc5760206040517f6e71edae12b1b97f4d1f60370fef10105fa2faae0126114a169c64845d6126c98152f35b346100fc5760603660031901126100fc5761053b61072d565b610543610743565b6001600160a01b03821660008181526004602090815260408083203384529091529020549092604435929160018101610582575b506102e493506107b3565b8381106105b9576102e4946000526004602052604060002060018060a01b0333166000526020528360406000209103905584610577565b6313be252b60e01b60005260046000fd5b346100fc5760003660031901126100fc576020600254604051908152f35b346100fc5760403660031901126100fc576102e461060461072d565b6024359033610759565b346100fc5760003660031901126100fc5760405160008054600181811c918391811680156106a2575b6020841081146103dc578386529081156103b557506001146106635761035484610348818603826106ac565b80805260208120939250905b8082106106885750909150810160200161034882610338565b91926001816020925483858801015201910190929161066f565b92607f1692610637565b90601f8019910116810190811067ffffffffffffffff8211176106ce57604052565b634e487b7160e01b600052604160045260246000fd5b91909160208152825180602083015260005b818110610717575060409293506000838284010152601f8019910116010190565b80602080928701015160408286010152016106f6565b600435906001600160a01b03821682036100fc57565b602435906001600160a01b03821682036100fc57565b6001600160a01b0390811660008181526004602090815260408083209590941680835294815290839020859055915193845291927f8c5be1e5ebec7d5bd14f71427d1e84f3dd0314c0f7b2291e5b200ac8c7c3b9259190a3565b6001600160a01b0316908115610857576001600160a01b03169182156108575781600052600360205280604060002054106108465781600052600360205260406000208181540390558260005260036020526040600020805491808301809311610297577fddf252ad1be2c89b69c2b068fc378daa952ba7f163c4a11628f55a4df523b3ef9260209255604051908152a3565b631e9acf1760e31b60005260046000fd5b63d92e233d60e01b60005260046000fdfea2646970667358221220459ed3dad34d4307ec5ccbd4a9e9e66fb31441dad984f609e29e10c8e43f415a64736f6c634300081b00336080806040523461018957610427803803809161001c82856101bf565b8339810190604081830312610189578051906001600160a01b0382168203610189576020810151906001600160401b038211610189570182601f820112156101895780519061006a826101f8565b9361007860405195866101bf565b828552602083830101116101895760005b8281106101aa5784600080868160208886010152807fa3f0ad74e5423aebfd80d3ef4346578335a9a72aeaee59ff6cb3582b35133d50556040516020810190635c60da1b60e01b8252600481526100e16024826101bf565b51915afa6100ed610213565b9015801561019f575b61018e5760208180518101031261018957602001516001600160a01b038116919082900361018957805180610135575b6040516101e390816102448239f35b6000926020849301905af4610148610213565b501561015657808080610126565b60405162461bcd60e51b815260206004820152600b60248201526a1a5b9a5d0819985a5b195960aa1b6044820152606490fd5b600080fd5b6373a769bf60e01b60005260046000fd5b5060208151106100f6565b80602080928401015182828801015201610089565b601f909101601f19168101906001600160401b038211908210176101e257604052565b634e487b7160e01b600052604160045260246000fd5b6001600160401b0381116101e257601f01601f191660200190565b3d1561023e573d90610224826101f8565b9161023260405193846101bf565b82523d6000602084013e565b60609056fe60806040523615610054576000806100377fa3f0ad74e5423aebfd80d3ef4346578335a9a72aeaee59ff6cb3582b35133d50546100f5565b368280378136915af43d6000803e1561004f573d6000f35b3d6000fd5b60008080806100837fa3f0ad74e5423aebfd80d3ef4346578335a9a72aeaee59ff6cb3582b35133d50546100f5565b5af43d6000803e1561004f573d6000f35b634e487b7160e01b600052604160045260246000fd5b90601f8019910116810190811067ffffffffffffffff8211176100cc57604052565b610094565b908160209103126100f057516001600160a01b03811681036100f05790565b600080fd5b600080916040516020810190635c60da1b60e01b82526004815261011a6024826100aa565b51915afa3d156101a5573d9067ffffffffffffffff82116100cc576040519161014d601f8201601f1916602001846100aa565b82523d6000602084013e5b15801561019a575b6101895761017a81602080610186945183010191016100d1565b6001600160a01b031690565b90565b6373a769bf60e01b60005260046000fd5b506020815110610160565b60609061015856fea2646970667358221220b835841e0f72d7cd3cb72750342fc75de7f0b37800a9a5ccba1dc3353315fbbc64736f6c634300081b00334377386e2795aba8c0ce23a1e6e67bac790e4b4166f14b7e9365049ab946f8c0a26469706673582212202d36652a8fef1515250cf55997bf517cb9dc1ef4cf7b999bbdac6bc4f8aa45b964736f6c634300081b00334377386e2795aba8c0ce23a1e6e67bac790e4b4166f14b7e9365049ab946f8c0",
  "linkReferences": {},
  "deployedLinkReferences": {}
}