{
  "_format": "hh-sol-artifact-1",
  "contractName": "MockTxTracker",
  "sourceName": "contracts/meta-ag/mocks/MockTxTracker.sol",
  "abi": [
    {
      "anonymous": false,
      "inputs": [
        {
          "indexed": true,
          "internalType": "address",
          "name": "caller",
          "type": "address"
        },
        {
          "indexed": false,
          "internalType": "bytes",
          "name": "payload",
          "type": "bytes"
        }
      ],
      "name": "Recorded",
      "type": "event"
    },
    {
      "inputs": [],
      "name": "callCount",
      "outputs": [
        {
          "internalType": "uint256",
          "name": "",
          "type": "uint256"
        }
      ],
      "stateMutability": "view",
      "type": "function"
    },
    {
      "inputs": [],
      "name": "lastCaller",
      "outputs": [
        {
          "internalType": "address",
          "name": "",
          "type": "address"
        }
      ],
      "stateMutability": "view",
      "type": "function"
    },
    {
      "inputs": [],
      "name": "lastPayload",
      "outputs": [
        {
          "internalType": "bytes",
          "name": "",
          "type": "bytes"
        }
      ],
      "stateMutability": "view",
      "type": "function"
    },
    {
      "inputs": [
        {
          "internalType": "bytes",
          "name": "payload",
          "type": "bytes"
        }
      ],
      "name": "record",
      "outputs": [],
      "stateMutability": "nonpayable",
      "type": "function"
    }
  ],
  "bytecode": "0x60808060405234601557610460908161001b8239f35b600080fdfe608080604052600436101561001357600080fd5b60003560e01c9081632113522a146103ac575080634b28f9a21461038e5780634cc2aa3c1461026d5763e11126481461004b57600080fd5b346102685760203660031901126102685760043567ffffffffffffffff8111610268573660238201121561026857806004013567ffffffffffffffff811161026857366024828401011161026857336bffffffffffffffffffffffff60a01b60005416176000556000916100c06001546103d0565b601f81116101fd575b50829082601f8111600114610161577fc04f0cb21d137c3b55c3a8bd77c6732e568b26fe865e6a57ab62af1e0a91bc95928591610153575b508360011b906000198560031b1c1916176001555b600160025401600255826024604051926020845282602085015201604083013783604084830101526040813394601f80199101168101030190a280f35b602491508201013538610101565b5060018452839160008051602061040b8339815191529084601f1981165b8086106101dc577fc04f0cb21d137c3b55c3a8bd77c6732e568b26fe865e6a57ab62af1e0a91bc959550106101bf575b5050600183811b01600155610116565b820160240135600019600386901b60f8161c1916905538806101af565b8483016024013584556020958601956001909401939092019186915061017f565b60018452601f830160051c60008051602061040b833981519152019060208410610252575b601f0160051c60008051602061040b83398151915201905b81811061024757506100c9565b84815560010161023a565b60008051602061040b8339815191529150610222565b600080fd5b3461026857600036600319011261026857604051600060015461028f816103d0565b8084529060018116908115610372575060011461032d575b50819003601f01601f191681019067ffffffffffffffff8211818310176103175781604052602082528181519182602083015260005b8381106102ff5750508160006040809484010152601f80199101168101030190f35b602082820181015160408784010152859350016102dd565b634e487b7160e01b600052604160045260246000fd5b9050600160005260008051602061040b8339815191526000905b82821061035c575060209150820101826102a7565b6001816020925483858801015201910190610347565b90506020925060ff191682840152151560051b820101826102a7565b34610268576000366003190112610268576020600254604051908152f35b34610268576000366003190112610268576000546001600160a01b03168152602090f35b90600182811c92168015610400575b60208310146103ea57565b634e487b7160e01b600052602260045260246000fd5b91607f16916103df56feb10e2d527612073b26eecdfd717e6a320cf44b4afac2b0732d9fcbe2b7fa0cf6a2646970667358221220d8f41df15a3610665db943be17dff9db4efcee5b423a04814825f75614e32caf64736f6c634300081b0033",
  "linkReferences": {},
  "deployedLinkReferences": {}
}