{
  "_format": "hh-sol-artifact-1",
  "contractName": "SidioraPool",
  "sourceName": "contracts/core/SidioraPool.sol",
  "abi": [
    {
      "inputs": [],
      "stateMutability": "nonpayable",
      "type": "constructor"
    },
    {
      "inputs": [],
      "name": "AlreadyInitialized",
      "type": "error"
    },
    {
      "inputs": [],
      "name": "DeadlineExpired",
      "type": "error"
    },
    {
      "inputs": [],
      "name": "DivisionByZero",
      "type": "error"
    },
    {
      "inputs": [],
      "name": "InsufficientInput",
      "type": "error"
    },
    {
      "inputs": [],
      "name": "InsufficientInput",
      "type": "error"
    },
    {
      "inputs": [],
      "name": "InsufficientLiquidity",
      "type": "error"
    },
    {
      "inputs": [],
      "name": "InsufficientLiquidity",
      "type": "error"
    },
    {
      "inputs": [],
      "name": "NotInitializing",
      "type": "error"
    },
    {
      "inputs": [],
      "name": "NotPaused",
      "type": "error"
    },
    {
      "inputs": [],
      "name": "Overflow",
      "type": "error"
    },
    {
      "inputs": [],
      "name": "Paused",
      "type": "error"
    },
    {
      "inputs": [],
      "name": "ReentrancyGuardReentrantCall",
      "type": "error"
    },
    {
      "inputs": [],
      "name": "SlippageExceeded",
      "type": "error"
    },
    {
      "inputs": [],
      "name": "TransferFailed",
      "type": "error"
    },
    {
      "inputs": [],
      "name": "VirtualFloorBreached",
      "type": "error"
    },
    {
      "inputs": [],
      "name": "ZeroAddress",
      "type": "error"
    },
    {
      "inputs": [],
      "name": "ZeroAmount",
      "type": "error"
    },
    {
      "anonymous": false,
      "inputs": [
        {
          "indexed": false,
          "internalType": "uint64",
          "name": "version",
          "type": "uint64"
        }
      ],
      "name": "Initialized",
      "type": "event"
    },
    {
      "anonymous": false,
      "inputs": [
        {
          "indexed": false,
          "internalType": "bool",
          "name": "paused",
          "type": "bool"
        }
      ],
      "name": "PauseToggled",
      "type": "event"
    },
    {
      "inputs": [],
      "name": "accumulatedTokenFees",
      "outputs": [
        {
          "internalType": "uint256",
          "name": "",
          "type": "uint256"
        }
      ],
      "stateMutability": "view",
      "type": "function"
    },
    {
      "inputs": [],
      "name": "accumulatedUsdlFees",
      "outputs": [
        {
          "internalType": "uint256",
          "name": "",
          "type": "uint256"
        }
      ],
      "stateMutability": "view",
      "type": "function"
    },
    {
      "inputs": [],
      "name": "creationTimestamp",
      "outputs": [
        {
          "internalType": "uint256",
          "name": "",
          "type": "uint256"
        }
      ],
      "stateMutability": "view",
      "type": "function"
    },
    {
      "inputs": [],
      "name": "cumulativeVolume",
      "outputs": [
        {
          "internalType": "uint256",
          "name": "",
          "type": "uint256"
        }
      ],
      "stateMutability": "view",
      "type": "function"
    },
    {
      "inputs": [],
      "name": "eventEmitter",
      "outputs": [
        {
          "internalType": "address",
          "name": "",
          "type": "address"
        }
      ],
      "stateMutability": "view",
      "type": "function"
    },
    {
      "inputs": [],
      "name": "feeAccumulator",
      "outputs": [
        {
          "internalType": "address",
          "name": "",
          "type": "address"
        }
      ],
      "stateMutability": "view",
      "type": "function"
    },
    {
      "inputs": [],
      "name": "getEffectiveReserves",
      "outputs": [
        {
          "internalType": "uint256",
          "name": "effectiveUsdl",
          "type": "uint256"
        },
        {
          "internalType": "uint256",
          "name": "tokenRes",
          "type": "uint256"
        }
      ],
      "stateMutability": "view",
      "type": "function"
    },
    {
      "inputs": [],
      "name": "getPoolInfo",
      "outputs": [
        {
          "components": [
            {
              "internalType": "address",
              "name": "tokenAddress",
              "type": "address"
            },
            {
              "internalType": "address",
              "name": "opticalAddress",
              "type": "address"
            },
            {
              "internalType": "uint256",
              "name": "virtualUsdlReserve",
              "type": "uint256"
            },
            {
              "internalType": "uint256",
              "name": "realUsdlBalance",
              "type": "uint256"
            },
            {
              "internalType": "uint256",
              "name": "tokenReserve",
              "type": "uint256"
            },
            {
              "internalType": "uint256",
              "name": "creationTimestamp",
              "type": "uint256"
            },
            {
              "internalType": "uint256",
              "name": "cumulativeVolume",
              "type": "uint256"
            }
          ],
          "internalType": "struct ISidioraPool.PoolInfo",
          "name": "",
          "type": "tuple"
        }
      ],
      "stateMutability": "view",
      "type": "function"
    },
    {
      "inputs": [],
      "name": "getPrice",
      "outputs": [
        {
          "internalType": "uint256",
          "name": "",
          "type": "uint256"
        }
      ],
      "stateMutability": "view",
      "type": "function"
    },
    {
      "inputs": [],
      "name": "getPriceSnapshots",
      "outputs": [
        {
          "internalType": "uint256[8]",
          "name": "",
          "type": "uint256[8]"
        }
      ],
      "stateMutability": "view",
      "type": "function"
    },
    {
      "inputs": [],
      "name": "getReserves",
      "outputs": [
        {
          "internalType": "uint256",
          "name": "virtualUsdl",
          "type": "uint256"
        },
        {
          "internalType": "uint256",
          "name": "realUsdl",
          "type": "uint256"
        },
        {
          "internalType": "uint256",
          "name": "tokenRes",
          "type": "uint256"
        }
      ],
      "stateMutability": "view",
      "type": "function"
    },
    {
      "inputs": [],
      "name": "guardian",
      "outputs": [
        {
          "internalType": "address",
          "name": "",
          "type": "address"
        }
      ],
      "stateMutability": "view",
      "type": "function"
    },
    {
      "inputs": [
        {
          "internalType": "address",
          "name": "_tokenAddress",
          "type": "address"
        },
        {
          "internalType": "address",
          "name": "_usdlAddress",
          "type": "address"
        },
        {
          "internalType": "address",
          "name": "_opticalAddress",
          "type": "address"
        },
        {
          "internalType": "address",
          "name": "_feeAccumulator",
          "type": "address"
        },
        {
          "internalType": "address",
          "name": "_eventEmitter",
          "type": "address"
        },
        {
          "internalType": "address",
          "name": "_protocolConfig",
          "type": "address"
        },
        {
          "internalType": "address",
          "name": "_guardian",
          "type": "address"
        },
        {
          "internalType": "uint256",
          "name": "_virtualUsdlReserve",
          "type": "uint256"
        },
        {
          "internalType": "uint256",
          "name": "_tokenReserve",
          "type": "uint256"
        }
      ],
      "name": "initialize",
      "outputs": [],
      "stateMutability": "nonpayable",
      "type": "function"
    },
    {
      "inputs": [],
      "name": "opticalAddress",
      "outputs": [
        {
          "internalType": "address",
          "name": "",
          "type": "address"
        }
      ],
      "stateMutability": "view",
      "type": "function"
    },
    {
      "inputs": [],
      "name": "pause",
      "outputs": [],
      "stateMutability": "nonpayable",
      "type": "function"
    },
    {
      "inputs": [],
      "name": "paused",
      "outputs": [
        {
          "internalType": "bool",
          "name": "",
          "type": "bool"
        }
      ],
      "stateMutability": "view",
      "type": "function"
    },
    {
      "inputs": [
        {
          "internalType": "uint256",
          "name": "",
          "type": "uint256"
        }
      ],
      "name": "priceSnapshots",
      "outputs": [
        {
          "internalType": "uint256",
          "name": "",
          "type": "uint256"
        }
      ],
      "stateMutability": "view",
      "type": "function"
    },
    {
      "inputs": [],
      "name": "protocolConfig",
      "outputs": [
        {
          "internalType": "address",
          "name": "",
          "type": "address"
        }
      ],
      "stateMutability": "view",
      "type": "function"
    },
    {
      "inputs": [],
      "name": "realUsdlBalance",
      "outputs": [
        {
          "internalType": "uint256",
          "name": "",
          "type": "uint256"
        }
      ],
      "stateMutability": "view",
      "type": "function"
    },
    {
      "inputs": [],
      "name": "snapshotCount",
      "outputs": [
        {
          "internalType": "uint256",
          "name": "",
          "type": "uint256"
        }
      ],
      "stateMutability": "view",
      "type": "function"
    },
    {
      "inputs": [],
      "name": "snapshotIndex",
      "outputs": [
        {
          "internalType": "uint256",
          "name": "",
          "type": "uint256"
        }
      ],
      "stateMutability": "view",
      "type": "function"
    },
    {
      "inputs": [
        {
          "internalType": "uint256",
          "name": "amountIn",
          "type": "uint256"
        },
        {
          "internalType": "uint256",
          "name": "minAmountOut",
          "type": "uint256"
        },
        {
          "internalType": "bool",
          "name": "isBuy",
          "type": "bool"
        },
        {
          "internalType": "address",
          "name": "recipient",
          "type": "address"
        },
        {
          "internalType": "uint256",
          "name": "deadline",
          "type": "uint256"
        }
      ],
      "name": "swap",
      "outputs": [
        {
          "internalType": "uint256",
          "name": "amountOut",
          "type": "uint256"
        }
      ],
      "stateMutability": "nonpayable",
      "type": "function"
    },
    {
      "inputs": [],
      "name": "syncReserves",
      "outputs": [
        {
          "internalType": "uint256",
          "name": "usdlBal",
          "type": "uint256"
        },
        {
          "internalType": "uint256",
          "name": "tokenBal",
          "type": "uint256"
        }
      ],
      "stateMutability": "nonpayable",
      "type": "function"
    },
    {
      "inputs": [],
      "name": "tokenAddress",
      "outputs": [
        {
          "internalType": "address",
          "name": "",
          "type": "address"
        }
      ],
      "stateMutability": "view",
      "type": "function"
    },
    {
      "inputs": [],
      "name": "tokenReserve",
      "outputs": [
        {
          "internalType": "uint256",
          "name": "",
          "type": "uint256"
        }
      ],
      "stateMutability": "view",
      "type": "function"
    },
    {
      "inputs": [],
      "name": "unpause",
      "outputs": [],
      "stateMutability": "nonpayable",
      "type": "function"
    },
    {
      "inputs": [],
      "name": "usdlAddress",
      "outputs": [
        {
          "internalType": "address",
          "name": "",
          "type": "address"
        }
      ],
      "stateMutability": "view",
      "type": "function"
    },
    {
      "inputs": [],
      "name": "virtualUsdlReserve",
      "outputs": [
        {
          "internalType": "uint256",
          "name": "",
          "type": "uint256"
        }
      ],
      "stateMutability": "view",
      "type": "function"
    }
  ],
  "bytecode": "0x6080806040523460d15760017f9b779b17422d0df92223018b32b4d1fa46e071723d6817e2486d003becc55f0055600080516020611bbd8339815191525460ff8160401c1660c1576002600160401b03196001600160401b03821601606e575b604051611ae690816100d78239f35b6001600160401b0319166001600160401b03908117600080516020611bbd8339815191525581527fc7f505b2f371ae2175ee4913f4499e1f2633a7b5936321eed1cdaeb6115181d290602090a13880605f565b62dc149f60e41b60005260046000fd5b600080fdfe608080604052600436101561001357600080fd5b600090813560e01c9081630902f1ac1461138057508063098ab6a1146113625780631e5a099814611344578063234feaf2146113265780632e10f976146112fd5780633f4ba83a14611278578063452a93201461124f5780635249f13e1461117a5780635c975abb1461114d5780635eaea35f1461112457806360246c881461104a57806361f63bf51461102c578063680aef9314610fd55780636e7f1e4614610fa4578063704c45361461061a5780638456cb591461058557806398d5fdca146105625780639bb725be146102c15780639d76ea581461029a5780639ff78c3014610271578063a2d0292714610248578063a8c98bde1461022a578063b33110861461020c578063cbcb3171146101ee578063cbd47f88146101bc578063e87ca8101461019e578063f4dd4156146101805763f5efbb4f1461015557600080fd5b3461017d578060031936011261017d576005546040516001600160a01b039091168152602090f35b80fd5b503461017d578060031936011261017d576020600b54604051908152f35b503461017d578060031936011261017d576020600754604051908152f35b503461017d57602036600319011261017d5760043560088110156101ea5760209150600c0154604051908152f35b5080fd5b503461017d578060031936011261017d576020600954604051908152f35b503461017d578060031936011261017d576020600a54604051908152f35b503461017d578060031936011261017d576020600854604051908152f35b503461017d578060031936011261017d576002546040516001600160a01b039091168152602090f35b503461017d578060031936011261017d576004546040516001600160a01b039091168152602090f35b503461017d578060031936011261017d57546040516001600160a01b039091168152602090f35b503461017d5761012036600319011261017d576004356001600160a01b038116908190036101ea576024356001600160a01b0381169081900361055e576044356001600160a01b0381169081900361055a5761031b6113ad565b6084356001600160a01b038116908190036105565760a4356001600160a01b03811692908390036105525760c4356001600160a01b038116949085900361054e57600080516020611a51833981519152549560ff8760401c16159667ffffffffffffffff8116600181101580610547575b61053957151580610531575b61052357876104f6575b50600080516020611a518339815191525497600167ffffffffffffffff198a1617600080516020611a518339815191525580156104e75781156104e7576001600160601b0360a01b8a54161789556001600160601b0360a01b60015416176001556001600160601b0360a01b600254161760025560018060a01b03166001600160601b0360a01b60035416176003556001600160601b0360a01b60045416176004556001600160601b0360a01b60055416176005556001600160601b0360a01b600654161760065560e435600755610104356009558260085542600a556001600080516020611a7183398151915255610499575080f35b60019068ffffffffffffffffff191617600080516020611a51833981519152557fc7f505b2f371ae2175ee4913f4499e1f2633a7b5936321eed1cdaeb6115181d2602060405160018152a180f35b63d92e233d60e01b8a5260048afd5b68ff000000000000000019166801000000000000000017600080516020611a5183398151915255386103a2565b62dc149f60e41b8a5260048afd5b508715610398565b62dc149f60e41b8b5260048bfd5b508861038c565b8780fd5b8680fd5b8580fd5b8380fd5b8280fd5b503461017d578060031936011261017d57602061057d611586565b604051908152f35b503461017d578060031936011261017d576006546001600160a01b0316330361060b57600080516020611a91833981519152546105fc576001600080516020611a91833981519152557f9077d36bc00859b5c3f320310707208543dd35092cb0a0fe117d0c6a558b148b602060405160018152a180f35b6313d0ff5960e31b8152600490fd5b63d92e233d60e01b8152600490fd5b503461017d5760a036600319011261017d5760443580151560043581830361055a576106446113ad565b916002600080516020611a718339815191525414610f95576002600080516020611a7183398151915255600080516020611a9183398151915254610f8657816084354211610f77578015610f68576001600160a01b038416908115610f595760018060a01b03600554166106ba600a5442611499565b6106cd6015546106c8611417565b6116e3565b6040516302fd696560e61b81529092602082600481845afa918215610f4e578b92610f1a575b5060405163071de20d60e01b8152938b90602086600481865afa958615610ba1578296610ee3575b5060405163bf769a3f60e01b815294602086600481875afa9586156109bd578396610eac575b50604051630557653160e21b815290602082600481885afa918215610abc578492610e75575b5060405163294ae7f960e01b815293602085600481895afa948515610e2f578195610e3c575b50602060049660405197888092630801b85360e21b82525afa958615610e2f578196610df2575b5090610e109150046001019081600111610dde578e979695936107f56107ee6107fb956107e861080099966107fb966114b9565b93611a39565b9350600090565b94611450565b611450565b9082821015610dc4575050915b6002546001600160a01b031680610c40575b50505061082f61271091856114a6565b049361083b8585611499565b9560075461084c6008548092611450565b9115610bcf57506108618760095480936115aa565b96818811610bc0579161088788809361087f61089a96600854611450565b600855611499565b60095588546001600160a01b0316611605565b83151580610bac575b610b10575b6024358510610b01576108bd83600b54611450565b600b556108c8611586565b6014546008811015610aed57600c0155601454600181018111610ad957906008600188930860145560155460088110610ac7575b506002546001600160a01b0316806109cc575b50506004546001600160a01b031691905081610943575b6020856001600080516020611a7183398151915255604051908152f35b9085929161094f611586565b823b156109c85760e4928591604051978896879563100fca4f60e01b87523060048801523360248801526044870152606486015289608486015260a485015260c48401525af180156109bd576109a8575b808080610926565b6109b38380926113f5565b6101ea57816109a0565b6040513d85823e3d90fd5b8480fd5b604051636cc7149d60e01b8152602081600481855afa8015610abc576002918591610a8d575b50161561090f5760a46020926040519485938492637ba60e0d60e11b845230600485015260248401528760448401528860648401528a60848401525af18015610a8257610a42575b80869161090f565b6020813d602011610a7a575b81610a5b602093836113f5565b8101031261055657516001600160e01b03198116036109c85738610a3a565b3d9150610a4e565b6040513d88823e3d90fd5b610aaf915060203d602011610ab5575b610aa781836113f5565b810190611473565b386109f2565b503d610a9d565b6040513d86823e3d90fd5b610ad0906116ad565b601555386108fc565b634e487b7160e01b87526011600452602487fd5b634e487b7160e01b88526032600452602488fd5b638199f5f360e01b8652600486fd5b610b1c84601654611450565b601655600154600354610b3d9186916001600160a01b039081169116611605565b60035486906001600160a01b0316803b156101ea5760405163029b83f560e21b8152306004820152602481018790529082908290604490829084905af18015610ba157610b8c575b50506108a8565b81610b96916113f5565b610556578538610b85565b6040513d84823e3d90fd5b506003546001600160a01b031615156108a3565b63bb55fd2760e01b8952600489fd5b9096610bdf9060095498896115aa565b96818811610c315791610c03888093610bfb89610c1797611450565b600955611499565b6008556001546001600160a01b0316611605565b83156108a857610c2984601754611450565b6017556108a8565b6304af467f60e01b8952600489fd5b604051636cc7149d60e01b8152602081600481855afa8015610abc576001918591610da5575b50161561081f5760409060848298949598518096819363ae7e71d960e01b83523060048401528960248401528a60448401528660648401525af1928315610d9a5789908a94610d55575b5015610d465788831315610cd95750610ccf6127109261082f92611450565b945b91889161081f565b909491888112610cf2575b505061082f61271091610cd1565b91945090600160ff1b8114610d325787039080821015610d2357610d1c6127109261082f92611499565b9491610ce4565b63f8b3bb6160e01b8852600488fd5b634e487b7160e01b88526011600452602488fd5b63f8b3bb6160e01b8952600489fd5b9350506040833d604011610d92575b81610d71604093836113f5565b81010312610d8e576020610d848461148c565b9301519238610cb0565b8880fd5b3d9150610d64565b6040513d8b823e3d90fd5b610dbe915060203d602011610ab557610aa781836113f5565b38610c66565b81819295935011610dd6575b5061080d565b925038610dd0565b634e487b7160e01b8f52601160045260248ffd5b919550506020813d602011610e27575b81610e0f602093836113f5565b81010312610e225751938e610e106107b4565b600080fd5b3d9150610e02565b50604051903d90823e3d90fd5b959450506020853d602011610e6d575b81610e59602093836113f5565b81010312610e2257935192938e602061078d565b3d9150610e4c565b935090506020833d602011610ea4575b81610e92602093836113f5565b81010312610e22578d92519038610767565b3d9150610e85565b925094506020823d602011610edb575b81610ec9602093836113f5565b81010312610e22578c91519438610741565b3d9150610ebc565b915094506020813d602011610f12575b81610f00602093836113f5565b81010312610e22578b9051943861071b565b3d9150610ef3565b9091506020813d602011610f46575b81610f36602093836113f5565b81010312610e22575190386106f3565b3d9150610f29565b6040513d8d823e3d90fd5b63d92e233d60e01b8752600487fd5b63f8b3bb6160e01b8652600486fd5b631ab7da6b60e01b8652600486fd5b6313d0ff5960e31b8552600485fd5b633ee5aeb560e01b8552600485fd5b503461017d578060031936011261017d576040610fc660075460085490611450565b60095482519182526020820152f35b503461017d578060031936011261017d576101009081604051610ff882826113f5565b369037611003611417565b60405191825b6008821061101657505050f35b6020806001928551815201930191019091611009565b503461017d578060031936011261017d576020601654604051908152f35b503461017d578060031936011261017d578060e09160c060405161106d816113c3565b8281528260208201528260408201528260608201528260808201528260a0820152015260018060a01b0390541660018060a01b036002541660075460085460095490600a5492600b549460c06040516110c5816113c3565b8881526020810192835260408101938452606081019485526080810195865260a081019687520195865260405196875260018060a01b0390511660208701525160408601525160608501525160808401525160a08301525160c0820152f35b503461017d578060031936011261017d576003546040516001600160a01b039091168152602090f35b503461017d578060031936011261017d576020600080516020611a91833981519152546040519015158152f35b503461017d578060031936011261017d576001546111a0906001600160a01b0316611519565b81546111b4906001600160a01b0316611519565b600882905560098190556004546001600160a01b031692836111e1575b6040838382519182526020820152f35b6007546111ec611586565b90853b1561055e579060a48392836040519889948593637d3c7a6560e11b8552306004860152602485015289604485015288606485015260848401525af1938415610e2f5760409461123f575b506111d1565b81611249916113f5565b38611239565b503461017d578060031936011261017d576006546040516001600160a01b039091168152602090f35b503461017d578060031936011261017d576006546001600160a01b0316330361060b57600080516020611a9183398151915254156112ee5780600080516020611a91833981519152557f9077d36bc00859b5c3f320310707208543dd35092cb0a0fe117d0c6a558b148b6020604051838152a180f35b636cd6020160e01b8152600490fd5b503461017d578060031936011261017d576001546040516001600160a01b039091168152602090f35b503461017d578060031936011261017d576020601454604051908152f35b503461017d578060031936011261017d576020601754604051908152f35b503461017d578060031936011261017d576020601554604051908152f35b9050346101ea57816003193601126101ea5760609060075460085460095491835260208301526040820152f35b606435906001600160a01b0382168203610e2257565b60e0810190811067ffffffffffffffff8211176113df57604052565b634e487b7160e01b600052604160045260246000fd5b90601f8019910116810190811067ffffffffffffffff8211176113df57604052565b60405190600c6000835b6008821061143a57505050611438610100836113f5565b565b6001602081928554815201930191019091611421565b9190820180921161145d57565b634e487b7160e01b600052601160045260246000fd5b90816020910312610e22575160ff81168103610e225790565b51908115158203610e2257565b9190820391821161145d57565b8181029291811591840414171561145d57565b81156114c3570490565b634e487b7160e01b600052601260045260246000fd5b3d15611514573d9067ffffffffffffffff82116113df5760405191611508601f8201601f1916602001846113f5565b82523d6000602084013e565b606090565b6000809160405160208101906370a0823160e01b8252306024820152602481526115446044826113f5565b51915afa6115506114d9565b9015801561157b575b6115755760208151918180820193849201010312610e22575190565b50600090565b506020815110611559565b6009548015611575576115a7906115a260075460085490611450565b6118b4565b90565b9082156115f457811580156115ec575b6115db57826115cf6115a7946115d5936114a6565b92611450565b906114b9565b63bb55fd2760e01b60005260046000fd5b5080156115ba565b63f8b3bb6160e01b60005260046000fd5b60405163a9059cbb60e01b602082019081526001600160a01b0393909316602482015260448082019490945292835260009283929083906116476064826113f5565b51925af16116536114d9565b9015908115611675575b5061166457565b6312171d8360e31b60005260046000fd5b805180151592508261168a575b50503861165d565b8192509060209181010312610e225760206116a5910161148c565b153880611682565b600019811461145d5760010190565b9060088110156116cd5760051b0190565b634e487b7160e01b600052603260045260246000fd5b9190600281106118ad576000908160015b82811061182a57508215611821578261170c916114b9565b6000916001915b818310611748575050506117289293506114b9565b620f4240810290808204620f4240149015171561145d576115a7906119e6565b90919260009061175885896116bc565b5160001986018681119390918461180d57611773838c6116bc565b5110156117e95750611785868a6116bc565b519261145d5760019261179b6117a2928b6116bc565b5190611499565b905b83808311156117d3576117bd6117c3916117c994611499565b8061197a565b90611450565b935b019190611713565b6117bd6117e3936117c392611499565b936117cb565b60019350611807916117fc91508a6116bc565b5161179b878b6116bc565b906117a4565b634e487b7160e01b82526011600452602482fd5b50600093505050565b929061183684876116bc565b51600019850190858211908161145d57611850838a6116bc565b51101561188b5761186186896116bc565b519061145d576001926117c361187e9261179b611884958c6116bc565b926116ad565b93016116f4565b5061187e6001926117c36118a2611884948b6116bc565b5161179b898c6116bc565b5060009150565b811561196957600019670de0b6b3a7640000820991670de0b6b3a764000082029182808510940393808503941461195d578184101561194c57670de0b6b3a7640000829109816000038216809204600281600302188082026002030280820260020302808202600203028082026002030280820260020302809102600203029360018380600003040190848311900302920304170290565b631a93c68960e11b60005260046000fd5b50906115a792506114b9565b6323d359a360e01b60005260046000fd5b600019828209828202918280831092039180830392146119da57620f424082101561194c577fde8f6cefed634549b62c77574f722e1ac57e23f24d8fd5cb790fb65668c2613993620f4240910990828211900360fa1b910360061c170290565b5050620f424091500490565b908115611a33576003821115611a2d57818060011c6001810180911161145d57905b838210611a13575050565b909250611a24836107fb81846114b9565b60011c90611a08565b60019150565b60009150565b908015611a49576115a79161197a565b505060009056fe4377386e2795aba8c0ce23a1e6e67bac790e4b4166f14b7e9365049ab946f8c09b779b17422d0df92223018b32b4d1fa46e071723d6817e2486d003becc55f0062e78cea01bee320cd4e420270b5ea74000d11b0c9f74754ebdbfc544b05a258a2646970667358221220a5e40e78a88a81532aba45b51597bdb2c5432d819830caf46093d41296eab3c164736f6c634300081b00334377386e2795aba8c0ce23a1e6e67bac790e4b4166f14b7e9365049ab946f8c0",
  "linkReferences": {},
  "deployedLinkReferences": {}
}