{
  "_format": "hh-sol-artifact-1",
  "contractName": "MockRevertingOptical",
  "sourceName": "contracts/test/MockOptical.sol",
  "abi": [
    {
      "inputs": [
        {
          "internalType": "address",
          "name": "_poolRegistry",
          "type": "address"
        },
        {
          "internalType": "address",
          "name": "_owner",
          "type": "address"
        },
        {
          "internalType": "uint8",
          "name": "flags_",
          "type": "uint8"
        }
      ],
      "stateMutability": "nonpayable",
      "type": "constructor"
    },
    {
      "inputs": [],
      "name": "NotOwner",
      "type": "error"
    },
    {
      "inputs": [],
      "name": "NotPool",
      "type": "error"
    },
    {
      "inputs": [
        {
          "internalType": "address",
          "name": "",
          "type": "address"
        },
        {
          "internalType": "uint256",
          "name": "",
          "type": "uint256"
        }
      ],
      "name": "afterFeeDistribution",
      "outputs": [
        {
          "internalType": "bytes4",
          "name": "",
          "type": "bytes4"
        }
      ],
      "stateMutability": "nonpayable",
      "type": "function"
    },
    {
      "inputs": [
        {
          "internalType": "address",
          "name": "",
          "type": "address"
        },
        {
          "internalType": "address",
          "name": "",
          "type": "address"
        },
        {
          "internalType": "bool",
          "name": "",
          "type": "bool"
        },
        {
          "internalType": "uint256",
          "name": "",
          "type": "uint256"
        },
        {
          "internalType": "uint256",
          "name": "",
          "type": "uint256"
        }
      ],
      "name": "afterSwap",
      "outputs": [
        {
          "internalType": "bytes4",
          "name": "",
          "type": "bytes4"
        }
      ],
      "stateMutability": "pure",
      "type": "function"
    },
    {
      "inputs": [
        {
          "internalType": "address",
          "name": "",
          "type": "address"
        },
        {
          "internalType": "uint256",
          "name": "feeAmount",
          "type": "uint256"
        }
      ],
      "name": "beforeFeeDistribution",
      "outputs": [
        {
          "internalType": "uint256",
          "name": "adjustedFee",
          "type": "uint256"
        }
      ],
      "stateMutability": "nonpayable",
      "type": "function"
    },
    {
      "inputs": [
        {
          "internalType": "address",
          "name": "",
          "type": "address"
        },
        {
          "internalType": "address",
          "name": "",
          "type": "address"
        },
        {
          "internalType": "bool",
          "name": "",
          "type": "bool"
        },
        {
          "internalType": "uint256",
          "name": "",
          "type": "uint256"
        }
      ],
      "name": "beforeSwap",
      "outputs": [
        {
          "internalType": "bool",
          "name": "",
          "type": "bool"
        },
        {
          "internalType": "int256",
          "name": "",
          "type": "int256"
        }
      ],
      "stateMutability": "pure",
      "type": "function"
    },
    {
      "inputs": [],
      "name": "getFlags",
      "outputs": [
        {
          "internalType": "uint8",
          "name": "",
          "type": "uint8"
        }
      ],
      "stateMutability": "view",
      "type": "function"
    },
    {
      "inputs": [],
      "name": "owner",
      "outputs": [
        {
          "internalType": "address",
          "name": "",
          "type": "address"
        }
      ],
      "stateMutability": "view",
      "type": "function"
    },
    {
      "inputs": [],
      "name": "poolRegistry",
      "outputs": [
        {
          "internalType": "address",
          "name": "",
          "type": "address"
        }
      ],
      "stateMutability": "view",
      "type": "function"
    }
  ],
  "bytecode": "0x60c03461009657601f61033138819003918201601f19168301916001600160401b0383118484101761009b5780849260609460405283398101031261009657610047816100b1565b906040610056602083016100b1565b9101519160ff83168093036100965760805260a05260ff19600054161760005560405161026b90816100c682396080518160de015260a051816101680152f35b600080fd5b634e487b7160e01b600052604160045260246000fd5b51906001600160a01b03821682036100965756fe608080604052600436101561001357600080fd5b60003560e01c9081636cc7149d14610197575080638da5cb5b14610152578063ae3bd4bd14610126578063ae7e71d91461010d578063afcff50f146100c8578063f74c1c1a146100975763f80d2cc71461006c57600080fd5b34610092576040366003190112610092576100856101b5565b5060206040516024358152f35b600080fd5b346100925760a0366003190112610092576100b06101b5565b506100b96101cb565b506100c26101e1565b506101f0565b34610092576000366003190112610092576040517f00000000000000000000000000000000000000000000000000000000000000006001600160a01b03168152602090f35b34610092576080366003190112610092576100b06101b5565b346100925760403660031901126100925761013f6101b5565b5060405163ae3bd4bd60e01b8152602090f35b34610092576000366003190112610092576040517f00000000000000000000000000000000000000000000000000000000000000006001600160a01b03168152602090f35b346100925760003660031901126100925760209060ff600054168152f35b600435906001600160a01b038216820361009257565b602435906001600160a01b038216820361009257565b60443590811515820361009257565b60405162461bcd60e51b815260206004820152601c60248201527f4d6f636b526576657274696e674f70746963616c3a20726576657274000000006044820152606490fdfea26469706673582212201ec2cfa0b67839cded2eeeff29409cc75b18dd605850096d5cff1583ad1f628764736f6c634300081b0033",
  "linkReferences": {},
  "deployedLinkReferences": {}
}