{
  "_format": "hh-sol-artifact-1",
  "contractName": "MockProtocolAdapter",
  "sourceName": "contracts/meta-ag/mocks/MockProtocolAdapter.sol",
  "abi": [
    {
      "inputs": [
        {
          "internalType": "bytes32",
          "name": "id",
          "type": "bytes32"
        },
        {
          "internalType": "string",
          "name": "name",
          "type": "string"
        },
        {
          "internalType": "string",
          "name": "version",
          "type": "string"
        }
      ],
      "stateMutability": "nonpayable",
      "type": "constructor"
    },
    {
      "inputs": [],
      "name": "MockForcedRevert",
      "type": "error"
    },
    {
      "inputs": [],
      "name": "MockUnexpectedAdapterData",
      "type": "error"
    },
    {
      "anonymous": false,
      "inputs": [
        {
          "indexed": true,
          "internalType": "bytes32",
          "name": "adapterId",
          "type": "bytes32"
        },
        {
          "indexed": true,
          "internalType": "address",
          "name": "tokenIn",
          "type": "address"
        },
        {
          "indexed": true,
          "internalType": "address",
          "name": "tokenOut",
          "type": "address"
        },
        {
          "indexed": false,
          "internalType": "uint256",
          "name": "amountIn",
          "type": "uint256"
        },
        {
          "indexed": false,
          "internalType": "uint256",
          "name": "amountOut",
          "type": "uint256"
        },
        {
          "indexed": false,
          "internalType": "address",
          "name": "recipient",
          "type": "address"
        }
      ],
      "name": "SwapExecuted",
      "type": "event"
    },
    {
      "inputs": [],
      "name": "_supportsSwap",
      "outputs": [
        {
          "internalType": "bool",
          "name": "",
          "type": "bool"
        }
      ],
      "stateMutability": "view",
      "type": "function"
    },
    {
      "inputs": [],
      "name": "adapterId",
      "outputs": [
        {
          "internalType": "bytes32",
          "name": "",
          "type": "bytes32"
        }
      ],
      "stateMutability": "view",
      "type": "function"
    },
    {
      "inputs": [],
      "name": "adapterName",
      "outputs": [
        {
          "internalType": "string",
          "name": "",
          "type": "string"
        }
      ],
      "stateMutability": "view",
      "type": "function"
    },
    {
      "inputs": [],
      "name": "adapterVersion",
      "outputs": [
        {
          "internalType": "string",
          "name": "",
          "type": "string"
        }
      ],
      "stateMutability": "view",
      "type": "function"
    },
    {
      "inputs": [],
      "name": "clearExpectedAdapterData",
      "outputs": [],
      "stateMutability": "nonpayable",
      "type": "function"
    },
    {
      "inputs": [
        {
          "internalType": "address",
          "name": "tokenIn",
          "type": "address"
        },
        {
          "internalType": "address",
          "name": "tokenOut",
          "type": "address"
        },
        {
          "internalType": "uint256",
          "name": "amountIn",
          "type": "uint256"
        },
        {
          "internalType": "uint256",
          "name": "amountOutMin",
          "type": "uint256"
        },
        {
          "internalType": "address",
          "name": "from",
          "type": "address"
        },
        {
          "internalType": "address",
          "name": "recipient",
          "type": "address"
        },
        {
          "internalType": "uint256",
          "name": "deadline",
          "type": "uint256"
        },
        {
          "internalType": "bytes",
          "name": "adapterData",
          "type": "bytes"
        }
      ],
      "name": "executeSwap",
      "outputs": [
        {
          "components": [
            {
              "internalType": "uint256",
              "name": "amountOut",
              "type": "uint256"
            },
            {
              "internalType": "uint256",
              "name": "feeAmount",
              "type": "uint256"
            },
            {
              "internalType": "bytes",
              "name": "adapterData",
              "type": "bytes"
            }
          ],
          "internalType": "struct IProtocolAdapter.SwapResult",
          "name": "result",
          "type": "tuple"
        }
      ],
      "stateMutability": "nonpayable",
      "type": "function"
    },
    {
      "inputs": [
        {
          "internalType": "bytes",
          "name": "data",
          "type": "bytes"
        }
      ],
      "name": "expectAdapterData",
      "outputs": [],
      "stateMutability": "nonpayable",
      "type": "function"
    },
    {
      "inputs": [],
      "name": "expectedAdapterData",
      "outputs": [
        {
          "internalType": "bytes",
          "name": "",
          "type": "bytes"
        }
      ],
      "stateMutability": "view",
      "type": "function"
    },
    {
      "inputs": [],
      "name": "expectedAdapterDataSet",
      "outputs": [
        {
          "internalType": "bool",
          "name": "",
          "type": "bool"
        }
      ],
      "stateMutability": "view",
      "type": "function"
    },
    {
      "inputs": [
        {
          "internalType": "address",
          "name": "",
          "type": "address"
        },
        {
          "internalType": "address",
          "name": "",
          "type": "address"
        }
      ],
      "name": "getMaxInput",
      "outputs": [
        {
          "internalType": "uint256",
          "name": "",
          "type": "uint256"
        }
      ],
      "stateMutability": "pure",
      "type": "function"
    },
    {
      "inputs": [
        {
          "internalType": "address",
          "name": "",
          "type": "address"
        },
        {
          "internalType": "address",
          "name": "",
          "type": "address"
        },
        {
          "internalType": "uint256",
          "name": "",
          "type": "uint256"
        }
      ],
      "name": "getQuote",
      "outputs": [
        {
          "components": [
            {
              "internalType": "uint256",
              "name": "amountOut",
              "type": "uint256"
            },
            {
              "internalType": "uint256",
              "name": "priceImpactBps",
              "type": "uint256"
            },
            {
              "internalType": "uint256",
              "name": "feeBps",
              "type": "uint256"
            },
            {
              "internalType": "uint256",
              "name": "feeAmount",
              "type": "uint256"
            },
            {
              "internalType": "bool",
              "name": "available",
              "type": "bool"
            },
            {
              "internalType": "bytes",
              "name": "adapterData",
              "type": "bytes"
            }
          ],
          "internalType": "struct IProtocolAdapter.QuoteResult",
          "name": "result",
          "type": "tuple"
        }
      ],
      "stateMutability": "view",
      "type": "function"
    },
    {
      "inputs": [],
      "name": "getSupportedPairs",
      "outputs": [
        {
          "internalType": "address[]",
          "name": "tokenIns",
          "type": "address[]"
        },
        {
          "internalType": "address[]",
          "name": "tokenOuts",
          "type": "address[]"
        }
      ],
      "stateMutability": "pure",
      "type": "function"
    },
    {
      "inputs": [],
      "name": "lastSwap",
      "outputs": [
        {
          "internalType": "address",
          "name": "tokenIn",
          "type": "address"
        },
        {
          "internalType": "address",
          "name": "tokenOut",
          "type": "address"
        },
        {
          "internalType": "uint256",
          "name": "amountIn",
          "type": "uint256"
        },
        {
          "internalType": "uint256",
          "name": "amountOutMin",
          "type": "uint256"
        },
        {
          "internalType": "address",
          "name": "from",
          "type": "address"
        },
        {
          "internalType": "address",
          "name": "recipient",
          "type": "address"
        },
        {
          "internalType": "uint256",
          "name": "deadline",
          "type": "uint256"
        },
        {
          "internalType": "bytes",
          "name": "adapterData",
          "type": "bytes"
        }
      ],
      "stateMutability": "view",
      "type": "function"
    },
    {
      "inputs": [],
      "name": "quoteAdapterData",
      "outputs": [
        {
          "internalType": "bytes",
          "name": "",
          "type": "bytes"
        }
      ],
      "stateMutability": "view",
      "type": "function"
    },
    {
      "inputs": [],
      "name": "quoteAmountOut",
      "outputs": [
        {
          "internalType": "uint256",
          "name": "",
          "type": "uint256"
        }
      ],
      "stateMutability": "view",
      "type": "function"
    },
    {
      "inputs": [],
      "name": "quoteAvailable",
      "outputs": [
        {
          "internalType": "bool",
          "name": "",
          "type": "bool"
        }
      ],
      "stateMutability": "view",
      "type": "function"
    },
    {
      "inputs": [],
      "name": "quoteFeeAmount",
      "outputs": [
        {
          "internalType": "uint256",
          "name": "",
          "type": "uint256"
        }
      ],
      "stateMutability": "view",
      "type": "function"
    },
    {
      "inputs": [],
      "name": "quoteFeeBps",
      "outputs": [
        {
          "internalType": "uint256",
          "name": "",
          "type": "uint256"
        }
      ],
      "stateMutability": "view",
      "type": "function"
    },
    {
      "inputs": [],
      "name": "quotePriceImpactBps",
      "outputs": [
        {
          "internalType": "uint256",
          "name": "",
          "type": "uint256"
        }
      ],
      "stateMutability": "view",
      "type": "function"
    },
    {
      "inputs": [],
      "name": "revertOnQuote",
      "outputs": [
        {
          "internalType": "bool",
          "name": "",
          "type": "bool"
        }
      ],
      "stateMutability": "view",
      "type": "function"
    },
    {
      "inputs": [],
      "name": "revertOnSwap",
      "outputs": [
        {
          "internalType": "bool",
          "name": "",
          "type": "bool"
        }
      ],
      "stateMutability": "view",
      "type": "function"
    },
    {
      "inputs": [
        {
          "internalType": "bool",
          "name": "available",
          "type": "bool"
        },
        {
          "internalType": "uint256",
          "name": "amountOut",
          "type": "uint256"
        },
        {
          "internalType": "uint256",
          "name": "priceImpactBps",
          "type": "uint256"
        },
        {
          "internalType": "uint256",
          "name": "feeBps",
          "type": "uint256"
        },
        {
          "internalType": "uint256",
          "name": "feeAmount",
          "type": "uint256"
        },
        {
          "internalType": "bytes",
          "name": "adapterData",
          "type": "bytes"
        }
      ],
      "name": "setQuoteResult",
      "outputs": [],
      "stateMutability": "nonpayable",
      "type": "function"
    },
    {
      "inputs": [
        {
          "internalType": "bool",
          "name": "flag",
          "type": "bool"
        }
      ],
      "name": "setRevertOnQuote",
      "outputs": [],
      "stateMutability": "nonpayable",
      "type": "function"
    },
    {
      "inputs": [
        {
          "internalType": "bool",
          "name": "flag",
          "type": "bool"
        }
      ],
      "name": "setRevertOnSwap",
      "outputs": [],
      "stateMutability": "nonpayable",
      "type": "function"
    },
    {
      "inputs": [
        {
          "internalType": "bool",
          "name": "flag",
          "type": "bool"
        }
      ],
      "name": "setSupportsSwap",
      "outputs": [],
      "stateMutability": "nonpayable",
      "type": "function"
    },
    {
      "inputs": [
        {
          "internalType": "uint256",
          "name": "amountOut",
          "type": "uint256"
        },
        {
          "internalType": "uint256",
          "name": "feeAmount",
          "type": "uint256"
        },
        {
          "internalType": "bytes",
          "name": "adapterData",
          "type": "bytes"
        }
      ],
      "name": "setSwapResult",
      "outputs": [],
      "stateMutability": "nonpayable",
      "type": "function"
    },
    {
      "inputs": [
        {
          "internalType": "address",
          "name": "",
          "type": "address"
        },
        {
          "internalType": "address",
          "name": "",
          "type": "address"
        }
      ],
      "name": "supportsSwap",
      "outputs": [
        {
          "internalType": "bool",
          "name": "",
          "type": "bool"
        }
      ],
      "stateMutability": "view",
      "type": "function"
    },
    {
      "inputs": [],
      "name": "swapAmountOut",
      "outputs": [
        {
          "internalType": "uint256",
          "name": "",
          "type": "uint256"
        }
      ],
      "stateMutability": "view",
      "type": "function"
    },
    {
      "inputs": [],
      "name": "swapCallCount",
      "outputs": [
        {
          "internalType": "uint256",
          "name": "",
          "type": "uint256"
        }
      ],
      "stateMutability": "view",
      "type": "function"
    },
    {
      "inputs": [],
      "name": "swapFeeAmount",
      "outputs": [
        {
          "internalType": "uint256",
          "name": "",
          "type": "uint256"
        }
      ],
      "stateMutability": "view",
      "type": "function"
    },
    {
      "inputs": [],
      "name": "swapResultAdapterData",
      "outputs": [
        {
          "internalType": "bytes",
          "name": "",
          "type": "bytes"
        }
      ],
      "stateMutability": "view",
      "type": "function"
    }
  ],
  "bytecode": "0x60a060405234610350576119ce8038038061001981610355565b92833981019060608183031261035057805160208201519091906001600160401b038111610350578361004d91830161037a565b60408201519093906001600160401b0381116103505761006d920161037a565b90600160ff196002541617600255600160ff196018541617601855608052815160018060401b03811161025d57600054600181811c91168015610346575b602082101461023d57601f81116102e2575b50602092601f821160011461027e5792819293600092610273575b50508160011b916000199060031b1c1916176000555b80516001600160401b03811161025d57600154600181811c91168015610253575b602082101461023d57601f81116101d8575b50602091601f821160011461017457918192600092610169575b50508160011b916000199060031b1c1916176001555b6040516115e890816103e6823960805181610f3f0152f35b01519050388061013b565b601f198216926001600052806000209160005b8581106101c0575083600195106101a7575b505050811b01600155610151565b015160001960f88460031b161c19169055388080610199565b91926020600181928685015181550194019201610187565b60016000527fb10e2d527612073b26eecdfd717e6a320cf44b4afac2b0732d9fcbe2b7fa0cf6601f830160051c81019160208410610233575b601f0160051c01905b8181106102275750610121565b6000815560010161021a565b9091508190610211565b634e487b7160e01b600052602260045260246000fd5b90607f169061010f565b634e487b7160e01b600052604160045260246000fd5b0151905038806100d8565b601f1982169360008052806000209160005b8681106102ca57508360019596106102b1575b505050811b016000556100ee565b015160001960f88460031b161c191690553880806102a3565b91926020600181928685015181550194019201610290565b600080527f290decd9548b62a8d60345a988386fc84ba6bc95484008f6362f93160ef3e563601f830160051c8101916020841061033c575b601f0160051c01905b81811061033057506100bd565b60008155600101610323565b909150819061031a565b90607f16906100ab565b600080fd5b6040519190601f01601f191682016001600160401b0381118382101761025d57604052565b81601f82011215610350578051906001600160401b03821161025d576103a9601f8301601f1916602001610355565b92828452602083830101116103505760005b8281106103d057505060206000918301015290565b806020809284010151828287010152016103bb56fe6080604052600436101561001257600080fd5b60003560e01c8062ff2d441461109d57806318a1a4c11461107f5780631fbb5c971461105157806321c10f131461102e57806322cedf7d1461101057806323fa797b14610ff457806338f0eb9714610fd657806344c23a5d14610fb3578063489fb14814610f8557806349f066d414610f625780635fb86b0114610f2757806380756e1714610f09578063824e885e14610ac3578063849594541461098757806386616b521461095257806386c284b1146107d157806388968d7d146107ae578063968e6e66146107805780639e2af84614610762578063a77ec9e0146106b9578063a9e152861461069b578063b2b08fba1461066c578063b67bcad81461064e578063ba28657814610584578063ba73603114610568578063baf69ecb146104b9578063c515ee23146103bb578063c9113c4d14610233578063d527c998146101cc578063d6428a18146101985763e44492c51461017057600080fd5b3461019357600036600319011261019357602060ff600e54166040519015158152f35b600080fd5b34610193576000366003190112610193576101c86101b461131b565b604051918291602083526020830190611437565b0390f35b346101935760003660031901126101935761022660206101c8604051916101f38184611241565b6000835260003681376040516102098282611241565b6000815260003681376040519485946040865260408601906114e0565b91848303908501526114e0565b34610193576060366003190112610193576044356001600160401b038111610193576102639036906004016114b3565b600435600955602435600a556001600160401b0381116103a557610288600b546111d1565b601f811161034b575b506000601f82116001146102d25781906102c2936000926102c7575b50508160011b916000199060031b1c19161790565b600b55005b0135905083806102ad565b601f198216927f0175b7a638427703f0dbe7bb9bbf987a2551717b34e79f33b5b1008d1fa01db991805b85811061033357508360019510610319575b505050811b01600b55005b0135600019600384901b60f8161c1916905582808061030e565b909260206001819286860135815501940191016102fc565b600b600052610395907f0175b7a638427703f0dbe7bb9bbf987a2551717b34e79f33b5b1008d1fa01db9601f840160051c8101916020851061039b575b601f0160051c019061157b565b82610291565b9091508190610388565b634e487b7160e01b600052604160045260246000fd5b34610193576060366003190112610193576103d4611487565b506103dd61149d565b50606060a06040516103ee81611226565b60008152600060208201526000604082015260008382015260006080820152015260ff600854166104a857600354600454906101c860055460065460ff60025416906040519461043d86611226565b85526020850195865260408501928352606085019081526080850191151582526104656113a0565b9260a086019384526040519687966020885251602088015251604087015251606086015251608085015251151560a08401525160c08084015260e0830190611437565b631c34b09760e21b60005260046000fd5b34610193576000366003190112610193576104d5600d546111d1565b806104e7575b600e805460ff19169055005b601f81116001146104ff57506000600d555b806104db565b601f0160051c600080516020611593833981519152017fd7b6990105719101dabeb77144f2a3385c8033acd3af97e9423a695e81ad1eb65b81811061055c5750506000600d556000600080516020611593833981519152556104f9565b60008155600101610537565b34610193576000366003190112610193576101c86101b46113a0565b3461019357600036600319011261019357604051600080546105a5816111d1565b808452906001811690811561062a57506001146105cd575b6101c8836101b481850382611241565b60008080527f290decd9548b62a8d60345a988386fc84ba6bc95484008f6362f93160ef3e563939250905b808210610610575090915081016020016101b46105bd565b9192600181602092548385880101520191019092916105f8565b60ff191660208086019190915291151560051b840190910191506101b490506105bd565b34610193576000366003190112610193576020600454604051908152f35b3461019357604036600319011261019357610685611487565b5061068e61149d565b5060206040516000198152f35b34610193576000366003190112610193576020600354604051908152f35b346101935760003660031901126101935760405160006001546106db816111d1565b808452906001811690811561062a5750600114610702576101c8836101b481850382611241565b91905060016000527fb10e2d527612073b26eecdfd717e6a320cf44b4afac2b0732d9fcbe2b7fa0cf6916000905b808210610748575090915081016020016101b46105bd565b919260018160209254838588010152019101909291610730565b34610193576000366003190112610193576020600554604051908152f35b3461019357602036600319011261019357610799611478565b151560ff801960185416911617601855600080f35b3461019357600036600319011261019357602060ff600c54166040519015158152f35b346101935760c0366003190112610193576107ea611478565b60a4356001600160401b038111610193576108099036906004016114b3565b909160ff80196002541691151516176002556024356003556044356004556064356005556084356006556001600160401b0381116103a55761084c6007546111d1565b601f8111610903575b506000601f821160011461088a578190610885936000926102c75750508160011b916000199060031b1c19161790565b600755005b601f198216927fa66cc928b5edb82af9bd49922954155ab7b0942694bea4ce44661d9a8736c68891805b8581106108eb575083600195106108d1575b505050811b01600755005b0135600019600384901b60f8161c191690558280806108c6565b909260206001819286860135815501940191016108b4565b600760005261094c907fa66cc928b5edb82af9bd49922954155ab7b0942694bea4ce44661d9a8736c688601f840160051c8101916020851061039b57601f0160051c019061157b565b82610855565b346101935760403660031901126101935761096b611487565b5061097461149d565b50602060ff601854166040519015158152f35b34610193576020366003190112610193576004356001600160401b038111610193576109b79036906004016114b3565b6001600160401b0381116103a5576109d0600d546111d1565b601f8111610a86575b506000601f8211600114610a1c578190610a09936000926102c75750508160011b916000199060031b1c19161790565b600d555b600e805460ff19166001179055005b601f1982169260008051602061159383398151915291805b858110610a6e57508360019510610a54575b505050811b01600d55610a0d565b0135600019600384901b60f8161c19169055828080610a46565b90926020600181928686013581550194019101610a34565b600d600052610abd90600080516020611593833981519152601f840160051c8101916020851061039b57601f0160051c019061157b565b826109d9565b346101935761010036600319011261019357610add611487565b610ae561149d565b604435906084356001600160a01b038116908190036101935760a4356001600160a01b03811692908390036101935760e4356001600160401b03811161019357610b339036906004016114b3565b949091606060408051610b458161120b565b6000815260006020820152015260ff600c54166104a85760ff600e5416610eb5575b81610e50575b60095480610dda575b506040519661010088018881106001600160401b038211176103a55760405260018060a01b03168752602087019060018060a01b0316815260408701918252610be1606088019360643585526080890195865260a0890196875260c089019760c4358952369161151d565b60e088018190529651600f80546001600160a01b03199081166001600160a01b0393841617909155915160108054841691831691909117905591516011559151601255915160138054831691841691909117905591516014805490931691161790555160155580516001600160401b0381116103a557610c626016546111d1565b601f8111610d8b575b50602091601f8211600114610d2757610c9b9260009183610d1c5750508160011b916000199060031b1c19161790565b6016555b60175460018101809111610d0657601755600954600a549060405190610cc48261120b565b8152602081019182526101c8610cd8611262565b6040830190815260405193849360208552516020850152516040840152516060808401526080830190611437565b634e487b7160e01b600052601160045260246000fd5b0151905083806102ad565b601f198216926016600052806000209160005b858110610d7357508360019510610d5a575b505050811b01601655610c9f565b015160001960f88460031b161c19169055828080610d4c565b91926020600181928685015181550194019201610d3a565b6016600052610dd4907fd833147d7dc355ba459fc788f669e58cfaf9dc25ddcd0702e87d69c7b5124289601f840160051c8101916020851061039b57601f0160051c019061157b565b82610c6b565b60405163a9059cbb60e01b815260048101879052602481019190915260208160448160006001600160a01b0387165af18015610e445715610b7657610e369060203d602011610e3d575b610e2e8183611241565b810190611563565b5087610b76565b503d610e24565b6040513d6000823e3d90fd5b6040516323b872dd60e01b8152600481018590523060248201526044810183905260208160648160006001600160a01b038d165af18015610e4457610e96575b50610b6d565b610eae9060203d602011610e3d57610e2e8183611241565b5087610e90565b610ec0600d546111d1565b8614801590610ee0575b15610b67576314cd03b560e31b60005260046000fd5b50610eec36878561151d565b60208151910120610efb61131b565b602081519101201415610eca565b34610193576000366003190112610193576020600654604051908152f35b346101935760003660031901126101935760206040517f00000000000000000000000000000000000000000000000000000000000000008152f35b3461019357600036600319011261019357602060ff600854166040519015158152f35b3461019357602036600319011261019357610f9e611478565b151560ff8019600c5416911617600c55600080f35b3461019357600036600319011261019357602060ff600254166040519015158152f35b34610193576000366003190112610193576020600a54604051908152f35b34610193576000366003190112610193576101c86101b4611262565b34610193576000366003190112610193576020600954604051908152f35b3461019357600036600319011261019357602060ff601854166040519015158152f35b346101935760203660031901126101935761106a611478565b151560ff801960085416911617600855600080f35b34610193576000366003190112610193576020601754604051908152f35b3461019357600036600319011261019357600f546010546011546012546013546014546015546040516016546000986001600160a01b0398891698908116979296939594811694169291906110f1816111d1565b80885290600181169081156111ad5750600114611154575b5061111b866101c898999a0387611241565b6040519889988952602089015260408801526060870152608086015260a085015260c084015261010060e0840152610100830190611437565b601660009081529099507fd833147d7dc355ba459fc788f669e58cfaf9dc25ddcd0702e87d69c7b51242895b8a821061119757508601602001985061111b611109565b6001816020925483858c01015201910190611180565b60ff19166020808a019190915291151560051b8801909101995061111b9050611109565b90600182811c92168015611201575b60208310146111eb57565b634e487b7160e01b600052602260045260246000fd5b91607f16916111e0565b606081019081106001600160401b038211176103a557604052565b60c081019081106001600160401b038211176103a557604052565b90601f801991011681019081106001600160401b038211176103a557604052565b60405190600082600b5491611276836111d1565b80835292600181169081156112fc575060011461129c575b61129a92500383611241565b565b50600b600090815290917f0175b7a638427703f0dbe7bb9bbf987a2551717b34e79f33b5b1008d1fa01db95b8183106112e057505090602061129a9282010161128e565b60209193508060019154838589010152019101909184926112c8565b6020925061129a94915060ff191682840152151560051b82010161128e565b60405190600082600d549161132f836111d1565b80835292600181169081156112fc57506001146113525761129a92500383611241565b50600d600090815290916000805160206115938339815191525b81831061138457505090602061129a9282010161128e565b602091935080600191548385890101520191019091849261136c565b60405190600082600754916113b4836111d1565b80835292600181169081156112fc57506001146113d75761129a92500383611241565b506007600090815290917fa66cc928b5edb82af9bd49922954155ab7b0942694bea4ce44661d9a8736c6885b81831061141b57505090602061129a9282010161128e565b6020919350806001915483858901015201910190918492611403565b919082519283825260005b848110611463575050826000602080949584010152601f8019910116010190565b80602080928401015182828601015201611442565b60043590811515820361019357565b600435906001600160a01b038216820361019357565b602435906001600160a01b038216820361019357565b9181601f84011215610193578235916001600160401b038311610193576020838186019501011161019357565b906020808351928381520192019060005b8181106114fe5750505090565b82516001600160a01b03168452602093840193909201916001016114f1565b9291926001600160401b0382116103a55760405191611546601f8201601f191660200184611241565b829481845281830111610193578281602093846000960137010152565b90816020910312610193575180151581036101935790565b818110611586575050565b6000815560010161157b56fed7b6990105719101dabeb77144f2a3385c8033acd3af97e9423a695e81ad1eb5a264697066735822122003a6376e0ca9a4eeec4460ea098afa3ec353397ed77cdef554ef3fd66de16c1e64736f6c634300081b0033",
  "linkReferences": {},
  "deployedLinkReferences": {}
}