{
  "_format": "hh-sol-artifact-1",
  "contractName": "MaxWalletOptical",
  "sourceName": "contracts/opticals/presets/MaxWalletOptical.sol",
  "abi": [
    {
      "inputs": [
        {
          "internalType": "address",
          "name": "_poolRegistry",
          "type": "address"
        },
        {
          "internalType": "address",
          "name": "_owner",
          "type": "address"
        },
        {
          "internalType": "uint256",
          "name": "_maxWalletBps",
          "type": "uint256"
        }
      ],
      "stateMutability": "nonpayable",
      "type": "constructor"
    },
    {
      "inputs": [],
      "name": "MaxWalletExceeded",
      "type": "error"
    },
    {
      "inputs": [],
      "name": "NotOwner",
      "type": "error"
    },
    {
      "inputs": [],
      "name": "NotPool",
      "type": "error"
    },
    {
      "inputs": [
        {
          "internalType": "address",
          "name": "",
          "type": "address"
        },
        {
          "internalType": "uint256",
          "name": "",
          "type": "uint256"
        }
      ],
      "name": "afterFeeDistribution",
      "outputs": [
        {
          "internalType": "bytes4",
          "name": "",
          "type": "bytes4"
        }
      ],
      "stateMutability": "nonpayable",
      "type": "function"
    },
    {
      "inputs": [
        {
          "internalType": "address",
          "name": "pool",
          "type": "address"
        },
        {
          "internalType": "address",
          "name": "sender",
          "type": "address"
        },
        {
          "internalType": "bool",
          "name": "isBuy",
          "type": "bool"
        },
        {
          "internalType": "uint256",
          "name": "",
          "type": "uint256"
        },
        {
          "internalType": "uint256",
          "name": "",
          "type": "uint256"
        }
      ],
      "name": "afterSwap",
      "outputs": [
        {
          "internalType": "bytes4",
          "name": "",
          "type": "bytes4"
        }
      ],
      "stateMutability": "nonpayable",
      "type": "function"
    },
    {
      "inputs": [
        {
          "internalType": "address",
          "name": "",
          "type": "address"
        },
        {
          "internalType": "uint256",
          "name": "feeAmount",
          "type": "uint256"
        }
      ],
      "name": "beforeFeeDistribution",
      "outputs": [
        {
          "internalType": "uint256",
          "name": "adjustedFee",
          "type": "uint256"
        }
      ],
      "stateMutability": "nonpayable",
      "type": "function"
    },
    {
      "inputs": [
        {
          "internalType": "address",
          "name": "",
          "type": "address"
        },
        {
          "internalType": "address",
          "name": "",
          "type": "address"
        },
        {
          "internalType": "bool",
          "name": "",
          "type": "bool"
        },
        {
          "internalType": "uint256",
          "name": "",
          "type": "uint256"
        }
      ],
      "name": "beforeSwap",
      "outputs": [
        {
          "internalType": "bool",
          "name": "proceed",
          "type": "bool"
        },
        {
          "internalType": "int256",
          "name": "amountDelta",
          "type": "int256"
        }
      ],
      "stateMutability": "nonpayable",
      "type": "function"
    },
    {
      "inputs": [
        {
          "internalType": "address",
          "name": "",
          "type": "address"
        }
      ],
      "name": "exempt",
      "outputs": [
        {
          "internalType": "bool",
          "name": "",
          "type": "bool"
        }
      ],
      "stateMutability": "view",
      "type": "function"
    },
    {
      "inputs": [],
      "name": "getFlags",
      "outputs": [
        {
          "internalType": "uint8",
          "name": "",
          "type": "uint8"
        }
      ],
      "stateMutability": "pure",
      "type": "function"
    },
    {
      "inputs": [],
      "name": "maxWalletBps",
      "outputs": [
        {
          "internalType": "uint256",
          "name": "",
          "type": "uint256"
        }
      ],
      "stateMutability": "view",
      "type": "function"
    },
    {
      "inputs": [],
      "name": "owner",
      "outputs": [
        {
          "internalType": "address",
          "name": "",
          "type": "address"
        }
      ],
      "stateMutability": "view",
      "type": "function"
    },
    {
      "inputs": [],
      "name": "poolRegistry",
      "outputs": [
        {
          "internalType": "address",
          "name": "",
          "type": "address"
        }
      ],
      "stateMutability": "view",
      "type": "function"
    },
    {
      "inputs": [
        {
          "internalType": "address",
          "name": "account",
          "type": "address"
        },
        {
          "internalType": "bool",
          "name": "isExempt",
          "type": "bool"
        }
      ],
      "name": "setExempt",
      "outputs": [],
      "stateMutability": "nonpayable",
      "type": "function"
    }
  ],
  "bytecode": "0x60e03461009b57601f6106c638819003918201601f19168301916001600160401b038311848410176100a05780849260609460405283398101031261009b57610047816100b6565b906040610056602083016100b6565b9101519160805260a05260c0526040516105fb90816100cb823960805181610154015260a0518181816102150152610291015260c0518181816102f201526105050152f35b600080fd5b634e487b7160e01b600052604160045260246000fd5b51906001600160a01b038216820361009b5756fe608080604052600436101561001357600080fd5b60003560e01c90816312f16a07146102dc575080636cc7149d146102c05780638da5cb5b1461027b5780639fde54f5146101ec578063ae3bd4bd146101c0578063ae7e71d914610183578063afcff50f1461013e578063f1320af2146100ff578063f74c1c1a146100b85763f80d2cc71461008d57600080fd5b346100b35760403660031901126100b3576100a6610315565b5060206040516024358152f35b600080fd5b346100b35760a03660031901126100b35760206100ec6100d6610315565b6100de61032b565b6100e6610341565b916103c8565b6040516001600160e01b03199091168152f35b346100b35760203660031901126100b3576001600160a01b03610120610315565b166000526000602052602060ff604060002054166040519015158152f35b346100b35760003660031901126100b3576040517f00000000000000000000000000000000000000000000000000000000000000006001600160a01b03168152602090f35b346100b35760803660031901126100b35761019c610315565b506101a561032b565b506101ae610341565b50604080516001815260006020820152f35b346100b35760403660031901126100b3576101d9610315565b5060405163ae3bd4bd60e01b8152602090f35b346100b35760403660031901126100b357610205610315565b602435908115158092036100b3577f00000000000000000000000000000000000000000000000000000000000000006001600160a01b0316330361026a5760018060a01b0316600052600060205260406000209060ff80198354169116179055600080f35b6330cd747160e01b60005260046000fd5b346100b35760003660031901126100b3576040517f00000000000000000000000000000000000000000000000000000000000000006001600160a01b03168152602090f35b346100b35760003660031901126100b357602060405160028152f35b346100b35760003660031901126100b3576020907f00000000000000000000000000000000000000000000000000000000000000008152f35b600435906001600160a01b03821682036100b357565b602435906001600160a01b03821682036100b357565b6044359081151582036100b357565b90601f8019910116810190811067ffffffffffffffff82111761037257604052565b634e487b7160e01b600052604160045260246000fd5b3d156103c3573d9067ffffffffffffffff821161037257604051916103b7601f8201601f191660200184610350565b82523d6000602084013e565b606090565b91156105745760018060a01b03169081600052600060205260ff6040600020541680156105a3575b610574576000809160405160208101906313aedd4b60e31b825260048152610419602482610350565b51915afa610425610388565b90158015610598575b610574576020818051810103126100b357602001516001600160a01b03811691908290036100b3576000809160405160208101916370a0823160e01b8352602482015260248152610480604482610350565b5190845afa61048d610388565b9015801561058d575b61057457602081519181808201938492010103126100b35760008091519260405160208101906318160ddd60e01b8252600481526104d5602482610350565b51915afa6104e1610388565b90158015610582575b610574578051602080830192600092810103126105715750517f00000000000000000000000000000000000000000000000000000000000000009081810291818304149015171561055b5761271090041061054a57637ba60e0d60e11b90565b632ce93b5960e01b60005260046000fd5b634e487b7160e01b600052601160045260246000fd5b80fd5b50637ba60e0d60e11b919050565b5060208151106104ea565b506020815110610496565b50602081511061042e565b506001600160a01b03811660009081526020819052604090205460ff166103f056fea26469706673582212203a652c372a8561e442e619a90da80a099225b06051794a630768568c4225c93564736f6c634300081b0033",
  "linkReferences": {},
  "deployedLinkReferences": {}
}