{
  "_format": "hh-sol-artifact-1",
  "contractName": "TransferHelperWrapper",
  "sourceName": "contracts/test/TransferHelperWrapper.sol",
  "abi": [
    {
      "inputs": [],
      "name": "ApproveFailed",
      "type": "error"
    },
    {
      "inputs": [],
      "name": "TransferFailed",
      "type": "error"
    },
    {
      "inputs": [],
      "name": "TransferFromFailed",
      "type": "error"
    },
    {
      "inputs": [
        {
          "internalType": "address",
          "name": "token",
          "type": "address"
        },
        {
          "internalType": "address",
          "name": "spender",
          "type": "address"
        },
        {
          "internalType": "uint256",
          "name": "value",
          "type": "uint256"
        }
      ],
      "name": "safeApprove",
      "outputs": [],
      "stateMutability": "nonpayable",
      "type": "function"
    },
    {
      "inputs": [
        {
          "internalType": "address",
          "name": "token",
          "type": "address"
        },
        {
          "internalType": "address",
          "name": "to",
          "type": "address"
        },
        {
          "internalType": "uint256",
          "name": "value",
          "type": "uint256"
        }
      ],
      "name": "safeTransfer",
      "outputs": [],
      "stateMutability": "nonpayable",
      "type": "function"
    },
    {
      "inputs": [
        {
          "internalType": "address",
          "name": "token",
          "type": "address"
        },
        {
          "internalType": "address",
          "name": "from",
          "type": "address"
        },
        {
          "internalType": "address",
          "name": "to",
          "type": "address"
        },
        {
          "internalType": "uint256",
          "name": "value",
          "type": "uint256"
        }
      ],
      "name": "safeTransferFrom",
      "outputs": [],
      "stateMutability": "nonpayable",
      "type": "function"
    }
  ],
  "bytecode": "0x60808060405234601557610392908161001b8239f35b600080fdfe608080604052600436101561001357600080fd5b60003560e01c908163d1660f99146101e957508063d9fc4b61146101015763eb5625d91461004057600080fd5b346100fc5760008061009061009e8261005836610292565b60405163095ea7b360e01b602082019081526001600160a01b0390931660248201526044810191909152919490939082906064820190565b03601f1981018352826102cc565b51925af16100aa610304565b90159081156100cc575b506100bb57005b633e3f8f7360e01b60005260046000fd5b80518015159250826100e1575b5050386100b4565b6100f49250602080918301019101610344565b1538806100d9565b600080fd5b346100fc5760803660031901126100fc576004356001600160a01b03811681036100fc576024356001600160a01b03811691908290036100fc576044356001600160a01b03811691908290036100fc576000928380936040519060208201936323b872dd60e01b85526024830152604482015260643560648201526064815261018b6084826102cc565b51925af1610197610304565b90159081156101b9575b506101a857005b631e4e7d0960e21b60005260046000fd5b80518015159250826101ce575b5050816101a1565b6101e19250602080918301019101610344565b1581806101c6565b346100fc5760008161009082809461023461020336610292565b63a9059cbb60e01b6020989098019788526001600160a01b0390911660248501526044840152949382906064820190565b51925af1610240610304565b9015908115610262575b5061025157005b6312171d8360e31b60005260046000fd5b8051801515925082610277575b50508161024a565b61028a9250602080918301019101610344565b15818061026f565b60609060031901126100fc576004356001600160a01b03811681036100fc57906024356001600160a01b03811681036100fc579060443590565b90601f8019910116810190811067ffffffffffffffff8211176102ee57604052565b634e487b7160e01b600052604160045260246000fd5b3d1561033f573d9067ffffffffffffffff82116102ee5760405191610333601f8201601f1916602001846102cc565b82523d6000602084013e565b606090565b908160209103126100fc575180151581036100fc579056fea264697066735822122094d6f915e606c768f45263b36b86a8af58a2870dd01de5cab32d5f6ede16db4a64736f6c634300081b0033",
  "linkReferences": {},
  "deployedLinkReferences": {}
}