{
  "_format": "hh-sol-artifact-1",
  "contractName": "PECORVault",
  "sourceName": "contracts/meta-ag/vault/PECORVault.sol",
  "abi": [
    {
      "inputs": [],
      "stateMutability": "nonpayable",
      "type": "constructor"
    },
    {
      "inputs": [],
      "name": "AlreadyInitialized",
      "type": "error"
    },
    {
      "inputs": [],
      "name": "InvalidArrayLength",
      "type": "error"
    },
    {
      "inputs": [],
      "name": "InvalidImplementation",
      "type": "error"
    },
    {
      "inputs": [],
      "name": "InvalidImplementation",
      "type": "error"
    },
    {
      "inputs": [
        {
          "internalType": "address",
          "name": "account",
          "type": "address"
        },
        {
          "internalType": "bytes32",
          "name": "role",
          "type": "bytes32"
        }
      ],
      "name": "MissingRole",
      "type": "error"
    },
    {
      "inputs": [],
      "name": "NativeTransferFailed",
      "type": "error"
    },
    {
      "inputs": [],
      "name": "NotInitializing",
      "type": "error"
    },
    {
      "inputs": [],
      "name": "ReentrancyGuardReentrantCall",
      "type": "error"
    },
    {
      "inputs": [],
      "name": "ReservesMismatch",
      "type": "error"
    },
    {
      "inputs": [],
      "name": "TokenAlreadyRegistered",
      "type": "error"
    },
    {
      "inputs": [],
      "name": "TokenNotRegistered",
      "type": "error"
    },
    {
      "inputs": [],
      "name": "TransferFailed",
      "type": "error"
    },
    {
      "inputs": [],
      "name": "TransferFromFailed",
      "type": "error"
    },
    {
      "inputs": [],
      "name": "UUPSNotThroughActiveProxy",
      "type": "error"
    },
    {
      "inputs": [],
      "name": "UUPSNotThroughProxy",
      "type": "error"
    },
    {
      "inputs": [],
      "name": "UnauthorizedUpgrade",
      "type": "error"
    },
    {
      "inputs": [],
      "name": "WethOnly",
      "type": "error"
    },
    {
      "inputs": [],
      "name": "ZeroAddress",
      "type": "error"
    },
    {
      "inputs": [],
      "name": "ZeroAmount",
      "type": "error"
    },
    {
      "anonymous": false,
      "inputs": [
        {
          "indexed": true,
          "internalType": "address",
          "name": "token",
          "type": "address"
        },
        {
          "indexed": true,
          "internalType": "address",
          "name": "depositor",
          "type": "address"
        },
        {
          "indexed": false,
          "internalType": "uint256",
          "name": "amount",
          "type": "uint256"
        },
        {
          "indexed": false,
          "internalType": "uint256",
          "name": "newReserve",
          "type": "uint256"
        }
      ],
      "name": "Deposit",
      "type": "event"
    },
    {
      "anonymous": false,
      "inputs": [
        {
          "indexed": true,
          "internalType": "address",
          "name": "token",
          "type": "address"
        },
        {
          "indexed": true,
          "internalType": "address",
          "name": "recipient",
          "type": "address"
        },
        {
          "indexed": false,
          "internalType": "uint256",
          "name": "amount",
          "type": "uint256"
        },
        {
          "indexed": false,
          "internalType": "uint256",
          "name": "newReserve",
          "type": "uint256"
        }
      ],
      "name": "EmergencyWithdraw",
      "type": "event"
    },
    {
      "anonymous": false,
      "inputs": [
        {
          "indexed": false,
          "internalType": "uint64",
          "name": "version",
          "type": "uint64"
        }
      ],
      "name": "Initialized",
      "type": "event"
    },
    {
      "anonymous": false,
      "inputs": [
        {
          "indexed": true,
          "internalType": "address",
          "name": "depositor",
          "type": "address"
        },
        {
          "indexed": false,
          "internalType": "uint256",
          "name": "amount",
          "type": "uint256"
        },
        {
          "indexed": false,
          "internalType": "uint256",
          "name": "newReserve",
          "type": "uint256"
        }
      ],
      "name": "NativeDeposit",
      "type": "event"
    },
    {
      "anonymous": false,
      "inputs": [
        {
          "indexed": true,
          "internalType": "address",
          "name": "recipient",
          "type": "address"
        },
        {
          "indexed": false,
          "internalType": "uint256",
          "name": "amount",
          "type": "uint256"
        },
        {
          "indexed": false,
          "internalType": "uint256",
          "name": "newReserve",
          "type": "uint256"
        }
      ],
      "name": "NativeWithdrawal",
      "type": "event"
    },
    {
      "anonymous": false,
      "inputs": [
        {
          "indexed": true,
          "internalType": "address",
          "name": "operator",
          "type": "address"
        },
        {
          "indexed": false,
          "internalType": "bool",
          "name": "authorized",
          "type": "bool"
        }
      ],
      "name": "OperatorUpdated",
      "type": "event"
    },
    {
      "anonymous": false,
      "inputs": [
        {
          "indexed": true,
          "internalType": "address",
          "name": "token",
          "type": "address"
        },
        {
          "indexed": false,
          "internalType": "uint256",
          "name": "oldReserves",
          "type": "uint256"
        },
        {
          "indexed": false,
          "internalType": "uint256",
          "name": "newReserves",
          "type": "uint256"
        },
        {
          "indexed": false,
          "internalType": "uint256",
          "name": "recovered",
          "type": "uint256"
        }
      ],
      "name": "ReservesSync",
      "type": "event"
    },
    {
      "anonymous": false,
      "inputs": [
        {
          "indexed": true,
          "internalType": "address",
          "name": "token",
          "type": "address"
        },
        {
          "indexed": false,
          "internalType": "uint256",
          "name": "oldReserve",
          "type": "uint256"
        },
        {
          "indexed": false,
          "internalType": "uint256",
          "name": "newReserve",
          "type": "uint256"
        }
      ],
      "name": "ReservesUpdated",
      "type": "event"
    },
    {
      "anonymous": false,
      "inputs": [
        {
          "indexed": true,
          "internalType": "bytes32",
          "name": "role",
          "type": "bytes32"
        },
        {
          "indexed": true,
          "internalType": "bytes32",
          "name": "previousAdminRole",
          "type": "bytes32"
        },
        {
          "indexed": true,
          "internalType": "bytes32",
          "name": "newAdminRole",
          "type": "bytes32"
        }
      ],
      "name": "RoleAdminChanged",
      "type": "event"
    },
    {
      "anonymous": false,
      "inputs": [
        {
          "indexed": true,
          "internalType": "bytes32",
          "name": "role",
          "type": "bytes32"
        },
        {
          "indexed": true,
          "internalType": "address",
          "name": "account",
          "type": "address"
        },
        {
          "indexed": true,
          "internalType": "address",
          "name": "sender",
          "type": "address"
        }
      ],
      "name": "RoleGranted",
      "type": "event"
    },
    {
      "anonymous": false,
      "inputs": [
        {
          "indexed": true,
          "internalType": "bytes32",
          "name": "role",
          "type": "bytes32"
        },
        {
          "indexed": true,
          "internalType": "address",
          "name": "account",
          "type": "address"
        },
        {
          "indexed": true,
          "internalType": "address",
          "name": "sender",
          "type": "address"
        }
      ],
      "name": "RoleRevoked",
      "type": "event"
    },
    {
      "anonymous": false,
      "inputs": [
        {
          "indexed": true,
          "internalType": "address",
          "name": "token",
          "type": "address"
        },
        {
          "indexed": false,
          "internalType": "bool",
          "name": "isStablecoin",
          "type": "bool"
        }
      ],
      "name": "StablecoinStatusUpdated",
      "type": "event"
    },
    {
      "anonymous": false,
      "inputs": [
        {
          "indexed": true,
          "internalType": "address",
          "name": "token",
          "type": "address"
        },
        {
          "indexed": false,
          "internalType": "uint8",
          "name": "decimals",
          "type": "uint8"
        },
        {
          "indexed": false,
          "internalType": "bool",
          "name": "isStablecoin",
          "type": "bool"
        }
      ],
      "name": "TokenRegistered",
      "type": "event"
    },
    {
      "anonymous": false,
      "inputs": [
        {
          "indexed": true,
          "internalType": "address",
          "name": "tracker",
          "type": "address"
        }
      ],
      "name": "TransactionTrackerUpdated",
      "type": "event"
    },
    {
      "anonymous": false,
      "inputs": [
        {
          "indexed": true,
          "internalType": "address",
          "name": "implementation",
          "type": "address"
        }
      ],
      "name": "Upgraded",
      "type": "event"
    },
    {
      "anonymous": false,
      "inputs": [
        {
          "indexed": true,
          "internalType": "address",
          "name": "token",
          "type": "address"
        },
        {
          "indexed": true,
          "internalType": "address",
          "name": "recipient",
          "type": "address"
        },
        {
          "indexed": false,
          "internalType": "uint256",
          "name": "amount",
          "type": "uint256"
        },
        {
          "indexed": false,
          "internalType": "uint256",
          "name": "newReserve",
          "type": "uint256"
        }
      ],
      "name": "Withdrawal",
      "type": "event"
    },
    {
      "inputs": [],
      "name": "DEFAULT_ADMIN_ROLE",
      "outputs": [
        {
          "internalType": "bytes32",
          "name": "",
          "type": "bytes32"
        }
      ],
      "stateMutability": "view",
      "type": "function"
    },
    {
      "inputs": [],
      "name": "OPERATOR_ROLE",
      "outputs": [
        {
          "internalType": "bytes32",
          "name": "",
          "type": "bytes32"
        }
      ],
      "stateMutability": "view",
      "type": "function"
    },
    {
      "inputs": [
        {
          "internalType": "address",
          "name": "",
          "type": "address"
        }
      ],
      "name": "authorizedOperators",
      "outputs": [
        {
          "internalType": "bool",
          "name": "",
          "type": "bool"
        }
      ],
      "stateMutability": "view",
      "type": "function"
    },
    {
      "inputs": [
        {
          "internalType": "address",
          "name": "token",
          "type": "address"
        },
        {
          "internalType": "uint256",
          "name": "amount",
          "type": "uint256"
        }
      ],
      "name": "deposit",
      "outputs": [],
      "stateMutability": "nonpayable",
      "type": "function"
    },
    {
      "inputs": [
        {
          "internalType": "address[]",
          "name": "tokenList",
          "type": "address[]"
        },
        {
          "internalType": "uint256[]",
          "name": "amounts",
          "type": "uint256[]"
        }
      ],
      "name": "depositBatch",
      "outputs": [],
      "stateMutability": "nonpayable",
      "type": "function"
    },
    {
      "inputs": [],
      "name": "depositNative",
      "outputs": [],
      "stateMutability": "payable",
      "type": "function"
    },
    {
      "inputs": [
        {
          "internalType": "address",
          "name": "token",
          "type": "address"
        },
        {
          "internalType": "uint256",
          "name": "amount",
          "type": "uint256"
        },
        {
          "internalType": "address",
          "name": "recipient",
          "type": "address"
        }
      ],
      "name": "emergencyWithdraw",
      "outputs": [],
      "stateMutability": "nonpayable",
      "type": "function"
    },
    {
      "inputs": [],
      "name": "getAllReserves",
      "outputs": [
        {
          "internalType": "address[]",
          "name": "tokens",
          "type": "address[]"
        },
        {
          "internalType": "uint256[]",
          "name": "reserves",
          "type": "uint256[]"
        }
      ],
      "stateMutability": "view",
      "type": "function"
    },
    {
      "inputs": [],
      "name": "getRegisteredStablecoins",
      "outputs": [
        {
          "internalType": "address[]",
          "name": "",
          "type": "address[]"
        }
      ],
      "stateMutability": "view",
      "type": "function"
    },
    {
      "inputs": [],
      "name": "getRegisteredTokenCount",
      "outputs": [
        {
          "internalType": "uint256",
          "name": "",
          "type": "uint256"
        }
      ],
      "stateMutability": "view",
      "type": "function"
    },
    {
      "inputs": [],
      "name": "getRegisteredTokens",
      "outputs": [
        {
          "internalType": "address[]",
          "name": "",
          "type": "address[]"
        }
      ],
      "stateMutability": "view",
      "type": "function"
    },
    {
      "inputs": [
        {
          "internalType": "address",
          "name": "token",
          "type": "address"
        }
      ],
      "name": "getReserves",
      "outputs": [
        {
          "internalType": "uint256",
          "name": "",
          "type": "uint256"
        }
      ],
      "stateMutability": "view",
      "type": "function"
    },
    {
      "inputs": [
        {
          "internalType": "bytes32",
          "name": "role",
          "type": "bytes32"
        }
      ],
      "name": "getRoleAdmin",
      "outputs": [
        {
          "internalType": "bytes32",
          "name": "",
          "type": "bytes32"
        }
      ],
      "stateMutability": "view",
      "type": "function"
    },
    {
      "inputs": [
        {
          "internalType": "address",
          "name": "token",
          "type": "address"
        }
      ],
      "name": "getTokenDecimals",
      "outputs": [
        {
          "internalType": "uint8",
          "name": "",
          "type": "uint8"
        }
      ],
      "stateMutability": "view",
      "type": "function"
    },
    {
      "inputs": [
        {
          "internalType": "address",
          "name": "token",
          "type": "address"
        }
      ],
      "name": "getTokenInfo",
      "outputs": [
        {
          "internalType": "bool",
          "name": "",
          "type": "bool"
        },
        {
          "internalType": "bool",
          "name": "",
          "type": "bool"
        },
        {
          "internalType": "uint8",
          "name": "",
          "type": "uint8"
        },
        {
          "internalType": "uint256",
          "name": "",
          "type": "uint256"
        },
        {
          "internalType": "uint256",
          "name": "",
          "type": "uint256"
        },
        {
          "internalType": "uint256",
          "name": "",
          "type": "uint256"
        }
      ],
      "stateMutability": "view",
      "type": "function"
    },
    {
      "inputs": [
        {
          "internalType": "address",
          "name": "token",
          "type": "address"
        }
      ],
      "name": "getUntrackedFunds",
      "outputs": [
        {
          "internalType": "uint256",
          "name": "",
          "type": "uint256"
        }
      ],
      "stateMutability": "view",
      "type": "function"
    },
    {
      "inputs": [
        {
          "internalType": "bytes32",
          "name": "role",
          "type": "bytes32"
        },
        {
          "internalType": "address",
          "name": "account",
          "type": "address"
        }
      ],
      "name": "grantRole",
      "outputs": [],
      "stateMutability": "nonpayable",
      "type": "function"
    },
    {
      "inputs": [
        {
          "internalType": "address",
          "name": "token",
          "type": "address"
        },
        {
          "internalType": "uint256",
          "name": "amount",
          "type": "uint256"
        }
      ],
      "name": "hasLiquidity",
      "outputs": [
        {
          "internalType": "bool",
          "name": "",
          "type": "bool"
        }
      ],
      "stateMutability": "view",
      "type": "function"
    },
    {
      "inputs": [
        {
          "internalType": "bytes32",
          "name": "role",
          "type": "bytes32"
        },
        {
          "internalType": "address",
          "name": "account",
          "type": "address"
        }
      ],
      "name": "hasRole",
      "outputs": [
        {
          "internalType": "bool",
          "name": "",
          "type": "bool"
        }
      ],
      "stateMutability": "view",
      "type": "function"
    },
    {
      "inputs": [
        {
          "internalType": "address",
          "name": "weth_",
          "type": "address"
        },
        {
          "internalType": "address",
          "name": "tracker_",
          "type": "address"
        },
        {
          "internalType": "address",
          "name": "admin_",
          "type": "address"
        }
      ],
      "name": "initialize",
      "outputs": [],
      "stateMutability": "nonpayable",
      "type": "function"
    },
    {
      "inputs": [
        {
          "internalType": "address",
          "name": "token",
          "type": "address"
        }
      ],
      "name": "isStablecoin",
      "outputs": [
        {
          "internalType": "bool",
          "name": "",
          "type": "bool"
        }
      ],
      "stateMutability": "view",
      "type": "function"
    },
    {
      "inputs": [],
      "name": "proxiableUUID",
      "outputs": [
        {
          "internalType": "bytes32",
          "name": "",
          "type": "bytes32"
        }
      ],
      "stateMutability": "view",
      "type": "function"
    },
    {
      "inputs": [
        {
          "internalType": "address",
          "name": "token",
          "type": "address"
        },
        {
          "internalType": "address",
          "name": "from",
          "type": "address"
        },
        {
          "internalType": "uint256",
          "name": "amount",
          "type": "uint256"
        }
      ],
      "name": "pullTokens",
      "outputs": [
        {
          "internalType": "uint256",
          "name": "actualAmount",
          "type": "uint256"
        }
      ],
      "stateMutability": "nonpayable",
      "type": "function"
    },
    {
      "inputs": [
        {
          "internalType": "address",
          "name": "token",
          "type": "address"
        },
        {
          "internalType": "address",
          "name": "to",
          "type": "address"
        },
        {
          "internalType": "uint256",
          "name": "amount",
          "type": "uint256"
        }
      ],
      "name": "pushTokens",
      "outputs": [],
      "stateMutability": "nonpayable",
      "type": "function"
    },
    {
      "inputs": [
        {
          "internalType": "address",
          "name": "token",
          "type": "address"
        },
        {
          "internalType": "bool",
          "name": "isStablecoin_",
          "type": "bool"
        }
      ],
      "name": "registerToken",
      "outputs": [],
      "stateMutability": "nonpayable",
      "type": "function"
    },
    {
      "inputs": [
        {
          "internalType": "bytes32",
          "name": "role",
          "type": "bytes32"
        },
        {
          "internalType": "address",
          "name": "callerConfirmation",
          "type": "address"
        }
      ],
      "name": "renounceRole",
      "outputs": [],
      "stateMutability": "nonpayable",
      "type": "function"
    },
    {
      "inputs": [
        {
          "internalType": "bytes32",
          "name": "role",
          "type": "bytes32"
        },
        {
          "internalType": "address",
          "name": "account",
          "type": "address"
        }
      ],
      "name": "revokeRole",
      "outputs": [],
      "stateMutability": "nonpayable",
      "type": "function"
    },
    {
      "inputs": [
        {
          "internalType": "address",
          "name": "operator",
          "type": "address"
        },
        {
          "internalType": "bool",
          "name": "authorized",
          "type": "bool"
        }
      ],
      "name": "setOperator",
      "outputs": [],
      "stateMutability": "nonpayable",
      "type": "function"
    },
    {
      "inputs": [
        {
          "internalType": "address",
          "name": "token",
          "type": "address"
        },
        {
          "internalType": "bool",
          "name": "isStablecoin_",
          "type": "bool"
        }
      ],
      "name": "setStablecoinStatus",
      "outputs": [],
      "stateMutability": "nonpayable",
      "type": "function"
    },
    {
      "inputs": [
        {
          "internalType": "address",
          "name": "tracker",
          "type": "address"
        }
      ],
      "name": "setTransactionTracker",
      "outputs": [],
      "stateMutability": "nonpayable",
      "type": "function"
    },
    {
      "inputs": [],
      "name": "syncAllReserves",
      "outputs": [],
      "stateMutability": "nonpayable",
      "type": "function"
    },
    {
      "inputs": [
        {
          "internalType": "address",
          "name": "token",
          "type": "address"
        }
      ],
      "name": "syncReserves",
      "outputs": [],
      "stateMutability": "nonpayable",
      "type": "function"
    },
    {
      "inputs": [],
      "name": "transactionTracker",
      "outputs": [
        {
          "internalType": "address",
          "name": "",
          "type": "address"
        }
      ],
      "stateMutability": "view",
      "type": "function"
    },
    {
      "inputs": [
        {
          "internalType": "address",
          "name": "tokenIn",
          "type": "address"
        },
        {
          "internalType": "uint256",
          "name": "amountIn",
          "type": "uint256"
        },
        {
          "internalType": "address",
          "name": "tokenOut",
          "type": "address"
        },
        {
          "internalType": "uint256",
          "name": "amountOut",
          "type": "uint256"
        }
      ],
      "name": "updateReserves",
      "outputs": [],
      "stateMutability": "nonpayable",
      "type": "function"
    },
    {
      "inputs": [
        {
          "internalType": "address",
          "name": "newImplementation",
          "type": "address"
        },
        {
          "internalType": "bytes",
          "name": "data",
          "type": "bytes"
        }
      ],
      "name": "upgradeToAndCall",
      "outputs": [],
      "stateMutability": "payable",
      "type": "function"
    },
    {
      "inputs": [],
      "name": "weth",
      "outputs": [
        {
          "internalType": "address",
          "name": "",
          "type": "address"
        }
      ],
      "stateMutability": "view",
      "type": "function"
    },
    {
      "inputs": [
        {
          "internalType": "uint256",
          "name": "amount",
          "type": "uint256"
        },
        {
          "internalType": "address",
          "name": "to",
          "type": "address"
        }
      ],
      "name": "withdrawNative",
      "outputs": [],
      "stateMutability": "nonpayable",
      "type": "function"
    },
    {
      "stateMutability": "payable",
      "type": "receive"
    }
  ],
  "bytecode": "0x60a080604052346100e9573060805260017f9b779b17422d0df92223018b32b4d1fa46e071723d6817e2486d003becc55f005560008051602061268a8339815191525460ff8160401c166100d9576002600160401b03196001600160401b03821601610085575b60405161259b90816100ef82396080518181816111ba01526112980152f35b6001600160401b0319166001600160401b0390811760008051602061268a8339815191525581527fc7f505b2f371ae2175ee4913f4499e1f2633a7b5936321eed1cdaeb6115181d290602090a13880610066565b62dc149f60e41b60005260046000fd5b600080fdfe6080604052600436101561003e575b361561001957600080fd5b6001546001600160a01b0316330361002d57005b63cfab651760e01b60005260046000fd5b6000803560e01c806311948d22146117b357806314cbd99314611735578063181d989b146116f65780631a650cc7146116b45780631f69565f1461163b578063248a9ca31461160d5780632f2ff15d146115cc57806336568abe1461157e5780633e99c1e4146115415780633fc8cef31461151857806347e7ef24146114385780634f1ef2861461122157806352d1902d146111a7578063551512de146110f2578063558a72971461105c5780635c549d811461103e5780636710b83f14610eea5780636aa701bf14610dcf57806372a4acb814610dab578063785c7cf614610d6b57806378743ca514610cff5780638790e47914610c6957806391d1485414610c21578063a217fddf14610c05578063a4cf2f1c14610bdc578063a6c29ca314610adb578063ac85dca7146109ed578063b73954da14610936578063b8ca8dd8146107a9578063b9179d211461062e578063c0c53b8b14610464578063d25a18e5146103fb578063d547741f146103af578063db6b524614610295578063f19476e214610254578063f5b541a61461022b5763facdfb5e146101e1575061000e565b34610228576020366003190112610228576102136101fd6118c4565b61020633611c88565b61020e611d39565b6123f8565b60016000805160206125468339815191525580f35b80fd5b503461022857806003193601126102285760206040516000805160206125068339815191528152f35b5034610228576040366003190112610228576020906001600160a01b036102796118c4565b1681526004825260016040602435922001541015604051908152f35b5080600319360112610228576102a9611d39565b34156103a0576001546001600160a01b0316808252600460205260408220805490919060ff1615610391578083913b15610382578160049160405192838092630d0e30db60e41b825234905af180156103865761036d575b505060026001820191610315348454611a36565b80935501610324348254611a36565b90556040519034825260208201527f2d45cf213b0878e6582a0bddc676c202f8f57ed3cd74e8ccf8955ce1359bd42760403392a260016000805160206125468339815191525580f35b8161037791611948565b610382578138610301565b5080fd5b6040513d84823e3d90fd5b63259ba1ad60e01b8352600483fd5b631f2a200560e01b8152600490fd5b5034610228576040366003190112610228576103f76004356103cf6118f5565b906103f26103eb82600052600060205260016040600020015490565b3390611ceb565b611fee565b5080f35b5034610228576020366003190112610228576104156118c4565b61041e33611c88565b600280546001600160a01b0319166001600160a01b039290921691821790557f3dd2b7e16ddea78bec31b5b95991ba3d03fda27bc5c8a8441775b76c8f88033e8280a280f35b50346102285760603660031901126102285761047e6118c4565b6104866118f5565b61048e6118df565b906000805160206124e6833981519152549260ff8460401c16159367ffffffffffffffff8116600181101580610627575b61061957151580610611575b61060357846105db575b506000805160206124e6833981519152805467ffffffffffffffff191660011790556001600160a01b031680156105cc576001600160a01b038316156105cc579061056a92916001600080516020612546833981519152556bffffffffffffffffffffffff60a01b600154161760015560018060a01b03166bffffffffffffffffffffffff60a01b6002541617600255611e14565b506105725780f35b68ff0000000000000000196000805160206124e683398151915254166000805160206124e6833981519152557fc7f505b2f371ae2175ee4913f4499e1f2633a7b5936321eed1cdaeb6115181d2602060405160018152a180f35b63d92e233d60e01b8552600485fd5b68ff00000000000000001916600160401b176000805160206124e683398151915255386104d5565b62dc149f60e41b8652600486fd5b5084156104cb565b62dc149f60e41b8752600487fd5b50856104bf565b50346102285760403660031901126102285760043567ffffffffffffffff811161038257610660903690600401611a05565b60243567ffffffffffffffff81116107a557610680903690600401611a05565b61068b929192611d39565b8115801561079b575b61078c57845b8281106106b7578560016000805160206125468339815191525580f35b6106c2818386611c15565b35801561077d576106d4828588611c15565b35906001600160a01b03821690818303610779578189526004602052604089209260ff8454161561076a57600194939291610710913390612076565b91600285820191610722858454611a36565b80935501610731848254611a36565b905560405192835260208301527fdcbc1c05240f31ff3ad067ef1ee35ce4997762752e3a095284754544f4c709d760403393a30161069a565b63259ba1ad60e01b8a5260048afd5b8880fd5b631f2a200560e01b8752600487fd5b634ec4810560e11b8552600485fd5b5080821415610694565b8380fd5b5034610228576040366003190112610228576004356107c66118f5565b906107d033611c25565b6107d8611d39565b6001600160a01b038216918215610927578115610918576001546001600160a01b031680855260046020526040852080549092919060ff161561090957600183019283548581106108fa5787929161083287600393611a59565b865501610840868254611a36565b9055803b15610382578190602460405180948193632e1a7d4d60e01b83528960048401525af180156108ef576108dd575b508480808581945af1610882611be5565b50156108ce577f4c556479041161db341af3dc4010b53fa70282739dc38d464ff9628ee9c9d29f916040915482519182526020820152a260016000805160206125468339815191525580f35b633d2cec6f60e21b8452600484fd5b946108e9818597611948565b94610871565b6040513d88823e3d90fd5b638b82cba360e01b8852600488fd5b63259ba1ad60e01b8652600486fd5b631f2a200560e01b8452600484fd5b63d92e233d60e01b8452600484fd5b5034610228576020366003190112610228576024906001600160a01b0361095b6118c4565b1680825260046020526020600160408420015491604051948580926370a0823160e01b82523060048301525afa80156103865782906109ba575b60209350818111156109b3576109ab9250611a59565b604051908152f35b50506109ab565b506020833d6020116109e5575b816109d460209383611948565b810103126103825760209251610995565b3d91506109c7565b5034610228576109fc366119cb565b929091610a0833611c25565b610a10611d39565b8315610acc5760018060a01b038116908183526004602052604083209260ff84541615610abd57506040610a68602096867fdcbc1c05240f31ff3ad067ef1ee35ce4997762752e3a095284754544f4c709d794612076565b9460026001860195610a7b888854611a36565b80975501610a8a878254611a36565b90558151868152878101959095526001600160a01b031693a3600160008051602061254683398151915255604051908152f35b63259ba1ad60e01b8152600490fd5b631f2a200560e01b8252600482fd5b503461022857610aea366119cb565b610af333611c25565b610afb611d39565b6001600160a01b0382169283156105cc578115610bcd5760018060a01b038116928386526004602052604086209160ff83541615610bbe5760018301928354858110610baf57948093604095936003610b8e94610b79857fc2b4a290c20fb28939d29f102514fbffd2b73c059ffba8b78250c94161d5fcc69b611a59565b875501610b87848254611a36565b905561221a565b5482519182526020820152a360016000805160206125468339815191525580f35b638b82cba360e01b8952600489fd5b63259ba1ad60e01b8752600487fd5b631f2a200560e01b8552600485fd5b50346102285780600319360112610228576002546040516001600160a01b039091168152602090f35b5034610228578060031936011261022857602090604051908152f35b50346102285760403660031901126102285760ff6040602092610c426118f5565b60043582528185528282206001600160a01b03909116825284522054604051911615158152f35b503461022857806003193601126102285760405180916020600654928381520191600682527ff652222313e28459528d920b65115c16c04f3efc82aaedc97be59f3f377c0d3f915b818110610ce057610cdc85610cc881870382611948565b60405191829160208352602083019061190b565b0390f35b82546001600160a01b0316845260209093019260019283019201610cb1565b5034610228578060031936011261022857610d1933611c88565b610d21611d39565b600554815b818110610d43578260016000805160206125468339815191525580f35b80610d65610d52600193611a66565b848060a01b0391549060031b1c166123f8565b01610d26565b50346102285760203660031901126102285760209060ff906040906001600160a01b03610d966118c4565b16815260048452205460101c16604051908152f35b503461022857610dcc610dbd3661199c565b90610dc733611c88565b611b1d565b80f35b5034610228578060031936011261022857600554610dec81611af1565b90610dfa6040519283611948565b808252601f19610e0982611af1565b01366020840137610e1981611af1565b92610e276040519485611948565b818452610e3382611af1565b602085019290601f1901368437815b818110610e9d575050610e6593602060405195869560408752604087019061190b565b918583038287015251918281520192915b818110610e84575050500390f35b8251845285945060209384019390920191600101610e76565b80610ead60019297959697611a66565b838060a01b0391549060031b1c1680610ec6838a611b09565b528452600460205281604085200154610edf8287611b09565b520194939294610e42565b503461022857610ef93661199c565b90610f0333611c88565b6001600160a01b038116918215610927578284526004602052604084209182549260ff841661102f576001610f37836122b3565b84151560081b61ff001662ffff00199290921662ffffff19969096169590951717601085901b62ff000016179055600554600160401b81101561101b579181610fd47f3247537f6efe5e5d3f25242f42522e1bfbabeea906fc7005a128b11bcdb3f99b9593610fb0866001604098016005556005611ab2565b81546001600160a01b0393841660039290921b91821b9390911b1916919091179055565b81600554878952600760205285892055610ffd575b5060ff83519216825215156020820152a280f35b61100690611aca565b60065485875260086020528387205538610fe9565b634e487b7160e01b86526041600452602486fd5b633ea7ffd960e11b8652600486fd5b50346102285780600319360112610228576020600554604051908152f35b50346102285761106b3661199c565b61107433611c88565b6001600160a01b038216918215610927577f966c160e1c4dbc7df8d69af4ace01e9297c3cf016397b7914971f2fbfa32672d916020918486526003835260408620918015159260ff1981541660ff85161790556000146110e3576110d790611d75565b505b604051908152a280f35b6110ec90611f53565b506110d9565b50346102285760603660031901126102285761110c6118c4565b6024356111176118df565b9061112133611c88565b611129611d39565b6001600160a01b0382169283156105cc578115610bcd5760018060a01b038116928386526004602052604086209160ff83541615610bbe5760018301928354858110610baf57948093604095936003610b8e94610b79857f1401b6ff3b281e84fd77353369caed48ba7e787dd3821db05cc00643736082019b611a59565b50346102285780600319360112610228577f00000000000000000000000000000000000000000000000000000000000000006001600160a01b031630036112125760206040517f360894a13ba1a3210667c828492db98dca3e2076cc3735a920a3ca505d382bbc8152f35b6345a93fc960e01b8152600490fd5b506040366003190112610228576112366118c4565b906024359167ffffffffffffffff831161038257366023840112156103825782600401359261126484611980565b936112726040519586611948565b8085526020850191366024838301011161143457818592602460209301853786010152307f00000000000000000000000000000000000000000000000000000000000000006001600160a01b031614611425576112ce33611c88565b6040516352d1902d60e01b81526001600160a01b0383169490602081600481895afa8591816113ed575b5061130c5763340aafcd60e11b8552600485fd5b7f360894a13ba1a3210667c828492db98dca3e2076cc3735a920a3ca505d382bbc036113de57823b156113de578394837f360894a13ba1a3210667c828492db98dca3e2076cc3735a920a3ca505d382bbc557fbc7cd75a20ee27fd9adebab32041f755214dbc6bffa90cc0225b39da2e5c2d3b8580a251908161138e57505050f35b83925af461139a611be5565b50156113a35780f35b60405162461bcd60e51b81526020600482015260136024820152721d5c19dc985919481a5b9a5d0819985a5b1959606a1b6044820152606490fd5b63340aafcd60e11b8452600484fd5b9091506020813d60201161141d575b8161140960209383611948565b81010312611419575190386112f8565b8580fd5b3d91506113fc565b6309e1070b60e31b8352600483fd5b8480fd5b5034610228576040366003190112610228576114526118c4565b60243561145d611d39565b80156115095760018060a01b038216908184526004602052604084209260ff845416156114fa5790611490913390612076565b91600260018201916114a3858454611a36565b809355016114b2848254611a36565b905560405192835260208301527fdcbc1c05240f31ff3ad067ef1ee35ce4997762752e3a095284754544f4c709d760403393a360016000805160206125468339815191525580f35b63259ba1ad60e01b8552600485fd5b631f2a200560e01b8352600483fd5b50346102285780600319360112610228576001546040516001600160a01b039091168152602090f35b5034610228576020366003190112610228576020906001906040906001600160a01b0361156c6118c4565b16815260048452200154604051908152f35b50346102285760403660031901126102285760043561159b6118f5565b336001600160a01b03909116036115b7576103f7903390611fee565b62b0d32560e11b825233600452602452604490fd5b5034610228576040366003190112610228576103f76004356115ec6118f5565b906116086103eb82600052600060205260016040600020015490565b611ec7565b50346102285760203660031901126102285760206109ab600435600052600060205260016040600020015490565b50346102285760203660031901126102285760c0906040906001600160a01b036116636118c4565b168152600460205220805490600181015490600360028201549101549160ff6040519481811615158652818160081c161515602087015260101c1660408501526060840152608083015260a0820152f35b50346102285760203660031901126102285760209060ff906040906001600160a01b036116df6118c4565b16815260048452205460081c166040519015158152f35b50346102285760203660031901126102285760209060ff906040906001600160a01b036117216118c4565b168152600384522054166040519015158152f35b503461022857806003193601126102285760405180916020600554928381520191600582527f036b6384b5eca791c62761152d0c79bb0604c104a5fb6f4eb0703f3154bb3db0915b81811061179457610cdc85610cc881870382611948565b82546001600160a01b031684526020909301926001928301920161177d565b5034610228576080366003190112610228576117cd6118c4565b6117d56118df565b606435916117e233611c25565b6117ea611d39565b6001600160a01b0390811680855260046020818152604080882095909416808852919052918520835492949260ff161580156118b8575b61090957600101918254938185106118a957917fa2c850dc6f3f3d2193ff68281de055559c5468fc0c89311bca2d25f8e50a38f5604080959360018398960161187a81549261187260243585611a36565b835588611a59565b8096555482519182526020820152a282519182526020820152a260016000805160206125468339815191525580f35b638b82cba360e01b8752600487fd5b5060ff81541615611821565b600435906001600160a01b03821682036118da57565b600080fd5b604435906001600160a01b03821682036118da57565b602435906001600160a01b03821682036118da57565b906020808351928381520192019060005b8181106119295750505090565b82516001600160a01b031684526020938401939092019160010161191c565b90601f8019910116810190811067ffffffffffffffff82111761196a57604052565b634e487b7160e01b600052604160045260246000fd5b67ffffffffffffffff811161196a57601f01601f191660200190565b60409060031901126118da576004356001600160a01b03811681036118da579060243580151581036118da5790565b60609060031901126118da576004356001600160a01b03811681036118da57906024356001600160a01b03811681036118da579060443590565b9181601f840112156118da5782359167ffffffffffffffff83116118da576020808501948460051b0101116118da57565b91908201809211611a4357565b634e487b7160e01b600052601160045260246000fd5b91908203918211611a4357565b600554811015611a8157600560005260206000200190600090565b634e487b7160e01b600052603260045260246000fd5b600654811015611a8157600660005260206000200190600090565b8054821015611a815760005260206000200190600090565b60065490600160401b82101561196a57610fb0826001611aef94016006556006611ab2565b565b67ffffffffffffffff811161196a5760051b60200190565b8051821015611a815760209160051b010190565b6001600160a01b0381166000818152600460205260409020805491939290919060ff821615611bd4577f86ae7209a9b6fdfe9815ac7b9d6d231fb98161d45106408dcbf95e33944875bd936020938115159360081c60ff1615158414611bc857805461ff00191682151560081b61ff001617905515611bba57611b9f90611aca565b60065484600052600883526040600020555b604051908152a2565b611bc39061231c565b611bb1565b505050604051908152a2565b63259ba1ad60e01b60005260046000fd5b3d15611c10573d90611bf682611980565b91611c046040519384611948565b82523d6000602084013e565b606090565b9190811015611a815760051b0190565b6001600160a01b0381166000908152600080516020612526833981519152602052604090205460ff1615611c565750565b62b0d32560e11b60009081526001600160a01b0391909116600452600080516020612506833981519152602452604490fd5b6001600160a01b03811660009081527fad3228b676f7d3cd4284a5443f17f1962b36e491b30a40b2405849e597ba5fb5602052604090205460ff1615611ccb5750565b62b0d32560e11b60005260018060a01b0316600452600060245260446000fd5b90816000526000602052604060002060018060a01b03821660005260205260ff6040600020541615611d1b575050565b62b0d32560e11b60005260018060a01b031660045260245260446000fd5b60026000805160206125468339815191525414611d6457600260008051602061254683398151915255565b633ee5aeb560e01b60005260046000fd5b6001600160a01b0381166000908152600080516020612526833981519152602052604090205460ff1615611da95750600090565b6001600160a01b0316600081815260008051602061252683398151915260205260408120805460ff19166001179055339190600080516020612506833981519152907f2f8788117e7eff1d82e926ec794901d17c78024a50270940304540a733656f0d9080a4600190565b6001600160a01b03811660009081527fad3228b676f7d3cd4284a5443f17f1962b36e491b30a40b2405849e597ba5fb5602052604090205460ff1615611e5a5750600090565b6001600160a01b031660008181527fad3228b676f7d3cd4284a5443f17f1962b36e491b30a40b2405849e597ba5fb560205260408120805460ff191660011790553391907f2f8788117e7eff1d82e926ec794901d17c78024a50270940304540a733656f0d8180a4600190565b6000818152602081815260408083206001600160a01b038616845290915290205460ff1615611ef7575050600090565b6000818152602081815260408083206001600160a01b0395909516808452949091528120805460ff19166001179055339291907f2f8788117e7eff1d82e926ec794901d17c78024a50270940304540a733656f0d9080a4600190565b6001600160a01b0381166000908152600080516020612526833981519152602052604090205460ff16611f865750600090565b6001600160a01b0316600081815260008051602061252683398151915260205260408120805460ff19169055339190600080516020612506833981519152907ff6391f5c32d9c69d2a47ea670b442974b53935d1edc7fd64eb21e047a839171b9080a4600190565b6000818152602081815260408083206001600160a01b038616845290915290205460ff1661201d575050600090565b6000818152602081815260408083206001600160a01b0395909516808452949091528120805460ff19169055339291907ff6391f5c32d9c69d2a47ea670b442974b53935d1edc7fd64eb21e047a839171b9080a4600190565b6040516370a0823160e01b81523060048201526001600160a01b03821693909290602084602481885afa93841561217a576000946121c7575b5091600092918380936040519060208201936323b872dd60e01b855260018060a01b031660248301523060448301526064820152606481526120f2608482611948565b51925af16120fe611be5565b9015908115612197575b50612186576020602492604051938480926370a0823160e01b82523060048301525afa801561217a57600090612146575b6121439250611a59565b90565b506020823d602011612172575b8161216060209383611948565b810103126118da576121439151612139565b3d9150612153565b6040513d6000823e3d90fd5b631e4e7d0960e21b60005260046000fd5b80518015159250826121ac575b505038612108565b6121bf9250602080918301019101612202565b1538806121a4565b91929093506020823d6020116121fa575b816121e560209383611948565b810103126118da5790519290919060006120af565b3d91506121d8565b908160209103126118da575180151581036118da5790565b6000929183809360405190602082019363a9059cbb60e01b855260018060a01b03166024830152604482015260448152612255606482611948565b51925af1612261611be5565b9015908115612283575b5061227257565b6312171d8360e31b60005260046000fd5b8051801515925082612298575b50503861226b565b6122ab9250602080918301019101612202565b153880612290565b60008091604051602081019063313ce56760e01b8252600481526122d8602482611948565b51915afa6122e4611be5565b9080612310575b6122f55750601290565b602081519181808201938492010103126118da575160ff1690565b506020815110156122eb565b6001600160a01b031660008181526008602052604090205480156123f4576006546000198101908111611a4357600019820190828211611a43578082036123b4575b505050600654801561239e576000190161237781611a97565b81549060018060a01b039060031b1b19169055600655600052600860205260006040812055565b634e487b7160e01b600052603160045260246000fd5b610fb0916123c46123de92611a97565b905460039190911b1c6001600160a01b0316928391611a97565b600052600860205260406000205538808061235e565b5050565b6001600160a01b03166000818152600460205260409020805460ff1615611bd4576040516370a0823160e01b815230600482015290602082602481865afa91821561217a576000926124b1575b5060018101805490818411156124aa5783600260609482612487867f055fb2ac115b8a1258ed74cd751869f95f1fb10b2c889147acbaca28ba479e5f99611a59565b945501612495838254611a36565b905560405192835260208301526040820152a2565b5050505050565b90916020823d6020116124dd575b816124cc60209383611948565b810103126102285750519038612445565b3d91506124bf56fe4377386e2795aba8c0ce23a1e6e67bac790e4b4166f14b7e9365049ab946f8c097667070c54ef182b0f5858b034beac1b6f3089aa2d3188bb1e8929f4fa9b929ee57cd81e84075558e8fcc182a1f4393f91fc97f963a136e66b7f949a62f319f9b779b17422d0df92223018b32b4d1fa46e071723d6817e2486d003becc55f00a26469706673582212204dc51316d2b6f1647c79ad67c0cc33a9a80832241cda5487f8964b01c7555f6564736f6c634300081b00334377386e2795aba8c0ce23a1e6e67bac790e4b4166f14b7e9365049ab946f8c0",
  "linkReferences": {},
  "deployedLinkReferences": {}
}