{
  "_format": "hh-sol-artifact-1",
  "contractName": "FeesRouter",
  "sourceName": "contracts/periphery/FeesRouter.sol",
  "abi": [
    {
      "inputs": [],
      "stateMutability": "nonpayable",
      "type": "constructor"
    },
    {
      "inputs": [],
      "name": "AlreadyInitialized",
      "type": "error"
    },
    {
      "inputs": [],
      "name": "InvalidImplementation",
      "type": "error"
    },
    {
      "inputs": [],
      "name": "InvalidImplementation",
      "type": "error"
    },
    {
      "inputs": [
        {
          "internalType": "address",
          "name": "account",
          "type": "address"
        },
        {
          "internalType": "bytes32",
          "name": "role",
          "type": "bytes32"
        }
      ],
      "name": "MissingRole",
      "type": "error"
    },
    {
      "inputs": [],
      "name": "NotInitializing",
      "type": "error"
    },
    {
      "inputs": [],
      "name": "NotNftOwner",
      "type": "error"
    },
    {
      "inputs": [],
      "name": "ReentrancyGuardReentrantCall",
      "type": "error"
    },
    {
      "inputs": [],
      "name": "UUPSNotThroughActiveProxy",
      "type": "error"
    },
    {
      "inputs": [],
      "name": "UUPSNotThroughProxy",
      "type": "error"
    },
    {
      "inputs": [],
      "name": "UnauthorizedUpgrade",
      "type": "error"
    },
    {
      "inputs": [],
      "name": "WrongStrategy",
      "type": "error"
    },
    {
      "inputs": [],
      "name": "ZeroAddress",
      "type": "error"
    },
    {
      "anonymous": false,
      "inputs": [
        {
          "indexed": true,
          "internalType": "uint256",
          "name": "nftId",
          "type": "uint256"
        },
        {
          "indexed": true,
          "internalType": "address",
          "name": "holder",
          "type": "address"
        },
        {
          "indexed": false,
          "internalType": "uint256",
          "name": "amount",
          "type": "uint256"
        }
      ],
      "name": "AirdropClaimed",
      "type": "event"
    },
    {
      "anonymous": false,
      "inputs": [
        {
          "indexed": true,
          "internalType": "uint256",
          "name": "nftId",
          "type": "uint256"
        },
        {
          "indexed": false,
          "internalType": "uint256",
          "name": "amount",
          "type": "uint256"
        }
      ],
      "name": "AirdropExecuted",
      "type": "event"
    },
    {
      "anonymous": false,
      "inputs": [
        {
          "indexed": true,
          "internalType": "uint256",
          "name": "nftId",
          "type": "uint256"
        },
        {
          "indexed": false,
          "internalType": "uint8",
          "name": "oldStrategy",
          "type": "uint8"
        },
        {
          "indexed": false,
          "internalType": "uint8",
          "name": "newStrategy",
          "type": "uint8"
        }
      ],
      "name": "FeeStrategyChanged",
      "type": "event"
    },
    {
      "anonymous": false,
      "inputs": [
        {
          "indexed": true,
          "internalType": "uint256",
          "name": "nftId",
          "type": "uint256"
        },
        {
          "indexed": false,
          "internalType": "uint256",
          "name": "amount",
          "type": "uint256"
        }
      ],
      "name": "FeesBurned",
      "type": "event"
    },
    {
      "anonymous": false,
      "inputs": [
        {
          "indexed": true,
          "internalType": "uint256",
          "name": "nftId",
          "type": "uint256"
        },
        {
          "indexed": true,
          "internalType": "address",
          "name": "owner",
          "type": "address"
        },
        {
          "indexed": false,
          "internalType": "uint256",
          "name": "amount",
          "type": "uint256"
        }
      ],
      "name": "FeesClaimed",
      "type": "event"
    },
    {
      "anonymous": false,
      "inputs": [
        {
          "indexed": false,
          "internalType": "uint64",
          "name": "version",
          "type": "uint64"
        }
      ],
      "name": "Initialized",
      "type": "event"
    },
    {
      "anonymous": false,
      "inputs": [
        {
          "indexed": true,
          "internalType": "uint256",
          "name": "nftId",
          "type": "uint256"
        },
        {
          "indexed": false,
          "internalType": "uint256",
          "name": "amount",
          "type": "uint256"
        }
      ],
      "name": "LpRewardsExecuted",
      "type": "event"
    },
    {
      "anonymous": false,
      "inputs": [
        {
          "indexed": true,
          "internalType": "bytes32",
          "name": "role",
          "type": "bytes32"
        },
        {
          "indexed": true,
          "internalType": "bytes32",
          "name": "previousAdminRole",
          "type": "bytes32"
        },
        {
          "indexed": true,
          "internalType": "bytes32",
          "name": "newAdminRole",
          "type": "bytes32"
        }
      ],
      "name": "RoleAdminChanged",
      "type": "event"
    },
    {
      "anonymous": false,
      "inputs": [
        {
          "indexed": true,
          "internalType": "bytes32",
          "name": "role",
          "type": "bytes32"
        },
        {
          "indexed": true,
          "internalType": "address",
          "name": "account",
          "type": "address"
        },
        {
          "indexed": true,
          "internalType": "address",
          "name": "sender",
          "type": "address"
        }
      ],
      "name": "RoleGranted",
      "type": "event"
    },
    {
      "anonymous": false,
      "inputs": [
        {
          "indexed": true,
          "internalType": "bytes32",
          "name": "role",
          "type": "bytes32"
        },
        {
          "indexed": true,
          "internalType": "address",
          "name": "account",
          "type": "address"
        },
        {
          "indexed": true,
          "internalType": "address",
          "name": "sender",
          "type": "address"
        }
      ],
      "name": "RoleRevoked",
      "type": "event"
    },
    {
      "anonymous": false,
      "inputs": [
        {
          "indexed": true,
          "internalType": "address",
          "name": "implementation",
          "type": "address"
        }
      ],
      "name": "Upgraded",
      "type": "event"
    },
    {
      "inputs": [],
      "name": "DEFAULT_ADMIN_ROLE",
      "outputs": [
        {
          "internalType": "bytes32",
          "name": "",
          "type": "bytes32"
        }
      ],
      "stateMutability": "view",
      "type": "function"
    },
    {
      "inputs": [
        {
          "internalType": "uint256",
          "name": "nftId",
          "type": "uint256"
        }
      ],
      "name": "claimAirdrop",
      "outputs": [
        {
          "internalType": "uint256",
          "name": "amount",
          "type": "uint256"
        }
      ],
      "stateMutability": "nonpayable",
      "type": "function"
    },
    {
      "inputs": [
        {
          "internalType": "uint256",
          "name": "nftId",
          "type": "uint256"
        }
      ],
      "name": "claimFees",
      "outputs": [
        {
          "internalType": "uint256",
          "name": "amount",
          "type": "uint256"
        }
      ],
      "stateMutability": "nonpayable",
      "type": "function"
    },
    {
      "inputs": [
        {
          "internalType": "uint256",
          "name": "nftId",
          "type": "uint256"
        }
      ],
      "name": "executeAirdrop",
      "outputs": [
        {
          "internalType": "uint256",
          "name": "amount",
          "type": "uint256"
        }
      ],
      "stateMutability": "nonpayable",
      "type": "function"
    },
    {
      "inputs": [
        {
          "internalType": "uint256",
          "name": "nftId",
          "type": "uint256"
        }
      ],
      "name": "executeBurn",
      "outputs": [
        {
          "internalType": "uint256",
          "name": "amount",
          "type": "uint256"
        }
      ],
      "stateMutability": "nonpayable",
      "type": "function"
    },
    {
      "inputs": [
        {
          "internalType": "uint256",
          "name": "nftId",
          "type": "uint256"
        }
      ],
      "name": "executeLpRewards",
      "outputs": [
        {
          "internalType": "uint256",
          "name": "amount",
          "type": "uint256"
        }
      ],
      "stateMutability": "nonpayable",
      "type": "function"
    },
    {
      "inputs": [],
      "name": "feeAccumulator",
      "outputs": [
        {
          "internalType": "address",
          "name": "",
          "type": "address"
        }
      ],
      "stateMutability": "view",
      "type": "function"
    },
    {
      "inputs": [
        {
          "internalType": "bytes32",
          "name": "role",
          "type": "bytes32"
        }
      ],
      "name": "getRoleAdmin",
      "outputs": [
        {
          "internalType": "bytes32",
          "name": "",
          "type": "bytes32"
        }
      ],
      "stateMutability": "view",
      "type": "function"
    },
    {
      "inputs": [
        {
          "internalType": "bytes32",
          "name": "role",
          "type": "bytes32"
        },
        {
          "internalType": "address",
          "name": "account",
          "type": "address"
        }
      ],
      "name": "grantRole",
      "outputs": [],
      "stateMutability": "nonpayable",
      "type": "function"
    },
    {
      "inputs": [
        {
          "internalType": "bytes32",
          "name": "role",
          "type": "bytes32"
        },
        {
          "internalType": "address",
          "name": "account",
          "type": "address"
        }
      ],
      "name": "hasRole",
      "outputs": [
        {
          "internalType": "bool",
          "name": "",
          "type": "bool"
        }
      ],
      "stateMutability": "view",
      "type": "function"
    },
    {
      "inputs": [
        {
          "internalType": "address",
          "name": "_nftContract",
          "type": "address"
        },
        {
          "internalType": "address",
          "name": "_feeAccumulator",
          "type": "address"
        },
        {
          "internalType": "address",
          "name": "_poolRegistry",
          "type": "address"
        },
        {
          "internalType": "address",
          "name": "_admin",
          "type": "address"
        }
      ],
      "name": "initialize",
      "outputs": [],
      "stateMutability": "nonpayable",
      "type": "function"
    },
    {
      "inputs": [],
      "name": "nftContract",
      "outputs": [
        {
          "internalType": "address",
          "name": "",
          "type": "address"
        }
      ],
      "stateMutability": "view",
      "type": "function"
    },
    {
      "inputs": [],
      "name": "poolRegistry",
      "outputs": [
        {
          "internalType": "address",
          "name": "",
          "type": "address"
        }
      ],
      "stateMutability": "view",
      "type": "function"
    },
    {
      "inputs": [],
      "name": "proxiableUUID",
      "outputs": [
        {
          "internalType": "bytes32",
          "name": "",
          "type": "bytes32"
        }
      ],
      "stateMutability": "view",
      "type": "function"
    },
    {
      "inputs": [
        {
          "internalType": "bytes32",
          "name": "role",
          "type": "bytes32"
        },
        {
          "internalType": "address",
          "name": "callerConfirmation",
          "type": "address"
        }
      ],
      "name": "renounceRole",
      "outputs": [],
      "stateMutability": "nonpayable",
      "type": "function"
    },
    {
      "inputs": [
        {
          "internalType": "bytes32",
          "name": "role",
          "type": "bytes32"
        },
        {
          "internalType": "address",
          "name": "account",
          "type": "address"
        }
      ],
      "name": "revokeRole",
      "outputs": [],
      "stateMutability": "nonpayable",
      "type": "function"
    },
    {
      "inputs": [
        {
          "internalType": "uint256",
          "name": "nftId",
          "type": "uint256"
        },
        {
          "internalType": "uint8",
          "name": "newStrategy",
          "type": "uint8"
        }
      ],
      "name": "setFeeStrategy",
      "outputs": [],
      "stateMutability": "nonpayable",
      "type": "function"
    },
    {
      "inputs": [
        {
          "internalType": "address",
          "name": "newImplementation",
          "type": "address"
        },
        {
          "internalType": "bytes",
          "name": "data",
          "type": "bytes"
        }
      ],
      "name": "upgradeToAndCall",
      "outputs": [],
      "stateMutability": "payable",
      "type": "function"
    }
  ],
  "bytecode": "0x60a080604052346100e9573060805260017f9b779b17422d0df92223018b32b4d1fa46e071723d6817e2486d003becc55f00556000805160206116828339815191525460ff8160401c166100d9576002600160401b03196001600160401b03821601610085575b60405161159390816100ef8239608051818181610c3c0152610d1a0152f35b6001600160401b0319166001600160401b039081176000805160206116828339815191525581527fc7f505b2f371ae2175ee4913f4499e1f2633a7b5936321eed1cdaeb6115181d290602090a13880610066565b62dc149f60e41b60005260046000fd5b600080fdfe6080604052600436101561001257600080fd5b6000803560e01c806315dec3cf14610fa7578063248a9ca314610f715780632f2ff15d14610f3057806336568abe14610ee25780634f1ef28614610ca357806352d1902d14610c295780635eaea35f14610c0057806390d862a114610a0057806391d14854146109b85780639d4be5b2146108165780639fcf8f62146106f1578063a217fddf146106d5578063ac68a74814610504578063afcff50f146104db578063d547741f1461048f578063d56d229d14610466578063e30d4440146102f45763f8c8765e146100e357600080fd5b346102f15760803660031901126102f1576100fc61115f565b90610105611149565b916044356001600160a01b038116908190036102ef576064356001600160a01b038116929091908383036102eb5760008051602061151e833981519152549360ff8560401c16159467ffffffffffffffff81166001811015806102e4575b6102d6571515806102ce575b6102c05785610293575b50600167ffffffffffffffff1960008051602061151e83398151915254161760008051602061151e8339815191525515610284576001600160a01b0316948515610284576001600160a01b03168015610284576102109394956001600160601b0360a01b60015416176001556001600160601b0360a01b60025416176002556001600160601b0360a01b6003541617600355611356565b50600160008051602061153e8339815191525561022a5780f35b68ff00000000000000001960008051602061151e833981519152541660008051602061151e833981519152557fc7f505b2f371ae2175ee4913f4499e1f2633a7b5936321eed1cdaeb6115181d2602060405160018152a180f35b63d92e233d60e01b8552600485fd5b68ff00000000000000001916680100000000000000001760008051602061151e8339815191525538610179565b62dc149f60e41b8752600487fd5b50851561016f565b62dc149f60e41b8852600488fd5b5086610163565b8480fd5b825b80fd5b50346102f15760203660031901126102f15780600435610312611201565b60015460405162a5ae2160e01b81526004810183905290602090829060249082906001600160a01b03165afa90811561045b5760209161038d91859161042e575b506002546040516366e1b75560e01b81526001600160a01b0392831660048201523360248201529687939190921691839182906044820190565b03925af191821561042257916103e8575b60209250604051908282527f752d3a5de250652e9111e24fea2886c837dadfe50c8479ad3b5511f4c36f20a2843393a3600160008051602061153e83398151915255604051908152f35b90506020823d60201161041a575b8161040360209383611175565b8101031261041557602091519061039e565b600080fd5b3d91506103f6565b604051903d90823e3d90fd5b61044e9150833d8511610454575b6104468183611175565b8101906111c9565b38610353565b503d61043c565b6040513d85823e3d90fd5b50346102f157806003193601126102f1576001546040516001600160a01b039091168152602090f35b50346102f15760403660031901126102f1576104d76004356104af611149565b906104d26104cb82600052600060205260016040600020015490565b3390611308565b611495565b5080f35b50346102f157806003193601126102f1576003546040516001600160a01b039091168152602090f35b50346102f15760203660031901126102f157600435610521611201565b61052a8161126d565b600154604051636f51abcd60e11b81526004810183905290602090829060249082906001600160a01b03165afa801561045b5760ff9184916106a6575b50166106975760015460405162a5ae2160e01b815260048101839052839291602090829060249082906001600160a01b03165afa90811561045b576020916105ea91859161067a575b506002546040516310e059a160e11b81526001600160a01b0392831660048201523360248201529687939190921691839182906044820190565b03925af19182156104225791610645575b60209250604051908282527f2227733fc4c8a9034cb58087dcf6995128b9c0233b038b03366aaf30c92b92d6843393a3600160008051602061153e83398151915255604051908152f35b90506020823d602011610672575b8161066060209383611175565b810103126104155760209151906105fb565b3d9150610653565b6106919150833d8511610454576104468183611175565b386105b0565b6338604a5760e21b8252600482fd5b6106c8915060203d6020116106ce575b6106c08183611175565b8101906111e8565b38610567565b503d6106b6565b50346102f157806003193601126102f157602090604051908152f35b50346102f15760403660031901126102f15760043560243560ff81168091036102ef5761071d8261126d565b60015483906001600160a01b0316803b15610812578190604460405180948193634fe7c7b160e11b83528860048401528760248401525af180156107f3576107fe575b50600154604051636f51abcd60e11b81526004810184905290602090829060249082906001600160a01b03165afa80156107f3577f773a9b32cf9f6ecdff8ee5e6f78159f15beb042f9da471ba934182412ea695689260409286926107d2575b5060ff8351921682526020820152a280f35b6107ec91925060203d6020116106ce576106c08183611175565b90386107c0565b6040513d86823e3d90fd5b8361080b91949294611175565b9138610760565b5080fd5b50346102f15760203660031901126102f157600435610833611201565b61083c8161126d565b600154604051636f51abcd60e11b81526004810183905290602090829060249082906001600160a01b03165afa90811561045b5760029160ff918591610999575b5016036106975760015460405162a5ae2160e01b815260048101839052839291602090829060249082906001600160a01b03165afa801561045b57602091849161097c575b5060025460405163769ba6a560e11b81526001600160a01b039283166004820152948592602492849291165af191821561045b578392610944575b602083837f0fa3c377438bb545a4c9ecaa3e574d96bb1b2c6416976df85919d2b83a57bd9f83604051848152a2600160008051602061153e83398151915255604051908152f35b9091506020813d602011610974575b8161096060209383611175565b810103126102ef57602092505190386108fd565b3d9150610953565b6109939150823d8411610454576104468183611175565b386108c2565b6109b2915060203d6020116106ce576106c08183611175565b3861087d565b50346102f15760403660031901126102f15760ff60406020926109d9611149565b60043582528185528282206001600160a01b03909116825284522054604051911615158152f35b50346102f15760203660031901126102f157600435610a1d611201565b610a268161126d565b600154604051636f51abcd60e11b81526004810183905290602090829060249082906001600160a01b03165afa90811561045b5760039160ff918591610be1575b5016036106975760015460405162a5ae2160e01b815260048101839052839291602090829060249082906001600160a01b03165afa801561045b5783918291610bc2575b5060025460405163a48d7d0760e01b81526001600160a01b03928316600482018190529095909260209287926024928492165af1938415610bb7578294610b82575b506040906004825180948193632924f89f60e11b83525af180156107f357610b57575b602083837ff831aaeb2aae759a8843e359900e1b8a3fe4cdefa90fc390825acb66a437440883604051848152a2600160008051602061153e83398151915255604051908152f35b604090813d8311610b7b575b610b6d8183611175565b810103126102ef5782610b10565b503d610b63565b9093506020813d602011610baf575b81610b9e60209383611175565b810103126108125751926040610aed565b3d9150610b91565b6040513d84823e3d90fd5b610bdb915060203d602011610454576104468183611175565b38610aab565b610bfa915060203d6020116106ce576106c08183611175565b38610a67565b50346102f157806003193601126102f1576002546040516001600160a01b039091168152602090f35b50346102f157806003193601126102f1577f00000000000000000000000000000000000000000000000000000000000000006001600160a01b03163003610c945760206040517f360894a13ba1a3210667c828492db98dca3e2076cc3735a920a3ca505d382bbc8152f35b6345a93fc960e01b8152600490fd5b5060403660031901126102f157610cb861115f565b906024359167ffffffffffffffff8311610812573660238401121561081257826004013592610ce6846111ad565b93610cf46040519586611175565b808552602085019136602483830101116102eb57818592602460209301853786010152307f00000000000000000000000000000000000000000000000000000000000000006001600160a01b031614610ed3578280526020838152604080852033865290915283205460ff1615610ebc576040516352d1902d60e01b81526001600160a01b0383169490602081600481895afa859181610e84575b50610da35763340aafcd60e11b8552600485fd5b7f360894a13ba1a3210667c828492db98dca3e2076cc3735a920a3ca505d382bbc03610e7557823b15610e75578394837f360894a13ba1a3210667c828492db98dca3e2076cc3735a920a3ca505d382bbc557fbc7cd75a20ee27fd9adebab32041f755214dbc6bffa90cc0225b39da2e5c2d3b8580a2519081610e2557505050f35b83925af4610e3161123d565b5015610e3a5780f35b60405162461bcd60e51b81526020600482015260136024820152721d5c19dc985919481a5b9a5d0819985a5b1959606a1b6044820152606490fd5b63340aafcd60e11b8452600484fd5b9091506020813d602011610eb4575b81610ea060209383611175565b81010312610eb057519038610d8f565b8580fd5b3d9150610e93565b62b0d32560e11b8352336004526024839052604483fd5b6309e1070b60e31b8352600483fd5b50346102f15760403660031901126102f157600435610eff611149565b336001600160a01b0390911603610f1b576104d7903390611495565b62b0d32560e11b825233600452602452604490fd5b50346102f15760403660031901126102f1576104d7600435610f50611149565b90610f6c6104cb82600052600060205260016040600020015490565b611409565b50346102f15760203660031901126102f1576020610f9f600435600052600060205260016040600020015490565b604051908152f35b50346102f15760203660031901126102f157600435610fc4611201565b610fcd8161126d565b600154604051636f51abcd60e11b81526004810183905290602090829060249082906001600160a01b03165afa90811561045b5760019160ff91859161112a575b5016036106975760015460405162a5ae2160e01b815260048101839052839291602090829060249082906001600160a01b03165afa801561045b57602091849161110d575b5060025460405163226bf2d160e21b81526001600160a01b039283166004820152948592602492849291165af191821561045b5783926110d5575b602083837f9768e1fe058fe58a8022c0c5a88689f80a64c3a69cc5ba498c518407fc04ced583604051848152a2600160008051602061153e83398151915255604051908152f35b9091506020813d602011611105575b816110f160209383611175565b810103126102ef576020925051903861108e565b3d91506110e4565b6111249150823d8411610454576104468183611175565b38611053565b611143915060203d6020116106ce576106c08183611175565b3861100e565b602435906001600160a01b038216820361041557565b600435906001600160a01b038216820361041557565b90601f8019910116810190811067ffffffffffffffff82111761119757604052565b634e487b7160e01b600052604160045260246000fd5b67ffffffffffffffff811161119757601f01601f191660200190565b9081602091031261041557516001600160a01b03811681036104155790565b90816020910312610415575160ff811681036104155790565b600260008051602061153e833981519152541461122c57600260008051602061153e83398151915255565b633ee5aeb560e01b60005260046000fd5b3d15611268573d9061124e826111ad565b9161125c6040519384611175565b82523d6000602084013e565b606090565b6001546040516331a9108f60e11b6020820190815260248083019490945292815260009283926001600160a01b0316916112a8604482611175565b51915afa6112b461123d565b901580156112fd575b6112ec5760208180518101031261041557602001516001600160a01b038116908190036104155733036112ec57565b634b64ae4760e01b60005260046000fd5b5060208151106112bd565b90816000526000602052604060002060018060a01b03821660005260205260ff6040600020541615611338575050565b62b0d32560e11b60005260018060a01b031660045260245260446000fd5b6001600160a01b03811660009081527fad3228b676f7d3cd4284a5443f17f1962b36e491b30a40b2405849e597ba5fb5602052604090205460ff161561139c5750600090565b6001600160a01b031660008181527fad3228b676f7d3cd4284a5443f17f1962b36e491b30a40b2405849e597ba5fb560205260408120805460ff191660011790553391907f2f8788117e7eff1d82e926ec794901d17c78024a50270940304540a733656f0d8180a4600190565b6000818152602081815260408083206001600160a01b038616845290915290205460ff1615611439575050600090565b6000818152602081815260408083206001600160a01b0395909516808452949091528120805460ff19166001179055339291907f2f8788117e7eff1d82e926ec794901d17c78024a50270940304540a733656f0d9080a4600190565b6000818152602081815260408083206001600160a01b038616845290915290205460ff166114c4575050600090565b6000818152602081815260408083206001600160a01b0395909516808452949091528120805460ff19169055339291907ff6391f5c32d9c69d2a47ea670b442974b53935d1edc7fd64eb21e047a839171b9080a460019056fe4377386e2795aba8c0ce23a1e6e67bac790e4b4166f14b7e9365049ab946f8c09b779b17422d0df92223018b32b4d1fa46e071723d6817e2486d003becc55f00a264697066735822122030838b3f523fe8eaab38796960aea8333ce635fdea6158a3749912f06f2733ba64736f6c634300081b00334377386e2795aba8c0ce23a1e6e67bac790e4b4166f14b7e9365049ab946f8c0",
  "linkReferences": {},
  "deployedLinkReferences": {}
}