{
  "_format": "hh-sol-artifact-1",
  "contractName": "MockERC721Enumerable",
  "sourceName": "contracts/test/MockERC721Enumerable.sol",
  "abi": [
    {
      "inputs": [],
      "stateMutability": "nonpayable",
      "type": "constructor"
    },
    {
      "inputs": [],
      "name": "AlreadyMinted",
      "type": "error"
    },
    {
      "inputs": [],
      "name": "IndexOutOfBounds",
      "type": "error"
    },
    {
      "inputs": [],
      "name": "NonERC721Receiver",
      "type": "error"
    },
    {
      "inputs": [],
      "name": "NotApproved",
      "type": "error"
    },
    {
      "inputs": [],
      "name": "NotTokenOwner",
      "type": "error"
    },
    {
      "inputs": [],
      "name": "TokenNotFound",
      "type": "error"
    },
    {
      "inputs": [],
      "name": "ZeroAddress",
      "type": "error"
    },
    {
      "anonymous": false,
      "inputs": [
        {
          "indexed": true,
          "internalType": "address",
          "name": "owner",
          "type": "address"
        },
        {
          "indexed": true,
          "internalType": "address",
          "name": "approved",
          "type": "address"
        },
        {
          "indexed": true,
          "internalType": "uint256",
          "name": "tokenId",
          "type": "uint256"
        }
      ],
      "name": "Approval",
      "type": "event"
    },
    {
      "anonymous": false,
      "inputs": [
        {
          "indexed": true,
          "internalType": "address",
          "name": "owner",
          "type": "address"
        },
        {
          "indexed": true,
          "internalType": "address",
          "name": "operator",
          "type": "address"
        },
        {
          "indexed": false,
          "internalType": "bool",
          "name": "approved",
          "type": "bool"
        }
      ],
      "name": "ApprovalForAll",
      "type": "event"
    },
    {
      "anonymous": false,
      "inputs": [
        {
          "indexed": true,
          "internalType": "address",
          "name": "from",
          "type": "address"
        },
        {
          "indexed": true,
          "internalType": "address",
          "name": "to",
          "type": "address"
        },
        {
          "indexed": true,
          "internalType": "uint256",
          "name": "tokenId",
          "type": "uint256"
        }
      ],
      "name": "Transfer",
      "type": "event"
    },
    {
      "inputs": [
        {
          "internalType": "address",
          "name": "to",
          "type": "address"
        },
        {
          "internalType": "uint256",
          "name": "tokenId",
          "type": "uint256"
        }
      ],
      "name": "approve",
      "outputs": [],
      "stateMutability": "nonpayable",
      "type": "function"
    },
    {
      "inputs": [
        {
          "internalType": "address",
          "name": "owner_",
          "type": "address"
        }
      ],
      "name": "balanceOf",
      "outputs": [
        {
          "internalType": "uint256",
          "name": "",
          "type": "uint256"
        }
      ],
      "stateMutability": "view",
      "type": "function"
    },
    {
      "inputs": [
        {
          "internalType": "uint256",
          "name": "tokenId",
          "type": "uint256"
        }
      ],
      "name": "burn",
      "outputs": [],
      "stateMutability": "nonpayable",
      "type": "function"
    },
    {
      "inputs": [
        {
          "internalType": "uint256",
          "name": "tokenId",
          "type": "uint256"
        }
      ],
      "name": "getApproved",
      "outputs": [
        {
          "internalType": "address",
          "name": "",
          "type": "address"
        }
      ],
      "stateMutability": "view",
      "type": "function"
    },
    {
      "inputs": [
        {
          "internalType": "address",
          "name": "owner_",
          "type": "address"
        },
        {
          "internalType": "address",
          "name": "operator",
          "type": "address"
        }
      ],
      "name": "isApprovedForAll",
      "outputs": [
        {
          "internalType": "bool",
          "name": "",
          "type": "bool"
        }
      ],
      "stateMutability": "view",
      "type": "function"
    },
    {
      "inputs": [
        {
          "internalType": "address",
          "name": "to",
          "type": "address"
        },
        {
          "internalType": "uint256",
          "name": "tokenId",
          "type": "uint256"
        }
      ],
      "name": "mint",
      "outputs": [],
      "stateMutability": "nonpayable",
      "type": "function"
    },
    {
      "inputs": [],
      "name": "name",
      "outputs": [
        {
          "internalType": "string",
          "name": "",
          "type": "string"
        }
      ],
      "stateMutability": "view",
      "type": "function"
    },
    {
      "inputs": [
        {
          "internalType": "uint256",
          "name": "tokenId",
          "type": "uint256"
        }
      ],
      "name": "ownerOf",
      "outputs": [
        {
          "internalType": "address",
          "name": "owner_",
          "type": "address"
        }
      ],
      "stateMutability": "view",
      "type": "function"
    },
    {
      "inputs": [
        {
          "internalType": "address",
          "name": "from",
          "type": "address"
        },
        {
          "internalType": "address",
          "name": "to",
          "type": "address"
        },
        {
          "internalType": "uint256",
          "name": "tokenId",
          "type": "uint256"
        }
      ],
      "name": "safeTransferFrom",
      "outputs": [],
      "stateMutability": "nonpayable",
      "type": "function"
    },
    {
      "inputs": [
        {
          "internalType": "address",
          "name": "from",
          "type": "address"
        },
        {
          "internalType": "address",
          "name": "to",
          "type": "address"
        },
        {
          "internalType": "uint256",
          "name": "tokenId",
          "type": "uint256"
        },
        {
          "internalType": "bytes",
          "name": "data",
          "type": "bytes"
        }
      ],
      "name": "safeTransferFrom",
      "outputs": [],
      "stateMutability": "nonpayable",
      "type": "function"
    },
    {
      "inputs": [
        {
          "internalType": "address",
          "name": "operator",
          "type": "address"
        },
        {
          "internalType": "bool",
          "name": "approved",
          "type": "bool"
        }
      ],
      "name": "setApprovalForAll",
      "outputs": [],
      "stateMutability": "nonpayable",
      "type": "function"
    },
    {
      "inputs": [
        {
          "internalType": "bytes4",
          "name": "interfaceId",
          "type": "bytes4"
        }
      ],
      "name": "supportsInterface",
      "outputs": [
        {
          "internalType": "bool",
          "name": "",
          "type": "bool"
        }
      ],
      "stateMutability": "view",
      "type": "function"
    },
    {
      "inputs": [],
      "name": "symbol",
      "outputs": [
        {
          "internalType": "string",
          "name": "",
          "type": "string"
        }
      ],
      "stateMutability": "view",
      "type": "function"
    },
    {
      "inputs": [
        {
          "internalType": "uint256",
          "name": "index",
          "type": "uint256"
        }
      ],
      "name": "tokenByIndex",
      "outputs": [
        {
          "internalType": "uint256",
          "name": "",
          "type": "uint256"
        }
      ],
      "stateMutability": "view",
      "type": "function"
    },
    {
      "inputs": [
        {
          "internalType": "address",
          "name": "owner_",
          "type": "address"
        },
        {
          "internalType": "uint256",
          "name": "index",
          "type": "uint256"
        }
      ],
      "name": "tokenOfOwnerByIndex",
      "outputs": [
        {
          "internalType": "uint256",
          "name": "",
          "type": "uint256"
        }
      ],
      "stateMutability": "view",
      "type": "function"
    },
    {
      "inputs": [],
      "name": "totalSupply",
      "outputs": [
        {
          "internalType": "uint256",
          "name": "",
          "type": "uint256"
        }
      ],
      "stateMutability": "view",
      "type": "function"
    },
    {
      "inputs": [
        {
          "internalType": "address",
          "name": "from",
          "type": "address"
        },
        {
          "internalType": "address",
          "name": "to",
          "type": "address"
        },
        {
          "internalType": "uint256",
          "name": "tokenId",
          "type": "uint256"
        }
      ],
      "name": "transferFrom",
      "outputs": [],
      "stateMutability": "nonpayable",
      "type": "function"
    }
  ],
  "bytecode": "0x60806040523461032357604080519081016001600160401b038111828210176102305760409081526007825266115b9d5b53919560ca1b602083015280519081016001600160401b038111828210176102305760405260048152631153919560e21b602082015281516001600160401b03811161023057600054600181811c91168015610319575b602082101461021057601f81116102b5575b50602092601f82116001146102515792819293600092610246575b50508160011b916000199060031b1c1916176000555b80516001600160401b03811161023057600154600181811c91168015610226575b602082101461021057601f81116101ab575b50602091601f82116001146101475791819260009261013c575b50508160011b916000199060031b1c1916176001555b604051610eb690816103298239f35b015190503880610117565b601f198216926001600052806000209160005b8581106101935750836001951061017a575b505050811b0160015561012d565b015160001960f88460031b161c1916905538808061016c565b9192602060018192868501518155019401920161015a565b60016000527fb10e2d527612073b26eecdfd717e6a320cf44b4afac2b0732d9fcbe2b7fa0cf6601f830160051c81019160208410610206575b601f0160051c01905b8181106101fa57506100fd565b600081556001016101ed565b90915081906101e4565b634e487b7160e01b600052602260045260246000fd5b90607f16906100eb565b634e487b7160e01b600052604160045260246000fd5b0151905038806100b4565b601f1982169360008052806000209160005b86811061029d5750836001959610610284575b505050811b016000556100ca565b015160001960f88460031b161c19169055388080610276565b91926020600181928685015181550194019201610263565b600080527f290decd9548b62a8d60345a988386fc84ba6bc95484008f6362f93160ef3e563601f830160051c8101916020841061030f575b601f0160051c01905b8181106103035750610099565b600081556001016102f6565b90915081906102ed565b90607f1690610087565b600080fdfe608080604052600436101561001357600080fd5b60003560e01c90816301ffc9a7146109465750806306fdde03146108a8578063081812fc14610846578063095ea7b31461077f57806318160ddd1461076157806323b872dd1461074a5780632f745c59146106f557806340c10f19146105fe57806342842e0e146105d457806342966c68146104555780634f6ccce71461040c5780636352211e146103dc57806370a082311461038b57806395d89b4114610278578063a22cb465146101eb578063b88d4fde1461013a5763e985e9c5146100da57600080fd5b34610135576040366003190112610135576100f3610a16565b6100fb610a2c565b9060018060a01b0316600052600560205260406000209060018060a01b0316600052602052602060ff604060002054166040519015158152f35b600080fd5b3461013557608036600319011261013557610153610a16565b61015b610a2c565b6064359167ffffffffffffffff831161013557366023840112156101355782600401359167ffffffffffffffff83116101d557604051926101a6601f8201601f1916602001856109b3565b80845236602482870101116101355760208160009260246101d39801838801378501015260443591610c44565b005b634e487b7160e01b600052604160045260246000fd5b3461013557604036600319011261013557610204610a16565b6024359081151580920361013557336000526005602052604060002060018060a01b038216600052602052604060002060ff1981541660ff841617905560405191825260018060a01b0316907f17307eab39ab6107e8899845ad3d59bd9653f200f220920489ca2b5937696c3160203392a3005b346101355760003660031901126101355760006040519080600154908160011c91600181168015610381575b60208410811461036d5783865290811561034657506001146102e9575b6102e5846102d1818603826109b3565b6040519182916020835260208301906109d5565b0390f35b600181527fb10e2d527612073b26eecdfd717e6a320cf44b4afac2b0732d9fcbe2b7fa0cf6939250905b80821061032c575090915081016020016102d1826102c1565b919260018160209254838588010152019101909291610313565b60ff191660208087019190915292151560051b850190920192506102d191508390506102c1565b634e487b7160e01b83526022600452602483fd5b92607f16926102a4565b34610135576020366003190112610135576001600160a01b036103ac610a16565b1680156103cb5760005260036020526020604060002054604051908152f35b63d92e233d60e01b60005260046000fd5b346101355760203660031901126101355760206103fa600435610c23565b6040516001600160a01b039091168152f35b346101355760203660031901126101355760043560065481101561044457610435602091610bda565b90549060031b1c604051908152f35b634e23d03560e01b60005260046000fd5b346101355760203660031901126101355760043561047b8161047681610c23565b610d4e565b60065460001981019081116105be578160005260076020526104a260406000205491610bda565b90549060031b1c6104cf816104b684610bda565b90919082549060031b91821b91600019901b1916179055565b600052600760205260406000205560065480156105a857600019016105096104f8826006610c0b565b8154906000199060031b1b19169055565b60065580600052600760205260006040812055600061052782610c23565b8282526004602052604082206bffffffffffffffffffffffff60a01b815416905560018060a01b03168082526003602052604082206105668154610e64565b905582825260026020526040822080546001600160a01b03191690557fddf252ad1be2c89b69c2b068fc378daa952ba7f163c4a11628f55a4df523b3ef8280a4005b634e487b7160e01b600052603160045260246000fd5b634e487b7160e01b600052601160045260246000fd5b34610135576101d36105e536610a42565b90604051926105f56020856109b3565b60008452610c44565b3461013557604036600319011261013557610617610a16565b6024356001600160a01b03821680156103cb576000828152600260205260409020546001600160a01b03166106e457808291600052600360205260406000206106608154610e71565b9055600082815260026020526040812080546001600160a01b031916831790557fddf252ad1be2c89b69c2b068fc378daa952ba7f163c4a11628f55a4df523b3ef8180a460065481600052600760205260406000205560065491600160401b8310156101d5576106df826104b68560016101d397016006556006610c0b565b610e13565b631bbdf5c560e31b60005260046000fd5b346101355760403660031901126101355761070e610a16565b6001600160a01b031660008181526008602052604090205460243591908210156104445760209161043591600052600883526040600020610c0b565b34610135576101d361075b36610a42565b91610a7c565b34610135576000366003190112610135576020600654604051908152f35b3461013557604036600319011261013557610798610a16565b602435906001600160a01b036107ad83610c23565b16908133141580610822575b61081157600083815260046020526040812080546001600160a01b0319166001600160a01b039390931692831790559091907f8c5be1e5ebec7d5bd14f71427d1e84f3dd0314c0f7b2291e5b200ac8c7c3b9259080a4005b63c19f17a960e01b60005260046000fd5b50600082815260056020908152604080832033845290915290205460ff16156107b9565b34610135576020366003190112610135576004356000818152600260205260409020546001600160a01b031615610897576000526004602052602060018060a01b0360406000205416604051908152f35b630cbdb7b360e41b60005260046000fd5b346101355760003660031901126101355760405160008054600181811c9183918116801561093c575b60208410811461036d5783865290811561034657506001146108fd576102e5846102d1818603826109b3565b80805260208120939250905b808210610922575090915081016020016102d1826102c1565b919260018160209254838588010152019101909291610909565b92607f16926108d1565b34610135576020366003190112610135576004359063ffffffff60e01b82168092036101355760209163780e9d6360e01b8114908115610988575b5015158152f35b6380ac58cd60e01b8114915081156109a2575b5083610981565b6301ffc9a760e01b1490508361099b565b90601f8019910116810190811067ffffffffffffffff8211176101d557604052565b919082519283825260005b848110610a01575050826000602080949584010152601f8019910116010190565b806020809284010151828286010152016109e0565b600435906001600160a01b038216820361013557565b602435906001600160a01b038216820361013557565b6060906003190112610135576004356001600160a01b038116810361013557906024356001600160a01b0381168103610135579060443590565b906001600160a01b03610a8e84610c23565b16803314908115610bb9575b8115610b94575b501561081157610ab18383610d4e565b610abb8382610e13565b610ac483610c23565b6001600160a01b039283169216829003610b83576001600160a01b03169081156103cb5782600052600460205260406000206bffffffffffffffffffffffff60a01b81541690558060005260036020526040600020610b238154610e64565b90558160005260036020526040600020610b3d8154610e71565b9055600083815260026020526040812080546001600160a01b031916841790557fddf252ad1be2c89b69c2b068fc378daa952ba7f163c4a11628f55a4df523b3ef9080a4565b6359dc379f60e01b60005260046000fd5b600090815260056020908152604080832033845290915290205460ff16905038610aa1565b6000858152600460205260409020546001600160a01b031633149150610a9a565b600654811015610bf557600660005260206000200190600090565b634e487b7160e01b600052603260045260246000fd5b8054821015610bf55760005260206000200190600090565b6000908152600260205260409020546001600160a01b031690811561089757565b919290610c52848285610a7c565b803b610c5f575b50505050565b610ca593600060209460405196879586948593630a85bd0160e11b855233600486015260018060a01b0316602485015260448401526080606484015260848301906109d5565b03926001600160a01b03165af18091600091610d04575b5090610cd3576320149b4360e21b60005260046000fd5b6001600160e01b03191663757a42ff60e11b01610cf35738808080610c59565b6320149b4360e21b60005260046000fd5b6020813d602011610d46575b81610d1d602093836109b3565b81010312610d425751906001600160e01b031982168203610d3f575038610cbc565b80fd5b5080fd5b3d9150610d10565b6001600160a01b031660008181526008602052604090205460001981019081116105be5782600052600960205260406000205490808203610dc5575b505060005260086020526040600020805480156105a8576000190190610db36104f88383610c0b565b55600052600960205260006040812055565b610ddc908360005260086020526040600020610c0b565b90549060031b1c826000526008602052610dfe816104b6846040600020610c0b565b60005260096020526040600020553880610d8a565b6001600160a01b0316600081815260086020818152604080842080548786526009845291852082905594909352529190600160401b8310156101d557826104b6916001610e6295018155610c0b565b565b80156105be576000190190565b60001981146105be576001019056fea2646970667358221220de2e6f39eca1ed6c9d27312588b6243e269f54044f9f06f6b42a69626f7d3c4364736f6c634300081b0033",
  "linkReferences": {},
  "deployedLinkReferences": {}
}