{
  "_format": "hh-sol-artifact-1",
  "contractName": "PriceOracleAdapter",
  "sourceName": "contracts/meta-ag/oracle/adapters/PriceOracleAdapter.sol",
  "abi": [
    {
      "inputs": [
        {
          "internalType": "address",
          "name": "priceOracle_",
          "type": "address"
        }
      ],
      "stateMutability": "nonpayable",
      "type": "constructor"
    },
    {
      "inputs": [],
      "name": "ZeroAddress",
      "type": "error"
    },
    {
      "anonymous": false,
      "inputs": [
        {
          "indexed": true,
          "internalType": "bytes32",
          "name": "sourceId",
          "type": "bytes32"
        },
        {
          "indexed": true,
          "internalType": "address",
          "name": "token",
          "type": "address"
        },
        {
          "indexed": false,
          "internalType": "uint256",
          "name": "price",
          "type": "uint256"
        },
        {
          "indexed": false,
          "internalType": "uint256",
          "name": "confidence",
          "type": "uint256"
        }
      ],
      "name": "AdapterPriceServed",
      "type": "event"
    },
    {
      "anonymous": false,
      "inputs": [
        {
          "indexed": true,
          "internalType": "bytes32",
          "name": "sourceId",
          "type": "bytes32"
        },
        {
          "indexed": true,
          "internalType": "address",
          "name": "adapter",
          "type": "address"
        }
      ],
      "name": "AdapterRegistered",
      "type": "event"
    },
    {
      "inputs": [],
      "name": "CONFIDENCE_AGING",
      "outputs": [
        {
          "internalType": "uint256",
          "name": "",
          "type": "uint256"
        }
      ],
      "stateMutability": "view",
      "type": "function"
    },
    {
      "inputs": [],
      "name": "CONFIDENCE_FRESH",
      "outputs": [
        {
          "internalType": "uint256",
          "name": "",
          "type": "uint256"
        }
      ],
      "stateMutability": "view",
      "type": "function"
    },
    {
      "inputs": [],
      "name": "CONFIDENCE_NEAR_STALE",
      "outputs": [
        {
          "internalType": "uint256",
          "name": "",
          "type": "uint256"
        }
      ],
      "stateMutability": "view",
      "type": "function"
    },
    {
      "inputs": [],
      "name": "adapterName",
      "outputs": [
        {
          "internalType": "string",
          "name": "",
          "type": "string"
        }
      ],
      "stateMutability": "pure",
      "type": "function"
    },
    {
      "inputs": [
        {
          "internalType": "address",
          "name": "token",
          "type": "address"
        }
      ],
      "name": "getFeedPrice",
      "outputs": [
        {
          "components": [
            {
              "internalType": "uint256",
              "name": "price",
              "type": "uint256"
            },
            {
              "internalType": "uint256",
              "name": "timestamp",
              "type": "uint256"
            },
            {
              "internalType": "uint256",
              "name": "confidence",
              "type": "uint256"
            },
            {
              "internalType": "bytes32",
              "name": "sourceId",
              "type": "bytes32"
            }
          ],
          "internalType": "struct IDataFeedAdapter.FeedPrice",
          "name": "feed",
          "type": "tuple"
        }
      ],
      "stateMutability": "view",
      "type": "function"
    },
    {
      "inputs": [
        {
          "internalType": "address[]",
          "name": "tokens",
          "type": "address[]"
        }
      ],
      "name": "getFeedPrices",
      "outputs": [
        {
          "components": [
            {
              "internalType": "uint256",
              "name": "price",
              "type": "uint256"
            },
            {
              "internalType": "uint256",
              "name": "timestamp",
              "type": "uint256"
            },
            {
              "internalType": "uint256",
              "name": "confidence",
              "type": "uint256"
            },
            {
              "internalType": "bytes32",
              "name": "sourceId",
              "type": "bytes32"
            }
          ],
          "internalType": "struct IDataFeedAdapter.FeedPrice[]",
          "name": "feeds",
          "type": "tuple[]"
        }
      ],
      "stateMutability": "view",
      "type": "function"
    },
    {
      "inputs": [],
      "name": "getSupportedTokens",
      "outputs": [
        {
          "internalType": "address[]",
          "name": "tokens",
          "type": "address[]"
        }
      ],
      "stateMutability": "view",
      "type": "function"
    },
    {
      "inputs": [],
      "name": "maxStaleness",
      "outputs": [
        {
          "internalType": "uint256",
          "name": "",
          "type": "uint256"
        }
      ],
      "stateMutability": "pure",
      "type": "function"
    },
    {
      "inputs": [],
      "name": "priceOracle",
      "outputs": [
        {
          "internalType": "contract IPriceOracle",
          "name": "",
          "type": "address"
        }
      ],
      "stateMutability": "view",
      "type": "function"
    },
    {
      "inputs": [],
      "name": "sourceId",
      "outputs": [
        {
          "internalType": "bytes32",
          "name": "",
          "type": "bytes32"
        }
      ],
      "stateMutability": "pure",
      "type": "function"
    },
    {
      "inputs": [
        {
          "internalType": "address",
          "name": "token",
          "type": "address"
        }
      ],
      "name": "supportsToken",
      "outputs": [
        {
          "internalType": "bool",
          "name": "",
          "type": "bool"
        }
      ],
      "stateMutability": "view",
      "type": "function"
    }
  ],
  "bytecode": "0x60a03461009857601f610a2338819003918201601f19168301916001600160401b0383118484101761009d5780849260209460405283398101031261009857516001600160a01b038116908190036100985780156100875760805260405161096f90816100b48239608051818181610127015281816105150152818161058701526107a70152f35b63d92e233d60e01b60005260046000fd5b600080fd5b634e487b7160e01b600052604160045260246000fdfe608080604052600436101561001357600080fd5b60003560e01c90816231c8ad146105fd57508063061f7650146105445780632630c12f146104ff5780637c485eb7146104e257806387cf4696146104c557806397275b23146104a8578063a3a776d31461034d578063ba28657814610299578063d069aab91461025e578063d3c7c2c7146101015763e1238d9d1461009757600080fd5b346100fc5760203660031901126100fc576004356001600160a01b03811681036100fc576100cf6080916100c96106f2565b50610755565b6100fa6040518092606080918051845260208101516020850152604081015160408501520151910152565bf35b600080fd5b346100fc5760003660031901126100fc576040516314cbd99360e01b81526000816004817f00000000000000000000000000000000000000000000000000000000000000006001600160a01b03165afa908115610252576000916101af575b5060405180916020820160208352815180915260206040840192019060005b81811061018d575050500390f35b82516001600160a01b031684528594506020938401939092019160010161017f565b3d8083833e6101be8183610634565b81019060208183031261024a5780519067ffffffffffffffff821161024e570181601f8201121561024a578051906101f5826106da565b936102036040519586610634565b82855260208086019360051b8301019384116102475750602001905b82821061022f5750505081610160565b6020809161023c84610741565b81520191019061021f565b80fd5b8280fd5b8380fd5b6040513d6000823e3d90fd5b346100fc5760003660031901126100fc5760206040517ff73624578bca94dd01a1a6db9b78d13558ecb87bcb9cf5f1ea438d55100edc2d8152f35b346100fc5760003660031901126100fc576040516040810181811067ffffffffffffffff82111761033757604052601481527350617865657250726963654f7261636c652e763160601b602082015260405190602082528181519182602083015260005b83811061031f5750508160006040809484010152601f80199101168101030190f35b602082820181015160408784010152859350016102fd565b634e487b7160e01b600052604160045260246000fd5b346100fc5760203660031901126100fc5760043567ffffffffffffffff81116100fc57366023820112156100fc57806004013567ffffffffffffffff81116100fc573660248260051b840101116100fc576103a7816106da565b916103b56040519384610634565b818352601f196103c4836106da565b0160005b81811061049157505060005b8281101561042257600581901b82016024013560006001600160a01b0382168203610247575090610406600192610755565b6104108287610717565b5261041b8186610717565b50016103d4565b8360405180916020820160208352815180915260206040840192019060005b81811061044f575050500390f35b9193509160206080826104836001948851606080918051845260208101516020850152604081015160408501520151910152565b019401910191849392610441565b60209061049c6106f2565b828288010152016103c8565b346100fc5760003660031901126100fc5760206040516123288152f35b346100fc5760003660031901126100fc576020604051610e108152f35b346100fc5760003660031901126100fc576020604051610bb88152f35b346100fc5760003660031901126100fc576040517f00000000000000000000000000000000000000000000000000000000000000006001600160a01b03168152602090f35b346100fc5760203660031901126100fc576004356001600160a01b038116908190036100fc5760405163cb67e3b160e01b8152600481019190915260c0816024817f00000000000000000000000000000000000000000000000000000000000000006001600160a01b03165afa8015610252576020916000916105ce575b50511515604051908152f35b6105f0915060c03d60c0116105f6575b6105e88183610634565b810190610656565b826105c2565b503d6105de565b346100fc5760003660031901126100fc578061177060209252f35b6080810190811067ffffffffffffffff82111761033757604052565b90601f8019910116810190811067ffffffffffffffff82111761033757604052565b908160c09103126100fc5760405190600060c0830167ffffffffffffffff8111848210176106c657604052815190811515820361024757509060a091835260208101516020840152604081015160408401526060810151606084015260808101516080840152015160a082015290565b634e487b7160e01b82526041600452602482fd5b67ffffffffffffffff81116103375760051b60200190565b604051906106ff82610618565b60006060838281528260208201528260408201520152565b805182101561072b5760209160051b010190565b634e487b7160e01b600052603260045260246000fd5b51906001600160a01b03821682036100fc57565b9061075e6106f2565b7ff73624578bca94dd01a1a6db9b78d13558ecb87bcb9cf5f1ea438d55100edc2d606082015260405163cb67e3b160e01b81526001600160a01b039384166004820181905291937f0000000000000000000000000000000000000000000000000000000000000000169160c082602481865afa91821561025257600092610918575b508151156109135760809060246040518095819363920bbdbf60e01b835260048301525afa918215610252576000926108ab575b506020820190815180156108a55742039042821161088f5760a081015182111561084e5750506000915b5184525160208401526040830152565b60200151908181116108655750506123289161083e565b8160011b918083046002149015171561088f5711610886576117709161083e565b610bb89161083e565b634e487b7160e01b600052601160045260246000fd5b50505050565b90916080823d60801161090b575b816108c660809383610634565b8101031261024757506108ff6060604051926108e184610618565b80518452602081015160208501526040810151604085015201610741565b60608201529038610814565b3d91506108b9565b505050565b61093291925060c03d60c0116105f6576105e88183610634565b90386107e056fea264697066735822122027f8c5a4cad73a3dc28f6e8095eb5767b0a0c9eb86ae7d5a589ca85425cf312264736f6c634300081b0033",
  "linkReferences": {},
  "deployedLinkReferences": {}
}