{
  "_format": "hh-sol-artifact-1",
  "contractName": "PECOR",
  "sourceName": "contracts/meta-ag/engine/PECOR.sol",
  "abi": [
    {
      "inputs": [],
      "stateMutability": "nonpayable",
      "type": "constructor"
    },
    {
      "inputs": [],
      "name": "AlreadyInitialized",
      "type": "error"
    },
    {
      "inputs": [],
      "name": "ApproveFailed",
      "type": "error"
    },
    {
      "inputs": [],
      "name": "DivisionByZero",
      "type": "error"
    },
    {
      "inputs": [],
      "name": "ExcessiveInput",
      "type": "error"
    },
    {
      "inputs": [],
      "name": "Expired",
      "type": "error"
    },
    {
      "inputs": [],
      "name": "FeeTooHigh",
      "type": "error"
    },
    {
      "inputs": [],
      "name": "InsufficientLiquidity",
      "type": "error"
    },
    {
      "inputs": [],
      "name": "InsufficientOutput",
      "type": "error"
    },
    {
      "inputs": [],
      "name": "InvalidImplementation",
      "type": "error"
    },
    {
      "inputs": [],
      "name": "InvalidImplementation",
      "type": "error"
    },
    {
      "inputs": [
        {
          "internalType": "address",
          "name": "account",
          "type": "address"
        },
        {
          "internalType": "bytes32",
          "name": "role",
          "type": "bytes32"
        }
      ],
      "name": "MissingRole",
      "type": "error"
    },
    {
      "inputs": [
        {
          "internalType": "uint256",
          "name": "index",
          "type": "uint256"
        }
      ],
      "name": "MulticallFailed",
      "type": "error"
    },
    {
      "inputs": [],
      "name": "NativeTransferFailed",
      "type": "error"
    },
    {
      "inputs": [],
      "name": "NoFeesToCollect",
      "type": "error"
    },
    {
      "inputs": [],
      "name": "NotAStablecoin",
      "type": "error"
    },
    {
      "inputs": [],
      "name": "NotInitializing",
      "type": "error"
    },
    {
      "inputs": [],
      "name": "NotPaused",
      "type": "error"
    },
    {
      "inputs": [],
      "name": "Overflow",
      "type": "error"
    },
    {
      "inputs": [],
      "name": "Paused",
      "type": "error"
    },
    {
      "inputs": [],
      "name": "ReentrancyGuardReentrantCall",
      "type": "error"
    },
    {
      "inputs": [],
      "name": "SameToken",
      "type": "error"
    },
    {
      "inputs": [],
      "name": "ScalarTooHigh",
      "type": "error"
    },
    {
      "inputs": [],
      "name": "Tier2BelowTier1",
      "type": "error"
    },
    {
      "inputs": [],
      "name": "TokenIsStablecoin",
      "type": "error"
    },
    {
      "inputs": [],
      "name": "UUPSNotThroughActiveProxy",
      "type": "error"
    },
    {
      "inputs": [],
      "name": "UUPSNotThroughProxy",
      "type": "error"
    },
    {
      "inputs": [],
      "name": "UnauthorizedUpgrade",
      "type": "error"
    },
    {
      "inputs": [],
      "name": "UseWethDeposit",
      "type": "error"
    },
    {
      "inputs": [],
      "name": "UseWethWithdraw",
      "type": "error"
    },
    {
      "inputs": [],
      "name": "ZeroAddress",
      "type": "error"
    },
    {
      "inputs": [],
      "name": "ZeroAmount",
      "type": "error"
    },
    {
      "anonymous": false,
      "inputs": [
        {
          "indexed": true,
          "internalType": "address",
          "name": "collector",
          "type": "address"
        }
      ],
      "name": "FeeCollectorUpdated",
      "type": "event"
    },
    {
      "anonymous": false,
      "inputs": [
        {
          "indexed": true,
          "internalType": "address",
          "name": "token",
          "type": "address"
        },
        {
          "indexed": true,
          "internalType": "address",
          "name": "collector",
          "type": "address"
        },
        {
          "indexed": false,
          "internalType": "uint256",
          "name": "amount",
          "type": "uint256"
        }
      ],
      "name": "FeesCollected",
      "type": "event"
    },
    {
      "anonymous": false,
      "inputs": [
        {
          "indexed": false,
          "internalType": "uint64",
          "name": "version",
          "type": "uint64"
        }
      ],
      "name": "Initialized",
      "type": "event"
    },
    {
      "anonymous": false,
      "inputs": [
        {
          "indexed": true,
          "internalType": "address",
          "name": "user",
          "type": "address"
        },
        {
          "indexed": true,
          "internalType": "address",
          "name": "stablecoin",
          "type": "address"
        },
        {
          "indexed": true,
          "internalType": "address",
          "name": "token",
          "type": "address"
        },
        {
          "indexed": false,
          "internalType": "uint256",
          "name": "stablecoinAmount",
          "type": "uint256"
        },
        {
          "indexed": false,
          "internalType": "uint256",
          "name": "tokenAmount",
          "type": "uint256"
        },
        {
          "indexed": false,
          "internalType": "bool",
          "name": "isBuy",
          "type": "bool"
        }
      ],
      "name": "MarketOrderExecuted",
      "type": "event"
    },
    {
      "anonymous": false,
      "inputs": [
        {
          "indexed": true,
          "internalType": "address",
          "name": "user",
          "type": "address"
        },
        {
          "indexed": true,
          "internalType": "address",
          "name": "tokenOther",
          "type": "address"
        },
        {
          "indexed": false,
          "internalType": "uint256",
          "name": "nativeAmount",
          "type": "uint256"
        },
        {
          "indexed": false,
          "internalType": "uint256",
          "name": "tokenAmount",
          "type": "uint256"
        },
        {
          "indexed": false,
          "internalType": "bool",
          "name": "nativeIsInput",
          "type": "bool"
        }
      ],
      "name": "NativeSwap",
      "type": "event"
    },
    {
      "anonymous": false,
      "inputs": [
        {
          "indexed": false,
          "internalType": "bool",
          "name": "paused",
          "type": "bool"
        }
      ],
      "name": "PauseToggled",
      "type": "event"
    },
    {
      "anonymous": false,
      "inputs": [
        {
          "indexed": true,
          "internalType": "address",
          "name": "user",
          "type": "address"
        },
        {
          "indexed": true,
          "internalType": "address",
          "name": "tokenOut",
          "type": "address"
        },
        {
          "indexed": false,
          "internalType": "uint256",
          "name": "impactBps",
          "type": "uint256"
        },
        {
          "indexed": false,
          "internalType": "uint256",
          "name": "deductedAmount",
          "type": "uint256"
        }
      ],
      "name": "PriceImpactApplied",
      "type": "event"
    },
    {
      "anonymous": false,
      "inputs": [
        {
          "indexed": false,
          "internalType": "bool",
          "name": "enabled",
          "type": "bool"
        },
        {
          "indexed": false,
          "internalType": "uint256",
          "name": "scalarBps",
          "type": "uint256"
        }
      ],
      "name": "PriceImpactConfigUpdated",
      "type": "event"
    },
    {
      "anonymous": false,
      "inputs": [
        {
          "indexed": true,
          "internalType": "address",
          "name": "oracle",
          "type": "address"
        }
      ],
      "name": "PriceOracleUpdated",
      "type": "event"
    },
    {
      "anonymous": false,
      "inputs": [
        {
          "indexed": true,
          "internalType": "bytes32",
          "name": "role",
          "type": "bytes32"
        },
        {
          "indexed": true,
          "internalType": "bytes32",
          "name": "previousAdminRole",
          "type": "bytes32"
        },
        {
          "indexed": true,
          "internalType": "bytes32",
          "name": "newAdminRole",
          "type": "bytes32"
        }
      ],
      "name": "RoleAdminChanged",
      "type": "event"
    },
    {
      "anonymous": false,
      "inputs": [
        {
          "indexed": true,
          "internalType": "bytes32",
          "name": "role",
          "type": "bytes32"
        },
        {
          "indexed": true,
          "internalType": "address",
          "name": "account",
          "type": "address"
        },
        {
          "indexed": true,
          "internalType": "address",
          "name": "sender",
          "type": "address"
        }
      ],
      "name": "RoleGranted",
      "type": "event"
    },
    {
      "anonymous": false,
      "inputs": [
        {
          "indexed": true,
          "internalType": "bytes32",
          "name": "role",
          "type": "bytes32"
        },
        {
          "indexed": true,
          "internalType": "address",
          "name": "account",
          "type": "address"
        },
        {
          "indexed": true,
          "internalType": "address",
          "name": "sender",
          "type": "address"
        }
      ],
      "name": "RoleRevoked",
      "type": "event"
    },
    {
      "anonymous": false,
      "inputs": [
        {
          "indexed": true,
          "internalType": "address",
          "name": "user",
          "type": "address"
        },
        {
          "indexed": true,
          "internalType": "address",
          "name": "tokenIn",
          "type": "address"
        },
        {
          "indexed": true,
          "internalType": "address",
          "name": "tokenOut",
          "type": "address"
        },
        {
          "indexed": false,
          "internalType": "uint256",
          "name": "amountIn",
          "type": "uint256"
        },
        {
          "indexed": false,
          "internalType": "uint256",
          "name": "amountOut",
          "type": "uint256"
        },
        {
          "indexed": false,
          "internalType": "uint256",
          "name": "executionPrice",
          "type": "uint256"
        }
      ],
      "name": "SimpleSwap",
      "type": "event"
    },
    {
      "anonymous": false,
      "inputs": [
        {
          "indexed": false,
          "internalType": "uint256",
          "name": "feeBps",
          "type": "uint256"
        }
      ],
      "name": "SwapFeeUpdated",
      "type": "event"
    },
    {
      "anonymous": false,
      "inputs": [
        {
          "indexed": true,
          "internalType": "address",
          "name": "user",
          "type": "address"
        },
        {
          "indexed": true,
          "internalType": "address",
          "name": "tokenOut",
          "type": "address"
        },
        {
          "indexed": false,
          "internalType": "uint256",
          "name": "volumeUSD",
          "type": "uint256"
        },
        {
          "indexed": false,
          "internalType": "uint256",
          "name": "feeBps",
          "type": "uint256"
        },
        {
          "indexed": false,
          "internalType": "uint256",
          "name": "feeAmount",
          "type": "uint256"
        }
      ],
      "name": "TieredFeeApplied",
      "type": "event"
    },
    {
      "anonymous": false,
      "inputs": [
        {
          "indexed": false,
          "internalType": "uint256",
          "name": "tier1FeeBps",
          "type": "uint256"
        },
        {
          "indexed": false,
          "internalType": "uint256",
          "name": "tier2FeeBps",
          "type": "uint256"
        }
      ],
      "name": "TieredFeesUpdated",
      "type": "event"
    },
    {
      "anonymous": false,
      "inputs": [
        {
          "indexed": true,
          "internalType": "address",
          "name": "tracker",
          "type": "address"
        }
      ],
      "name": "TransactionTrackerUpdated",
      "type": "event"
    },
    {
      "anonymous": false,
      "inputs": [
        {
          "indexed": true,
          "internalType": "address",
          "name": "implementation",
          "type": "address"
        }
      ],
      "name": "Upgraded",
      "type": "event"
    },
    {
      "inputs": [],
      "name": "BPS_DENOMINATOR",
      "outputs": [
        {
          "internalType": "uint256",
          "name": "",
          "type": "uint256"
        }
      ],
      "stateMutability": "view",
      "type": "function"
    },
    {
      "inputs": [],
      "name": "DEFAULT_ADMIN_ROLE",
      "outputs": [
        {
          "internalType": "bytes32",
          "name": "",
          "type": "bytes32"
        }
      ],
      "stateMutability": "view",
      "type": "function"
    },
    {
      "inputs": [],
      "name": "FEE_COLLECTOR_ROLE",
      "outputs": [
        {
          "internalType": "bytes32",
          "name": "",
          "type": "bytes32"
        }
      ],
      "stateMutability": "view",
      "type": "function"
    },
    {
      "inputs": [],
      "name": "MAX_FEE_BPS",
      "outputs": [
        {
          "internalType": "uint256",
          "name": "",
          "type": "uint256"
        }
      ],
      "stateMutability": "view",
      "type": "function"
    },
    {
      "inputs": [],
      "name": "MAX_IMPACT_BPS",
      "outputs": [
        {
          "internalType": "uint256",
          "name": "",
          "type": "uint256"
        }
      ],
      "stateMutability": "view",
      "type": "function"
    },
    {
      "inputs": [],
      "name": "PRECISION",
      "outputs": [
        {
          "internalType": "uint256",
          "name": "",
          "type": "uint256"
        }
      ],
      "stateMutability": "view",
      "type": "function"
    },
    {
      "inputs": [],
      "name": "TIER1_THRESHOLD",
      "outputs": [
        {
          "internalType": "uint256",
          "name": "",
          "type": "uint256"
        }
      ],
      "stateMutability": "view",
      "type": "function"
    },
    {
      "inputs": [],
      "name": "TIER2_THRESHOLD",
      "outputs": [
        {
          "internalType": "uint256",
          "name": "",
          "type": "uint256"
        }
      ],
      "stateMutability": "view",
      "type": "function"
    },
    {
      "inputs": [
        {
          "internalType": "address",
          "name": "",
          "type": "address"
        }
      ],
      "name": "accruedFees",
      "outputs": [
        {
          "internalType": "uint256",
          "name": "",
          "type": "uint256"
        }
      ],
      "stateMutability": "view",
      "type": "function"
    },
    {
      "inputs": [
        {
          "internalType": "address",
          "name": "token",
          "type": "address"
        }
      ],
      "name": "collectFees",
      "outputs": [],
      "stateMutability": "nonpayable",
      "type": "function"
    },
    {
      "inputs": [],
      "name": "feeCollector",
      "outputs": [
        {
          "internalType": "address",
          "name": "",
          "type": "address"
        }
      ],
      "stateMutability": "view",
      "type": "function"
    },
    {
      "inputs": [
        {
          "internalType": "address",
          "name": "tokenIn",
          "type": "address"
        },
        {
          "internalType": "address",
          "name": "tokenOut",
          "type": "address"
        },
        {
          "internalType": "uint256",
          "name": "amountIn",
          "type": "uint256"
        }
      ],
      "name": "getDetailedQuote",
      "outputs": [
        {
          "internalType": "uint256",
          "name": "grossOut",
          "type": "uint256"
        },
        {
          "internalType": "uint256",
          "name": "netOut",
          "type": "uint256"
        },
        {
          "internalType": "uint256",
          "name": "priceImpactBps",
          "type": "uint256"
        },
        {
          "internalType": "uint256",
          "name": "feeBps",
          "type": "uint256"
        },
        {
          "internalType": "uint256",
          "name": "feeAmount",
          "type": "uint256"
        }
      ],
      "stateMutability": "view",
      "type": "function"
    },
    {
      "inputs": [
        {
          "internalType": "address",
          "name": "tokenIn",
          "type": "address"
        },
        {
          "internalType": "address",
          "name": "tokenOut",
          "type": "address"
        },
        {
          "internalType": "uint256",
          "name": "amountIn",
          "type": "uint256"
        }
      ],
      "name": "getQuoteExactIn",
      "outputs": [
        {
          "internalType": "uint256",
          "name": "amountOut",
          "type": "uint256"
        }
      ],
      "stateMutability": "view",
      "type": "function"
    },
    {
      "inputs": [
        {
          "internalType": "address",
          "name": "tokenIn",
          "type": "address"
        },
        {
          "internalType": "address",
          "name": "tokenOut",
          "type": "address"
        },
        {
          "internalType": "uint256",
          "name": "amountOut",
          "type": "uint256"
        }
      ],
      "name": "getQuoteExactOut",
      "outputs": [
        {
          "internalType": "uint256",
          "name": "amountIn",
          "type": "uint256"
        }
      ],
      "stateMutability": "view",
      "type": "function"
    },
    {
      "inputs": [
        {
          "internalType": "bytes32",
          "name": "role",
          "type": "bytes32"
        }
      ],
      "name": "getRoleAdmin",
      "outputs": [
        {
          "internalType": "bytes32",
          "name": "",
          "type": "bytes32"
        }
      ],
      "stateMutability": "view",
      "type": "function"
    },
    {
      "inputs": [
        {
          "internalType": "bytes32",
          "name": "role",
          "type": "bytes32"
        },
        {
          "internalType": "address",
          "name": "account",
          "type": "address"
        }
      ],
      "name": "grantRole",
      "outputs": [],
      "stateMutability": "nonpayable",
      "type": "function"
    },
    {
      "inputs": [
        {
          "internalType": "bytes32",
          "name": "role",
          "type": "bytes32"
        },
        {
          "internalType": "address",
          "name": "account",
          "type": "address"
        }
      ],
      "name": "hasRole",
      "outputs": [
        {
          "internalType": "bool",
          "name": "",
          "type": "bool"
        }
      ],
      "stateMutability": "view",
      "type": "function"
    },
    {
      "inputs": [
        {
          "internalType": "address",
          "name": "priceOracle_",
          "type": "address"
        },
        {
          "internalType": "address",
          "name": "vault_",
          "type": "address"
        },
        {
          "internalType": "address",
          "name": "weth_",
          "type": "address"
        },
        {
          "internalType": "address",
          "name": "tracker_",
          "type": "address"
        },
        {
          "internalType": "address",
          "name": "admin_",
          "type": "address"
        }
      ],
      "name": "initialize",
      "outputs": [],
      "stateMutability": "nonpayable",
      "type": "function"
    },
    {
      "inputs": [
        {
          "internalType": "address",
          "name": "stablecoin",
          "type": "address"
        },
        {
          "internalType": "address",
          "name": "token",
          "type": "address"
        },
        {
          "internalType": "uint256",
          "name": "stablecoinAmount",
          "type": "uint256"
        },
        {
          "internalType": "uint256",
          "name": "minTokenAmount",
          "type": "uint256"
        },
        {
          "internalType": "uint256",
          "name": "deadline",
          "type": "uint256"
        }
      ],
      "name": "marketBuy",
      "outputs": [
        {
          "internalType": "uint256",
          "name": "tokenAmount",
          "type": "uint256"
        }
      ],
      "stateMutability": "nonpayable",
      "type": "function"
    },
    {
      "inputs": [
        {
          "internalType": "address",
          "name": "token",
          "type": "address"
        },
        {
          "internalType": "address",
          "name": "stablecoin",
          "type": "address"
        },
        {
          "internalType": "uint256",
          "name": "tokenAmount",
          "type": "uint256"
        },
        {
          "internalType": "uint256",
          "name": "minStablecoinAmount",
          "type": "uint256"
        },
        {
          "internalType": "uint256",
          "name": "deadline",
          "type": "uint256"
        }
      ],
      "name": "marketSell",
      "outputs": [
        {
          "internalType": "uint256",
          "name": "stablecoinAmount",
          "type": "uint256"
        }
      ],
      "stateMutability": "nonpayable",
      "type": "function"
    },
    {
      "inputs": [
        {
          "internalType": "bytes[]",
          "name": "data",
          "type": "bytes[]"
        }
      ],
      "name": "multicall",
      "outputs": [
        {
          "internalType": "bytes[]",
          "name": "results",
          "type": "bytes[]"
        }
      ],
      "stateMutability": "nonpayable",
      "type": "function"
    },
    {
      "inputs": [],
      "name": "pause",
      "outputs": [],
      "stateMutability": "nonpayable",
      "type": "function"
    },
    {
      "inputs": [],
      "name": "priceImpactEnabled",
      "outputs": [
        {
          "internalType": "bool",
          "name": "",
          "type": "bool"
        }
      ],
      "stateMutability": "view",
      "type": "function"
    },
    {
      "inputs": [],
      "name": "priceImpactScalarBps",
      "outputs": [
        {
          "internalType": "uint256",
          "name": "",
          "type": "uint256"
        }
      ],
      "stateMutability": "view",
      "type": "function"
    },
    {
      "inputs": [],
      "name": "priceOracle",
      "outputs": [
        {
          "internalType": "contract IPriceOracle",
          "name": "",
          "type": "address"
        }
      ],
      "stateMutability": "view",
      "type": "function"
    },
    {
      "inputs": [],
      "name": "proxiableUUID",
      "outputs": [
        {
          "internalType": "bytes32",
          "name": "",
          "type": "bytes32"
        }
      ],
      "stateMutability": "view",
      "type": "function"
    },
    {
      "inputs": [
        {
          "internalType": "bytes32",
          "name": "role",
          "type": "bytes32"
        },
        {
          "internalType": "address",
          "name": "callerConfirmation",
          "type": "address"
        }
      ],
      "name": "renounceRole",
      "outputs": [],
      "stateMutability": "nonpayable",
      "type": "function"
    },
    {
      "inputs": [
        {
          "internalType": "bytes32",
          "name": "role",
          "type": "bytes32"
        },
        {
          "internalType": "address",
          "name": "account",
          "type": "address"
        }
      ],
      "name": "revokeRole",
      "outputs": [],
      "stateMutability": "nonpayable",
      "type": "function"
    },
    {
      "inputs": [
        {
          "internalType": "address",
          "name": "collector",
          "type": "address"
        }
      ],
      "name": "setFeeCollector",
      "outputs": [],
      "stateMutability": "nonpayable",
      "type": "function"
    },
    {
      "inputs": [
        {
          "internalType": "bool",
          "name": "enabled",
          "type": "bool"
        },
        {
          "internalType": "uint256",
          "name": "scalarBps",
          "type": "uint256"
        }
      ],
      "name": "setPriceImpact",
      "outputs": [],
      "stateMutability": "nonpayable",
      "type": "function"
    },
    {
      "inputs": [
        {
          "internalType": "address",
          "name": "oracle",
          "type": "address"
        }
      ],
      "name": "setPriceOracle",
      "outputs": [],
      "stateMutability": "nonpayable",
      "type": "function"
    },
    {
      "inputs": [
        {
          "internalType": "uint256",
          "name": "feeBps",
          "type": "uint256"
        }
      ],
      "name": "setSwapFee",
      "outputs": [],
      "stateMutability": "nonpayable",
      "type": "function"
    },
    {
      "inputs": [
        {
          "internalType": "uint256",
          "name": "tier1FeeBps_",
          "type": "uint256"
        },
        {
          "internalType": "uint256",
          "name": "tier2FeeBps_",
          "type": "uint256"
        }
      ],
      "name": "setTieredFees",
      "outputs": [],
      "stateMutability": "nonpayable",
      "type": "function"
    },
    {
      "inputs": [
        {
          "internalType": "address",
          "name": "tracker",
          "type": "address"
        }
      ],
      "name": "setTransactionTracker",
      "outputs": [],
      "stateMutability": "nonpayable",
      "type": "function"
    },
    {
      "inputs": [
        {
          "internalType": "address",
          "name": "tokenIn",
          "type": "address"
        },
        {
          "internalType": "address",
          "name": "tokenOut",
          "type": "address"
        },
        {
          "internalType": "uint256",
          "name": "amountIn",
          "type": "uint256"
        },
        {
          "internalType": "uint256",
          "name": "amountOutMin",
          "type": "uint256"
        },
        {
          "internalType": "uint256",
          "name": "deadline",
          "type": "uint256"
        }
      ],
      "name": "swapExactIn",
      "outputs": [
        {
          "internalType": "uint256",
          "name": "amountOut",
          "type": "uint256"
        }
      ],
      "stateMutability": "nonpayable",
      "type": "function"
    },
    {
      "inputs": [
        {
          "internalType": "address",
          "name": "tokenOut",
          "type": "address"
        },
        {
          "internalType": "uint256",
          "name": "amountOutMin",
          "type": "uint256"
        },
        {
          "internalType": "uint256",
          "name": "deadline",
          "type": "uint256"
        }
      ],
      "name": "swapExactInNative",
      "outputs": [
        {
          "internalType": "uint256",
          "name": "amountOut",
          "type": "uint256"
        }
      ],
      "stateMutability": "payable",
      "type": "function"
    },
    {
      "inputs": [
        {
          "internalType": "address",
          "name": "tokenIn",
          "type": "address"
        },
        {
          "internalType": "uint256",
          "name": "amountIn",
          "type": "uint256"
        },
        {
          "internalType": "uint256",
          "name": "amountOutMin",
          "type": "uint256"
        },
        {
          "internalType": "uint256",
          "name": "deadline",
          "type": "uint256"
        }
      ],
      "name": "swapExactInToNative",
      "outputs": [
        {
          "internalType": "uint256",
          "name": "amountOut",
          "type": "uint256"
        }
      ],
      "stateMutability": "nonpayable",
      "type": "function"
    },
    {
      "inputs": [
        {
          "internalType": "address",
          "name": "tokenIn",
          "type": "address"
        },
        {
          "internalType": "address",
          "name": "tokenOut",
          "type": "address"
        },
        {
          "internalType": "uint256",
          "name": "amountOut",
          "type": "uint256"
        },
        {
          "internalType": "uint256",
          "name": "amountInMax",
          "type": "uint256"
        },
        {
          "internalType": "uint256",
          "name": "deadline",
          "type": "uint256"
        }
      ],
      "name": "swapExactOut",
      "outputs": [
        {
          "internalType": "uint256",
          "name": "amountIn",
          "type": "uint256"
        }
      ],
      "stateMutability": "nonpayable",
      "type": "function"
    },
    {
      "inputs": [],
      "name": "swapFeeBps",
      "outputs": [
        {
          "internalType": "uint256",
          "name": "",
          "type": "uint256"
        }
      ],
      "stateMutability": "view",
      "type": "function"
    },
    {
      "inputs": [],
      "name": "tier1FeeBps",
      "outputs": [
        {
          "internalType": "uint256",
          "name": "",
          "type": "uint256"
        }
      ],
      "stateMutability": "view",
      "type": "function"
    },
    {
      "inputs": [],
      "name": "tier2FeeBps",
      "outputs": [
        {
          "internalType": "uint256",
          "name": "",
          "type": "uint256"
        }
      ],
      "stateMutability": "view",
      "type": "function"
    },
    {
      "inputs": [],
      "name": "transactionTracker",
      "outputs": [
        {
          "internalType": "contract ITransactionTracker",
          "name": "",
          "type": "address"
        }
      ],
      "stateMutability": "view",
      "type": "function"
    },
    {
      "inputs": [],
      "name": "unpause",
      "outputs": [],
      "stateMutability": "nonpayable",
      "type": "function"
    },
    {
      "inputs": [
        {
          "internalType": "address",
          "name": "newImplementation",
          "type": "address"
        },
        {
          "internalType": "bytes",
          "name": "data",
          "type": "bytes"
        }
      ],
      "name": "upgradeToAndCall",
      "outputs": [],
      "stateMutability": "payable",
      "type": "function"
    },
    {
      "inputs": [],
      "name": "vault",
      "outputs": [
        {
          "internalType": "contract IPECORVault",
          "name": "",
          "type": "address"
        }
      ],
      "stateMutability": "view",
      "type": "function"
    },
    {
      "inputs": [],
      "name": "weth",
      "outputs": [
        {
          "internalType": "address",
          "name": "",
          "type": "address"
        }
      ],
      "stateMutability": "view",
      "type": "function"
    },
    {
      "stateMutability": "payable",
      "type": "receive"
    }
  ],
  "bytecode": "0x60a080604052346100e9573060805260017f9b779b17422d0df92223018b32b4d1fa46e071723d6817e2486d003becc55f00556000805160206145598339815191525460ff8160401c166100d9576002600160401b03196001600160401b03821601610085575b60405161446a90816100ef8239608051818181610f4b01526132bb0152f35b6001600160401b0319166001600160401b039081176000805160206145598339815191525581527fc7f505b2f371ae2175ee4913f4499e1f2633a7b5936321eed1cdaeb6115181d290602090a13880610066565b62dc149f60e41b60005260046000fd5b600080fdfe60806040526004361015610023575b361561001957600080fd5b610021613580565b005b60003560e01c80630731128314610303578063086d2c87146102fe57806308fedc90146102f95780631459457a146102f4578063248a9ca3146102ef5780632630c12f146102ea5780632f2ff15d146102e55780632ffdaf89146102e057806334e19907146102db57806336568abe146102d6578063384d3fe5146102d15780633cc75fd4146102cc5780633f4ba83a146102c75780633fc8cef3146102c25780634c175ac5146102bd5780634f1ef286146102b857806352999593146102b357806352d1902d146102ae578063530e784f146102a957806355a124be146102a457806357f242011461029f5780635f3a44131461029a57806362a2a47c14610295578063642ce35514610290578063646f23a81461028b57806377a61952146102865780638063c834146102815780638456cb591461027c57806391d1485414610277578063a217fddf14610272578063a42dce801461026d578063a480ca7914610268578063a4cf2f1c14610263578063a9fbe7781461025e578063aaf5eb6814610259578063ac9650d814610254578063bac7a1251461024f578063bfee15f81461024a578063c415b95c14610245578063ce9e0cae14610240578063d25a18e51461023b578063d547741f14610236578063d55be8c614610231578063e1a452181461022c578063f4b14e72146102275763fbfa77cf0361000e576130d0565b613034565b613017565b612ffb565b612fbb565b612f53565b612b6c565b612b43565b6128a8565b61245f565b6123f1565b61233b565b61231d565b6122f4565b6121b9565b61211f565b612103565b6120b0565b612043565b611e36565b6119bb565b61192f565b611900565b6118d7565b6118ba565b61140f565b61102f565b610fb4565b610f38565b610f1a565b610ea2565b610e2b565b610e02565b610d83565b610987565b610922565b6108d3565b610850565b610832565b6107eb565b6107c2565b61078d565b6105f3565b61041f565b6103c0565b61037b565b600435906001600160a01b038216820361031e57565b600080fd5b602435906001600160a01b038216820361031e57565b604435906001600160a01b038216820361031e57565b606435906001600160a01b038216820361031e57565b608435906001600160a01b038216820361031e57565b3461031e57602036600319011261031e576001600160a01b0361039c610308565b16600052600b6020526020604060002054604051908152f35b600091031261031e57565b3461031e57600036600319011261031e57602060405169152d02c7e14af68000008152f35b606090600319011261031e576004356001600160a01b038116810361031e57906024356001600160a01b038116810361031e579060443590565b3461031e5761042d366103e5565b60015490929061044d906001600160a01b03165b6001600160a01b031690565b6040516341976e0960e01b81526001600160a01b038316600482015290939092602084602481885afa93841561059e576000946105d2575b506040516341976e0960e01b81526001600160a01b038216600482015294602090869060249082905afa801561059e57846020936104d093610515986000946105a3575b50866135e6565b6002549092906104e8906001600160a01b0316610441565b604051633c2e3e7b60e11b81526001600160a01b0390921660048301529094859190829081906024820190565b03915afa91821561059e5761054f61054a6105559261054361055b9661056b9860009161056f575b50613143565b908561380f565b6138ad565b82613762565b90613154565b6040519081529081906020820190565b0390f35b610591915060203d602011610597575b6105898183610e5f565b810190613114565b3861053d565b503d61057f565b613108565b6105c4919450863d88116105cb575b6105bc8183610e5f565b8101906130f9565b92386104c9565b503d6105b2565b6105ec91945060203d6020116105cb576105bc8183610e5f565b9238610485565b3461031e5760a036600319011261031e5761060c610308565b610614610323565b9061061d610339565b61062561034f565b61062d610365565b91600080516020614395833981519152549467ffffffffffffffff61066e61066061065c8960ff9060401c1690565b1590565b9767ffffffffffffffff1690565b16600181101580610786575b61076e5715158061077e575b61076e576106cc9486610732575b6106c7600167ffffffffffffffff1960008051602061439583398151915254161760008051602061439583398151915255565b613161565b6106d257005b6106fe60ff60401b19600080516020614395833981519152541660008051602061439583398151915255565b604051600181527fc7f505b2f371ae2175ee4913f4499e1f2633a7b5936321eed1cdaeb6115181d29080602081015b0390a1005b6107696801000000000000000060ff60401b1960008051602061439583398151915254161760008051602061439583398151915255565b610694565b62dc149f60e41b60005260046000fd5b508515610686565b508661067a565b3461031e57602036600319011261031e5760206107ba600435600052600060205260016040600020015490565b604051908152f35b3461031e57600036600319011261031e576001546040516001600160a01b039091168152602090f35b3461031e57604036600319011261031e5761002160043561080a610323565b9061082d61082682600052600060205260016040600020015490565b3390613bb9565b613a62565b3461031e57600036600319011261031e576020600554604051908152f35b3461031e57602036600319011261031e5760043561086d33613af3565b60065481018082116108ce5760075481018091116108ce5760c8106108bd576020817f382455f3b749abde7721258dcfa10a22f30d4a28c69151a002dcbd8d1462e4f292600555604051908152a1005b63cd4e616760e01b60005260046000fd5b61312d565b3461031e57604036600319011261031e576004356108ef610323565b336001600160a01b039091160361090b57610021903390613ca9565b62b0d32560e11b6000523360045260245260446000fd5b3461031e57600036600319011261031e57602060ff600854166040519015158152f35b60a090600319011261031e576004356001600160a01b038116810361031e57906024356001600160a01b038116810361031e5790604435906064359060843590565b3461031e5761099536610945565b6109a3949294939193613d36565b60008051602061441583398151915254610d72578015159081610d68575b50610d57576001600160a01b038181169490831692838614610d46578115610d35576002546109f8906001600160a01b0316610441565b6040516378ca3b7160e11b81526001600160a01b038516600482015260248101849052909390602081604481885afa90811561059e57600091610d06575b5015610cf557600154610a51906001600160a01b0316610441565b6040516341976e0960e01b81526001600160a01b038416600482015297909290602089602481875afa98891561059e57600099610cd4575b506040516341976e0960e01b81526001600160a01b038416600482015293602090859060249082905afa93841561059e57600094610cb3575b50610ad0848a8786866135e6565b604051633c2e3e7b60e11b81526001600160a01b038416600482015290996020826024818b5afa91821561059e57610b1a92610b139160009161056f5750613143565b908b61380f565b95610b3c610b27886138ad565b9a610555610b358d8a613762565b9c82613762565b988911610ca25760405163ac85dca760e01b815290602090829081600081610b698f338b60048501613296565b03925af1801561059e57610c85575b50600254610b8e906001600160a01b0316610441565b96873b1561031e576000604051809963a6c29ca360e01b8252818381610bb98c338c60048501613296565b03925af194851561059e5761056b9a610c27998b97610c6a575b5080610c3e575b507f1075e5ad13b06b3fb5457eb645716bfaea9f0117bfefda8d940bf2b926b41c1f60405180610c1e33948b8b846040919493926060820195825260208201520152565b0390a433613d72565b61055b60016000805160206143f583398151915255565b6001600160a01b0386166000908152600b60205260409020610c6290918254613154565b905538610bda565b80610c796000610c7f93610e5f565b806103b5565b38610bd3565b610c9d9060203d6020116105cb576105bc8183610e5f565b610b78565b635eba85c160e11b60005260046000fd5b610ccd91945060203d6020116105cb576105bc8183610e5f565b9238610ac2565b610cee91995060203d6020116105cb576105bc8183610e5f565b9738610a89565b63bb55fd2760e01b60005260046000fd5b610d28915060203d602011610d2e575b610d208183610e5f565b81019061327e565b38610a36565b503d610d16565b631f2a200560e01b60005260046000fd5b63100dac0560e11b60005260046000fd5b630407b05b60e31b60005260046000fd5b90504211386109c1565b6313d0ff5960e31b60005260046000fd5b3461031e57600036600319011261031e57610d9d33613af3565b6000805160206144158339815191525415610df1576000600080516020614415833981519152557f9077d36bc00859b5c3f320310707208543dd35092cb0a0fe117d0c6a558b148b602060405160008152a1005b636cd6020160e01b60005260046000fd5b3461031e57600036600319011261031e576004546040516001600160a01b039091168152602090f35b3461031e57600036600319011261031e576020600954604051908152f35b634e487b7160e01b600052604160045260246000fd5b90601f8019910116810190811067ffffffffffffffff821117610e8157604052565b610e49565b67ffffffffffffffff8111610e8157601f01601f191660200190565b604036600319011261031e57610eb6610308565b6024359067ffffffffffffffff821161031e573660238301121561031e57816004013590610ee382610e86565b91610ef16040519384610e5f565b808352366024828601011161031e576020816000926024610021970183870137840101526132b8565b3461031e57600036600319011261031e576020600654604051908152f35b3461031e57600036600319011261031e577f00000000000000000000000000000000000000000000000000000000000000006001600160a01b03163003610fa35760206040517f360894a13ba1a3210667c828492db98dca3e2076cc3735a920a3ca505d382bbc8152f35b6345a93fc960e01b60005260046000fd5b3461031e57602036600319011261031e57610fcd610308565b610fd633613af3565b6001600160a01b0316801561101e57600180546001600160a01b031916821790557fefe8ab924ca486283a79dc604baa67add51afb82af1db8ac386ebbba643cdffd600080a2005b63d92e233d60e01b60005260046000fd5b3461031e5761103d36610945565b61104994919394613d36565b60008051602061441583398151915254610d72578015159081611405575b50610d57576001600160a01b038481169290821690818414610d46578015610d355760015461109e906001600160a01b0316610441565b6040516341976e0960e01b81526001600160a01b0385166004820152909690936020856024818b5afa94851561059e576000956113e4575b506040516341976e0960e01b81526001600160a01b038316600482015297602090899060249082905afa97881561059e576000986113c3575b5061111d8886858585613e52565b600254909590611135906001600160a01b0316610441565b604051633c2e3e7b60e11b81526001600160a01b03841660048201529091602082602481865afa91821561059e5761117f926111789160009161056f5750613143565b908661380f565b604051630fa6707960e21b81526001600160a01b038516600482015290969091602083602481845afa92831561059e576000936113a2575b50604051633c2e3e7b60e11b81526001600160a01b038616600482015290602090829060249082905afa90811561059e57611210938c6112038b946112099460009161056f5750613143565b9161380f565b9185613fa7565b9687106113915760025461122c906001600160a01b0316610441565b6040516378ca3b7160e11b81526001600160a01b038416600482015260248101899052602081604481855afa90811561059e57600091611372575b5015610cf5576020604051809263ac85dca760e01b8252816000816112918a338a60048501613296565b03925af1801561059e57611355575b506002546112b6906001600160a01b0316610441565b95863b1561031e5760405163a6c29ca360e01b81529660009088908183816112e38e338b60048501613296565b03925af194851561059e5761056b99610c27988a9761134057507f1075e5ad13b06b3fb5457eb645716bfaea9f0117bfefda8d940bf2b926b41c1f60405180610c1e33948b8b846040919493926060820195825260208201520152565b80610c79600061134f93610e5f565b38610bda565b61136d9060203d6020116105cb576105bc8183610e5f565b6112a0565b61138b915060203d602011610d2e57610d208183610e5f565b38611267565b63bb2875c360e01b60005260046000fd5b6113bc91935060203d6020116105cb576105bc8183610e5f565b91386111b7565b6113dd91985060203d6020116105cb576105bc8183610e5f565b963861110f565b6113fe91955060203d6020116105cb576105bc8183610e5f565b93386110d6565b9050421138611067565b3461031e5761141d36610945565b61142994919394613d36565b60008051602061441583398151915254610d725780151590816118b0575b50610d5757600254611461906001600160a01b0316610441565b604051631a650cc760e01b81526001600160a01b0386166004820152909290602081602481875afa90811561059e57600091611891575b501561188057604051631a650cc760e01b81526001600160a01b0383166004820152602081602481875afa90811561059e57600091611861575b50611850578015610d35576001546114f2906001600160a01b0316610441565b6040516341976e0960e01b81526001600160a01b03841660048201529290602084602481845afa93841561059e5760009461182f575b506040516341976e0960e01b81526001600160a01b038816600482015290602090829060249082905afa90811561059e57600091611810575b5061156f8185858a86613e52565b604051633c2e3e7b60e11b81526001600160a01b03841660048201526020816024818a5afa90811561059e576115b7916115b09160009161056f5750613143565b868661380f565b604051630fa6707960e21b81526001600160a01b038a1660048201529096602082602481845afa801561059e578a611623936000926117f0575b50604051633c2e3e7b60e11b81526001600160a01b039091166004820152929091602091849190829081906024820190565b03915afa90811561059e5761164f94611203611648938b9560009161056f5750613143565b9189613fa7565b9485106113915760025461166b906001600160a01b0316610441565b6040516378ca3b7160e11b81526001600160a01b038816600482015260248101879052602081604481855afa90811561059e576000916117d1575b5015610cf5576020604051809263ac85dca760e01b8252816000816116d089338a60048501613296565b03925af1801561059e576117b4575b506002546116f5906001600160a01b0316610441565b90813b1561031e5760405163a6c29ca360e01b81529160009083908183816117228c338f60048501613296565b03925af196871561059e57611799610c2796889461056b9a61179f575b5060408051868152602081018890526000918101919091526001600160a01b03858116919085169033907f0812c3288c5d540088b34db30524fa26b13055f197af021d88b59427a0dbdbbe90606090a48486848633613d72565b33614159565b80610c7960006117ae93610e5f565b3861173f565b6117cc9060203d6020116105cb576105bc8183610e5f565b6116df565b6117ea915060203d602011610d2e57610d208183610e5f565b386116a6565b6020925061180a90833d85116105cb576105bc8183610e5f565b916115f1565b611829915060203d6020116105cb576105bc8183610e5f565b38611561565b61184991945060203d6020116105cb576105bc8183610e5f565b9238611528565b63c1343a3760e01b60005260046000fd5b61187a915060203d602011610d2e57610d208183610e5f565b386114d2565b630eef537d60e31b60005260046000fd5b6118aa915060203d602011610d2e57610d208183610e5f565b38611498565b9050421138611447565b3461031e57600036600319011261031e5760206040516101f48152f35b3461031e57600036600319011261031e5760206040516000805160206143b58339815191528152f35b3461031e57600036600319011261031e57602060405169021e19e0c9bab24000008152f35b8015150361031e57565b3461031e57604036600319011261031e5760043561194c81611925565b6024359061195933613af3565b6101f482116119aa577f5853c36012c95e498728a5a154d2cca1233a2a39d00cfb961181c5fb838668419160409115159060ff196008541660ff8316176008558060095582519182526020820152a1005b63f4e307b560e01b60005260046000fd5b3461031e576119c936610945565b6119d4939193613d36565b60008051602061441583398151915254610d72578015159081611e2c575b50610d5757600254611a0c906001600160a01b0316610441565b604051631a650cc760e01b81526001600160a01b0386166004820152909190602081602481865afa90811561059e57600091611e0d575b501561188057604051631a650cc760e01b81526001600160a01b0382166004820152602081602481865afa90811561059e57600091611dee575b50611850578215610d3557600154611a9d906001600160a01b0316610441565b6040516341976e0960e01b81526001600160a01b038316600482015290939092602084602481885afa93841561059e57600094611dcd575b506040516341976e0960e01b81526001600160a01b038816600482015294602090869060249082905afa94851561059e57600095611dac575b50611b1c848684868b613e52565b604051633c2e3e7b60e11b81526001600160a01b03891660048201529095602082602481865afa91821561059e57611b6692611b5f9160009161056f5750613143565b908461380f565b604051630fa6707960e21b81526001600160a01b038516600482015290959091602083602481845afa92831561059e57600093611d8b575b50604051633c2e3e7b60e11b81526001600160a01b038616600482015290602090829060249082905afa90811561059e57611bea93876112038a946112099460009161056f5750613143565b94851061139157600254611c06906001600160a01b0316610441565b6040516378ca3b7160e11b81526001600160a01b038416600482015260248101879052602081604481855afa90811561059e57600091611d6c575b5015610cf55760405163ac85dca760e01b815290602090829081600081611c6d88338f60048501613296565b03925af1801561059e57611d4f575b50600254611c92906001600160a01b0316610441565b91823b1561031e576000604051809463a6c29ca360e01b8252818381611cbd8c338960048501613296565b03925af196871561059e57611d34610c2796889561056b9a611d3a575b5060408051868152602081018890526001918101919091526001600160a01b03858116919085169033907f0812c3288c5d540088b34db30524fa26b13055f197af021d88b59427a0dbdbbe90606090a48585858533613d72565b336141cc565b80610c796000611d4993610e5f565b38611cda565b611d679060203d6020116105cb576105bc8183610e5f565b611c7c565b611d85915060203d602011610d2e57610d208183610e5f565b38611c41565b611da591935060203d6020116105cb576105bc8183610e5f565b9138611b9e565b611dc691955060203d6020116105cb576105bc8183610e5f565b9338611b0e565b611de791945060203d6020116105cb576105bc8183610e5f565b9238611ad5565b611e07915060203d602011610d2e57610d208183610e5f565b38611a7d565b611e26915060203d602011610d2e57610d208183610e5f565b38611a43565b90504211386119f2565b3461031e57611e44366103e5565b600154611e59906001600160a01b0316610441565b6040516341976e0960e01b81526001600160a01b038516600482015290939091602083602481885afa92831561059e57600093612022575b506040516341976e0960e01b81526001600160a01b038516600482015294602090869060249082905afa94851561059e57600095611ffd575b5080611edc8685611f21948887613e52565b600254909490602090611ef7906001600160a01b0316610441565b604051633c2e3e7b60e11b81526001600160a01b0390961660048701529493849081906024820190565b0381875afa92831561059e57611f42936112039160009161056f5750613143565b604051630fa6707960e21b81526001600160a01b038516600482015293909190602085602481855afa90811561059e57611fb095600092611fdd575b50604051633c2e3e7b60e11b81526001600160a01b039091166004820152949091602091869190829081906024820190565b03915afa90811561059e5761056b95611203611fd79361055b9760009161056f5750613143565b91614219565b60209250611ff790833d85116105cb576105bc8183610e5f565b91611f7e565b611f2191955061201b9060203d6020116105cb576105bc8183610e5f565b9490611eca565b61203c91935060203d6020116105cb576105bc8183610e5f565b9138611e91565b3461031e57600036600319011261031e5761205d33613af3565b60008051602061441583398151915254610d72576001600080516020614415833981519152557f9077d36bc00859b5c3f320310707208543dd35092cb0a0fe117d0c6a558b148b602060405160018152a1005b3461031e57604036600319011261031e57602060ff6120f76004356120d3610323565b906000526000845260406000209060018060a01b0316600052602052604060002090565b54166040519015158152f35b3461031e57600036600319011261031e57602060405160008152f35b3461031e57602036600319011261031e57612138610308565b61214133613af3565b6001600160a01b03811690811561101e57600a5461218191906001600160a01b0316806121a9575b50600a80546001600160a01b03191684179055613907565b507fe5693914d19c789bdee50a362998c0bc8d035a835f9871da5d51152f0582c34f600080a2005b6121b290613c0e565b5038612169565b3461031e57602036600319011261031e576121d2610308565b6121db33613b56565b6121e3613d36565b6001600160a01b0381166000908152600b602052604090205480156122e3576001600160a01b0382166000908152600b6020526040812055600254612230906001600160a01b0316610441565b600a546001600160a01b031690803b1561031e578260009161226a938360405180968195829463a6c29ca360e01b84528b60048501613296565b03925af1801561059e576122ce575b50600a546040519182526001600160a01b039081169216907f9bcb6d1f38f6800906185471a11ede9a8e16200853225aa62558db6076490f2d90602090a361002160016000805160206143f583398151915255565b80610c7960006122dd93610e5f565b38612279565b631a93aa7960e21b60005260046000fd5b3461031e57600036600319011261031e576003546040516001600160a01b039091168152602090f35b3461031e57600036600319011261031e576020600754604051908152f35b3461031e57600036600319011261031e576020604051670de0b6b3a76400008152f35b60208101906020815282518092526040810191602060408260051b8401019401926000925b82841061239257505050505090565b9091929394603f19828203018352855180519081835260005b8281106123dc57505060208083836000838096600198010152601f8019910116010197019301940192919390612383565b806020809284010151828287010152016123ab565b3461031e57602036600319011261031e5760043567ffffffffffffffff811161031e573660238201121561031e5780600401359067ffffffffffffffff821161031e573660248360051b8301011161031e5761056b9160246124539201613494565b6040519182918261235e565b606036600319011261031e57612473610308565b602435604435612481613d36565b60008051602061441583398151915254610d7257801515908161289e575b50610d57573415610d35576004546001600160a01b03838116939116908184811461288d57803b1561031e57600060049160405192838092630d0e30db60e41b825234905af1801561059e57612878575b5060025461251290349061250c906001600160a01b0316610441565b84614299565b600154612527906001600160a01b0316610441565b6040516341976e0960e01b81526001600160a01b03841660048201529190602083602481845afa92831561059e57600093612857575b506040516341976e0960e01b81526001600160a01b038316600482015290602090829060249082905afa90811561059e57600091612838575b506125a48184348588613e52565b6002546125b9906001600160a01b0316610441565b604051633c2e3e7b60e11b81526001600160a01b03871660048201529094602082602481895afa91821561059e57612603926125fc9160009161056f5750613143565b903461380f565b604051630fa6707960e21b81526001600160a01b0385166004820152909490602081602481855afa90811561059e57600091612819575b50604051633c2e3e7b60e11b81526001600160a01b038616600482015291602090839060249082905afa90811561059e5761268c9461120361268593899560009161056f5750613143565b9184613fa7565b938410611391576002546126a8906001600160a01b0316610441565b6040516378ca3b7160e11b81526001600160a01b038316600482015260248101869052602081604481855afa90811561059e576000916127fa575b5015610cf5576020604051809263ac85dca760e01b82528160008161270d34308c60048501613296565b03925af1801561059e576127dd575b50600254612732906001600160a01b0316610441565b92833b1561031e576000604051809563a6c29ca360e01b825281838161275d8b338a60048501613296565b03925af191821561059e5761056b96610c279587946127c8575b506040517fab06313637ec959a5d89f14a6be0f060979206219814eee5ed4d74dc7525ba203391806127bd88348360409060019294936060820195825260208201520152565b0390a3349133613d72565b80610c7960006127d793610e5f565b38612777565b6127f59060203d6020116105cb576105bc8183610e5f565b61271c565b612813915060203d602011610d2e57610d208183610e5f565b386126e3565b612832915060203d6020116105cb576105bc8183610e5f565b3861263a565b612851915060203d6020116105cb576105bc8183610e5f565b38612596565b61287191935060203d6020116105cb576105bc8183610e5f565b913861255d565b80610c79600061288793610e5f565b386124f0565b63b1da559360e01b60005260046000fd5b905042113861249f565b3461031e576128b6366103e5565b6001546000939192906128d1906001600160a01b0316610441565b6040516341976e0960e01b81526001600160a01b038416600482015293909290602085602481875afa94851561059e57600095612b22575b506040516341976e0960e01b81526001600160a01b038416600482015293602090859060249082905afa93841561059e57600094612afd575b5080612954858761296f948787613e52565b600254909690602090611ef7906001600160a01b0316610441565b0381875afa92831561059e57612990936112039160009161056f5750613143565b604051630fa6707960e21b81526001600160a01b038416600482015290939092602084602481865afa92831561059e576129fc94600094612ad9575b50604051633c2e3e7b60e11b81526001600160a01b03909216600483015290936020918591829081906024820190565b03915afa92831561059e57612a1c936112039160009161056f5750613143565b612a25826138ad565b90612a308285613762565b92612a3d60085460ff1690565b80612ad0575b612aa5575b50509061056b91612a69612a5c8386613573565b86612a9557600090613573565b94604051958695869192608093969594919660a084019784526020840152604083015260608201520152565b612a9f8782613762565b90613573565b612ab49295506009549061380f565b926101f48411612ac6575b3880612a48565b6101f49350612abf565b50811515612a43565b602092919450612af590833d85116105cb576105bc8183610e5f565b9390916129cc565b61296f919450612b1b9060203d6020116105cb576105bc8183610e5f565b9390612942565b612b3c91955060203d6020116105cb576105bc8183610e5f565b9338612909565b3461031e57600036600319011261031e57600a546040516001600160a01b039091168152602090f35b3461031e57608036600319011261031e57612b85610308565b604435602435606435612b96613d36565b60008051602061441583398151915254610d72578015159081612f49575b50610d57578015610d35576004546001600160a01b038481169491169190848314612f3857600154612bee906001600160a01b0316610441565b6040516341976e0960e01b81526001600160a01b03831660048201529290602084602481845afa93841561059e57600094612f17575b506040516341976e0960e01b81526001600160a01b038616600482015290602090829060249082905afa90811561059e57600091612ef8575b50612c6b8185848887613e52565b600254612c80906001600160a01b0316610441565b604051633c2e3e7b60e11b81526001600160a01b038616600482015290956020826024818a5afa91821561059e57612cc3926105439160009161056f5750613143565b604051630fa6707960e21b81526001600160a01b0388166004820152909590602081602481855afa90811561059e57600091612ed9575b50604051633c2e3e7b60e11b81526001600160a01b038916600482015291602090839060249082905afa90811561059e57612d4c94611203612d45938a9560009161056f5750613143565b9187613fa7565b94851061139157600254612d68906001600160a01b0316610441565b6040516378ca3b7160e11b81526001600160a01b038616600482015260248101879052602081604481855afa90811561059e57600091612eba575b5015610cf5576020604051809263ac85dca760e01b825281600081612dcd88338b60048501613296565b03925af1801561059e57612e9d575b50600254612df2906001600160a01b0316610441565b93843b1561031e5760405163171951bb60e31b815260048101879052336024820152946000908690604490829084905af192831561059e5761056b97610c27968895612e88575b506040517fab06313637ec959a5d89f14a6be0f060979206219814eee5ed4d74dc7525ba20339180612e7f888a8360409060009294936060820195825260208201520152565b0390a333613d72565b80610c796000612e9793610e5f565b38612e39565b612eb59060203d6020116105cb576105bc8183610e5f565b612ddc565b612ed3915060203d602011610d2e57610d208183610e5f565b38612da3565b612ef2915060203d6020116105cb576105bc8183610e5f565b38612cfa565b612f11915060203d6020116105cb576105bc8183610e5f565b38612c5d565b612f3191945060203d6020116105cb576105bc8183610e5f565b9238612c24565b633a77271560e11b60005260046000fd5b9050421138612bb4565b3461031e57602036600319011261031e57612f6c610308565b612f7533613af3565b600380546001600160a01b0319166001600160a01b039290921691821790557f3dd2b7e16ddea78bec31b5b95991ba3d03fda27bc5c8a8441775b76c8f88033e600080a2005b3461031e57604036600319011261031e57610021600435612fda610323565b90612ff661082682600052600060205260016040600020015490565b613ca9565b3461031e57600036600319011261031e57602060405160c88152f35b3461031e57600036600319011261031e5760206040516127108152f35b3461031e57604036600319011261031e5760043560243561305433613af3565b8181106130bf576005548281018091116108ce578181018091116108ce5760c8106108bd57817f156699ae7fc09964e512732f0ef61b92ce929b9f26f55dc8fc6636cd2cf30954926006558160075561072d6040519283928360209093929193604081019481520152565b63305ea8a960e01b60005260046000fd5b3461031e57600036600319011261031e576002546040516001600160a01b039091168152602090f35b9081602091031261031e575190565b6040513d6000823e3d90fd5b9081602091031261031e575160ff8116810361031e5790565b634e487b7160e01b600052601160045260246000fd5b60ff16604d81116108ce57600a0a90565b919082018092116108ce57565b9193926001600160a01b039092169190821561101e576001600160a01b0316801561101e576001600160a01b0385161561101e576001600160a01b0384161561101e5761327b94613207613224926131ea613246966131cd60016000805160206143f583398151915255565b60018060a01b03166001600160601b0360a01b6001541617600155565b60018060a01b03166001600160601b0360a01b6002541617600255565b60018060a01b03166001600160601b0360a01b6004541617600455565b600380546001600160a01b0319166001600160a01b0392909216919091179055565b6132506014600655565b61325a6032600755565b6132646064600955565b613276600160ff196008541617600855565b6139af565b50565b9081602091031261031e575161329381611925565b90565b6001600160a01b03918216815291166020820152604081019190915260600190565b307f00000000000000000000000000000000000000000000000000000000000000006001600160a01b0316146133bc576132f133613af3565b6040516352d1902d60e01b81526020816004816001600160a01b0386165afa6000918161339b575b5061332f5763340aafcd60e11b60005260046000fd5b7f360894a13ba1a3210667c828492db98dca3e2076cc3735a920a3ca505d382bbc0361338a5761335e81614339565b8151918261336b57505050565b613388926000926020849301905af4613382613450565b50613e10565b565b63340aafcd60e11b60005260046000fd5b6133b591925060203d6020116105cb576105bc8183610e5f565b9038613319565b6309e1070b60e31b60005260046000fd5b67ffffffffffffffff8111610e815760051b60200190565b634e487b7160e01b600052603260045260246000fd5b919081101561343d5760051b81013590601e198136030182121561031e57019081359167ffffffffffffffff831161031e57602001823603811361031e579190565b6133e5565b908092918237016000815290565b3d1561347b573d9061346182610e86565b9161346f6040519384610e5f565b82523d6000602084013e565b606090565b805182101561343d5760209160051b010190565b9190916134a0836133cd565b906134ae6040519283610e5f565b838252601f196134bd856133cd565b0160005b818110613553575050819360005b8181106134dc5750505050565b6000806134ea8385876133fb565b906134fa60405180938193613442565b0390305af4613507613450565b901561352d579060019161351b8287613480565b526135268186613480565b50016134cf565b908151918261354c5763750ebb7d60e01b600052600482905260246000fd5b6020915001fd5b8060606020809387010152016134c1565b6000198101919082116108ce57565b919082039182116108ce57565b6004546001600160a01b0316330361359457565b633d2cec6f60e21b60005260046000fd5b604d81116108ce57600a0a90565b818102929181159184041417156108ce57565b81156135d0570490565b634e487b7160e01b600052601260045260246000fd5b6002546136309591949290602090613606906001600160a01b0316610441565b604051633c2e3e7b60e11b81526001600160a01b0390971660048801529596879081906024820190565b0381885afa94851561059e576136789660009661373e575b50604051633c2e3e7b60e11b81526001600160a01b03909216600483015290956020918791829081906024820190565b03915afa92831561059e5761329395600094613712575b5061369d60ff9283926137dc565b931693168381116136fa575b81938181116136cd575b5050506136c3826136c892613154565b613564565b6135c6565b6136c8939450916136ec6136e76136f2936136c395613573565b6135a5565b906135b3565b9291386136b3565b9161370c906136ec6136e78686613573565b916136a9565b60ff928392955061373461369d9260203d602011610597576105898183610e5f565b959250925061368f565b60209291965061375a90833d8511610597576105898183610e5f565b959091613648565b600019828209828202918280831092039180830392146137d1576127108210156137c0577fbc01a36e2eb1c432ca57a786c226809d495182a9930be0ded288ce703afb7e9193612710910990828211900360fc1b910360041c170290565b631a93c68960e11b60005260046000fd5b506127109250500490565b600019828209918082029283808210910390808214613808576001910310156137c05760019109900390565b5050505090565b91801561389c57600019828409928281029283808610950394808603951461388f57828510156137c057829109816000038216809204600281600302188082026002030280820260020302808202600203028082026002030280820260020302809102600203029360018380600003040190848311900302920304170290565b50509061329392506135c6565b6323d359a360e01b60005260046000fd5b69152d02c7e14af68000008110156138e85769021e19e0c9bab240000011156138d65760055490565b60055460065481018091116108ce5790565b5060055460065481018091116108ce5760075481018091116108ce5790565b6001600160a01b03811660009081526000805160206143d5833981519152602052604090205460ff161561393b5750600090565b6001600160a01b03811660009081526000805160206143d583398151915260205260409020805460ff1916600117905533906001600160a01b03166000805160206143b58339815191527f2f8788117e7eff1d82e926ec794901d17c78024a50270940304540a733656f0d600080a4600190565b6001600160a01b03811660009081527fad3228b676f7d3cd4284a5443f17f1962b36e491b30a40b2405849e597ba5fb5602052604090205460ff16156139f55750600090565b6001600160a01b031660008181527fad3228b676f7d3cd4284a5443f17f1962b36e491b30a40b2405849e597ba5fb560205260408120805460ff191660011790553391907f2f8788117e7eff1d82e926ec794901d17c78024a50270940304540a733656f0d8180a4600190565b6000818152602081815260408083206001600160a01b038616845290915290205460ff1615613a92575050600090565b6000818152602081815260408083206001600160a01b03861684529091529020805460ff1916600117905533916001600160a01b0316907f2f8788117e7eff1d82e926ec794901d17c78024a50270940304540a733656f0d600080a4600190565b6001600160a01b03811660009081527fad3228b676f7d3cd4284a5443f17f1962b36e491b30a40b2405849e597ba5fb5602052604090205460ff1615613b365750565b62b0d32560e11b60005260018060a01b0316600452600060245260446000fd5b6001600160a01b03811660009081526000805160206143d5833981519152602052604090205460ff1615613b875750565b62b0d32560e11b60009081526001600160a01b03919091166004526000805160206143b5833981519152602452604490fd5b9081600052600060205260ff613be58260406000209060018060a01b0316600052602052604060002090565b541615613bf0575050565b62b0d32560e11b60005260018060a01b031660045260245260446000fd5b6001600160a01b03811660009081526000805160206143d5833981519152602052604090205460ff16613c415750600090565b6001600160a01b031660008181526000805160206143d583398151915260205260408120805460ff191690553391906000805160206143b5833981519152907ff6391f5c32d9c69d2a47ea670b442974b53935d1edc7fd64eb21e047a839171b9080a4600190565b6000818152602081815260408083206001600160a01b038616845290915290205460ff16613cd8575050600090565b6000818152602081815260408083206001600160a01b03861684529091529020805460ff1916905533916001600160a01b0316907ff6391f5c32d9c69d2a47ea670b442974b53935d1edc7fd64eb21e047a839171b600080a4600190565b60026000805160206143f58339815191525414613d615760026000805160206143f583398151915255565b633ee5aeb560e01b60005260046000fd5b6003549195909493916001600160a01b03168015613e07576001600160a01b031692833b1561031e576040516340f0093b60e11b81526001600160a01b039687166004820152968616602488015290941660448601526064850152608484019190915260a4830191909152600090829060c490829084905af1801561059e57613df85750565b80610c79600061338893610e5f565b50505050505050565b15613e1757565b60405162461bcd60e51b81526020600482015260136024820152721d5c19dc985919481a5b9a5d0819985a5b1959606a1b6044820152606490fd5b9192613e9994916020613e6f61044160025460018060a01b031690565b604051633c2e3e7b60e11b81526001600160a01b0390961660048701529496879081906024820190565b0381875afa93841561059e57613ee096600095613f835750604051633c2e3e7b60e11b81526001600160a01b03909216600483015290956020918791829081906024820190565b03915afa93841561059e5761329395600095613f57575b50613f0560ff9283926137dc565b93169316838111613f3f575b8193818111613f23575b5050506135c6565b613f369394506136ec916136e791613573565b90388080613f1b565b91613f51906136ec6136e78686613573565b91613f11565b60ff9283929650613f79613f059260203d602011610597576105898183610e5f565b9692509250613ef7565b602092919550613f9f90833d8511610597576105898183610e5f565b949091613648565b91909392613fb4826138ad565b94613fc9613fc28783613762565b8092613573565b95816140a2575b505060085460ff1680614099575b613fe757505050565b600954613ff39261380f565b6101f48111614090575b80614006575050565b7f2c967c87f38e293c4c2df8277028656cf8d42c2f6b5c06cd97b53eaebc8f746661408b61404061403984889698613762565b8095613573565b6001600160a01b0387166000908152600b60205260409020909690614066868254613154565b90556040805194855260208501959095526001600160a01b0316933393918291820190565b0390a3565b506101f4613ffd565b50801515613fde565b6001600160a01b0385166000908152600b602052604090206140c5838254613154565b90556040805185815260208101929092528101919091526001600160a01b0384169033907f2e5d94e9d6c18964a316947fbe6368a89eae77275308006b99685ed7624d33b390606090a33880613fd0565b6001600160a01b039182168152918116602083015290911660408201526060810191909152608081019190915290151560a082015260c081019190915260e00190565b91929460018060a01b03600354168015613e07576001600160a01b031692833b1561031e576141a5600096928780946040519a8b998a988997630bd48b3960e31b895260048901614116565b03925af1801561059e576141b65750565b806141c360008093610e5f565b80031261031e57565b91929460018060a01b03600354168015613e07576001600160a01b031692833b1561031e576141a560009692600188946040519a8b998a988997630bd48b3960e31b895260048901614116565b9092919261422f614229826138ad565b83613762565b82039182116108ce57819360ff6008541680614290575b61424f57505050565b60095461425b9261380f565b6101f48111614287575b8061426e575050565b8161427b92939450613762565b81039081116108ce5790565b506101f4614265565b50801515614246565b60405163095ea7b360e01b602082019081526001600160a01b0393909316602482015260448082019490945292835260009283929083906142db606482610e5f565b51925af16142e7613450565b9015908115614309575b506142f857565b633e3f8f7360e01b60005260046000fd5b805180151592508261431e575b5050386142f1565b614331925060208091830101910161327e565b153880614316565b803b1561338a577f360894a13ba1a3210667c828492db98dca3e2076cc3735a920a3ca505d382bbc8190556001600160a01b03167fbc7cd75a20ee27fd9adebab32041f755214dbc6bffa90cc0225b39da2e5c2d3b600080a256fe4377386e2795aba8c0ce23a1e6e67bac790e4b4166f14b7e9365049ab946f8c02dca0f5ce7e75a4b43fe2b0d6f5d0b7a2bf92ecf89f8f0aa17b8308b6703882192227d48d66cabccdfe59bda1e8cb95f286820615128bd3f8666d1f5ec8b70aa9b779b17422d0df92223018b32b4d1fa46e071723d6817e2486d003becc55f0062e78cea01bee320cd4e420270b5ea74000d11b0c9f74754ebdbfc544b05a258a2646970667358221220283a26388456462e3e519115de913f88897108821512b44198753b36c8a9c7e064736f6c634300081b00334377386e2795aba8c0ce23a1e6e67bac790e4b4166f14b7e9365049ab946f8c0",
  "linkReferences": {},
  "deployedLinkReferences": {}
}