{
  "_format": "hh-sol-artifact-1",
  "contractName": "ReserveLibWrapper",
  "sourceName": "contracts/test/ReserveLibWrapper.sol",
  "abi": [
    {
      "inputs": [],
      "name": "DivisionByZero",
      "type": "error"
    },
    {
      "inputs": [],
      "name": "InsufficientInput",
      "type": "error"
    },
    {
      "inputs": [],
      "name": "InsufficientLiquidity",
      "type": "error"
    },
    {
      "inputs": [],
      "name": "Overflow",
      "type": "error"
    },
    {
      "inputs": [
        {
          "internalType": "uint256",
          "name": "reserveIn",
          "type": "uint256"
        },
        {
          "internalType": "uint256",
          "name": "reserveOut",
          "type": "uint256"
        },
        {
          "internalType": "uint256",
          "name": "amountOut",
          "type": "uint256"
        }
      ],
      "name": "getAmountIn",
      "outputs": [
        {
          "internalType": "uint256",
          "name": "",
          "type": "uint256"
        }
      ],
      "stateMutability": "pure",
      "type": "function"
    },
    {
      "inputs": [
        {
          "internalType": "uint256",
          "name": "reserveIn",
          "type": "uint256"
        },
        {
          "internalType": "uint256",
          "name": "reserveOut",
          "type": "uint256"
        },
        {
          "internalType": "uint256",
          "name": "amountIn",
          "type": "uint256"
        }
      ],
      "name": "getAmountOut",
      "outputs": [
        {
          "internalType": "uint256",
          "name": "",
          "type": "uint256"
        }
      ],
      "stateMutability": "pure",
      "type": "function"
    },
    {
      "inputs": [
        {
          "internalType": "uint256",
          "name": "virtualUsdl",
          "type": "uint256"
        },
        {
          "internalType": "uint256",
          "name": "realUsdl",
          "type": "uint256"
        }
      ],
      "name": "getEffectiveReserves",
      "outputs": [
        {
          "internalType": "uint256",
          "name": "",
          "type": "uint256"
        }
      ],
      "stateMutability": "pure",
      "type": "function"
    },
    {
      "inputs": [
        {
          "internalType": "uint256",
          "name": "effectiveUsdl",
          "type": "uint256"
        },
        {
          "internalType": "uint256",
          "name": "tokenReserve",
          "type": "uint256"
        },
        {
          "internalType": "uint256",
          "name": "totalSupply",
          "type": "uint256"
        }
      ],
      "name": "getMarketCap",
      "outputs": [
        {
          "internalType": "uint256",
          "name": "",
          "type": "uint256"
        }
      ],
      "stateMutability": "pure",
      "type": "function"
    },
    {
      "inputs": [
        {
          "internalType": "uint256",
          "name": "effectiveUsdl",
          "type": "uint256"
        },
        {
          "internalType": "uint256",
          "name": "tokenReserve",
          "type": "uint256"
        }
      ],
      "name": "getPrice",
      "outputs": [
        {
          "internalType": "uint256",
          "name": "",
          "type": "uint256"
        }
      ],
      "stateMutability": "pure",
      "type": "function"
    }
  ],
  "bytecode": "0x60808060405234601557610395908161001b8239f35b600080fdfe6080604052600436101561001257600080fd5b60003560e01c8063054d50d4146101515780631b5f372a14610138578063443d5ec2146101165780635cf4ee91146100f5576385f8c2591461005357600080fd5b346100f0576100613661019b565b9182156100df57801580156100d7575b6100c657818310156100c65782610087916101cb565b9181039081116100b05761009a916101eb565b600181018091116100b057602090604051908152f35b634e487b7160e01b600052601160045260246000fd5b63bb55fd2760e01b60005260046000fd5b508115610071565b63f8b3bb6160e01b60005260046000fd5b600080fd5b346100f057602061010e610108366101b5565b9061020b565b604051908152f35b346100f057602061010e61013361012c3661019b565b929161020b565b61021e565b346100f057602061010e61014b366101b5565b906101de565b346100f05761015f3661019b565b909181156100df5780158015610193575b6100c65761018d8261018761010e946020966101cb565b926101de565b906101eb565b508215610170565b60609060031901126100f057600435906024359060443590565b60409060031901126100f0576004359060243590565b818102929181159184041417156100b057565b919082018092116100b057565b81156101f5570490565b634e487b7160e01b600052601260045260246000fd5b9080156100c65761021b916102aa565b90565b6000198282098282029182808310920391808303921461029957670de0b6b3a7640000821015610288577faccb18165bd6fe31ae1cf318dc5b51eee0e1ba569b88cd74c1773b91fac1066993670de0b6b3a7640000910990828211900360ee1b910360121c170290565b631a93c68960e11b60005260046000fd5b5050670de0b6b3a764000091500490565b811561034e57600019670de0b6b3a7640000820991670de0b6b3a7640000820291828085109403938085039414610342578184101561028857670de0b6b3a7640000829109816000038216809204600281600302188082026002030280820260020302808202600203028082026002030280820260020302809102600203029360018380600003040190848311900302920304170290565b509061021b92506101eb565b6323d359a360e01b60005260046000fdfea264697066735822122098aab08b87cb576e21aa54b85c6e37742bb50e7d53dcd18c9f3f2e6139ce2acb64736f6c634300081b0033",
  "linkReferences": {},
  "deployedLinkReferences": {}
}