{
  "_format": "hh-sol-artifact-1",
  "contractName": "MockPausable",
  "sourceName": "contracts/test/MockPausable.sol",
  "abi": [
    {
      "inputs": [],
      "name": "NotPaused",
      "type": "error"
    },
    {
      "inputs": [],
      "name": "Paused",
      "type": "error"
    },
    {
      "anonymous": false,
      "inputs": [
        {
          "indexed": false,
          "internalType": "bool",
          "name": "paused",
          "type": "bool"
        }
      ],
      "name": "PauseToggled",
      "type": "event"
    },
    {
      "inputs": [],
      "name": "emergencyAction",
      "outputs": [
        {
          "internalType": "bool",
          "name": "",
          "type": "bool"
        }
      ],
      "stateMutability": "nonpayable",
      "type": "function"
    },
    {
      "inputs": [],
      "name": "pause",
      "outputs": [],
      "stateMutability": "nonpayable",
      "type": "function"
    },
    {
      "inputs": [],
      "name": "paused",
      "outputs": [
        {
          "internalType": "bool",
          "name": "",
          "type": "bool"
        }
      ],
      "stateMutability": "view",
      "type": "function"
    },
    {
      "inputs": [
        {
          "internalType": "uint256",
          "name": "_val",
          "type": "uint256"
        }
      ],
      "name": "protectedAction",
      "outputs": [],
      "stateMutability": "nonpayable",
      "type": "function"
    },
    {
      "inputs": [],
      "name": "unpause",
      "outputs": [],
      "stateMutability": "nonpayable",
      "type": "function"
    },
    {
      "inputs": [],
      "name": "value",
      "outputs": [
        {
          "internalType": "uint256",
          "name": "",
          "type": "uint256"
        }
      ],
      "stateMutability": "view",
      "type": "function"
    }
  ],
  "bytecode": "0x6080806040523460155761024e908161001b8239f35b600080fdfe608080604052600436101561001357600080fd5b60003560e01c90816329502724146101c9575080633f4ba83a146101535780633fa4f245146101355780635c975abb146101085780638456cb59146100a457639db6c7dc1461006157600080fd5b3461009f57602036600319011261009f576000805160206101f98339815191525461008e57600435600055005b6313d0ff5960e31b60005260046000fd5b600080fd5b3461009f57600036600319011261009f576000805160206101f98339815191525461008e5760016000805160206101f9833981519152557f9077d36bc00859b5c3f320310707208543dd35092cb0a0fe117d0c6a558b148b602060405160018152a1005b3461009f57600036600319011261009f5760206000805160206101f9833981519152546040519015158152f35b3461009f57600036600319011261009f576020600054604051908152f35b3461009f57600036600319011261009f576000805160206101f983398151915254156101b85760006000805160206101f9833981519152557f9077d36bc00859b5c3f320310707208543dd35092cb0a0fe117d0c6a558b148b602060405160008152a1005b636cd6020160e01b60005260046000fd5b3461009f57600036600319011261009f576000805160206101f983398151915254156101b85780600160209252f3fe62e78cea01bee320cd4e420270b5ea74000d11b0c9f74754ebdbfc544b05a258a2646970667358221220ad6ee2d920086b3818b1f6e41e7020f404a52590978f2b3871911d621d1d162864736f6c634300081b0033",
  "linkReferences": {},
  "deployedLinkReferences": {}
}